:020000040800F2
:1000000000500020496D0008916D0008916D0008B6
:10001000916D0008916D0008916D000800000000CE
:10002000000000000000000000000000916D0008CA
:10003000916D000800000000916D00080F58000845
:10004000916D0008916D0008916D0008916D000898
:10005000916D0008916D0008E5590008EB59000802
:10006000F1590008F7590008FD590008916D000882
:10007000916D0008916D0008916D0008916D000868
:10008000916D0008916D0008916D0008916D000858
:10009000916D0008916D0008916D0008035A0008E9
:1000A000916D000885530008916D00089953000870
:1000B0009D530008B1530008C5530008491F0008AC
:1000C000551F0008611F00086D1F0008916D000892
:1000D000916D00088165000899650008B565000804
:1000E0002B5A0008916D0008916D00080000000077
:1000F0000000000000000000000000000000000000
:0C01000000000000000000005FF808F1A3
:10010C00034613F8012B002AFBD1181A013870474B
:10011C0010B5054C237833B9044B13B10448AFF335
:10012C0000800123237010BD880000200000000017
:10013C000C7A000808B5034B1BB103490348AFF315
:10014C00008008BD000000008C0000200C7A000824
:10015C00024A136801331360704700BFC4000020CB
:10016C00024A136801331360704700BFC0000020BF
:10017C0038B505460C460B4A0B4913680B4801333E
:10018C00136006F08BFC2946084806F087FC0849EA
:10019C00064806F083FC2146BDE83840034806F0CB
:1001AC0093BC00BFC8000020247A000890030020F4
:1001BC00267A0008012A02D1016000207047022A29
:1001CC0005D0032AF9D0002AF7D10260F5E70B68B5
:1001DC000360F2E7036818470368C9B21B68184745
:1001EC00836810B5044613B1032201469847204694
:1001FC0010BD000010B5044689B10B4A0B491368B9
:10020C000B480133136006F049FC2146084806F000
:10021C0045FCBDE810400749054806F055BC1146A1
:10022C00BDE81040FFF7A4BFCC000020247A0008E2
:10023C00900300202F7A000800B9704700BF0138E6
:10024C00FAE7000030B501218BB0112006F0C4FD97
:10025C000121112006F01EFE112006F055FE431E52
:10026C005D424FF000014FF011005D4106F012FEAF
:10027C00112006F049FEB0FA80F40A4B6409DB68E1
:10028C0020219BB2CDE90043074A2B4602A806F079
:10029C007FFF064802AA05EA0401FFF7ABFF0BB08B
:1002AC0030BD00BF00100140367A00084B7A0008C0
:1002BC0008B50A490A4806F0F1FB0A4B0A4AD3F87A
:1002CC0000180A4B11F0800F18BF1A46BDE8084001
:1002DC000748C1F3C011FFF78DBF00BF647A000857
:1002EC009003002000300140587A0008507A000832
:1002FC007A7A000810B5134A88B0D2F81438642002
:10030C0043F00403C2F81438A523C2F80438FFF7ED
:10031C0093FFD2F80448D2F81438E4B223F0040363
:10032C00C2F81438202123466846074A06F030FFED
:10033C00A4F1A50359426A4604485941FFF75AFFF4
:10034C0008B010BD00300140837A00088C7A000898
:10035C0010B5094B92B01C685B6840210093074AAA
:10036C00234602A806F014FF054802AAC4F3400174
:10037C00FFF740FF12B010BD001002409A7A00083F
:10038C00AC7A0008252130B5104A93B0136811607F
:10039C000F491568516001F188315160D4684021D2
:1003AC00CDE900540B4A02A806F0F2FEC4F3C011CA
:1003BC0081F00101252D14BF002101F00101064837
:1003CC0002AAFFF717FF13B030BD00BF0020024098
:1003DC0023016745B07A0008C77A000810B50E4AA9
:1003EC0092B0D369402143F08053D3614FF48073B2
:1003FC00A2F5D03213601468536802A80093074A20
:10040C00234606F0C5FE064802AAC4F30021FFF7F6
:10041C00F1FE12B010BD00BF00100240CD7A0008F2
:10042C00DE7A0008F0B54AF2A55445F65A26114A70
:10043C0093B0D369402143F00063D361A2F5D83265
:10044C00C2F8104CC2F8146CD2F8105CD2F8147CC0
:10045C002B46094A009702A806F09AFEB74208BF3D
:10046C00A54206480CBF0121002102AAFFF7C2FEDB
:10047C0013B0F0BD00100240E27A0008F47A0008D4
:10048C0045F2555370B50F4A92B040F6FF751360A4
:10049C0000235360956054689668D3684021CDE979
:1004AC000063094A234602A806F072FEAE4208BF5A
:1004BC00002C06480CBF0121002102AAFFF79AFE6E
:1004CC0012B070BD00300040F87A00080B7B0008B9
:1004DC0070B5164A92B0D36940F2FF3543F400630D
:1004EC00D3615023A2F5F832C2F8045CC2F8003C88
:1004FC00D2F8046CD2F8004CD2F8083C4021CDE97B
:10050C0000430B4A334602A806F042FEAE420BD122
:10051C0004F07F01A1F1500359425941054802AA48
:10052C00FFF768FE12B070BD0021F7E70010024023
:10053C00107B0008237B000830B5154A93B0D369B3
:10054C00402143F40073D3610022124B02A8C3F87C
:10055C0018284222C3F81C28D3F81828D3F81C48B2
:10056C00D3F80458A4B244EA024423460A4A00953C
:10057C0006F00EFEC5F34011422C14BF002101F011
:10058C000101064802AAFFF735FE13B030BD00BFCB
:10059C000010024000200040287B00083A7B000835
:1005AC0030B5114A93B05369402143F04003536175
:1005BC00012302F500529360002314681360156840
:1005CC0023460A4A009502A806F0E2FD08490948AC
:1005DC008D4208BFB4F1FF3F02AA0CBF01210021DC
:1005EC00FFF708FE13B030BD001002403E7B000840
:1005FC007BDD04C7557B000810B50E4A88B0D36963
:10060C00202143F00053D3614FF400620A4B68463B
:10061C00C3F80824D3F82C44084A234606F0B8FD46
:10062C00A4F5006359426A4605485941FFF7E2FDBB
:10063C0008B010BD0010024000700040597B00084B
:10064C00637B000810B5C02088B006F0AFFB0446F1
:10065C00034620216846064A06F09AFD211E6A468A
:10066C0018BF01210348FFF7C5FD08B010BD00BF3E
:10067C00677B0008707B000830B5144A93B093690F
:10068C00402143F0010393614FF48042104B02A8C8
:10069C005A6010225D685A615C690E4A2B460094C0
:1006AC0005F4C04506F074FDB5F5804F0BD104F090
:1006BC00F001A1F1100359425941074802AAFFF772
:1006CC0099FD13B030BD0021F7E700BF00100240C8
:1006DC0000000140747B00088B7B00081FB50023D1
:1006EC000193114B69460093104B04220393104B5A
:1006FC00C020029306F028FA6846FFF771FD01222C
:10070C000C4B0D48C3F81024D3F814140B4B11F0F8
:10071C00010F0B4A18BF1A4601F0010105B05DF834
:10072C0004EBFFF767BD00BF6D010008E101000895
:10073C00C101000800000140AE7B0008907B00085E
:10074C00A27B000830B5274B93B0DA69264942F0FA
:10075C000072DA619A69642042F008029A61234AB5
:10076C00D2F8003423F00103C2F80034FFF764FD23
:10077C00D2F804340120C2F81C140021C2F800067F
:10078C00C2F80416C2F80C06C2F84016C2F81C06D1
:10079C0000F1115000F50010C2F80016C2F88005E7
:1007AC000220C2F884054DF6AD60C2F88805C2F887
:1007BC008C15D2F80854D2F81C464021CDE90054CF
:1007CC000B4A02A805F0011506F0E2FCB5F1011F79
:1007DC0018BF0024074802AA04F00101FFF70AFD24
:1007EC0013B030BD00100240010034010060004025
:1007FC00B77B0008D37B00082DE9F04701219AB0A4
:10080C00C42006F0E9FA0121C42006F043FB0121C3
:10081C00C12006F0E1FA0121C12006F03BFB0121C9
:10082C00C22006F0D9FA0121C22006F033FB0021C8
:10083C005B4800F0C3FC4FF47A70FFF7FDFC00211D
:10084C00C42006F027FB00229F21554800F0CCFC69
:10085C00002205461146524800F0C6FC002206460E
:10086C0011464F4800F0C0FC01210746C42006F099
:10087C0011FBEF2D40F08F80162F08BF402E0CBFC0
:10088C004FF001084FF00008AA23464C00212370BA
:10089C00552363701123A3702223C420E37006F048
:1008AC00F9FA002206213E4800F09EFC00220221AB
:1008BC003B4800F099FC00223948114600F094FCAA
:1008CC0000223748114600F08FFC002234481146B4
:1008DC0000F08AFC4FF00009002214F8011B30488C
:1008EC0009F1010900F080FCB9F1040FF4D10121E8
:1008FC00C42006F0CFFA0021C42006F0CBFA002267
:10090C000321274800F070FC00222548114600F016
:10091C006BFC00222248114600F066FC0022DFF836
:10092C0088A011461E4800F05FFC4FF000095446A9
:10093C0000221B48114600F057FC09F10109B9F1DE
:10094C00040F0AF8010BF3D10121C42006F0A2FA1E
:10095C0023786278AA2BA178E0781FD1552A1DD173
:10096C00112908BF22280CBF01240024CDE9041052
:10097C00CDE9023250212B46CDE900670B4A06A87F
:10098C0006F006FC0A4806AA08EA0401FFF732FC46
:10099C001AB0BDE8F0874FF0000875E70024E5E7D2
:1009AC00D0000020BC000020B8000020D77B00083D
:1009BC00FE7B000810B53C21244800F085FE002188
:1009CC002248FFF709FCAE212048FFF705FC1F4821
:1009DC0000F09FFF3C211D4800F076FE00211B48D3
:1009EC00FFF7FAFB81211948FFF7F6FBCF211748D7
:1009FC00FFF7F2FB154800F08CFF3C21134800F088
:100A0C0063FE00211148FFF7E7FBAF210F48FFF70A
:100A1C00E3FB0E4800F07DFF3C210C4800F054FE37
:100A2C0040210A48FFF7D8FB2024FF210748FFF795
:100A3C00D3FB013CF9D1054800F06BFFBDE8104039
:100A4C000121034A0348FFF7D5BB00BF4401002036
:100A5C00087C00081C7C000810B50021C12006F0A1
:100A6C0019FA0022FB210B4800F0BEFB8024002267
:100A7C00FF21084800F0B8FB013CF8D10121C1204E
:100A8C0006F008FABDE810400121034A0348FFF7BD
:100A9C00B1BB00BFD00000202B7C00085B7C0008A1
:100AAC002DE9F043022195B0C32006F095F9002101
:100ABC00C22006F0EFF900229021334800F094FB9D
:100ACC0000223148114600F08FFB0022814611466E
:100ADC002D4800F089FB00220746D0212A4800F05F
:100AEC0083FB00222848114600F07EFB0022804642
:100AFC001146254800F078FB002206469421224836
:100B0C0000F072FB00222048114600F06DFB002221
:100B1C00044611461C4800F067FB01210546C22023
:100B2C0006F0B8F9C32006F0EFF9C5F3071545EA4E
:100B3C000415B0FA80F4C7F30717C6F3071647EA93
:100B4C00091746EA08163FB236B22DB2640933468D
:100B5C004021CDE901540D4A009704A806F018FB7A
:100B6C00B7F5006F0ED1B6F5006F0BD1002D14BF89
:100B7C00002104F00101064804AAFFF73BFB15B065
:100B8C00BDE8F0830021F6E7D00000205F7C000870
:100B9C00787C0008F0B5002193B0374800F080FF56
:100BAC004FF47A703C21FFF747FB334800F08CFD83
:100BBC00314800F0AEFE5021B0FA80F506462E48C2
:100BCC0000F082FD2C4800F0A4FE6D0904460028BC
:100BDC004CD15021284800F077FD21462648FFF7DC
:100BEC00FBFA21462448FFF7F7FA42212248FFF787
:100BFC00F3FA214800F08DFE50211F4800F064FDEF
:100C0C0021461D48FFF7E8FA21461B48FFF7E4FA96
:100C1C002146194800F003FE01225021164800F02D
:100C2C0075FE154800F09DFC18B3134800F09DFCB0
:100C3C000127C4B23B464021CDE900540F4A02A81B
:100C4C0006F0A6FA422C14BF002107F0010102AAFB
:100C5C000B48FFF7CFFA0B4B0B4A2946002E18BF57
:100C6C001A460A48FFF7C6FA13B0F0BD0027FF2456
:100C7C00E0E70127FBE700BF440100209E7C000851
:100C8C00B97C00088F7C0008847C0008BD7C0008BF
:100C9C0000B50121B1B0112006F09EF80121112000
:100CAC0006F0F8F84FF4E1310622314805F076FEF3
:100CBC00304A2F48D2F80C3823F02003C2F80C38F5
:100CCC0005F0F0FE2C492A4805F0FEFEFFF7BAFAB3
:100CDC00FFF7EEFAFFF70EFBFFF73AFBFFF752FBBD
:100CEC00FFF77CFBFFF79EFBFFF7CAFBFFF7F0FB60
:100CFC00FFF722FCFFF754FCFFF77EFCFFF7A2FC8A
:100D0C00FFF7BAFCFFF7EAFCFFF71CFDFFF774FDD9
:100D1C00FFF740FFFFF74EFEFFF79EFEFFF7C0FE0A
:100D2C004FF0804104A804F057FB012204A84FF4B3
:100D3C007A7104F0FBFA00230193104B694600937F
:100D4C000F4B04A803930F4B029304F08CFB6846E3
:100D5C00FFF746FA04A804F0F4F90B49044805F02F
:100D6C00B3FE04A804F054FA31B05DF804FB00BFE4
:100D7C009003002000300140C67C00085D01000893
:100D8C00E1010008C1010008017D000870B57F4C2D
:100D9C007F4D23688EB0013323602B782BBB7D49AC
:100DAC00087858B944237C4A13707C4B58647C48AF
:100DBC00D8641A6501229A645A640A707749886C5F
:100DCC004A6C0B6802F0010250EA020125D1D902EB
:100DDC0023D53021734A02A806F0DAF901217248B2
:100DEC0002AAFFF707FA01232B70704D2A78002A0C
:100DFC003AD16A4B6E499A65694A1A66012259665C
:100E0C00DA6511229A654FF47A62D86DA8B1013A6D
:100E1C0013D00A20FFF710FAF7E721680829E4D964
:100E2C00CDE9002330210346624A02A806F0B0F94E
:100E3C005D4802A9FFF79CF9D5E718685E4B1A7854
:100E4C000132D2B21A700B78412B73D1CDE900204C
:100E5C0030215A4A02A806F09BF90121584802AAEF
:100E6C00FFF7C8F901232B70564E3378D3B92B7882
:100E7C00C3B1554A5548D2F80C3843F02003C2F898
:100E8C000C3805F007FC00286BDD504805F0D4FD4C
:100E9C00422803465BD101214D4A4E48FFF7AAF97F
:100EAC00012333704C4D2B7883B94C4B1A68002AB4
:100EBC005CD020214A4A1B6802A806F069F901217E
:100ECC00484802AAFFF796F901232B70464D2B7860
:100EDC0083B9464B1A68002A50D02021404A1B681F
:100EEC0002A806F055F90121414802AAFFF782F940
:100EFC0001232B703F4E3378D3B906F043F80546E7
:100F0C004EF66020FFF798F906F03CF804463021C5
:100F1C002B46394A009002A806F03AF9A5422CBF9C
:100F2C0000210121354802AAFFF764F9012333702F
:100F3C000EB070BD282A97D900923021304A02A8F1
:100F4C0006F026F91E4802A9FFF712F98AE72021BC
:100F5C002C4A02A806F01CF902A91E48FFF708F952
:100F6C009EE723683C2B9DD92749F6E72368282B5D
:100F7C00ACD926491B48FFF7FBF8A5E72368282BBB
:100F8C00B8D922491A48FFF7F3F8B1E7A4000020BA
:100F9C00B2000020B3000020B4000020000002408A
:100FAC0004380140537D0008687D0008AC00002027
:100FBC00AE0000206F7D0008AD000020887D000889
:100FCC00A47D0008AB0000200030014090030020FD
:100FDC00BE7D0008D17D0008AA000020C4000020BE
:100FEC00FD7D0008077E0008A9000020C00000203D
:100FFC002B7E0008A8000020347E0008427E0008EA
:10100C00AB7D0008D97D0008E47D0008137E000844
:10101C0000B58FB0FFF7BAFE154B1B7823B3154BF9
:10102C001B780BB3144B1B78F3B1144B1B78DBB14F
:10103C00134B1B78C3B1134B1B78ABB1124805F0A3
:10104C0031FD124B30211B68114A0093114B02A841
:10105C001B6806F09DF80C4802A905F035FD4FF40D
:10106C007A70FFF7E9F8FAE70FB05DF804FB00BF00
:10107C00AB000020AC000020AA000020A90000203A
:10108C00A8000020B200002090030020C80000201F
:10109C004A7E0008CC0000202DE9F0411C460123BB
:1010AC001646434A0D46C0E91B2300215C22074625
:1010BC00DDF8188006F0BBF8F3B2222B28D83D4A95
:1010CC0006F4E06652F823301E43EBB2222BFE6589
:1010DC0032D8384A05F4E06552F823301D43E3B2A8
:1010EC00222B3D663CD8334A04F4E06452F823309A
:1010FC001C435FFA88F2222A7C6645D82D4908F4F5
:10110C00E06351F8222013433846BB66BDE8F081FA
:10111C0006F0C002C02A0CD1C92B0AD8264B06F007
:10112C003F0253F82220234B06F4E06653F822309A
:10113C00CAE74FF0FF36C8E705F0C002C02A0CD151
:10114C00C92B0AD81C4B05F03F0253F82220194B2F
:10115C0005F4E06553F82230C0E74FF0FF35BEE7E9
:10116C0004F0C002C02A0CD1C92B0AD8124B04F0CF
:10117C003F0253F822200F4B04F4E06453F8223062
:10118C00B6E74FF0FF34B4E708F0C003C02B0CD126
:10119C00C92A0AD8084B08F03F0253F82210054A16
:1011AC0008F4E06352F82120ADE74FF0FF33ABE7D2
:1011BC0000093D008C8400086484000837B50123C5
:1011CC000D460022074980F85120C16680F8703026
:1011DC0080F8712080F87250009500F051F803B03F
:1011EC0030BD00BF00093D0007B5002A8DF807107F
:1011FC000DF107014FF001030CBF0A46002200F06D
:10120C007FF99DF8070003B05DF804FB232307B5B5
:10121C00C6220093C721C5230248FFF73DFF03B048
:10122C005DF804FBD000002091FAA1F3B3FA83F32C
:10123C0070B50D0E0F2691FAA1F1B1FA81F1445956
:10124C009B0006FA03F3890024EA03048A40224334
:10125C00425170BD0346074A10684BB1064A93428F
:10126C0001D103F015B8054A934201D103F000B83F
:10127C00704700BF280000200030014000380040BB
:10128C002DE9F74F0E4615461F460446002800F080
:10129C00F2809249006E04F059FE91498146E06D4E
:1012AC0004F054FE8F498346606E04F04FFE8E4965
:1012BC008046A06E04F04AFE8246B9F1000F00F0A1
:1012CC00DA80BBF1000F00F0D680B8F1000F00F00F
:1012DC00D2805946484604F060FE5146814640464D
:1012EC0004F05BFE01468046484604F056FEA065BD
:1012FC00B9F1000F00F0BF80B8F1000F00F0BB8017
:10130C00002800F0B880A26E9DF83030511C0CBF44
:10131C004FF400724FF48022002B14BF00234FF4C3
:10132C008273A26120606360FFF794FFB6EB500FED
:10133C0080F0A480B6EB900F80F0A280B6EBD00FBB
:10134C0080F0A080B6EB101F80F09E80B6EB501F93
:10135C0080F09C80B6EB901F80F09A80B6EBD01F8B
:10136C002CBF30233823E361002D00F09380022D35
:10137C0000F09280013D18BF012501236D00C4E9E6
:10138C0004530723E362B7FA87F300265B09DB01FA
:10139C00C4E908365149206EA660A662E66004F0E6
:1013AC00BDFD4F49E06D04F0B9FD4E49606E04F08F
:1013BC00B5FD2369B342636E18BF0125C3F3031255
:1013CC0008BF0225042A8CBF3046484903F00F039E
:1013DC0098BF51F82200464A022D52F8231091FA78
:1013EC00A1F24FEA1163B2FA82F2C6584FF00F0322
:1013FC004FEA820203FA02F391FAA1F2B2FA82F2F4
:10140C0003EA06034FEA820223FA02F34FEA11259C
:10141C0044D0042B02D10822FFF706FFC268012337
:10142C0022EA050295FAA5F5B5FA85F5AB4013430A
:10143C00C3602D49A06E04F071FD23682D4A9342C0
:10144C0035D12D4B9A6942F480529A619A6902F413
:10145C0080520092009ADA6842F48052DA60DA68BC
:10146C0022F48052DA60204603F019F822681368DF
:10147C0043F04003136003B0BDE8F08F002372E724
:10148C00082370E710236EE718236CE720236AE724
:10149C00282368E72B4672E7002370E7042B02D160
:1014AC000822FFF7C1FEC36823EA0503C0E7134A0D
:1014BC009342D8D1104BDA6942F48042DA61DA698E
:1014CC0002F480420192019A1A6942F480421A6134
:1014DC001A6922F480421A61C5E700BFE47F000854
:1014EC00B47F0008847F0008547F000808000020A7
:1014FC00FC7E000800300140001002400038004023
:10150C002DE9F0410D4616461C4633B3076800F032
:10151C0071FD8046BB689907FCD5D5B115F8013B28
:10152C003B73BB68DA07FCD53B7B0EB106F8013B7D
:10153C0000F060FDA0EB0800B0F57A7F04F1FF34F9
:10154C0009D2002CE6D12046BB681B06FCD4BDE8B2
:10155C00F081FF23E4E70120F6E70220F7E7002003
:10156C007047028BC08A101A70470346C28A018BDF
:10157C00914281BF0169885C0132DA8298BF4FF0D9
:10158C00FF307047028BC38A9A4286BF0269D05CD7
:10159C004FF0FF307047806DD0F8DC302BB100235A
:1015AC00D43020F8B23CC3681847704770B54FF47C
:1015BC007A730E460021C0E90113034615462B4AE7
:1015CC00044643F8C42BC0F8C4109C22C3E9011193
:1015DC00C0E93411C0E93611C0F8E010283005F02C
:1015EC0026FEF3B2222B19D8214A06F4E06652F8F3
:1015FC0023301E43EBB2222BC4F8846022D81C4A41
:10160C0005F4E06552F823301D4300232046C4F84E
:10161C008850E36123842361A38270BD06F0C0026D
:10162C00C02A0CD1C92B0AD8124B06F03F0253F832
:10163C0022200F4B06F4E06653F82230D9E74FF026
:10164C00FF36D7E705F0C002C02A0CD1C92B0AD847
:10165C00084B05F03F0253F82220054B05F4E065DA
:10166C0053F82230D0E74FF0FF35CEE7A47E0008C8
:10167C008C8400086484000838B50446283000F0D7
:10168C00DBFAE06918B105F097FC0023E361002553
:10169C002069258410B105F08FFC2561A58238BD29
:1016AC0038B505460446074B45F8D43BFFF7E4FF35
:1016BC002846FEF795FD04F1C400FEF791FD204687
:1016CC0038BD00BFA47E00080123994080F8243067
:1016DC00002381764384704738B5838A05468B4254
:1016EC000C4609D2202938BF20240069214605F078
:1016FC0019FD10B12861AC8238BDFEE773B5846D5D
:10170C000546D4F8CC30866EE3B1E28A238B9A423C
:10171C0018D331462046FFF7DFFF3246206905F12A
:10172C00740105F0C3FD0023E382D4F8CC3026838A
:10173C0001960BB906F060F9D4F8D03001A904F188
:10174C00C400984702B070BDB1F5806F70B5054606
:10175C000C4610D8038C99420AD920290E4638BF62
:10176C002026C069314605F0DDFC18B1E8612E84F5
:10177C00204670BDFEE70024FAE713B590F824303C
:10178C0004468DF807107BB1418C0131FFF7DCFF6B
:10179C0040B10120638C9DF80710E269D154638C31
:1017AC000133638402B010BD01220DF10701283012
:1017BC0000F080FAB0FA80F04009F3E770B590F8C9
:1017CC00243004460E46154693B1418C1144FFF764
:1017DC00BBFF10B90025284670BD638CE0692A4612
:1017EC001844314605F062FD638C2B446384F2E7A8
:1017FC0092B2283000F05EFA0028EBD1EBE70346FA
:10180C00006918B100219A8A05F011BD7047034692
:10181C00C06918B100211A8C05F009BD704738B5A4
:10182C000446D1B94FF42A03A36594F8BE30012BBA
:10183C0016D1638CE269A17E04F1280000F0BAFA9B
:10184C00042828BF0420C5B22046FFF7E0FF002380
:10185C00638484F82430284638BD4FF02A43E3E7EC
:10186C000425F8E72DE9F04790F8BEA00446BAF13C
:10187C00010F0F46154698469DF820609DF8249060
:10188C0039D111467F00FFF727FFFFB27EB100234D
:10189C00032E28BF032684F824A0A7766384013E78
:1018AC00F6B2FF2E1BD100212046FFF7B8FFB9F18D
:1018BC00000F1DD14FF42A03A36539462B4622692C
:1018CC0004F1280000F010FA002398422E461CBFA9
:1018DC001D462E462846E3822683BDE8F087236802
:1018EC00F10028FA01F120461B68C9B29847D6E7E7
:1018FC004FF02A43E0E70020EFE707B50193002300
:10190C000093FFF7AFFF03B05DF804FB0123FFF773
:10191C00F4BF0121FFF783BF38B500250446C5820B
:10192C000583FFF76CFF20466584FFF770FF38BD19
:10193C00F8B50446D0F8840005F08EF9002105F0C6
:10194C004BFAD4F88420C2F30313042B48D8284D47
:10195C00284E55F8233002F00F029B6856F82220CF
:10196C00DB4303EA12239BB2002B3FD0D4F8880050
:10197C0005F072F9012105F02FFA1F4BD4F88800FD
:10198C001B681E4CC0F30311B3FBF4F30A240429A7
:10199C0004FB03F300F00F0225D8142756F822207D
:1019AC00174CC2F30F2255F821C0CCF81420D4F8F0
:1019BC0004E06668A6EB0E06B342FADCCCF8102005
:1019CC00D4F804C06668A6EB0C06B342FADC013FFF
:1019DC00E9D105F041F93946BDE8F84005F0FCB90C
:1019EC0000239B68FFDE00235B61FBE7F8BD00BFB3
:1019FC0008000020FC7E00082800002040420F0058
:101A0C00001000E02DE9F04100250446C582058355
:101A1C001F460E469046FFF7F2FE20466584A576DB
:101A2C00FFF7F5FED4F8DC30C4F8804033B104F194
:101A3C00D401032208469847C4E937550023012EE8
:101A4C0084F824304FEA460384F825300CBF012378
:101A5C00002384F8BF8084F8BE3084F8C07002D1B3
:101A6C002046FFF765FF04F12805284694F8252049
:101A7C00084900F029F894F8BE304BB928460649BD
:101A8C0000F0F0F92846BDE8F041044900F0E3B954
:101A9C00BDE8F081A0860100A31500080917000815
:101AAC000A4600230121FFF7ADBF000003220221EB
:101ABC000148FFF77BBD00BF440100200148FFF740
:101ACC00EFBD00BF44010020F7B50D461746044694
:101ADC00002800F09F805049C06D04F037FA4F4940
:101AEC000646206E04F032FA0146002E00F0928079
:101AFC00002800F08F80304604F04FFA2060002858
:101B0C0000F08880464B261D984260D103F5DE33E9
:101B1C00DA6942F40012DA61DA6902F40012009216
:101B2C00009A1A6942F400121A611A6922F400121E
:101B3C001A6142F21F03A4F864303A4B1E60374915
:101B4C00206E04F0EBF93449E06D04F0E7F9364B04
:101B5C0021689D4258D9354B9D4203D9344B9D4247
:101B6C0088BF00234FF480420025C4E901134FF4D1
:101B7C008043C4E9053594F8973002215B1B18BFEC
:101B8C0001239B01236294F89830C4E903275B1B63
:101B9C0018BF0123DB0163622A4694F96400E561F6
:101BAC0084F8415000F092FD94F9640000F0BEFD01
:101BBC002A46022194F9650000F088FD94F965002D
:101BCC0000F0B4FD304600F0A3FFF8B1FEE7194B6E
:101BDC009842B4D103F5DC33DA6942F48002DA615D
:101BEC00DA6902F480020192019A1A6942F48002C5
:101BFC001A611A6922F480021A6142F22123A4F8B4
:101C0C006430084B5E609AE70022ADE70223A066C1
:101C1C0084F8953003B0F0BD3883000808830008C1
:101C2C000054004028020020A0860100801A060003
:101C3C0040420F000058004010B5044690F9640073
:101C4C0000F082FD94F9650000F07EFD201D01F08E
:101C5C0008F80321206E04F0A1F80321E06D04F0D4
:101C6C009DF82368104A93420DD1104B1A6942F427
:101C7C0000121A611A6922F400121A61DA6922F44C
:101C8C000012DA6110BD0A4A9342FBD1074B1A6964
:101C9C0042F480021A611A6922F480021A61DA692C
:101CAC0022F48002EDE700BF005400400010024017
:101CBC0000580040202A30B514D800239CB2A24210
:101CCC0007D890F894301344DBB280F8943000209D
:101CDC0030BD90F89440CD5C1C44044484F874509E
:101CEC000133EBE70120F3E72DE9F34705460F46F7
:101CFC009046994600F07EF900240646D5F830A0AF
:101D0C0004354B46424639462846CDF800A001F032
:101D1C00D5F8022806D100F06DF9841B642CF0D99B
:101D2C0006201FE008BB00F065F90646284602F0C5
:101D3C003BF8202809D0632C07D800F05BF9841BF2
:101D4C00284602F034F80028F0D0284602F02FF88C
:101D5C00632C0CD882060AD443070AD4003818BF67
:101D6C000120800002B0BDE8F0870420FAE70520CE
:101D7C00F8E70320F6E710B564230446043000F0BE
:101D8C0089FF022810D0032806D090B194F8413076
:101D9C00202B18BF042004E094F84130202B18BFEE
:101DAC00052008BF022004E094F84130202B18BF16
:101DBC00062010BD2DE9F34704460E4691461F46FA
:101DCC0000F018F980463FB901223146204602B096
:101DDC00BDE8F047FFF7CFBF0025D4F830A004349E
:101DEC003B464A4631462046CDF800A000F0FEFFA7
:101DFC00022807D100F0FEF8A0EB0805642DEFD9FE
:101E0C0006201FE008BB00F0F5F80646204601F05E
:101E1C00CBFF202809D0632D07D800F0EBF8851BE9
:101E2C00204601F0C4FF0028F0D0204601F0BFFF8F
:101E3C00632D0CD882060AD443070AD4003818BF85
:101E4C000120800002B0BDE8F0870420FAE70520ED
:101E5C00F8E70320F6E720B119B1C166043001F0B0
:101E6C0029B9704720B119B10167043001F022B9CA
:101E7C00704770B590F891300446012B0D46A0F1D7
:101E8C00040609D1436E3BB1836E3046984702235A
:101E9C0084F89130002363668DB9E36E84F8915019
:101EAC001BB1304684F890509847204694F8902007
:101EBC0004F170012023BDE8704001F085B80023C7
:101ECC000122636684F89120616E2046743131449E
:101EDC000423BDE8704001F0B2B810B590F8913011
:101EEC000446012B04D1436E13B1836E043898471A
:101EFC00022384F89130002320466366BDE810402D
:101F0C0001F0D8B8436E1F2BDEBF436E013343661E
:101F1C0090F89130012BDAB205D1416E0423703167
:101F2C00014401F08CB87047002380F89030704762
:101F3C0090F892300BB901F0BDB87047014B18689E
:101F4C0001F038BA28020020014B186801F08CBE51
:101F5C0028020020014B586801F02CBA28020020FE
:101F6C00014B586801F080BE280200207047000029
:101F7C0038B50E4B05461A784FF47A73B3FBF2F36F
:101F8C000B4A1068B0FBF3F000F0F0FB044658B9B4
:101F9C000F2D09D8024629464FF0FF3000F096FB72
:101FAC002046044B1D6038BD0120FCE700000020DA
:101FBC002800002004000020074A08B513680320FD
:101FCC0043F01003136000F06FFB0020FFF7D0FF0D
:101FDC00FFF7CCFF002008BD00200240034A044B51
:101FEC0011681B780B441360704700BF300200204F
:101FFC0000000020014B1868704700BF3002002021
:10200C00F7B5002604460D460196FFF7F3FF23684B
:10201C0007469A68D10508D50120A36A84F8246084
:10202C0043F02003A36203B0F0BD5A68D20503D479
:10203C00DB6A13F4700F3DD03D4B02201E6802F09A
:10204C00CFF923683B4A1969B6FBF0F611423A4ABC
:10205C0051D1D868394908424DD1196911425BD127
:10206C00DA68374B1A420CBF142329235E43019BB9
:10207C00B34223D26A1C04D0002D53D1019BB3422E
:10208C000AD3019B01330193F1E76E1C13D065B9A0
:10209C0023681B6898070DD4A36A032043F004033C
:1020AC00A362002384F82430BDE7FFF7A3FFC01B15
:1020BC00A842EDD8226813689907E6D56FF0120391
:1020CC0022681360A36A43F40073A362936803F459
:1020DC006023B3F5602F0CD1237B53B9A36A23F48F
:1020EC008073A362A36ADB0403D4A36A43F00103E5
:1020FC00A362002097E71969114203D1D968104AED
:10210C0011420BD019690F4A114209D1DB681342F5
:10211C000CBF5423FC23A9E72923A7E75423A5E7E5
:10212C00FC23A3E7FFF766FFC01BA842A6D8A8E7CD
:10213C002800002024499224922449122449920018
:10214C0092244900499224000368D86C704700001F
:10215C00002373B5019390F824300446012B6CD006
:10216C00012380F824304D680268062D086805EBC1
:10217C00850322D81F26556B053B9E4025EA060594
:10218C0000FA03F32B43536309288B6800EB4005DB
:10219C004FF0070129D9D6681E3DA94026EA010156
:1021AC00AB400B43D360A0F11003012B25D90020C9
:1021BC00002384F8243002B070BD0C2D4FF01F05A5
:1021CC0009D8166B233B9D4026EA050500FA03F35C
:1021DC002B431363D8E7D66A413B9D4026EA05059D
:1021EC0000FA03F32B43D362CEE71069A94020EA2F
:1021FC000101AB400B431361D9E7114B9A4216D145
:10220C0093681B02D3D49368102843F400039360A3
:10221C00CDD10C4B0C4A1B68B3FBF2F30A2253438F
:10222C000193019B002BC2D0019B013BF8E7A36AF1
:10223C00012043F02003A362BAE70220BBE700BFF2
:10224C00002401402800002040420F00806A7047A3
:10225C00002337B50193036804469A68D20702D568
:10226C00002003B030BD9A6842F001029A60144B12
:10227C00144A1B68B3FBF2F30193019BE3B9FFF71C
:10228C00B9FE054623689B68DB07E9D4FFF7B2FE6D
:10229C00401B0228F6D923689B6813F00103F1D187
:1022AC00A26A012042F01002A262E26A84F8243091
:1022BC0042F00102E262D4E7019B013BDCE700BF84
:1022CC002800002040420F0010B590F8243004463E
:1022DC00012B54D0012380F82430FFF7B9FF0028DC
:1022EC0049D1A36A274A23F4407323F0010343F432
:1022FC008073A3622368934204D123494A6812F481
:10230C00702F2ED1A26A22F48012A2625A68520552
:10231C0041BFA26A22F4405242F48052A262A26AE5
:10232C0012F480521CBFE26A22F00602E262002222
:10233C0084F824206FF002021A609A6802F460227A
:10234C00B2F5602F13D10F4A934205D1A2F58062EA
:10235C00526812F4702F0AD19A6842F4A0029A6063
:10236C0010BDA26A42F48012A2624A68CFE79A6852
:10237C0042F48012F3E7002384F82430F0E70220C3
:10238C00EEE700BF002801400024014038B5036887
:10239C0004469A68D10701D4002038BD9A6822F00F
:1023AC0001029A60FFF726FE054623689B68DB074F
:1023BC00F2D5FFF71FFE401B0228F6D923689B6855
:1023CC00DA07F2D5A36A012043F01003A362E36A93
:1023DC0043F00103E362E0E7F8B5044600286DD052
:1023EC00836A23B9C36280F8243003F0FFF82046D7
:1023FC00FFF7CCFFA36A13F0100361D100285FD163
:10240C00A26A616822F4885222F0020242F00202AF
:10241C00E569A668A262227B2943B6F5807F41EA72
:10242C00420136D0771E7D427D412D02277D012F42
:10243C0006D182BBA269013A45EA423242F40065F8
:10244C002268B6F5807F576827F4694745EA070587
:10245C00556097681D4D05EA070545EA010595602D
:10246C0001D0012E02D12369013B1B05D56A25F44D
:10247C0070052B43D3629268154B1340994213D1CC
:10248C000023E362A36A23F0030343F00103A36276
:10249C00F8BD3546CAE7A26A42F02002A262E26A9F
:1024AC0042F00102E262CBE7A36A23F0120343F08D
:1024BC001003A362E36A43F00103E3620120E7E740
:1024CC00A36A43F01003A362F8E700BFFDF7E1FF36
:1024DC00FE0E1FFF38B50446002850D0836A43F027
:1024EC0002038362FFF752FF0546002842D16FF0CA
:1024FC001F02236820461A605968224A0A405A6013
:10250C009968214A0A409A60DA6802F07F42DA60E0
:10251C001A6902F040421A6159691C4A114059610A
:10252C00996911409961D9691140D961196A1140B1
:10253C001962596A11405962996A0A409A62DA6AB8
:10254C00134902F07F42DA62DA6A02F07F42DA6201
:10255C001A6B02F040421A635A6B02F040425A6303
:10256C009A6B0A409A639A6B0A409A6303F070F86C
:10257C00E562A562002384F82430284638BD012585
:10258C00FBE700BF00003FFFF00601FF00F0FFFF7C
:10259C000000C0FF10B590F824300446012B11D078
:1025AC00012380F82430FFF7F1FE38B9A36A23F435
:1025BC00885323F0010343F00103A362002384F842
:1025CC00243010BD0220FCE7002373B5019390F872
:1025DC0024300446012B62D0012380F82430FFF70D
:1025EC00D5FE2046FFF734FE054600282FD1A36AFE
:1025FC00022023F4885323F0020343F00203A36266
:10260C00284B1E6801F0ECFEB6FBF0F67600019646
:10261C00019B03BB2268936843F008039360FFF7A8
:10262C00E9FC064623689A68110718D49A6842F0A8
:10263C0004029A60FFF7DEFC064623689B685B0782
:10264C0023D4A36A23F0030343F00103A362002302
:10265C0084F8243016E0019B013B0193D8E7FFF787
:10266C00C9FC801B0A28DDD923689B681807D9D5BB
:10267C00A36A012523F0120343F01003A362002385
:10268C0084F82430284602B070BDFFF7B3FC801BE1
:10269C000A28D2D923689B685A07CED5E8E70225C9
:1026AC00F0E700BF2800002007490302CA6803F4C2
:1026BC00E06322F4E0621204120C134343F0BF6394
:1026CC0043F40033CB60704700ED00E0154B30B5A0
:1026DC00DC68C4F30224C4F10703251D042B28BFB6
:1026EC000423062D4FF0FF3594BF0024033C05FA5C
:1026FC0003F321EA0303A54022EA0502A3400028C4
:10270C0043EA0203ACBF00F16040074A4FEA0313EF
:10271C00DBB2ABBF00F5614000F00F0080F8003376
:10272C00135430BD00ED00E014ED00E0002807DB91
:10273C0001234109034A00F01F00834042F8213075
:10274C00704700BF00E100E000280CDB01220649C5
:10275C00430900F01F008240203341F82320BFF3CF
:10276C004F8FBFF36F8F704700E100E00138B0F17D
:10277C00807F0BD24FF0E023F021054A586182F89C
:10278C0023100020072298611A61704701207047BE
:10279C0000ED00E0002808DB01224309034900F0AA
:1027AC001F008240603341F82320704700E100E0B5
:1027BC00704708B5FFF7FCFF08BD704710B504461D
:1027CC0050B1437903F0FF0213B90271FFF7F5FF23
:1027DC0001230020637110BD0120FCE790F821203B
:1027EC000346022A06D0042282630120002283F8C9
:1027FC00202070470268C06B116821F00E01116037
:10280C00116821F00101116001211A6C01FA02F228
:10281C004260002083F82110E8E7000008B590F82A
:10282C002130022B03D004238363012008BD0368ED
:10283C001A6822F00E021A601A6822F001021A605D
:10284C00174A93421FD0143293421ED01432934233
:10285C001DD0143293421DD0143293421DD0143229
:10286C00934214BF4FF080734FF480130D4A5360A2
:10287C00012380F82130002380F82030436B03B112
:10288C0098470020D2E70123F0E71023EEE74FF43E
:10289C008073EBE74FF48053E8E74FF48033E5E7C0
:1028AC00080002400000024090F821007047000030
:1028BC002DE9F74F00244FF00F0E2646DFF884C1A8
:1028CC00614B00F104080A6832FA06F502D103B034
:1028DC00BDE8F08F012505FA06F702EA070537EA8D
:1028EC00020276D14A68032A07D8013A022A00F27A
:1028FC008380DFE802F091969C00122A00F094800D
:10290C0069D8112A00F08A80FF2D94BF8146C146F8
:10291C004FEA8602D9F8007088BF203A0EFA02FA04
:10292C0027EA0A0704FA02F21743C9F80070D1F833
:10293C00049019F0805F4CD0DCF8182026F00307C7
:10294C0042F00102CCF81820DCF8182007F180477F
:10295C0002F00102019207F5803706F0030A019A92
:10296C004FEA8A0ABA680EFA0AFB22EA0B0B374ABC
:10297C00904260D002F5806290425ED002F5806297
:10298C0090425CD002F58062904214BF0422032274
:10299C0002FA0AF242EA0B02BA609A6819F4801F32
:1029AC0014BF2A43AA439A60DA6819F4001F14BFB3
:1029BC002A43AA43DA605A6819F4003F14BF2A4329
:1029CC00AA435A601A6819F4803F14BF2A43AA43D9
:1029DC001A60013677E7DFF878904A450CD014D8A6
:1029EC00A9F580194A4507D009F570294A4503D045
:1029FC00A9F580194A4587D18A68D2B1012A4FF0CE
:102A0C0008040CBF076147617EE7DFF848904A4530
:102A1C00F2D009F58039EDE7CC6875E7CC68043461
:102A2C0072E7CC6808346FE7CC680C346CE7002490
:102A3C006AE7042468E70022AAE70122A8E7022239
:102A4C00A6E700BF0010024000040140000801404E
:102A5C000000221000003110044A08B551690142EF
:102A6C0002D0506102F0A2FF08BD00BF000401407B
:102A7C002DE9F84606460F4691461D464FEA114A87
:102A8C003368BAF1010F39D15C6927EA0404A4B2A6
:102A9C00B4FA84F46409A14501D0002024E06A1C36
:102AAC00EFD0FFF7A7FA089BC01AA84201D8002D57
:102ABC00E6D1BAF1010F336818D15B6927EA030339
:102ACC009BB2B3FA83F35B099945D9D10023202239
:102ADC000120336386F83D2086F83E30326C86F850
:102AEC003C3042F020023264BDE8F8869B69DB433F
:102AFC00C3F3400383F00103DBB2E5E79C69E443D5
:102B0C00C4F3400484F00104E4B2C4E7704700004D
:102B1C0070B5044608B9012070BD90F83D3003F043
:102B2C00FF021BB980F83C20FFF7F0FF242384F848
:102B3C003D3023681A6822F001021A601A6842F4C8
:102B4C0000421A601A6822F400421A6001F090FBED
:102B5C003F4B65689D4294BF3E4B3F4B98428CBFA8
:102B6C0000230123002BD6D1394E3C4BB542B0FB90
:102B7C00F3F388BF4FF496762268516821F03F0139
:102B8C0041EA030182BF73434FF47A76B3FBF6F349
:102B9C005160116A013321F03F010B431362D1697B
:102BAC00431E2B4821F44F41854221F0FF0132D8BE
:102BBC006D00B3FBF5F340F6FC700133034242D0D9
:102BCC00C3F30B031943D1611168D4E9073021F029
:102BDC00C00103430B4313609168D4E9030321F450
:102BEC000341034321F0FF010B439360D168D4E907
:102BFC00053021F0FF0103430B43D3601368002021
:102C0C0043F0010313602023206484F83D302063DB
:102C1C0084F83E0080E7A06850B905EB4505B3FB8E
:102C2C00F5F30133C3F30B037BB143F40043C9E762
:102C3C0019206843B3FBF0F30133C3F30B0323B147
:102C4C0043F44043BEE70423BCE70123BAE700BFCB
:102C5C00A08601007F841E00FF083D0040420F004B
:102C6C00704710B5044698B12423026880F83D30B3
:102C7C00136823F001031360FFF7F2FF00202064B8
:102C8C0084F83C0084F83D00206384F83E0010BDBD
:102C9C000120FCE72DE9FF4704461F468946924672
:102CAC00FFF7A8F994F83D300546202B03D00220FD
:102CBC0004B0BDE8F0870090192301222046494951
:102CCC00FFF7D6FE0028F2D194F83C30012BEED061
:102CDC00012384F83C30236800261A6809F0FE09A9
:102CEC00D2075EBF1A6842F001021A601A6822F419
:102CFC0000621A60242384F83D303B4B2664E36267
:102D0C0022684FF001111368204643F4807313605E
:102D1C003B4600220095FFF7ABFE236838B11B68D9
:102D2C000320DB0544BF4FF400732364C0E7C3F8F2
:102D3C001090FFF75FF94FF0A00805462268536921
:102D4C005269C3F34003C2F3802294F83D10A029CA
:102D5C0001D013431DD04FF02008206884F83D802B
:102D6C00436913F0020F036843F40073036025D02A
:102D7C000023039343690122039383691949039345
:102D8C00039B204619230095FFF772FE88B10120A2
:102D9C008EE7FFF72FF9401BB84200D80FB984F823
:102DAC003D80226853695269C3F34003C2F3802209
:102DBC00CBE784F83D8084F83C0079E76FF48063BE
:102DCC00012243610749192320460095FFF750FE65
:102DDC000028DCD10136564592D384F83D8084F826
:102DEC003C00D4E7020010000000FFFFF7B50025FF
:102DFC0004460095019594F83D500898202D02D07A
:102E0C00022003B0F0BD25682E68B60503D408284F
:102E1C0001D001281BD146F2A817274E3668B6FB05
:102E2C00F7F619277E430196019E013E0196019EFD
:102E3C0056B92023266384F83D3084F83E60236C19
:102E4C0043F020032364DBE7AE69B707ECD494F8B6
:102E5C003C60012ED4D02E68F6075EBF2E6846F07B
:102E6C0001062E602E6826F400662E60212684F85A
:102E7C003D60102684F83E60002626646385638DD1
:102E8C00E06261642385236B62620093009B112BCB
:102E9C0005D1B0F52A0F02D0B0F12A4F03D12B681F
:102EAC0043F480732B60002084F83C006B6843F47F
:102EBC00E0636B60A5E700BF28000020F7B5002594
:102ECC0004460095019594F83D500898202D02D0A9
:102EDC00022003B0F0BD25682E68B60503D408287F
:102EEC0001D001281BD146F2A817364E3668B6FB26
:102EFC00F7F619277E430196019E013E0196019E2D
:102F0C0056B92023266384F83D3084F83E60236C48
:102F1C0043F020032364DBE7AE69B707ECD494F8E5
:102F2C003C60012ED4D0012684F83C602E68F60754
:102F3C005EBF2E6846F001062E602E6826F40066F1
:102F4C002E60222684F83D60102684F83E60002610
:102F5C0026646385638DE06261642385236B626202
:102F6C000093638D9BB2022B24D1202801D0102812
:102F7C0020D1009B122B2B681DD14FF4407223F4EF
:102F8C0080632B602B6843F400632B60009B122B37
:102F9C0005D1B0F52A0F02D0B0F12A4F03D12B681E
:102FAC0043F480732B60002084F83C006B6813435F
:102FBC006B608EE72B6843F480634FF4E0622B6008
:102FCC00E4E700BF2800002037B5044690F83D0028
:102FDC0000F02800282830D100292CD0002A2AD033
:102FEC0094F83C00012828D025682868C0075EBFEB
:102FFC00286840F001002860286820F400602860F0
:10300C00292084F83D00202084F83E000020206414
:10301C006285628DE36201906B6961620193AB69B9
:10302C0084F83C000193019B6B68228543F4E063B8
:10303C006B6003B030BD0120FBE70220F9E737B528
:10304C00044690F83D0000F02800282830D10029D3
:10305C002CD0002A2AD094F83C00012828D02568CE
:10306C002868C0075EBF286840F001002860286807
:10307C0020F4006028602A2084F83D00202084F889
:10308C003E00002020646285628DE36201906B69D2
:10309C0061620193AB6984F83C000193019B6B68FE
:1030AC00228543F4E0636B6003B030BD0120FBE785
:1030BC000220F9E790F83D30202B14D1282380F81A
:1030CC003D30036800201A68D2075EBF1A6842F0D0
:1030DC0001021A601A6842F480621A605A6842F45B
:1030EC0040725A60704702207047704770477047B3
:1030FC0090F83D2008B5036DD2B283B9C36C026859
:10310C00012B836C05D1DBB21361036D02330365B4
:10311C0008BDC3F307231361036D0133F7E7036D98
:10312C00012B03D1836C0268DBB2F4E7036D022B35
:10313C002FD1222A05D10268136843F480731360DF
:10314C00EAE7438D9BB263B1212A0AD1436A026834
:10315C0013F8011B11614362438D013B9BB2438504
:10316C00D6E7438D9BB2002BD2D1212AD0D1026855
:10317C00516821F4E0615160116841F400711160F3
:10318C002022036380F83D2080F83E30FFF7AFFF2C
:10319C00BEE703685A69120644BF00221A61B7E7FA
:1031AC0070477047002337B546F2A81101932C4B9A
:1031BC00406A1B6890F83D20B3FBF1F323214B438D
:1031CC0001930368D2B2019941BB016C41F020011B
:1031DC000164446B0CB10021A162816B09B1002523
:1031EC008D621D6825F480651D600025458504B140
:1031FC00656301B14D63196821F00101196090F804
:10320C003D10602911D1202380F83D30002380F837
:10321C003E300364FFF7C5FF03B030BD019901399F
:10322C00019119688905CED4D3E702F02802282A27
:10323C000ED1196841F001011960196841F48061DF
:10324C0019600023036380F83D20FEF771FEE3E76D
:10325C00202380F83D30002380F83E30F5E700BF96
:10326C002800002010B590F83D2090F83E30044620
:10327C00102BD9B2D2B2036801D0402913D1222A23
:10328C0011D1196821F400611960596811F40061B9
:10329C0006D1602A1EBF202284F83D2084F83E10FF
:1032AC000022226307E002F028012829EDD1002238
:1032BC00226384F83D105A6812F400624FD05A68A9
:1032CC00606B22F400625A6090F82130012B374B6E
:1032DC002BD04363FFF7A2FA50B12268606B1368DE
:1032EC0023F001031360202384F83D30436B98478F
:1032FC00236C19071FBF2268536823F4E0635360E3
:10330C0094F83D30226CDBB252070DD5282B0BD133
:10331C00274B2022E36200232046236384F83D20C0
:10332C0084F83E30FEF7D9FD10BDA06B4363FFF768
:10333C0075FA0028DCD023685A69510605D51A693C
:10334C00636A1A70636A013363622268A06B136844
:10335C0023F001031360202384F83D30C6E794F872
:10336C003D10602915D1202184F83D1022645A6942
:10337C00520605D51A69636A1A70636A013363626F
:10338C0022682046136823F001031360FFF709FF3E
:10339C00AEE75A69500605D51A69636A1A70636AF2
:1033AC00013363622046FEF7C3FDA1E7B13100088B
:1033BC000000FFFFF0B5044603688FB05A68C66A78
:1033CC0090F83E0094F83D101028C5B2C9B202D056
:1033DC00402D40F0E5829F69586910F0010F07D12C
:1033EC00B6F52A0F02D0B6F12A4F51D10FB0F0BD6D
:1033FC0096054DD5E26AB2F52A0F0CD10122E26294
:10340C0094F83E20402A11D1226D52B9626C02F020
:10341C00FE021A61EAE7E26AB2F12A4FF0D1082201
:10342C00EDE7626C42F00102D2B2F2E72269B2F52A
:10343C00804F1AD194F83D20212A626C11D102F0F0
:10344C00FE021A61626B0AB1926A2AB9A26B002A57
:10345C00CCD0926A002AC9D05A6842F400625A60F1
:10346C00C4E742F00102D2B2EBE7226D32B9626CD2
:10347C00D21102F0060242F0F002CAE7226D012AD4
:10348C00B4D1626CD21102F0060242F0F102C0E734
:10349C00060703D5960501D5626CE4E7860740F173
:1034AC00F080960540F1ED8094F83E10E26A256BB1
:1034BC0094F83D00C9B2222840F0DB80206D40B961
:1034CC00402906D100905A6900929B690093009B99
:1034DC008CE7216D89B92069B0F5404F0DD1019170
:1034EC005A6901929A690192019A1A6842F480729F
:1034FC001A60236D0133236578E7618D89B251B968
:10350C0002915A6902929A690292029A1A6842F4DA
:10351C0000721A6019E0618D89B2012949D112F546
:10352C00803F1BD11A6822F480621A605A6812F428
:10353C0000620CD01A6822F480621A600022039296
:10354C005A6903929B690393039B0023D3E704926C
:10355C005A6904929A690492049AD7E7082A1CD0F3
:10356C00202A1AD0122D0DD1012A16D11A6822F454
:10357C0080621A60002205925A6905929B69059334
:10358C00059BE2E7102AF1D8864941FA02F2D707E7
:10359C00ECD41A6842F48062EBE71A6822F4806279
:1035AC001A60002206925A6906929A690692069A45
:1035BC00ACE7618D89B2022938D1102A03D87A4937
:1035CC00D140CE0718D4196841F40061196000216C
:1035DC00079159690791996907910799196821F41D
:1035EC008061196059680D05AFD5202A1BD8072AB0
:1035FC000ED8012AA9D111E0196841F48061196033
:10360C000021089159690891996908910899E9E78D
:10361C00A2F10801654ACA40D00796D55A6842F40F
:10362C0080525A6091E712F5803FE3E7196841F444
:10363C00806119605968090510D5202A16D8072A07
:10364C0006D8012A0AD15A6842F480525A6005E021
:10365C00A2F10801554ACA40D207F4D400220992BB
:10366C005A6909929B690993099B6EE712F5803F91
:10367C00E8E700220A925A690A929B690A930A9B0C
:10368C00B4E67F0740F194805E6836053FF5AEAE38
:10369C00070600F004063ED550053CD5002E3DD162
:1036AC0094F83D20258D94F83E10D2B2E06AC9B250
:1036BC00C5B9212A18D1082858D0202856D010F581
:1036CC00803F53D05A6822F4E0625A60112323637E
:1036DC00002384F83E302023204684F83D30FFF749
:1036EC0004FD83E6212A05D040297FF47FAE222AEF
:1036FC007FF47CAE628D92B21AB95A6822F4806261
:10370C00ADE694F83E20402A16D120460FB0BDE815
:10371C00F040FFF7EDBC002E3FF468AE97057FF547
:10372C0065AE212939D1E16A94F83D20212A7FF434
:10373C005DAE628D92B24AB1626A12F8011B1961D8
:10374C006262638D013B9BB263854FE608290DD005
:10375C0020290BD011F5803F08D0596821F4E06185
:10376C0059601123236384F83E20B4E75A6820463D
:10377C0022F4E0625A601A6842F400721A60002364
:10378C002022236384F83D2094F83E2084F83E30B8
:10379C00402AA4D1FFF7ABFC28E6402D7FF426AEDF
:1037AC00B3E700BFEBFFFEFF1400010001010001B5
:1037BC0059680E053FF51AAE450600F0040140F1BC
:1037CC008680500540F18380002940F0838094F876
:1037DC003D20222A7FF40AAEE06A628D92B2032A5F
:1037EC0014D91A69636A1A70636A01336362638D50
:1037FC00013B9BB26385638D9BB2032B7FF4F6ADCB
:10380C002268536823F480635360EFE5E56A022D68
:10381C003FF473AF012A3FF670AF0B9146F2A8113B
:10382C00794A1268B2FBF1F202EB82020B920B9A0C
:10383C00013A0B920B99D1B9226C204642F020022E
:10384C0022645A6822F4E0625A601A69636A1A7038
:10385C00636A01336362638D013B9BB263852023F2
:10386C0084F83D3084F83E10FEF762FBBEE51A6822
:10387C0012F40072DBD1196821F480611960596867
:10388C0021F4E06159601969636A1970636A013344
:10389C006362638D013B9BB26385202384F83D30CA
:1038AC0094F83E3084F83E20402B04D1226320460D
:1038BC00FFF776FC9AE5082801D0202801D10023D7
:1038CC0000E0122320462363FFF710FC8EE500294D
:1038DC003FF48CAD92057FF589ADE26A608D616A2B
:1038EC0080B2042809D15A6822F480625A601B699C
:1038FC000B70636A0133636223E7608D80B2032827
:10390C000CD15868042A20F480605860EFD0022A49
:10391C00EDD01A6822F480621A60E8E7608D80B2FC
:10392C000228E4D1042A33D007D8012A07D0022A6E
:10393C002ED0186840F4007004E0102AF9D11868F1
:10394C0020F4806018601B690B70616A4B1C636209
:10395C00638D013B9BB2638523681B694B70636A63
:10396C00216801336362638D013B9BB263854B68B5
:10397C0023F440734B60202384F83D3094F83E30A0
:10398C00402B4FF0000384F83E3005D123638EE7C3
:10399C00186840F48060D5E7082A90D0202A8DE77B
:1039AC00206C20B30025586987072FD596052DD597
:1039BC00226C02B19D6994F83D2002F02802282A5D
:1039CC0018D15A682F0622F480625A604FF0000317
:1039DC0054BFE268A269C5F3800181F00101204661
:1039EC00C9B284F83C3092B2FEF743FAFEE49D690A
:1039FC005869D9E700220C9259690C919B6984F89B
:103A0C003C200C930C9BF1E428000020C60640F1EE
:103A1C00B180950540F1AE8094F83D505A68EDB2F6
:103A2C0022F4E0625A6000220D925A690D921A68D3
:103A3C0042F001021A600D9A1A6822F480621A6030
:103A4C005A68100520D505F0F702222A4AD1A06B3E
:103A5C000268526892B26285628D92B21AB1226C7F
:103A6C0042F0040222645A6822F400625A60FEF7A3
:103A7C001BFF012808D0A06B794B4363FEF7CEFEE9
:103A8C0010B1A06B436B9847638D9BB213B3236843
:103A9C005A69510709D51A69636A1A70636A013346
:103AAC006362638D013B9BB2638523685A6952063E
:103ABC0009D51A69636A1A70636A01336362638D8C
:103ACC00013B9BB26385638D9BB21BB1236C43F0AE
:103ADC0004032364236C13B320460FB0BDE8F040FD
:103AEC00FFF7C0BB606B0268526892B26285628D50
:103AFC0092B21AB1226C42F0040222645A6822F487
:103B0C0000625A60FEF7D0FE0128BDD0606B544BAA
:103B1C004363FEF783FE0028B6D0606BB2E72A2D14
:103B2C0006D123632823204684F83D30FEF7EAF9BA
:103B3C0094F83D30282B0CD14A4B2022E362002311
:103B4C002046236384F83D2084F83E30FEF7C5F907
:103B5C004CE4236B222B02D0222D7FF447AC0023A4
:103B6C002022236384F83D2084F83E302046FEF763
:103B7C00C9F93BE401F0F701212900F0040535D126
:103B8C00070627D5560525D53DBB94F83D00628D1B
:103B9C00C0B292B2002A3FF429AC626A12F8015BFF
:103BAC001D616262628D013A92B26285628D92B23F
:103BBC00002A7FF41BAC29287FF418AC5A682046E5
:103BCC0022F480625A602823216384F83D30FEF78A
:103BDC00ABF90BE4002D3FF409AC95057FF506AC71
:103BEC00628D92B2002A3FF401ACA5E5400627D5C0
:103BFC00510525D53DBB94F83D20618DD2B289B2DB
:103C0C0000293FF4F3AB1969636A1970636A0133D5
:103C1C006362638D013B9BB26385638D9BB2002B0A
:103C2C007FF4E4AB2A2A7FF4E1AB2268536823F4D7
:103C3C008063536022232363282384F83D3095E767
:103C4C00002D3FF4D3AB92057FF5D0AB628D92B2D1
:103C5C00002A3FF4CBAB1A69636A1A7049E600BFBD
:103C6C00B13100080000FFFFF8B5036804465F6936
:103C7C005E6890F83E2017F48075D2B20AD016F424
:103C8C00807507D06FF4807101255961196841F472
:103C9C0000411960B80506D5F10542BF6FF40071FB
:103CAC0045F002055961780536D5F10534D5608D9E
:103CBC0094F83D10202AD4F830C080B2C9B25FD13C
:103CCC0000285DD101F0F700212804D0282957D114
:103CDC00BCF1210F54D194F83D20E16AD2B20829ED
:103CEC0001D020292AD1282A28D12E4A2046E26246
:103CFC005A6822F4E0625A606FF480625A611A6862
:103D0C0022F480621A6000232022236384F83D2071
:103D1C0084F83E30FEF7E1F83A053FD5F3053DD582
:103D2C006FF40062236845F008055A61236C204645
:103D3C001D432564BDE8F840FFF794BA212A1BD136
:103D4C001849E16222630021202284F83D2084F886
:103D5C003E105A6822F4E0625A606FF480625A6135
:103D6C001A6822F480621A605A69100648BF1961F9
:103D7C002046FEF7D9F8CFE76FF480625A61CBE7A3
:103D8C006FF48061102A596145F0040501D0402A76
:103D9C00C2D11A6842F400721A60BDE7002DC5D179
:103DAC00F8BD00BF0000FFFF90F83D007047006CAD
:103DBC00704700002DE9F341054638B30368DB0773
:103DCC0010D42B689F075ED42B68190700F19580DF
:103DDC002B685A0700F1C180EB69002B40F02C8155
:103DEC00002029E0904C636803F00C03042B07D0EF
:103DFC00636803F00C03082B0AD16368DE0307D554
:103E0C0023689C03DDD56B68002BDAD1012013E00D
:103E1C006B68B3F5803F12D1236843F48033236081
:103E2C00FEF7E8F8064623689803CAD4FEF7E2F8D2
:103E3C00801B6428F7D9032002B0BDE8F0819BB940
:103E4C00236823F480332360236823F480232360C6
:103E5C00FEF7D0F8064623689903B2D5FEF7CAF8E8
:103E6C00801B6428F7D9E6E7B3F5A02F236803D1AC
:103E7C0043F480232360CFE723F48033236023684B
:103E8C0023F48023CBE7684C636813F00C0F07D046
:103E9C00636803F00C03082B10D16368DA030DD4AC
:103EAC0023689B0702D52B69012BAFD123686A6964
:103EBC0023F0F80343EAC203236085E72A695B4BCE
:103ECC006AB101221A60FEF795F8064623689F072F
:103EDC00ECD4FEF78FF8801B0228F7D9ABE71A60F9
:103EEC00FEF788F80646236898077FF56DAFFEF756
:103EFC0081F8801B0228F6D99DE7AA694A4E4B4BE4
:103F0C00E2B10122C3F88024FEF774F80446736A08
:103F1C009B070DD54FF4FA52454B1B68B3FBF2F3DC
:103F2C00019300BF019B5A1E0192002BF9D14FE760
:103F3C00FEF760F8001B0228E9D97CE7C3F880245F
:103F4C00FEF758F80446736A9F077FF541AFFEF7FA
:103F5C0051F8001B0228F6D96DE7334CE369D80001
:103F6C0024D40127E36943F08053E361E36903F050
:103F7C0080530093009B2F4E3368D90518D5EB68FE
:103F8C00012B26D1236A43F001032362FEF732F89A
:103F9C0041F288380646236A9B073FD5002F3FF431
:103FAC001BAFE36923F08053E36115E70027E2E7D9
:103FBC00336843F480733360FEF71CF88046336833
:103FCC00DA05DCD4FEF716F8A0EB08006428F6D965
:103FDC0031E7ABB9236A41F2883823F0010323623D
:103FEC00236A23F004032362FEF704F80646236ACF
:103FFC009807D3D5FDF7FEFF801B4045F7D91AE78C
:10400C00052B236A03D143F004032362BAE723F0A0
:10401C0001032362236A23F00403B6E7FDF7EAFFEA
:10402C00801B4045B7D906E7001002400000424211
:10403C0028000020007000402A4C626802F00C023C
:10404C00082A3ED00022022B274B1A662CD1FDF7F2
:10405C00D1FF06462368990120D42B6AB3F5803F23
:10406C0005D16268A96822F400320A436260696A69
:10407C0062680B4322F474121343012263601A4BDF
:10408C001A66FDF7B7FF054623689A013FF5A8AEFF
:10409C00FDF7B0FF401B0228F6D9CCE6FDF7AAFFCE
:1040AC00801B0228D6D9C6E6FDF7A4FF0546236877
:1040BC009B017FF595AEFDF79DFF401B0228F6D9BD
:1040CC00B9E6012B3FF4A2AE60682B6A00F4803293
:1040DC009A427FF49BAE6B6A00F47010C01A18BF42
:1040EC000120A9E600100240000042420D4A53682C
:1040FC0003F00C01082912D10B48C3F38341DB03F5
:10410C00405C09D55368094AC3F340435043084AFD
:10411C00D35CB0FBF3F07047064B58437047034831
:10412C00704700BF00100240CA7E000800127A00DF
:10413C00C87E000800093D002DE9F0410D460446FB
:10414C0010B90120BDE8F081444A136803F007035D
:10415C008B4228D321688E0730D4CA0743D43F4AF8
:10416C00136803F00703AB4265D822683C4D12F08C
:10417C00040F6CD1130706D56B68226923F46053C6
:10418C0043EAC2036B60FFF7B1FF6B68354AC3F3B8
:10419C000313D35CD840344B1860344B1868FDF7CC
:1041AC00E7FE0020CEE7136823F007030B431360F0
:1041BC00136803F007038B42C3D1CBE7284B11F0F4
:1041CC00040F1EBF5A6842F4E0625A60080742BFEF
:1041DC005A6842F460525A605A68A06822F0F002A1
:1041EC0002435A60B9E762681D4E012A33681AD13E
:1041FC0013F4003FA5D0736841F2883823F0030311
:10420C0013437360FDF7F6FE07467368626803F0AC
:10421C000C03B3EB820FA2D0FDF7ECFEC01B4045A4
:10422C00F3D903208EE7022A02D113F0007FE1E7D5
:10423C0013F0020FDEE7136823F007032B43136020
:10424C00136803F00703AB427FF47BAF8DE76B6819
:10425C00E16823F4E0630B436B608BE700200240C2
:10426C0000100240447F00082800002004000020B9
:10427C00044B054A5B68C3F30223D35C034A106802
:10428C00D8407047001002403C7F000828000020F6
:10429C00044B054A5B68C3F3C223D35C034A106822
:1042AC00D8407047001002403C7F000828000020D6
:1042BC000F2303600B4B5A6802F0030242605A68EA
:1042CC0002F0F00282605A6802F4E062C2605B683D
:1042DC00DB0803F4E0630361034B1B6803F0070383
:1042EC000B607047001002400020024003682DE96B
:1042FC00F3410546D80720D5364CE369D9002AD4BA
:10430C000126E36943F08053E361E36903F08053D2
:10431C000193019B304F3B68DA051ED5236A13F4D9
:10432C0040732ED1236A6A6823F4407313432362CB
:10433C001EB1E36923F08053E3612A68910706D527
:10434C002449A8684B6823F4404303434B60D306CD
:10435C0037D4002012E00026DCE73B6843F480737E
:10436C003B60FDF747FE80463B68DB05D6D4FDF786
:10437C0041FEA0EB08006428F6D9032002B0BDE88A
:10438C00F0816A6802F440729A42CBD00120134A41
:10439C00236AC2F84004002023F44071DF07C2F8FE
:1043AC0040042162BED5FDF725FE41F28838074650
:1043BC00236A9807B6D4FDF71DFEC01B4045F7D9FC
:1043CC00DBE7044AE968536823F480030B4353602A
:1043DC00BFE700BF001002400070004000004242E6
:1043EC00022808B544D0102803D0012822D0002080
:1043FC0034E0254B5A68186810F080702ED0C2F348
:10440C0083412248D20348BF5A68405C41BF2049CF
:10441C00C2F34042895C1F4A5B684CBFB2FBF1F2AD
:10442C001D4A5B0202FB00F018D403234000B0FBD2
:10443C00F3F013E040F20231134A136A1940B1F55C
:10444C00817F1ED003F44073B3F5007F07D149F68A
:10445C004040536A13F0020F08BF002008BDB3F5AB
:10446C00407FC4D113684FF2244013F4003FF3E7AC
:10447C00FFF70EFF044B5B68C3F3813301335B0022
:10448C00D5E74FF40040E9E700100240DC7E00085D
:10449C00DA7E000800127A0000093D00704710B562
:1044AC000446002851D0436A002B4AD14268B2F529
:1044BC00827F00D0C3610023A36294F8513003F0D3
:1044CC00FF0223B9204684F85020FFF7E7FF0223B0
:1044DC00226884F851301368A06823F040031360FD
:1044EC00636800F4044003F482730343E068A16939
:1044FC0000F400600343206900F00200034360698C
:10450C0000F00100034301F400700343E069090C5F
:10451C0000F038000343206A01F0040100F0800031
:10452C000343A06A00F40050034313605160D36945
:10453C00002023F40063D3610123606584F85130BB
:10454C0010BD0023C0E90433B5E70120F8E70000F3
:10455C0090F83D30012B1CD102230F4A80F83D30DE
:10456C00036893420AD0B3F1804F07D0A2F594327E
:10457C00934203D002F58062934204D19A6802F010
:10458C000702062A03D01A6842F001021A600020C2
:10459C0070470120704700BF002C014090F83C2070
:1045AC000346012A4FF0020009D01A6883F83D0037
:1045BC0051610020012283F83C0083F83D207047B4
:1045CC0070477047036870B5DD681E690446B10713
:1045DC000DD5AA070BD56FF002021A6101220277E2
:1045EC009B699B0769D000F08DFF0023237771072F
:1045FC0010D56A070ED56FF00402236820461A61A5
:10460C00022222779B6913F4407F5CD000F07AFF82
:10461C000023237733070FD528070DD56FF0080239
:10462C00236820461A6104222277DB69990750D04F
:10463C0000F068FF00232377F20610D5EB060ED5A9
:10464C006FF01002236820461A6108222277DB697A
:10465C0013F4407F43D000F055FF00232377F0077D
:10466C0008D5E90706D56FF00102236820461A61C8
:10467C0000F025FF320608D52B0606D56FF0800218
:10468C00236820461A6100F0A6F9700608D5690661
:10469C0006D56FF04002236820461A61FFF791FFA0
:1046AC00B20622D5AB0620D56FF020022368204637
:1046BC00BDE870401A6100F08DB900F021FF204672
:1046CC00FFF77EFF91E700F01BFF2046FFF778FF16
:1046DC009EE700F015FF2046FFF772FFAAE700F0F7
:1046EC000FFF2046FFF76CFFB7E770BD174A036852
:1046FC0090420AD0B0F1804F07D0A2F5943290428C
:10470C0003D002F58062904207D14A6823F070030F
:10471C001343CA6823F4407313434A6923F080039C
:10472C00134303608B68C3620B688362074B984228
:10473C0004BF0B690363012343610369DB0742BFB9
:10474C00036923F001030361704700BF002C014093
:10475C0010B5044630B390F83D3003F0FF021BB99E
:10476C0080F83C2001F0FEFC0223206884F83D30E8
:10477C00211DFFF7BBFF0123002084F8463084F88D
:10478C003E3084F83F3084F8403084F8413084F86F
:10479C00423084F8433084F8443084F8453084F84F
:1047AC003D3010BD0120FCE710B50124036A01F077
:1047BC001F018C4023EA04030362036A8A401A43F4
:1047CC00026210BD08B529B990F83E30012B1DD0FE
:1047DC0001202EE0042907D190F83F30012BF7D1AE
:1047EC00022380F83F3014E0082907D190F84030BC
:1047FC00012BEDD1022380F840300AE090F84130D3
:10480C00012BE5D1022380F8413002E0022380F82D
:10481C003E3000680122FFF7C7FF0F4B984209D0CA
:10482C00B0F1804F0BD1836803F00703062B0DD139
:10483C00002008BD436C43F400434364F3E7074B8B
:10484C009842F0D003F580639842ECD0036843F0B3
:10485C0001030360ECE700BF002C014000040040A2
:10486C00FFF7B0BF08B5034641BB90F83E0093F884
:10487C004220C0B20128D2B24DD1012A1DD1022250
:10488C0091BB83F83E2083F8422018680122FFF781
:10489C008BFF224B98420AD0B0F1804F07D0A3F582
:1048AC009433984203D003F5806398422ED18368E9
:1048BC0003F00703062B29D1002008BD042905D1DC
:1048CC0090F83F0093F84320C0B2D3E708290BBF00
:1048DC0090F8400093F8410093F8442093F8452059
:1048EC000CBFC0B2C0B2C5E7042904D183F83F2085
:1048FC0083F84320C9E708290BBF83F8402083F8CD
:10490C00412083F8442083F84520BEE7036843F038
:10491C0001030360D0E70120CFE700BF002C01406A
:10492C0010B50424036A01F00F018C4023EA040340
:10493C000362036A8A401A43026210BD08B529B9A2
:10494C0090F84230012B1DD001203EE0042907D104
:10495C0090F84330012BF7D1022380F8433014E058
:10496C00082907D190F84430012BEDD1022380F8AF
:10497C0044300AE090F84530012BE5D1022380F851
:10498C00453002E0022380F8423000680422FFF731
:10499C00C7FF436C43F4004343640C4B98420AD06A
:1049AC00B0F1804F07D0A3F59433984203D003F5B0
:1049BC008063984204D1836803F00703062B03D06D
:1049CC00036843F001030360002008BD002C014084
:1049DC00FFF7B4BF70477047026802F10C0353E84D
:1049EC00003F23F490730C3242E800310268002936
:1049FC00F2D102F1140353E8003F23F0010302F15A
:104A0C00140C4CE800310029F3D1036B012B0BD1B2
:104A1C0002F10C0353E8003F23F0100302F10C0CDD
:104A2C004CE800310029F3D1202380F842300023D8
:104A3C000363704710B504460368C1681A6922F411
:104A4C0040520A431A6182680069D968024360695E
:104A5C0021F4B05121F00C0102430A43DA605A6987
:104A6C00A16922F440720A435A610E4A934215D14D
:104A7C00FFF70EFC19234343626820689200B3FBD6
:104A8C00F2F36422B3FBF2F102FB11331B0132335C
:104A9C00B3FBF2F303EB0113836010BDFFF7E8FBEC
:104AAC00E8E700BF00380140704710B5044648B332
:104ABC0090F8413003F0FF021BB980F84020FFF75B
:104ACC00F3FF2423226884F84130D368204623F472
:104ADC000053D360FFF7AEFF236800201A6922F45D
:104AEC0090421A615A6922F02A025A61DA6842F439
:104AFC000052DA602023606484F8413084F842303C
:104B0C00606310BD0120FCE710B5044668B390F853
:104B1C00413003F0FF021BB980F84020FFF7C4FFBF
:104B2C002423226884F84130D368204623F40053B0
:104B3C00D360FFF77FFF236800201A6922F49042AC
:104B4C001A615A6922F022025A615A6942F008022B
:104B5C005A61DA6842F40052DA602023606484F807
:104B6C00413084F84230606310BD0120FCE790F8BE
:104B7C004130202B10D189B182B1C28482840023B0
:104B8C00212201620168436480F84120CA681846FA
:104B9C0042F08002CA6070470220704701207047C3
:104BAC0008B50023406AC385C38401F0A5FC08BD89
:104BBC00704790F8423007B5222B42D181680268C9
:104BCC00B1F5805F836A3FD1016900293FD15268FA
:104BDC00C2F3080223F8022B8362C38D013B9BB204
:104BEC00C385002B2DD10268D16821F02001D16042
:104BFC00D16821F48071D160516921F001015161BA
:104C0C00202280F842204363026B012A026828D1DB
:104C1C00036302F10C0353E8003F23F0100302F18D
:104C2C000C0C4CE800310029F3D11368DB0605D5D8
:104C3C0001911368019353680193019B818DFFF7D8
:104C4C00B7FF03B05DF804FB39B9016929B95268A3
:104C5C00D2B21A70836A0133BEE7526802F07F0247
:104C6C00F7E701F043FCECE7036873B51A680446F8
:104C7C001607D9685D6908D1960668D58D0666D584
:104C8C0002B0BDE87040FFF794BF05F0010001F4DD
:104C9C00907505435BD0D60705D5CD0542BF636C37
:104CAC0043F001036364530704D518B1636C43F0FC
:104CBC0002036364960704D518B1636C43F00403D4
:104CCC006364150707D501F0200303431EBF636C13
:104CDC0043F008036364636C002B32D0920604D556
:104CEC008B0602D52046FFF764FF266820467369C1
:104CFC00626C03F0400302F0080253EA020522D072
:104D0C00FFF76AFE73695E0618D5226802F1140378
:104D1C0053E8003F23F04003143242E800310029ED
:104D2C00F3D1E06B50B1744B4363FDF777FD40B1A9
:104D3C00E06B436B02B0BDE870401847204601F0B1
:104D4C00DBFB02B070BD01F0D7FB6564F9E7206BAB
:104D5C00012840F09480D50640F19180C80640F1BE
:104D6C008E80002201921A6801925A680192019A6F
:104D7C005A6952064DD5E16B0A68526892B2002A04
:104D8C00DFD0A08D9042DCD9E2858A69202A36D00A
:104D9C0003F10C0252E8002F22F4807203F10C0094
:104DAC0040E800210029F3D103F1140252E8002F4E
:104DBC0022F0010203F1140040E800210029F3D194
:104DCC0003F1140252E8002F22F0400203F1140008
:104DDC0040E800210029F3D1202284F842202163ED
:104DEC0003F10C0252E8002F22F0100203F10C0028
:104DFC0040E800210029F3D1E06BFDF7EFFC022322
:104E0C006363E38DA18DC91A89B22046FFF7D0FEEA
:104E1C0097E7E28DE18D92B289B2002991D0A18DF4
:104E2C00891A89B200298CD003F10C0252E8002FA8
:104E3C0022F4907203F10C0545E800200028F3D110
:104E4C0003F1140252E8002F22F0010203F11405C1
:104E5C0045E800200028F3D1202284F8422020636A
:104E6C0003F10C0252E8002F22F0100203F10C05A2
:104E7C0045E800200028F3D102236363C5E716063A
:104E8C0028D50D0626D594F84120212A7FF459AF58
:104E9C00A168226AB1F5805F17D12169A9B932F8EE
:104EAC00021BC1F3080159602262E28C013A92B2F2
:104EBC00E284002A7FF445AFDA6822F08002DA60DF
:104ECC00DA6842F04002DA603BE7511C216212784A
:104EDC005A60EAE750067FF534AF4A067FF531AFEA
:104EEC00DA68204622F04002DA60202384F8413050
:104EFC0001F0FFFA25E700BFAD4B000890F84030F9
:104F0C00012B11D02423026880F84130D36823F0A0
:104F1C000C0343F00803D360202380F841300023B6
:104F2C0080F84030184670470220704790F84030A7
:104F3C00012B11D02423026880F84130D36823F070
:104F4C000C0343F00403D360202380F8413000238A
:104F5C0080F84030184670470220704790F8412086
:104F6C0090F84200104370470023C285436422230B
:104F7C008285026980F84230816203681AB1DA686E
:104F8C0042F48072DA605A69002042F001025A61E0
:104F9C00DA6842F02002DA60704770B590F842602F
:104FAC00202E07D141B13AB100240463FFF7DCFF96
:104FBC00204670BD0220FCE70120FAE7836810B59B
:104FCC0004462BB10322014698470023C4E902335F
:104FDC0010BD4B1E032B00D9FEE78900081F70473C
:104FEC000139435C13F0100004D0022916D80C4A86
:104FFC0032F81100DB0712D503290FD8DFE801F0D6
:10500C000205080B40F00100704740F0100070479B
:10501C0040F48070704740F480507047FEE7704752
:10502C00F47E00080139032900D9FEE7014B585CD6
:10503C00704700BFF07E00080139032900D9FEE754
:10504C00014B585C704700BFEC7E00082DE9F04125
:10505C000E460446FFF7BDFF06F10608054631462D
:10506C00204604EB0818FFF7DDFFD8F808302BB109
:10507C00C24323691A61DA680243DA60771E04EBD3
:10508C0047039B880B2B49D8DFE803F051181818FD
:10509C00060618184A4A4A2AE35DDE0604D5294654
:1050AC0004F11000FFF794FCE35DD80736D52946D0
:1050BC0004F11000BDE8F041FFF7D2BBE35DD90667
:1050CC0004D5294604F11000FFF738FCE35DDA073C
:1050DC0024D5294604F11000BDE8F041FFF772BB5E
:1050EC00294604F11000FFF7BDFB31462046FFF7BF
:1050FC00A3FF014606462046FFF772FF25692B6A7F
:10510C001843D8F80830286243B131462046FFF7DF
:10511C0089FFC3432B61EB681843E860BDE8F0815D
:10512C00294604F11000BDE8F041FFF79BBB236951
:10513C001B68DB07F2D404F11000BDE8F041FFF767
:10514C0007BA70B5012504462946861C36F8023F7D
:10515C0023B129462046FFF779FF00210135052DA3
:10516C00F4D1A36E3BB16FF0010223691A61DA68C6
:10517C0042F00102DA6049B123691B68DB0705D4F0
:10518C0004F11000BDE87040FFF7E2B970BD0121D9
:10519C001030FFF703BA0369186800F0010070477C
:1051AC0010B502460C46FFF7F6FF80B9CB68DB075B
:1051BC000ED5CB68104623F00103CB60FFF7E7FF59
:1051CC006FF001032361E36843F00103E36010BD5A
:1051DC001046BDE81040FFF7DABF00000B4B9842B9
:1051EC000BD0B0F1804F0AD0A3F59433984208D07D
:1051FC0003F58063984206D0FEE70020704701203B
:10520C007047022070470320704700BF002C0140FC
:10521C00024670B5044652F8100FFFF7DFFF054643
:10522C00104600F031FF0023084A04F1600642F8F2
:10523C002530E36004F1B005B54204D0103D28469A
:10524C00FAF7CEFFF8E7204670BD00BF340200200D
:10525C00F8B504460846FFF7C1FF236903B1FEE722
:10526C001B4D04F10C0245F820200E2204F110060F
:10527C003046C4E90C33C4E90E33C4E91033C4E935
:10528C001623216184F82C30A36484F84C3084F804
:10529C004D30E46000F0B4FE04F1600504F1B00799
:1052AC0028461035FFF78AFEBD42F9D100234FF690
:1052BC00FF72C4E90033C4E90632C4E90833A360C1
:1052CC00636180233046A362BDE8F840FFF740BA23
:1052DC003402002010B586B014220446002101A827
:1052EC0001F0A5FF0023694601A80093FEF7E0FF3B
:1052FC00206900F05FFF012802D002280FD0FEE7E2
:10530C00049CFEF7B5FFB4F5C06F05D00BD824F4A0
:10531C008074B4F5806F00D1400006B010BD059CC0
:10532C00FEF7B6FFEFE7B4F5E06FF4E7012A38B506
:10533C0005460C460BD0022A16D004B1013C296953
:10534C002846CC62EC61BDE83840FFF729BFFFF777
:10535C00C1FF084BB0FBF3F044432A69230C936262
:10536C000133B4FBF3F4E8E7FFF7B4FFB0FBF4F45C
:10537C00F3E700BF40420F00034B186810B1043034
:10538C00FFF720B9704700BF34020020FFF7F4BFCD
:10539C00034B586810B10430FFF714B9704700BFC5
:1053AC0034020020034B986810B10430FFF70AB99F
:1053BC00704700BF34020020034BD86810B1043092
:1053CC00FFF700B9704700BF340200200022C0E98B
:1053DC000022C0E902227047F8B504460E4600F1DF
:1053EC00600500F1B00728461035FFF7EFFFBD420E
:1053FC00F9D10023204631462361FFF729FF2046CF
:10540C00F8BD38B50023C0E90033C0E902338B681E
:10541C0004460D462BB102229847EB68E360AB685B
:10542C00A360204638BD30B5044687B002AD28468F
:10543C00FFF7E7FF95E80300CDE9000194E80300CE
:10544C0085E80300DDE90001049BA268A360059BCD
:10545C000492E26884E80300E36028460592FAF7B8
:10546C00BFFE07B030BD38B5836E04460D466030C4
:10547C001BB1BDE83840FFF7D6BFFFF7D4FFAB68D0
:10548C003BB16FF0010223691A61DA6842F0010244
:10549C00DA6038BD826810B50AB902F0ADFAC3689B
:1054AC00BDE81040184708B500B9FEE700F0A6FDAE
:1054BC000068836E13B16030FFF7ECFF08BDFFF797
:1054CC00F2BF10B500B9FEE7037F013B072B10D8E4
:1054DC00DFE803F004140F100F0F0F12012400F07B
:1054EC008DFD0068063400EB041083680BB1FFF7E8
:1054FC00D1FF10BD0324F2E70424F0E70224EEE709
:10550C00FFF7DFBFFFF7DDBF01F04EBD01F054BD6B
:10551C0086B0042841D8DFE800F003101C283400C2
:10552C001F4B20489A6942F004029A619B6903F070
:10553C0004030193019B06B07047194B1A489A69F2
:10554C0042F008029A619B6903F008030293029BE4
:10555C00F1E7134B15489A6942F010029A619B6966
:10556C0003F010030393039BE5E70D4B10489A6976
:10557C0042F020029A619B6903F020030493049B80
:10558C00D9E7074B0B489A6942F040029A619B6934
:10559C0003F040030593059BCDE70020CBE700BF4C
:1055AC000010024000080140000C014000100140B6
:1055BC00001401400018014008B5044900F0E8FC53
:1055CC00C0F3C430112800D9FEE708BD6883000879
:1055DC0041F20103984204D041F20203984202D0F6
:1055EC00FEE7102070471120704700000368134A33
:1055FC0082B0934211D1124B9A6942F400729A61B3
:10560C009B6903F400730093009B0E4B1868C30452
:10561C0011D40D4902B000F081BC0C4A9342F4D174
:10562C00074B9A6942F480629A619B6903F4806328
:10563C000193019BE9E702B0704700BF00240140D1
:10564C00001002401C000020688300080028014064
:10565C000368124A93420DD1114BDA6842F400727E
:10566C00DA60DA6822F40072DA609A6922F4007265
:10567C009A6170470B4A9342FBD1094BDA6842F4AA
:10568C008062DA60DA6822F48062DA609A6922F465
:10569C0080629A619A6922F48062E9E700240140F1
:1056AC000010024000280140F0B593B004463022AF
:1056BC00002106A801F0BBFD0023E204CDE9033371
:1056CC000593ADF80630029355D541F202039C4286
:1056DC0051D8314B20460693FFF77AFF0726054633
:1056EC00002301274FF46022CDE907338DF82430D5
:1056FC008DF82C300C9310930E938DF83C30274B77
:10570C0006A80A970D921C60FCF766FE00283ED195
:10571C0003A906A8CDE903570596FCF719FD002847
:10572C0035D106A8FCF750FF002830D106A8FCF7AD
:10573C00CBFD60BB0A2106A8FCF762FC38BB06A8AF
:10574C00FCF784FD830505D506A8FCF7FDFC80B2AB
:10575C00ADF8060006A8FCF71DFFC0B906A8FCF7BB
:10576C00B9FEA0B90C4A936823F400039360BDF80A
:10577C00060080B20CE00A49204600F0E7FB02A9C3
:10578C0006902046FFF718FF069B054613B900202C
:10579C0013B0F0BD0226A3E7002401401C0000203A
:1057AC0068830008F8B51349064600F0CFFBFFF7F5
:1057BC0015FD114F054657F8203073B9B020FFF78F
:1057CC00A3FE0C490446304600F0C0FB01462046BF
:1057DC00FFF702FE57F825301C601C6844B12046C8
:1057EC00FFF716FD2046BDE8F840B021FFF78EBE4E
:1057FC00F8BD00BF0481000834020020FCF7FABB9E
:10580C00704708B5FCF7EAFBFCF7D3FFFFF7F8FF8E
:10581C0008BD70470F4B84B0DA6942F08052DA61F0
:10582C00DA6902F080520192019A9A6942F00102FF
:10583C009A619A6902F001020292029A5A6942F044
:10584C0040025A615B6903F040030393039B04B06D
:10585C00704700BF001002400C4BD3F8FC20D20163
:10586C005EBFD3F8FC2042F08072C3F8FC2000220B
:10587C00074B5A601A6842F001021A6000BF00BF61
:10588C0000BF5868B0FA80F04009704700ED00E0A6
:10589C00001000E008B5FFF7BDFFFFF7DDFFFCF7D8
:1058AC008BFBFFF7B6FF00F0B7FEBDE808400148E0
:1058BC00FCF784BF200000200023C0E90033C0E9BE
:1058CC00023370472DE9F04301250E469046002720
:1058DC0000F00F0905FA09F58BB0ACB2012C07F1F9
:1058EC00010359D1C0F30310FFF712FE98B12D4BF1
:1058FC00C26853F8293002A91B0A93FAA3F3B3FA2E
:10590C0083F39C401440DC400323CDE902580494FB
:10591C000593FCF7CDFF14240023FFB27C43DFF882
:10592C008890D6F80880043406AD06934C44C5E93B
:10593C0001330993B8F1000F31D0022231462846C9
:10594C00C047D6E9028C95E8030014267E43CDE9C6
:10595C00000109EB0603043393E8030085E8030018
:10596C00DDE9000183E80300A36828460893E36897
:10597C00C4F80880C4F80CC00993FAF731FC19F983
:10598C000640002206212046FCF7A0FE2046FCF72C
:10599C00CDFE0BB0BDE8F0831F4664089EE7C446FD
:1059AC00D1E700BFFC7E0008440200200023012840
:1059BC0003F101020AD11422DBB25343054A181D2C
:1059CC001044816829B11A441369184713464008DA
:1059DC00EDE77047440200200120FDF73DB802209E
:1059EC00FDF73AB80420FDF737B80820FDF734B8B6
:1059FC001020FDF731B808B52020FDF72DF8402018
:105A0C00FDF72AF88020FDF727F84FF48070FDF79A
:105A1C0023F8BDE808404FF40070FDF71DB838B509
:105A2C0006244FF48065A8B2FDF716F8013C4FEA46
:105A3C004505F8D138BD0000344A08B51046062398
:105A4C0000F8043BFFF738FF072302F11800137529
:105A5C00FFF732FF082302F12C0082F82830FFF701
:105A6C002BFF092302F1400082F83C30FFF724FFA2
:105A7C000A23172102F1540082F85030FFF71CFF63
:105A8C0002F1680082F86410FFF716FF02F17C0047
:105A9C0082F87810FFF710FF02F1900082F88C105A
:105AAC00FFF70AFF02F1A40082F8A010FFF704FF31
:105ABC0082F8B410282102F1B800FFF7FDFE02F1C4
:105ACC00CC0082F8C810FFF7F7FE02F1E00082F874
