:020000040800F2
:1000000000500020791A0008C11A0008C11A00081F
:10001000C11A0008C11A0008C11A00080000000037
:10002000000000000000000000000000C11A0008ED
:10003000C11A000800000000C11A00087717000864
:10004000C11A0008C11A0008C11A0008C11A000824
:10005000C11A0008C11A0008C1170008C717000814
:10006000CD170008D3170008D9170008C11A0008D7
:10007000C11A0008C11A0008C11A0008C11A0008F4
:10008000C11A0008C11A0008C11A0008C11A0008E4
:10009000C11A0008C11A0008C11A0008DF170008B9
:1000A000C11A0008AD160008C11A0008C1160008E0
:1000B000C5160008D9160008ED160008C11A000878
:1000C000C11A0008C11A0008C11A0008C11A0008A4
:1000D000C11A0008111A0008291A0008451A000858
:1000E00007180008C11A0008C11A00080000000023
:1000F0000000000000000000000000000000000000
:0C01000000000000000000005FF808F1A3
:10010C0010B5054C237833B9044B13B10448AFF345
:10011C0000800123237010BD54000020000000005B
:10012C00A81B000808B5034B1BB103490348AFF3E8
:10013C00008008BD0000000058000020A81B00082B
:10014C004FF47A6358430023984200D8704700BF9D
:10015C000133F9E7034BD3F800281206FBD5C3F89B
:10016C00040870470030014008B5411E11F8010F1A
:10017C0000B908BDFFF7EEFFF8E71FB547F63003EF
:10018C001C22ADF804300DF1050120FA02F303F046
:10019C000F03092B94BF30333733043A01F8013F76
:1001AC00131DF2D1002301A88DF80E30FFF7DCFFF0
:1001BC0005B05DF804FB7FB528B9302004B0BDE86C
:1001CC007040FFF7C7BF01AB00211E460A25B0FBEC
:1001DC00F5F405FB1402303203F8012B0246092A10
:1001EC00204601F10101F2D80139705CFFF7B2FF32
:1001FC000029F9D104B070BD08B5FFF7B5FFBDE813
:10020C0008400148FFF7B0BFC01B0008064A9369BD
:10021C0043F010039361A2F58032536823F470030A
:10022C0043F4401353607047001002400D4A936929
:10023C0043F4804343F004039361A2F58832D2F86F
:10024C00043823F47F6343F49663C2F8043840F215
:10025C004132054BC3F8082842F20C02C3F80C28B3
:10026C00704700BF0010024000300140034AD2F832
:10027C00143843F00403C2F81438704700300140BE
:10028C00074B084AD2F80018890603D5D2F804089F
:10029C00C0B27047013B01D000BFF3E7FF207047AD
:1002AC0040420F00003001400F4BDA6942F400125B
:1002BC00DA619A6942F008029A610C4AD2F8003C61
:1002CC0023F07F4343F04C53C2F8003C0022084B10
:1002DC00C3F800245022C3F81C240922C3F820249C
:1002EC000122C3F8002470470010024000000140B6
:1002FC0000500040164BD3F8002442F48072C3F82F
:10030C00002442F21072D3F81414C90713D542F228
:10031C0010724000C3F810040D4BD3F81414890765
:10032C000DD5D3F81824D3F80024002042F4007221
:10033C00C3F800247047013AE5D1FF207047D3F889
:10034C001414480502D4013AE7D1F6E7FE207047B1
:10035C000050004070B52E4CD4F8005445F4807514
:10036C00C4F8005442F21075D4F81464F60735D56D
:10037C004000C4F8100442F210742548D0F814540C
:10038C00AE072FD5D0F8180442F21070204CD4F8D8
:10039C0014542D062DD5C4F8101442F210711C48BB
:1003AC00D0F81444240627D5C0F8102442F2107259
:1003BC001749D1F81404000621D542F21072C1F885
:1003CC001034134BD3F8141409061BD5D3F800249E
:1003DC00002042F40072C3F8002402E0013DC3D1B6
:1003EC00012070BDD0F814546D050ED4013CC5D15C
:1003FC00F6E70138CBD1F3E70139D1D1F0E7013A77
:10040C00D7D1EDE7013ADDD1EAE70220E9E700BFF9
:10041C0000500040424B30B5D3F8004444F4807493
:10042C00C3F8004442F21074D3F81454ED0755D5B8
:10043C0042F210744000C3F81004394BD3F8145432
:10044C00AD074FD5D3F8183442F21073344CD4F8AE
:10045C0014542D064DD542F21073C4F810143049C3
:10046C00D1F81444240647D5C1F8102442F2107276
:10047C002B4BD3F81414090641D5D3F8002442F4BD
:10048C008072C3F8002442F21073254AD2F8141477
:10049C00CD0737D540F00100C2F8100442F21072BB
:1004AC001F4BD3F8141488072FD5D3F8002422F44B
:1004BC008062C3F8002442F21072D3F81834184B3F
:1004CC00D3F81414490627D5D3F81004D3F8002414
:1004DC00C0B242F40072C3F8002402E0013CA3D184
:1004EC00FF2030BDD3F814546D05F9D4013CA5D1CF
:1004FC00F6E7013BABD1F3E7013BB1D1F0E7013AB1
:10050C00B7D1EDE7013BC1D1EAE7D3F814144C05A0
:10051C00E6D4013AC5D1E3E7013AD1D1E0E700BF17
:10052C00005000400B4A936943F4805343F004039A
:10053C009361A2F58832D2F80038C3F3130343F069
:10054C00384343F43003C2F800386422024B1A607B
:10055C00704700BF0010024000300140064AD2F83C
:10056C00003823F4702343F44033C2F800381023CE
:10057C00C2F81038704700BF00000140054B9A6864
:10058C009107FCD5D8609A68D207FCD5D868C0B260
:10059C00704700BF00300140064A936943F4007372
:1005AC0093610722044BC3F810240122C3F80824DA
:1005BC00704700BF0010024000200140074BD3F8E9
:1005CC00082442F48002C3F80824D3F800249207CC
:1005DC00FBD5D3F84C04C0F30B007047002001404E
:1005EC000E4AD36943F00103D361A2F58832D2F8E5
:1005FC00003823F0F00343F0B003C2F800384FF09A
:10060C00804347229A6240F2E732DA624FF4D042DA
:10061C009A6110221A6201221A607047001002407F
:10062C000A4A936943F0010393610022084B9A60D4
:10063C00D3F8002442F00102C3F80024D3F80824B4
:10064C0042F00102C3F80824704700BF00100240BA
:10065C000000014038B50125064CC4F81054D4F8FC
:10066C001434DB0704D50448FFF7C6FDC4F8145452
:10067C0038BD00BF00000140C31B0008F8B51B4B80
:10068C001B481F681B4E1C4D5C68FFF76DFD17F077
:10069C00020F0CBF30462846FFF766FD1748FFF7E0
:1006AC0063FD17F4003F0CBF30462846FFF75CFD96
:1006BC001348FFF759FD17F0007F0CBF3046284652
:1006CC00FFF752FD04F00303032B16BF0D4A0E4C2B
:1006DC0052F823400D48FFF747FD2046FFF744FD35
:1006EC00BDE8F8400A48FFF787BD00BF0010024084
:1006FC00F71B0008EF1B0008E91B0008FF1B000894
:10070C00071C000800220008F31B00080F1C00083F
:10071C00C21B00084FF0E02341F63F725A610022E1
:10072C009A6107221A617047024A536943F04003E9
:10073C00536170470010024070B50125154C164BE3
:10074C00A560236026681548FFF70EFD3046FFF7BD
:10075C0014FD1348FFF750FD0023A56023602668A5
:10076C001048FFF701FD3046FFF707FD0C48FFF777
:10077C0043FD4FF0FF33A560236024680A48FFF760
:10078C00F3FC2046FFF7F9FCBDE870400448FFF786
:10079C0033BD00BF00300240EFBEADDE1A1C0008B6
:1007AC00C21B0008301C0008461C0008024AD36912
:1007BC0043F00053D3617047001002404FF40062C5
:1007CC000A4B10B5C3F80824D3F82C440848FFF79B
:1007DC00CBFC2046FFF7D1FC0648074BB4F5006F65
:1007EC0018BF1846BDE81040FFF706BD007000406A
:1007FC00711C00085C1C0008651C0008024AD369C7
:10080C0043F40073D36170470010024038B50023E5
:10081C00154C1648C4F818384223C4F81C38D4F8C0
:10082C001838D4F81C5845EA0345FFF79DFC2846B8
:10083C00FFF7A3FC0E4B0F48422D18BF1846FFF7CD
:10084C00DBFCD4F804480C48FFF78EFC2046FFF77D
:10085C0094FC0A4B14F0200F094818BF1846BDE849
:10086C003840FFF7C9BC00BF002000409E1C0008A8
:10087C00651C00085C1C0008AC1C0008801C0008EF
:10088C008D1C0008124A70B5D369124C43F080538A
:10089C00D3614FF48073236026680F48FFF764FC24
:1008AC003046FFF76AFC0D4D0D48B6F5807F08BF4A
:1008BC002846FFF7A1FC64680A48FFF755FC204660
:1008CC00FFF75BFC2846BDE87040FFF795BC00BF06
:1008DC000010024000700040C81C0008C21B000839
:1008EC00BA1C0008D51C000838B50F4C0F482568F9
:1008FC00FFF73AFC2846FFF740FC0D48FFF77CFC5D
:10090C001223236024680B48FFF72EFC2046FFF7C8
:10091C0034FC094B14F0020F054818BF1846BDE80B
:10092C003840FFF769BC00BF00200240F01C0008F3
:10093C00C21B0008001D0008E31C0008F8B54AF2B1
:10094C00A55645F65A24164B1648DA6942F0006251
:10095C00DA611A6A42F001021A62A3F5D833C3F8BD
:10096C00106CD3F8107CC3F8144CD3F8145CFFF75C
:10097C00FBFB3846FFF701FC0B48FFF7F5FB28465D
:10098C00FFF7FBFBB74208D10848094BA54218BF3B
:10099C001846BDE8F840FFF72FBC0548F9E700BF43
:1009AC00001002401C1D00082A1D00085C1C0008D9
:1009BC00651C000838B54FF480130A4DFB20C5F8B0
:1009CC001038FFF7DBFD8024FF20FFF7D7FD013C3B
:1009DC00FAD110230448C5F81038BDE83840FFF7A9
:1009EC000BBC00BF00000140331D00081F4BD3F8A7
:1009FC00002442F48072C3F8002442F21072D3F83F
:100A0C001414C90725D57822C3F8102442F21072A9
:100A1C00164BD3F8141489071ED5D3F818240022CA
:100A2C00C3F8102442F21073104AD2F814140906B9
:100A3C0015D5C2F8100442F210720C4BD3F81414F2
:100A4C0009060FD5D3F8002442F40072C3F8002431
:100A5C0001E0013AD3D17047013ADAD1FBE7013B0F
:100A6C00E3D1F8E7013AE9D1F5E700BF00500040C7
:100A7C0010B5AE20FFF7BAFF8120FFF7B7FFCF20EC
:100A8C00FFF7B4FFAF20FFF7B1FF2548FFF7B4FB2A
:100A9C00244BD3F8002442F48072C3F8002442F2B1
:100AAC001072D3F81414C8072DD57822C3F810246B
:100ABC0042F210721B4BD3F81414890726D5D3F8C5
:100ACC0018244022C3F8102442F210731549D1F8AF
:100ADC00142412061DD58022FF20124B42F21071F5
:100AEC00C3F81004D3F81444240615D5013AF5D1F3
:100AFC00D3F800240C4842F40072C3F80024BDE87B
:100B0C001040FFF779BB013ACBD110BD013AD2D1DD
:100B1C00FBE7013BDBD1F8E70139E3D1F5E700BF97
:100B2C005A1D000800500040851D0008F8B54FF410
:100B3C000055584CFFF76AFB32202561FFF776FB16
:100B4C00FFF7E8FDFFF7FCFA5348FFF755FB534856
:100B5C00FFF752FB5248FFF74FFB5048FFF74CFB97
:100B6C004D48FFF749FB4F48FFF746FB4E48FFF750
:100B7C0043FB4FF000534FF496702361FFF7E0FAFC
:100B8C004A482561FFF738FB4348FFF735FB4848D7
:100B9C00FFF732FB4748FFF7E7FA3F48FFF72CFB1C
:100BAC004248FFF729FB3C48FFF726FB4248FFF77A
:100BBC0023FB4248FFF7D8FA3748FFF71DFBFFF736
:100BCC0055FBA5223E4BC3F80428FFF759FB0446FE
:100BDC003C48FFF7C9FA2046FFF7CFFAA52C54D1B1
:100BEC003948FFF709FB3148FFF706FB2A48FFF7A6
:100BFC0003FB3648FFF700FB3548FFF7FDFA0A20E8
:100C0C00FFF752FBFFF79CFA3248FFF7F5FA012485
:100C1C000025E0B2FFF76EFB002869D12E48FFF7E4
:100C2C00A3FA2046FFF7A9FA502C02D12B48FFF764
:100C3C009BFA1948FFF7E0FA0135502CEDB257D169
:100C4C002748FFF7D9FA0022422311462046FFF726
:100C5C0081FB0246B8B90A201146FFF771FA20460B
:100C6C00FFF7D8FB04461F48FFF77EFA2046FFF734
:100C7C0084FA1D4B1448422C18BF1846FFF774FA1F
:100C8C000548FFF7B9FA5124C3E71748FFF7B4FA40
:100C9C001648A9E700100140C21B0008B21D00084D
:100CAC00DF1D00080D1E00081A1E0008321E000869
:100CBC003A1E0008481E00087A1E00088A1E00080A
:100CCC0000300140AA1E00085C1C0008C01E000871
:100CDC00CC1E0008F71E0008121F0008261F000873
:100CEC00301F0008591F0008651C0008B81E0008BA
:100CFC0001347F2C8DD19748FFF736FA2846FFF741
:100D0C005AFA9548FFF778FA002D00F020819348A5
:100D1C00FFF772FA9248FFF76FFA9248FFF76CFAF6
:100D2C009148FFF769FA0A20FFF718FCFFF7FAFB66
:100D3C00FFF706FA8D48FFF75FFA4FF480138C4FDC
:100D4C009F20C7F81038FFF719FC06460020FFF764
:100D5C0015FC05460020FFF711FC10230446C7F8CC
:100D6C0010388448FFF700FA3046FFF706FA82483D
:100D7C00FFF7FAF92846FFF700FA7F48FFF7F4F976
:100D8C002046FFF7FAF97648FFF736FA7348FFF773
:100D9C0033FA7348FFF730FA7848FFF72DFA7848A2
:100DAC00FFF72AFA0A20FFF7F7FBFFF7C9F9FFF75D
:100DBC0005FC04467348FFF7D7F92046FFF7FBF90B
:100DCC007148FFF719FA6548FFF716FA6448FFF700
:100DDC0013FA6E48FFF710FA6D48FFF70DFA6D48DD
:100DEC00FFF7FEFB4FF08044FFF706FA4FF4FA735F
:100DFC003220A363FFF7A4F96748FFF7FDF900233E
:100E0C005648A363FFF7F8F95548FFF7F5F963481F
:100E1C00FFF7F2F9FFF732FC5048FFF7EDF95048B5
:100E2C00FFF7EAF95E48FFF7E7F9FFF7F9FBFFF781
:100E3C0011FC4A48FFF7E0F94948FFF7DDF959483A
:100E4C00FFF7DAF95848FFF7D7F95848FFF78CF94C
:100E5C00574B1868FFF7AFF95648FFF7CDF93F48E5
:100E6C00FFF7CAF93E48FFF7C7F95348FFF7C4F933
:100E7C00FFF75AFCFFF760FC3848FFF7BDF938481C
:100E8C00FFF7BAF94D48FFF7B7F9FFF78FFCFFF7FB
:100E9C0095FC3248FFF7B0F93148FFF7ADF94848F7
:100EAC00FFF7AAF9FFF7AAFCFFF7B0FC2B48FFF7F6
:100EBC00A3F92B48FFF7A0F94248FFF79DF9FFF77C
:100ECC00E1FC2648FFF798F92548FFF795F93E48CD
:100EDC00FFF792F9FFF708FD2048FFF78DF920483E
:100EEC00FFF78AF93948FFF787F9FFF727FD1B4809
:100EFC00FFF782F91A48FFF77FF93548FFF77CF9BD
:100F0C00FFF72CFBFFF70EFBFFF754FD1348FFF721
:100F1C0073F91348FFF770F92E48FFF76DF9FFF7D7
:100F2C00C3F9FFF7A5FD0D48FFF766F90C48FFF76D
:100F3C0063F92948FFF760F92848FFF715F90848C5
:100F4C00FFF75AF9BDE8F8402348FFF755B9244894
:100F5C00DEE600BF681F0008721F0008321E000882
:100F6C00C21B0008AF1F0008BB1F0008F11F0008C0
:100F7C0000000140222000082E200008302000082C
:100F8C003C2000085420000866200008702000084F
:100F9C0082200008A9200008C3200008DC200008DB
:100FAC00EF200008FC20000813210008362100085F
:100FBC00700000204321000847210008542100083C
:100FCC00612100086E2100087B2100089521000892
:100FDC00A2210008B7210008B21D0008C921000891
:100FEC007D1F000808B54FF00053094A4FF4FA7002
:100FFC001361FFF7A5F84FF400534FF4FA70136127
:10100C00FFF79EF8BDE808400248FFF7F5B800BFAF
:10101C0000100140EC21000808B5FFF787FDFFF731
:10102C00E1FFFCE7034A044B11681B780B44136087
:10103C00704700BF7400002000000020002808DB6F
:10104C0001224309034900F01F008240603341F83C
:10105C002320704700E100E0704708B5FFF7FCFF64
:10106C0008BD90F821200346022A06D00422826390
:10107C000120002283F8202070470268C06B1168A1
:10108C0021F00E011160116821F0010111600121A4
:10109C001A6C01FA02F24260002083F82110E8E792
:1010AC0008B590F82130022B03D004238363012070
:1010BC0008BD03681A6822F00E021A601A6822F042
:1010CC0001021A60174A93421FD0143293421ED069
:1010DC00143293421DD0143293421DD014329342D9
:1010EC001DD01432934214BF4FF080734FF4801311
:1010FC000D4A5360012380F82130002380F8203002
:10110C00436B03B198470020D2E70123F0E710238B
:10111C00EEE74FF48073EBE74FF48053E8E74FF4BE
:10112C008033E5E70800024000000240044A08B59D
:10113C005169014202D0506100F026FB08BD00BF8E
:10114C000004014070477047036870B5DD681E6984
:10115C000446B1070DD5AA070BD56FF002021A6130
:10116C00012202779B699B0769D000F0FBFA0023F0
:10117C002377710710D56A070ED56FF00402236828
:10118C0020461A61022222779B6913F4407F5CD0BF
:10119C0000F0E8FA0023237733070FD528070DD585
:1011AC006FF00802236820461A6104222277DB695B
:1011BC00990750D000F0D6FA00232377F20610D509
:1011CC00EB060ED56FF01002236820461A61082238
:1011DC002277DB6913F4407F43D000F0C3FA00237D
:1011EC002377F00708D5E90706D56FF001022368CD
:1011FC0020461A6100F093FA320608D52B0606D564
:10120C006FF08002236820461A6100F032F87006F5
:10121C0008D5690606D56FF04002236820461A618E
:10122C00FFF791FFB20622D5AB0620D56FF0200256
:10123C0023682046BDE870401A6100F019B800F030
:10124C008FFA2046FFF77EFF91E700F089FA2046DF
:10125C00FFF778FF9EE700F083FA2046FFF772FF56
:10126C00AAE700F07DFA2046FFF76CFFB7E770BDE8
:10127C0070477047026802F10C0353E8003F23F4F7
:10128C0090730C3242E8003102680029F2D102F16D
:10129C00140353E8003F23F0010302F1140C4CE853
:1012AC0000310029F3D1036B012B0BD102F10C039C
:1012BC0053E8003F23F0100302F10C0C4CE8003112
:1012CC000029F3D1202380F84230002303637047B8
:1012DC0008B50023406AC385C38400F055FB08BDE4
:1012EC00704790F8423007B5222B42D181680268D2
:1012FC00B1F5805F836A3FD1016900293FD1526803
:10130C00C2F3080223F8022B8362C38D013B9BB20C
:10131C00C385002B2DD10268D16821F02001D1604A
:10132C00D16821F48071D160516921F001015161C2
:10133C00202280F842204363026B012A026828D1E4
:10134C00036302F10C0353E8003F23F0100302F196
:10135C000C0C4CE800310029F3D11368DB0605D5E1
:10136C0001911368019353680193019B818DFFF7E1
:10137C00B7FF03B05DF804FB39B9016929B95268AC
:10138C00D2B21A70836A0133BEE7526802F07F0250
:10139C00F7E700F0F3FAECE7036873B51A68044654
:1013AC001607D9685D6908D1960668D58D0666D58D
:1013BC0002B0BDE87040FFF794BF05F0010001F4E6
:1013CC00907505435BD0D60705D5CD0542BF636C40
:1013DC0043F001036364530704D518B1636C43F005
:1013EC0002036364960704D518B1636C43F00403DD
:1013FC006364150707D501F0200303431EBF636C1C
:10140C0043F008036364636C002B32D0920604D55E
:10141C008B0602D52046FFF764FF266820467369C9
:10142C00626C03F0400302F0080253EA020522D07A
:10143C00FFF720FF73695E0618D5226802F11403CA
:10144C0053E8003F23F04003143242E800310029F6
:10145C00F3D1E06B50B1744B4363FFF721FE40B105
:10146C00E06B436B02B0BDE870401847204600F0BB
:10147C008BFA02B070BD00F087FA6564F9E7206B57
:10148C00012840F09480D50640F19180C80640F1C7
:10149C008E80002201921A6801925A680192019A78
:1014AC005A6952064DD5E16B0A68526892B2002A0D
:1014BC00DFD0A08D9042DCD9E2858A69202A36D013
:1014CC0003F10C0252E8002F22F4807203F10C009D
:1014DC0040E800210029F3D103F1140252E8002F57
:1014EC0022F0010203F1140040E800210029F3D19D
:1014FC0003F1140252E8002F22F0400203F1140011
:10150C0040E800210029F3D1202284F842202163F5
:10151C0003F10C0252E8002F22F0100203F10C0030
:10152C0040E800210029F3D1E06BFFF79AFD02237C
:10153C006363E38DA18DC91A89B22046FFF7D0FEF3
:10154C0097E7E28DE18D92B289B2002991D0A18DFD
:10155C00891A89B200298CD003F10C0252E8002FB1
:10156C0022F4907203F10C0545E800200028F3D119
:10157C0003F1140252E8002F22F0010203F11405CA
:10158C0045E800200028F3D1202284F84220206373
:10159C0003F10C0252E8002F22F0100203F10C05AB
:1015AC0045E800200028F3D102236363C5E7160643
:1015BC0028D50D0626D594F84120212A7FF459AF61
:1015CC00A168226AB1F5805F17D12169A9B932F8F7
:1015DC00021BC1F3080159602262E28C013A92B2FB
:1015EC00E284002A7FF445AFDA6822F08002DA60E8
:1015FC00DA6842F04002DA603BE7511C2162127853
:10160C005A60EAE750067FF534AF4A067FF531AFF2
:10161C00DA68204622F04002DA60202384F8413058
:10162C0000F0AFF925E700BFDD12000890F841206B
:10163C0090F84200104370470023C2854364222374
:10164C008285026980F84230816203681AB1DA68D7
:10165C0042F48072DA605A69002042F001025A6149
:10166C00DA6842F02002DA60704770B590F8426098
:10167C00202E07D141B13AB100240463FFF7DCFFFF
:10168C00204670BD0220FCE70120FAE7836810B504
:10169C00044613B1032201469847204610BD0000B2
:1016AC00034B186810B10430FFF74EBD704700BFF4
:1016BC0078000020FFF7F4BF034B586810B10430DA
:1016CC00FFF742BD704700BF78000020034B9868BD
:1016DC0010B10430FFF738BD704700BF7800002010
:1016EC00034BD86810B10430FFF72EBD704700BF14
:1016FC0078000020826810B50AB900F001FAC368BE
:10170C00BDE81040184708B500B9FEE700F022F913
:10171C000068836E13B16030FFF7ECFF08BDFFF774
:10172C00F2BF10B500B9FEE7037F013B072B10D8C1
:10173C00DFE803F004140F100F0F0F12012400F058
:10174C0009F90068063400EB041083680BB1FFF74D
:10175C00D1FF10BD0324F2E70424F0E70224EEE7E6
:10176C00FFF7DFBFFFF7DDBF704708B5FFF75AFC87
:10177C00FFF773FCFFF7F8FF08BD0023C0E9003347
:10178C00C0E90233704700000023012803F1010275
:10179C000AD11422DBB25343054A181D1044816848
:1017AC0029B11A441369184713464008EDE77047EE
:1017BC00880000200120FFF7B9BC0220FFF7B6BC5F
:1017CC000420FFF7B3BC0820FFF7B0BC1020FFF7D4
:1017DC00ADBC08B52020FFF7A9FC4020FFF7A6FC04
:1017EC008020FFF7A3FC4FF48070FFF79FFCBDE84F
:1017FC0008404FF40070FFF799BC38B506244FF43D
:10180C008065A8B2FFF792FC013C4FEA4505F8D180
:10181C0038BD0000344A08B51046062300F8043BD6
:10182C00FFF7ABFF072302F118001375FFF7A5FFB5
:10183C00082302F12C0082F82830FFF79EFF0923C1
:10184C0002F1400082F83C30FFF797FF0A23172182
:10185C0002F1540082F85030FFF78FFF02F168005C
:10186C0082F86410FFF789FF02F17C0082F878108F
:10187C00FFF783FF02F1900082F88C10FFF77DFFD9
:10188C0002F1A40082F8A010FFF777FF82F8B410E1
:10189C00282102F1B800FFF770FF02F1CC0082F8AA
:1018AC00C810FFF76AFF02F1E00082F8DC10FFF7C6
:1018BC0064FF02F1F40082F8F010FFF75EFF02F50E
:1018CC00847082F80411FFF758FF02F58E7082F8CD
:1018DC001811FFF752FFBDE8084002F5987082F826
:1018EC002C11FFF74ABF00BF8800002038B5054C0B
:1018FC00A4F5A075143C201DFFF7C8FEAC42F9D12D
:10190C0038BD00BFC80100200F4B1A6842F001021D
:10191C001A6059680D4A0A405A601A6822F084729B
:10192C0022F480321A601A6822F480221A605A68F3
:10193C0022F4FE025A604FF41F029A604FF00062CC
:10194C00034B9A60704700BF001002400000FFF884
:10195C0000ED00E00438704708B5074B90F865209F
:10196C0053F82200FFF762FE00F02200A0F12203E0
:10197C005842584108BD00BFC8010020836C043890
:10198C001847C36C0438184730B5044650F804396E
:10199C0085B01D6815F0010512D0002200921A685E
:1019AC0000925B680093009BFFF7D6FF40BB0122BF
:1019BC00204604F1620105B0BDE83040FFF755BE8A
:1019CC00196811F0020106D001951A6801925B6842
:1019DC000193019BE8E71A6812F0040206D0029109
:1019EC001A6802925B680293029BDDE7196809078B
:1019FC00DAD503921A6803925B680393039BD3E7CF
:101A0C0005B030BD08B52520FFF718FB024B186850
:101A1C00BDE80840FFF7C0BCC8010020262008B56F
:101A2C00FFF70CFB034B586818B1BDE80840FFF7F3
:101A3C00B3BC08BDC8010020272008B5FFF7FEFA8B
:101A4C00034B986818B1BDE80840FFF7A5BC08BD6A
:101A5C00C8010020FEE700001622024B4FF0FF30B9
:101A6C001A6070470C03002001207047FFF74CFFF1
:101A7C000B480C490C4A002302E0D458C4500433E0
:101A8C00C4188C42F9D3094A094C002301E01360B5
:101A9C000432A242FBD300F00FF8FFF7BDFA7047F7
:101AAC0000000020540000201C22000854000020DC
:101ABC0010030020FEE7000070B500260C4D0D4B06
:101ACC005B1B9C10A64209D1002600F067F80A4D5A
:101ADC000A4B5B1B9C10A64205D170BD55F8043B0C
:101AEC0098470136EEE755F8043B98470136F2E784
:101AFC000C2200080C2200080C22000814220008FA
:101B0C0008B500F000F8062008B500F02BF801200D
:101B1C00FFF7A0FF1F2938B505460C4604D916233C
:101B2C0003604FF0FF3038BDC26B12B152F8213058
:101B3C004BB9284600F030F8224601462846BDE84D
:101B4C00384000F017B8012B0AD0591C03D11623CA
:101B5C0003600120E7E70021204642F82410984753
:101B6C000020E0E7024B01461868FFF7D3BF00BF27
:101B7C000400002038B50023064D044608461146E3
:101B8C002B60FFF769FF431C02D12B6803B1236064
:101B9C0038BD00BF0C030020FFF766BFF8B500BFCF
:101BAC00F8BC08BC9E467047F8B500BFF8BC08BC32
:041BBC009E4670478A
:101BC0000D0A002020455854493A20496E74657228
:101BD00072757074207472696767657265642076C7
:101BE0006961205357494552005265616479004F3D
:101BF0006666003F3F3F0020204853493A20002CB2
:101C0000204853453A20002C20504C4C3A20002CC0
:101C100020535953434C4B3A200020202043524339
:101C2000283078444541444245454629203D20001E
:101C3000202020435243283078303030303030304C
:101C40003029203D20002020204352432830784670
:101C50004646464646464629203D200020284D411E
:101C6000544348290020284D49534D4154434829A5
:101C70000020202044414320444F5231203D200089
:101C8000202852544F46462073657429002028525C
:101C9000544F4646206E6F742073657429002020CF
:101CA0002052544320434E54203D200020202052F7
:101CB00054432043524C203D20002028756E657807
:101CC00070656374656429002020205057522043BA
:101CD00052203D20002020205057522043535220B4
:101CE0003D200020286C6174656E63793D312900C8
:101CF000202020464C4153485F414352203D200064
:101D0000202020464C4153485F4143522061667475
:101D10006572207772697465203D20002020204282
:101D20004B5020445231203D20002C204452322080
:101D30003D200020202053656E74203078464220DC
:101D40002B20313238206279746573206F662070E1
:101D50006978656C20646174610020202053656E91
:101D600074204F4C454420696E697420636F6D6D1B
:101D7000616E6473202841452C2038312043462C65
:101D8000204146290020202053656E7420313238CE
:101D9000206279746573206F66204F4C4544207033
:101DA0006978656C206461746120766961204932CC
:101DB00043003D3D3D3D3D3D3D3D3D3D3D3D3D3D8A
:101DC0003D3D3D3D3D3D3D3D3D3D3D3D3D3D3D3D43
:101DD0003D3D3D3D3D3D3D3D3D3D3D3D3D3D00535A
:101DE000544D333220426C75652050696C6C204331
:101DF0006F6D70726568656E736976652050657287
:101E00006970686572616C205465737400312E20AE
:101E10004750494F205465737400202020426C695C
:101E20006E6B696E672050433133204C45442E2E33
:101E30002E002020205041535300322E2055534174
:101E400052542054657374002020205772697469BD
:101E50006E6720737472696E6720766961205541E0
:101E600052543A2048656C6C6F2066726F6D204248
:101E70006C75652050696C6C2100332E20554152E1
:101E80005420525820546573740020202053656EEE
:101E900064696E67203078413520766961206C6F07
:101EA0006F706261636B2E2E2E00202020526563BE
:101EB00065697665643A20002020204641494C003F
:101EC000342E204932432054657374002020204969
:101ED0006E697469616C697A696E67204932433151
:101EE00020285042363D53434C2C205042373D531E
:101EF0004441292E2E2E002020205363616E6E69EE
:101F00006E6720666F7220646576696365732E2E36
:101F10002E00202020466F756E642064657669630C
:101F20006520617420002028454550524F4D2900FE
:101F300020202057726974696E672030783432200F
:101F4000746F20454550524F4D20616464722030BB
:101F500078303030302E2E2E0020202052656164E3
:101F6000206261636B3A2000202020466F756E640A
:101F7000200020646576696365287329002020208D
:101F80005041535320286E6F2064657669636573F2
:101F900020657870656374656420776974686F750F
:101FA00074206578742064657669636573290035EB
:101FB0002E20535049205465737400202020496E10
:101FC000697469616C697A696E6720535049312080
:101FD000285041353D53434B2C205041363D4D490F
:101FE000534F2C205041373D4D4F5349292E2E2E13
:101FF0000020202052656164696E67204A4544458F
:10200000432049442066726F6D2053504920666C0E
:102010006173682028636D642030783946292E2E3C
:102020002E002020204A454445432049443A2000C0
:10203000362E2041444320546573740020202049EB
:102040006E697469616C697A696E672041444331D5
:102050002E2E2E00202020414443312072656164E1
:10206000696E673A20002028302D34303935290038
:10207000372E2054696D65722F50574D205465736B
:102080007400202020496E697469616C697A696EF8
:10209000672054494D32204348322050574D206F1D
:1020A0006E205041312E2E2E002020205365747456
:1020B000696E67206475747920746F203530252E21
:1020C0002E2E0020202053657474696E672064757D
:1020D000747920746F2030252E2E2E00382E205239
:1020E00043432053797374656D20496E666F0039E0
:1020F0002E204558544920546573740031302E20E9
:102100005379735469636B2054696D65722054650B
:102110007374002020205379735469636B207275A7
:102120006E6E696E6720617420316D7320696E7404
:10213000657276616C00202020456C617073656467
:102140003A2000206D730031312E20435243205439
:102150006573740031322E204441432054657374FA
:102160000031332E205254432054657374003134AF
:102170002E2050575220546573740031352E20465E
:102180006C61736820436F6E74726F6C6C65722043
:10219000546573740031362E20424B5020546573C1
:1021A000740031372E2053504920544654204C435C
:1021B0004420546573740031382E20493243204F37
:1021C0004C4544205465737400416C6C20313820B8
:1021D0007065726970686572616C20746573747380
:1021E00020636F6D706C6574656421007469636B46
:1021F000004853490048534500504C4C0000000033
:0C220000F1210008F5210008F921000878
:08220C0031010008211800084F
:082214000D010008F918000893
:10221C00010000000800002000000000D401002094
:10222C003C020020A402002000000000000000007E
:10223C000000000000000000000000000000000092
:10224C000000000000000000000000000000000082
:10225C000000000000000000000000000000000072
:04226C00000000006E
:0400000508001A795C
:00000001FF
