:020000040800F2
:1000000000500020C118000809190008091900084B
:100010000919000809190008091900080000000062
:1000200000000000000000000000000009190008A6
:10003000091900080000000009190008BF15000890
:100040000919000809190008091900080919000808
:100050000919000809190008091600080F160008F8
:10006000151600081B1600082116000809190008BB
:1000700009190008091900080919000809190008D8
:1000800009190008091900080919000809190008C8
:10009000091900080919000809190008271600089D
:1000A00009190008F51400080919000809150008C5
:1000B0000D1500082115000835150008091900085C
:1000C0000919000809190008091900080919000888
:1000D0000919000859180008711800088D1800083F
:1000E0004F1600080919000809190008000000004F
:1000F0000000000000000000000000000000000000
:0C01000000000000000000005FF808F1A3
:10010C0010B5054C237833B9044B13B10448AFF345
:10011C0000800123237010BD54000020000000005B
:10012C00F019000808B5034B1BB103490348AFF3A2
:10013C00008008BD0000000058000020F0190008E5
:10014C004FF47A6358430023984200D8704700BF9D
:10015C000133F9E7034BD3F800281206FBD5C3F89B
:10016C00040870470030014008B5411E11F8010F1A
:10017C0000B908BDFFF7EEFFF8E71FB547F63003EF
:10018C001C22ADF804300DF1050120FA02F303F046
:10019C000F03092B94BF30333733043A01F8013F76
:1001AC00131DF2D1002301A88DF80E30FFF7DCFFF0
:1001BC0005B05DF804FB7FB528B9302004B0BDE86C
:1001CC007040FFF7C7BF01AB00211E460A25B0FBEC
:1001DC00F5F405FB1402303203F8012B0246092A10
:1001EC00204601F10101F2D80139705CFFF7B2FF32
:1001FC000029F9D104B070BD08B5FFF7B5FFBDE813
:10020C0008400148FFF7B0BF081A0008064A936976
:10021C0043F010039361A2F58032536823F470030A
:10022C0043F4401353607047001002400D4A936929
:10023C0043F4804343F004039361A2F58832D2F86F
:10024C00043823F47F6343F49663C2F8043840F215
:10025C004132054BC3F8082842F20C02C3F80C28B3
:10026C00704700BF0010024000300140034AD2F832
:10027C00143843F00403C2F81438704700300140BE
:10028C00074B084AD2F80018890603D5D2F804089F
:10029C00C0B27047013B01D000BFF3E7FF207047AD
:1002AC0040420F00003001400F4BDA6942F400125B
:1002BC00DA619A6942F008029A610C4AD2F8003C61
:1002CC0023F07F4343F04C53C2F8003C0022084B10
:1002DC00C3F800245022C3F81C240922C3F820249C
:1002EC000122C3F8002470470010024000000140B6
:1002FC0000500040164BD3F8002442F48072C3F82F
:10030C00002442F21072D3F81414C90713D542F228
:10031C0010724000C3F810040D4BD3F81414890765
:10032C000DD5D3F81824D3F80024002042F4007221
:10033C00C3F800247047013AE5D1FF207047D3F889
:10034C001414480502D4013AE7D1F6E7FE207047B1
:10035C000050004070B52E4CD4F8005445F4807514
:10036C00C4F8005442F21075D4F81464F60735D56D
:10037C004000C4F8100442F210742548D0F814540C
:10038C00AE072FD5D0F8180442F21070204CD4F8D8
:10039C0014542D062DD5C4F8101442F210711C48BB
:1003AC00D0F81444240627D5C0F8102442F2107259
:1003BC001749D1F81404000621D542F21072C1F885
:1003CC001034134BD3F8141409061BD5D3F800249E
:1003DC00002042F40072C3F8002402E0013DC3D1B6
:1003EC00012070BDD0F814546D050ED4013CC5D15C
:1003FC00F6E70138CBD1F3E70139D1D1F0E7013A77
:10040C00D7D1EDE7013ADDD1EAE70220E9E700BFF9
:10041C0000500040424B30B5D3F8004444F4807493
:10042C00C3F8004442F21074D3F81454ED0755D5B8
:10043C0042F210744000C3F81004394BD3F8145432
:10044C00AD074FD5D3F8183442F21073344CD4F8AE
:10045C0014542D064DD542F21073C4F810143049C3
:10046C00D1F81444240647D5C1F8102442F2107276
:10047C002B4BD3F81414090641D5D3F8002442F4BD
:10048C008072C3F8002442F21073254AD2F8141477
:10049C00CD0737D540F00100C2F8100442F21072BB
:1004AC001F4BD3F8141488072FD5D3F8002422F44B
:1004BC008062C3F8002442F21072D3F81834184B3F
:1004CC00D3F81414490627D5D3F81004D3F8002414
:1004DC00C0B242F40072C3F8002402E0013CA3D184
:1004EC00FF2030BDD3F814546D05F9D4013CA5D1CF
:1004FC00F6E7013BABD1F3E7013BB1D1F0E7013AB1
:10050C00B7D1EDE7013BC1D1EAE7D3F814144C05A0
:10051C00E6D4013AC5D1E3E7013AD1D1E0E700BF17
:10052C00005000400B4A936943F4805343F004039A
:10053C009361A2F58832D2F80038C3F3130343F069
:10054C00384343F43003C2F800386422024B1A607B
:10055C00704700BF0010024000300140064AD2F83C
:10056C00003823F4702343F44033C2F800381023CE
:10057C00C2F81038704700BF00000140054B9A6864
:10058C009107FCD5D8609A68D207FCD5D868C0B260
:10059C00704700BF00300140064A936943F4007372
:1005AC0093610722044BC3F810240122C3F80824DA
:1005BC00704700BF0010024000200140074BD3F8E9
:1005CC00082442F48002C3F80824D3F800249207CC
:1005DC00FBD5D3F84C04C0F30B007047002001404E
:1005EC000E4AD36943F00103D361A2F58832D2F8E5
:1005FC00003823F0F00343F0B003C2F800384FF09A
:10060C00804347229A6240F2E732DA624FF4D042DA
:10061C009A6110221A6201221A607047001002407F
:10062C000A4A936943F0010393610022084B9A60D4
:10063C00D3F8002442F00102C3F80024D3F80824B4
:10064C0042F00102C3F80824704700BF00100240BA
:10065C000000014038B50125064CC4F81054D4F8FC
:10066C001434DB0704D50448FFF7C6FDC4F8145452
:10067C0038BD00BF000001400B1A0008F8B51B4B39
:10068C001B481F681B4E1C4D5C68FFF76DFD17F077
:10069C00020F0CBF30462846FFF766FD1748FFF7E0
:1006AC0063FD17F4003F0CBF30462846FFF75CFD96
:1006BC001348FFF759FD17F0007F0CBF3046284652
:1006CC00FFF752FD04F00303032B16BF0D4A0E4C2B
:1006DC0052F823400D48FFF747FD2046FFF744FD35
:1006EC00BDE8F8400A48FFF787BD00BF0010024084
:1006FC003F1A0008371A0008311A0008471A000878
:10070C004F1A0008A01F00083B1A0008571A0008CF
:10071C000A1A00084FF0E02341F63F725A6100229A
:10072C009A6107221A617047024A536943F04003E9
:10073C00536170470010024070B50125154C164BE3
:10074C00A560236026681548FFF70EFD3046FFF7BD
:10075C0014FD1348FFF750FD0023A56023602668A5
:10076C001048FFF701FD3046FFF707FD0C48FFF777
:10077C0043FD4FF0FF33A560236024680A48FFF760
:10078C00F3FC2046FFF7F9FCBDE870400448FFF786
:10079C0033BD00BF00300240EFBEADDE621A000870
:1007AC000A1A0008781A00088E1A0008024AD3693F
:1007BC0043F00053D3617047001002404FF40062C5
:1007CC000A4B10B5C3F80824D3F82C440848FFF79B
:1007DC00CBFC2046FFF7D1FC0648074BB4F5006F65
:1007EC0018BF1846BDE81040FFF706BD007000406A
:1007FC00B91A0008A41A0008AD1A0008024AD369F5
:10080C0043F40073D36170470010024038B50023E5
:10081C00154C1648C4F818384223C4F81C38D4F8C0
:10082C001838D4F81C5845EA0345FFF79DFC2846B8
:10083C00FFF7A3FC0E4B0F48422D18BF1846FFF7CD
:10084C00DBFCD4F804480C48FFF78EFC2046FFF77D
:10085C0094FC0A4B14F0200F094818BF1846BDE849
:10086C003840FFF7C9BC00BF00200040E61A000862
:10087C00AD1A0008A41A0008F41A0008C81A0008D7
:10088C00D51A0008124A70B5D369124C43F0805344
:10089C00D3614FF48073236026680F48FFF764FC24
:1008AC003046FFF76AFC0D4D0D48B6F5807F08BF4A
:1008BC002846FFF7A1FC64680A48FFF755FC204660
:1008CC00FFF75BFC2846BDE87040FFF795BC00BF06
:1008DC000010024000700040101B00080A1A0008AB
:1008EC00021B00081D1B000838B50F4C0F4825686B
:1008FC00FFF73AFC2846FFF740FC0D48FFF77CFC5D
:10090C001223236024680B48FFF72EFC2046FFF7C8
:10091C0034FC094B14F0020F054818BF1846BDE80B
:10092C003840FFF769BC00BF00200240381B0008AC
:10093C000A1A0008481B00082B1B0008F8B54AF2DD
:10094C00A55645F65A24164B1648DA6942F0006251
:10095C00DA611A6A42F001021A62A3F5D833C3F8BD
:10096C00106CD3F8107CC3F8144CD3F8145CFFF75C
:10097C00FBFB3846FFF701FC0B48FFF7F5FB28465D
:10098C00FFF7FBFBB74208D10848094BA54218BF3B
:10099C001846BDE8F840FFF72FBC0548F9E700BF43
:1009AC0000100240641B0008721B0008A41A000807
:1009BC00AD1A0008F8B54FF40055584CFFF726FC5B
:1009CC0032202561FFF732FCFFF7A4FEFFF7B8FBDE
:1009DC005348FFF711FC5348FFF70EFC5248FFF742
:1009EC000BFC5048FFF708FC4D48FFF705FC4F483F
:1009FC00FFF702FC4E48FFF7FFFB4FF000534FF49C
:100A0C0096702361FFF79CFB4A482561FFF7F4FBC6
:100A1C004348FFF7F1FB4848FFF7EEFB4748FFF769
:100A2C00A3FB3F48FFF7E8FB4248FFF7E5FB3C48D8
:100A3C00FFF7E2FB4248FFF7DFFB4248FFF794FB6E
:100A4C003748FFF7D9FBFFF711FCA5223E4BC3F843
:100A5C000428FFF715FC04463C48FFF785FB2046AD
:100A6C00FFF78BFBA52C54D13948FFF7C5FB314858
:100A7C00FFF7C2FB2A48FFF7BFFB3648FFF7BCFB6A
:100A8C003548FFF7B9FB0A20FFF70EFCFFF758FBC0
:100A9C003248FFF7B1FB01240025E0B2FFF72AFC36
:100AAC00002869D12E48FFF75FFB2046FFF765FB56
:100ABC00502C02D12B48FFF757FB1948FFF79CFB32
:100ACC000135502CEDB257D12748FFF795FB00228A
:100ADC00422311462046FFF73DFC0246B8B90A20D6
:100AEC001146FFF72DFB2046FFF794FC04461F48E8
:100AFC00FFF73AFB2046FFF740FB1D4B1448422CF6
:100B0C0018BF1846FFF730FB0548FFF775FB51245B
:100B1C00C3E71748FFF770FB1648A9E70010014020
:100B2C000A1A00087B1B0008A81B0008D61B00082B
:100B3C00E31B0008FB1B0008031C0008111C000829
:100B4C00431C0008531C000800300140731C0008B3
:100B5C00A41A0008891C0008951C0008C01C000879
:100B6C00DB1C0008EF1C0008F91C0008221D000803
:100B7C00AD1A0008811C000801347F2C8DD18948E6
:100B8C00FFF7F2FA2846FFF716FB8748FFF734FB0E
:100B9C00002D00F004818548FFF72EFB8448FFF7F9
:100BAC002BFB8448FFF728FB8348FFF725FB0A2023
:100BBC00FFF7D4FCFFF7B6FCFFF7C2FA7F48FFF74C
:100BCC001BFB4FF480137E4F9F20C7F81038FFF7A4
:100BDC00D5FC06460020FFF7D1FC05460020FFF7A8
:100BEC00CDFC10230446C7F810387648FFF7BCFA42
:100BFC003046FFF7C2FA7448FFF7B6FA2846FFF7FB
:100C0C00BCFA7148FFF7B0FA2046FFF7B6FA68480D
:100C1C00FFF7F2FA6548FFF7EFFA6548FFF7ECFAD1
:100C2C006A48FFF7E9FA6A48FFF7E6FA0A20FFF785
:100C3C00B3FCFFF785FAFFF7C1FC04466548FFF7E4
:100C4C0093FA2046FFF7B7FA6348FFF7D5FA5748EF
:100C5C00FFF7D2FA5648FFF7CFFA6048FFF7CCFA05
:100C6C005F48FFF7C9FA5F48FFF7BAFC4FF08044C2
:100C7C00FFF7C2FA4FF4FA733220A363FFF760FA5E
:100C8C005948FFF7B9FA00234848A363FFF7B4FAB1
:100C9C004748FFF7B1FA5548FFF7AEFAFFF7EEFCFD
:100CAC004248FFF7A9FA4248FFF7A6FA5048FFF767
:100CBC00A3FAFFF7B5FCFFF7CDFC3C48FFF79CFA15
:100CCC003B48FFF799FA4B48FFF796FA4A48FFF76B
:100CDC0093FA4A48FFF748FA494B1868FFF76BFA42
:100CEC004848FFF789FA3148FFF786FA3048FFF792
:100CFC0083FA4548FFF780FAFFF716FDFFF71CFD56
:100D0C002A48FFF779FA2A48FFF776FA3F48FFF7A7
:100D1C0073FAFFF74BFDFFF751FD2448FFF76CFA10
:100D2C002348FFF769FA3A48FFF766FAFFF766FDC2
:100D3C00FFF76CFD1D48FFF75FFA1D48FFF75CFAE3
:100D4C003448FFF759FAFFF79DFD1848FFF754FA9E
:100D5C001748FFF751FA3048FFF74EFAFFF7C4FD7A
:100D6C001248FFF749FA1248FFF746FA2B48FFF7EB
:100D7C0043FAFFF7E3FD0D48FFF73EFA0C48FFF787
:100D8C003BFA2748FFF738FA2648FFF7EDF90848F1
:100D9C00FFF732FABDE8F8402148FFF72DBA224898
:100DAC00FAE600BF311D00083B1D0008FB1B0008C4
:100DBC000A1A0008781D0008841D0008BA1D0008D6
:100DCC0000000140EB1D0008F71D0008F91D00088C
:100DDC00051E00081D1E00082F1E0008391E0008E5
:100DEC004B1E0008721E00088C1E0008A51E000871
:100DFC00B81E0008C51E0008DC1E0008FF1E0008F7
:100E0C00700000200C1F0008101F00081D1F000898
:100E1C002A1F0008371F0008441F00085E1F000827
:100E2C007B1B00086B1F0008461D000808B54FF01F
:100E3C000053094A4FF4FA701361FFF781F94FF42C
:100E4C0000534FF4FA701361FFF77AF9BDE80840CC
:100E5C000248FFF7D1B900BF001001408E1F0008F7
:100E6C0008B5FFF7A7FDFFF7E1FFFCE7034A044BCA
:100E7C0011681B780B441360704700BF740000208E
:100E8C0000000020002808DB01224309034900F080
:100E9C001F008240603341F82320704700E100E0DE
:100EAC00704708B5FFF7FCFF08BD90F821200346FA
:100EBC00022A06D0042282630120002283F820201B
:100ECC0070470268C06B116821F00E011160116847
:100EDC0021F00101116001211A6C01FA02F2426049
:100EEC00002083F82110E8E708B590F82130022B98
:100EFC0003D004238363012008BD03681A6822F021
:100F0C000E021A601A6822F001021A60174A934204
:100F1C001FD0143293421ED0143293421DD014327F
:100F2C0093421DD0143293421DD01432934214BFFD
:100F3C004FF080734FF480130D4A5360012380F8F7
:100F4C002130002380F82030436B03B198470020F8
:100F5C00D2E70123F0E71023EEE74FF48073EBE7C1
:100F6C004FF48053E8E74FF48033E5E70800024084
:100F7C0000000240044A08B55169014202D0506198
:100F8C0000F026FB08BD00BF00040140704770470D
:100F9C00036870B5DD681E690446B1070DD5AA0754
:100FAC000BD56FF002021A61012202779B699B0735
:100FBC0069D000F0FBFA00232377710710D56A077C
:100FCC000ED56FF00402236820461A6102222277A4
:100FDC009B6913F4407F5CD000F0E8FA0023237780
:100FEC0033070FD528070DD56FF00802236820466C
:100FFC001A6104222277DB69990750D000F0D6FAE7
:10100C0000232377F20610D5EB060ED56FF01002F5
:10101C00236820461A6108222277DB6913F4407F8B
:10102C0043D000F0C3FA00232377F00708D5E90773
:10103C0006D56FF00102236820461A6100F093FA7E
:10104C00320608D52B0606D56FF0800223682046A1
:10105C001A6100F032F8700608D5690606D56FF0F3
:10106C004002236820461A61FFF791FFB20622D591
:10107C00AB0620D56FF0200223682046BDE87040F7
:10108C001A6100F019B800F08FFA2046FFF77EFFC6
:10109C0091E700F089FA2046FFF778FF9EE700F011
:1010AC0083FA2046FFF772FFAAE700F07DFA20468C
:1010BC00FFF76CFFB7E770BD70477047026802F12D
:1010CC000C0353E8003F23F490730C3242E80031D8
:1010DC0002680029F2D102F1140353E8003F23F017
:1010EC00010302F1140C4CE800310029F3D1036B1D
:1010FC00012B0BD102F10C0353E8003F23F010033A
:10110C0002F10C0C4CE800310029F3D1202380F8BB
:10111C00423000230363704708B50023406AC3853F
:10112C00C38400F055FB08BD704790F8423007B5FA
:10113C00222B42D181680268B1F5805F836A3FD16E
:10114C00016900293FD15268C2F3080223F8022B2F
:10115C008362C38D013B9BB2C385002B2DD10268EA
:10116C00D16821F02001D160D16821F48071D16067
:10117C00516921F001015161202280F84220436322
:10118C00026B012A026828D1036302F10C0353E8B5
:10119C00003F23F0100302F10C0C4CE80031002945
:1011AC00F3D11368DB0605D50191136801935368DD
:1011BC000193019B818DFFF7B7FF03B05DF804FB32
:1011CC0039B9016929B95268D2B21A70836A0133EC
:1011DC00BEE7526802F07F02F7E700F0F3FAECE7A3
:1011EC00036873B51A6804461607D9685D6908D197
:1011FC00960668D58D0666D502B0BDE87040FFF73F
:10120C0094BF05F0010001F4907505435BD0D6073F
:10121C0005D5CD0542BF636C43F0010363645307EE
:10122C0004D518B1636C43F002036364960704D5CC
:10123C0018B1636C43F004036364150707D501F020
:10124C00200303431EBF636C43F008036364636CA9
:10125C00002B32D0920604D58B0602D52046FFF720
:10126C0064FF266820467369626C03F0400302F049
:10127C00080253EA020522D0FFF720FF73695E06CD
:10128C0018D5226802F1140353E8003F23F0400301
:10129C00143242E800310029F3D1E06B50B1744BA9
:1012AC004363FFF721FE40B1E06B436B02B0BDE836
:1012BC0070401847204600F08BFA02B070BD00F069
:1012CC0087FA6564F9E7206B012840F09480D50615
:1012DC0040F19180C80640F18E80002201921A687C
:1012EC0001925A680192019A5A6952064DD5E16BE6
:1012FC000A68526892B2002ADFD0A08D9042DCD9E5
:10130C00E2858A69202A36D003F10C0252E8002FBC
:10131C0022F4807203F10C0040E800210029F3D183
:10132C0003F1140252E8002F22F0010203F1140021
:10133C0040E800210029F3D103F1140252E8002FF8
:10134C0022F0400203F1140040E800210029F3D1FF
:10135C00202284F84220216303F10C0252E8002F72
:10136C0022F0100203F10C0040E800210029F3D117
:10137C00E06BFFF79AFD02236363E38DA18DC91A1D
:10138C0089B22046FFF7D0FE97E7E28DE18D92B24D
:10139C0089B2002991D0A18D891A89B200298CD0EB
:1013AC0003F10C0252E8002F22F4907203F10C05A9
:1013BC0045E800200028F3D103F1140252E8002F75
:1013CC0022F0010203F1140545E800200028F3D1B6
:1013DC00202284F84220206303F10C0252E8002FF3
:1013EC0022F0100203F10C0545E800200028F3D18F
:1013FC0002236363C5E7160628D50D0626D594F897
:10140C004120212A7FF459AFA168226AB1F5805F8F
:10141C0017D12169A9B932F8021BC1F3080159602F
:10142C002262E28C013A92B2E284002A7FF445AF48
:10143C00DA6822F08002DA60DA6842F04002DA60A0
:10144C003BE7511C216212785A60EAE750067FF59F
:10145C0034AF4A067FF531AFDA68204622F04002FD
:10146C00DA60202384F8413000F0AFF925E700BFA3
:10147C002511000890F8412090F842001043704765
:10148C000023C285436422238285026980F842309E
:10149C00816203681AB1DA6842F48072DA605A69C0
:1014AC00002042F001025A61DA6842F02002DA6050
:1014BC00704770B590F84260202E07D141B13AB117
:1014CC0000240463FFF7DCFF204670BD0220FCE71C
:1014DC000120FAE7836810B5044613B103220146D4
:1014EC009847204610BD0000034B186810B104301B
:1014FC00FFF74EBD704700BF78000020FFF7F4BF28
:10150C00034B586810B10430FFF742BD704700BF61
:10151C0078000020034B986810B10430FFF738BDF9
:10152C00704700BF78000020034BD86810B104301E
:10153C00FFF72EBD704700BF78000020826810B501
:10154C000AB900F001FAC368BDE81040184708B5A5
:10155C0000B9FEE700F022F90068836E13B1603029
:10156C00FFF7ECFF08BDFFF7F2BF10B500B9FEE7BF
:10157C00037F013B072B10D8DFE803F004140F1096
:10158C000F0F0F12012400F009F90068063400EB6C
:10159C00041083680BB1FFF7D1FF10BD0324F2E7F1
:1015AC000424F0E70224EEE7FFF7DFBFFFF7DDBF0F
:1015BC00704708B5FFF75AFCFFF773FCFFF7F8FF0D
:1015CC0008BD0023C0E90033C0E9023370470000B6
:1015DC000023012803F101020AD11422DBB2534388
:1015EC00054A181D1044816829B11A44136918471B
:1015FC0013464008EDE77047880000200120FFF7F4
:10160C00B9BC0220FFF7B6BC0420FFF7B3BC08201E
:10161C00FFF7B0BC1020FFF7ADBC08B52020FFF7DA
:10162C00A9FC4020FFF7A6FC8020FFF7A3FC4FF499
:10163C008070FFF79FFCBDE808404FF40070FFF787
:10164C0099BC38B506244FF48065A8B2FFF792FC1C
:10165C00013C4FEA4505F8D138BD0000344A08B5C5
:10166C001046062300F8043BFFF7ABFF072302F1FB
:10167C0018001375FFF7A5FF082302F12C0082F860
:10168C002830FFF79EFF092302F1400082F83C301E
:10169C00FFF797FF0A23172102F1540082F850300C
:1016AC00FFF78FFF02F1680082F86410FFF789FFE3
:1016BC0002F17C0082F87810FFF783FF02F19000B2
:1016CC0082F88C10FFF77DFF02F1A40082F8A010C5
:1016DC00FFF777FF82F8B410282102F1B800FFF76A
:1016EC0070FF02F1CC0082F8C810FFF76AFF02F11C
:1016FC00E00082F8DC10FFF764FF02F1F40082F8DE
:10170C00F010FFF75EFF02F5847082F80411FFF70A
:10171C0058FF02F58E7082F81811FFF752FFBDE8E2
:10172C00084002F5987082F82C11FFF74ABF00BFF1
:10173C008800002038B5054CA4F5A075143C201D7C
:10174C00FFF7C8FEAC42F9D138BD00BFC80100207C
:10175C000F4B1A6842F001021A6059680D4A0A4090
:10176C005A601A6822F0847222F480321A601A6865
:10177C0022F480221A605A6822F4FE025A604FF456
:10178C001F029A604FF00062034B9A60704700BFD3
:10179C00001002400000FFF800ED00E00438704734
:1017AC0008B5074B90F8652053F82200FFF762FE4E
:1017BC0000F02200A0F122035842584108BD00BF9E
:1017CC00C8010020836C04381847C36C04381847D0
:1017DC0030B5044650F8043985B01D6815F0010584
:1017EC0012D0002200921A6800925B680093009B52
:1017FC00FFF7D6FF40BB0122204604F1620105B081
:10180C00BDE83040FFF755BE196811F0020106D053
:10181C0001951A6801925B680193019BE8E71A68CD
:10182C0012F0040206D002911A6802925B680293CD
:10183C00029BDDE719680907DAD503921A6803924F
:10184C005B680393039BD3E705B030BD08B5252037
:10185C00FFF718FB024B1868BDE80840FFF7C0BC47
:10186C00C8010020262008B5FFF70CFB034B586875
:10187C0018B1BDE80840FFF7B3BC08BDC801002093
:10188C00272008B5FFF7FEFA034B986818B1BDE89E
:10189C000840FFF7A5BC08BDC8010020FEE700000A
:1018AC001622024B4FF0FF301A6070470C030020D9
:1018BC0001207047FFF74CFF0B480C490C4A0023E2
:1018CC0002E0D458C4500433C4188C42F9D3094AEA
:1018DC00094C002301E013600432A242FBD300F058
:1018EC000FF8FFF7BDFA70470000002054000020ED
:1018FC00BC1F00085400002010030020FEE700006D
:10190C0070B500260C4D0D4B5B1B9C10A64209D1EB
:10191C00002600F067F80A4D0A4B5B1B9C10A64290
:10192C0005D170BD55F8043B98470136EEE755F8E4
:10193C00043B98470136F2E7AC1F0008AC1F0008C7
:10194C00AC1F0008B41F000808B500F000F8062012
:10195C0008B500F02BF80120FFF7A0FF1F2938B5C0
:10196C0005460C4604D9162303604FF0FF3038BDF2
:10197C00C26B12B152F821304BB9284600F030F846
:10198C00224601462846BDE8384000F017B8012B26
:10199C000AD0591C03D1162303600120E7E700216C
:1019AC00204642F8241098470020E0E7024B0146FD
:1019BC001868FFF7D3BF00BF0400002038B5002320
:1019CC00064D0446084611462B60FFF769FF431C81
:1019DC0002D12B6803B1236038BD00BF0C0300207B
:1019EC00FFF766BFF8B500BFF8BC08BC9E46704751
:0C19FC00F8B500BFF8BC08BC9E46704760
:101A08000D0A002020455854493A20496E746572E1
:101A18007275707420747269676765726564207680
:101A28006961205357494552005265616479004FF6
:101A38006666003F3F3F0020204853493A20002C6B
:101A4800204853453A20002C20504C4C3A20002C7A
:101A580020535953434C4B3A2000202020435243F3
:101A6800283078444541444245454629203D2000D8
:101A78002020204352432830783030303030303006
:101A88003029203D2000202020435243283078462A
:101A98004646464646464629203D200020284D41D8
:101AA800544348290020284D49534D41544348295F
:101AB8000020202044414320444F5231203D200043
:101AC800202852544F464620736574290020285216
:101AD800544F4646206E6F74207365742900202089
:101AE8002052544320434E54203D200020202052B1
:101AF80054432043524C203D20002028756E6578C1
:101B08007065637465642900202020505752204373
:101B180052203D200020202050575220435352206D
:101B28003D200020286C6174656E63793D31290081
:101B3800202020464C4153485F414352203D20001D
:101B4800202020464C4153485F414352206166742F
:101B58006572207772697465203D2000202020423C
:101B68004B5020445231203D20002C20445232203A
:101B78003D20003D3D3D3D3D3D3D3D3D3D3D3D3DE7
:101B88003D3D3D3D3D3D3D3D3D3D3D3D3D3D3D3D7D
:101B98003D3D3D3D3D3D3D3D3D3D3D3D3D3D3D00AA
:101BA80053544D333220426C75652050696C6C205B
:101BB800436F6D70726568656E73697665205065F0
:101BC800726970686572616C205465737400312E97
:101BD800204750494F205465737400202020426CE0
:101BE800696E6B696E672050433133204C45442E33
:101BF8002E2E002020205041535300322E205553C2
:101C0800415254205465737400202020577269741F
:101C1800696E6720737472696E67207669612055F2
:101C28004152543A2048656C6C6F2066726F6D2083
:101C3800426C75652050696C6C2100332E2055412B
:101C48005254205258205465737400202020536544
:101C58006E64696E67203078413520766961206C42
:101C68006F6F706261636B2E2E2E002020205265EC
:101C78006365697665643A20002020204641494C16
:101C880000342E20493243205465737400202020EC
:101C9800496E697469616C697A696E672049324373
:101CA8003120285042363D53434C2C205042373D7A
:101CB800534441292E2E2E002020205363616E6E3E
:101CC800696E6720666F7220646576696365732E36
:101CD8002E2E00202020466F756E6420646576697C
:101CE800636520617420002028454550524F4D29D6
:101CF8000020202057726974696E6720307834326A
:101D080020746F20454550524F4D20616464722005
:101D18003078303030302E2E2E0020202052656151
:101D280064206261636B3A2000202020466F756E44
:101D38006420002064657669636528732900202083
:101D4800205041535320286E6F206465766963657F
:101D58007320657870656374656420776974686F4B
:101D680075742065787420646576696365732900E5
:101D7800352E205350492054657374002020204983
:101D88006E697469616C697A696E6720535049316C
:101D980020285041353D53434B2C205041363D4D72
:101DA80049534F2C205041373D4D4F5349292E2E32
:101DB8002E0020202052656164696E67204A4544E0
:101DC80045432049442066726F6D20535049206670
:101DD8006C6173682028636D642030783946292E39
:101DE8002E2E002020204A454445432049443A20CD
:101DF80000362E204144432054657374002020206F
:101E0800496E697469616C697A696E6720414443F7
:101E1800312E2E2E0020202041444331207265614E
:101E280064696E673A20002028302D34303935290E
:101E380000372E2054696D65722F50574D20546518
:101E4800737400202020496E697469616C697A692D
:101E58006E672054494D32204348322050574D2058
:101E68006F6E205041312E2E2E0020202053657495
:101E780074696E67206475747920746F2035302515
:101E88002E2E2E0020202053657474696E672064FE
:101E980075747920746F2030252E2E2E00382E2050
:101EA8005243432053797374656D20496E666F0001
:101EB800392E204558544920546573740031302E0A
:101EC800205379735469636B2054696D657220548B
:101ED800657374002020205379735469636B2072F2
:101EE800756E6E696E6720617420316D7320696E3E
:101EF80074657276616C00202020456C6170736592
:101F0800643A2000206D730031312E204352432063
:101F1800546573740031322E204441432054657354
:101F2800740031332E2052544320546573740031A9
:101F3800342E2050575220546573740031352E20AA
:101F4800466C61736820436F6E74726F6C6C657257
:101F580020546573740031362E20424B502054654E
:101F6800737400416C6C203136207065726970683A
:101F78006572616C20746573747320636F6D706C27
:101F88006574656421007469636B004853490048AF
:101F9800534500504C4C0000931F0008971F000841
:041FA8009B1F000873
:081FAC0031010008691600086C
:081FB4000D01000841170008AF
:101FBC00010000000800002000000000D4010020F7
:101FCC003C020020A40200200000000000000000E1
:101FDC0000000000000000000000000000000000F5
:101FEC0000000000000000000000000000000000E5
:101FFC0000000000000000000000000000000000D5
:04200C0000000000D0
:04000005080018C116
:00000001FF
