:020000040800F2
:1000000000500020E54500082D4600082D46000858
:100010002D4600082D4600082D460008000000006F
:100020000000000000000000000000002D46000855
:100030002D460008000000002D460008EF3500089E
:100040002D4600082D4600082D4600082D460008C4
:100050002D4600082D460008DD360008E33600086E
:10006000E9360008EF360008F53600082D4600088E
:100070002D4600082D4600082D4600082D46000894
:100080002D4600082D4600082D4600082D46000884
:100090002D4600082D4600082D460008FB360008B6
:1000A0002D460008793400082D4600088D340008DC
:1000B00091340008A5340008B93400082D46000822
:1000C0002D4600082D4600082D4600082D46000844
:1000D0002D4600085140000869400008854000088E
:1000E000233700082D4600082D46000800000000B8
:1000F0000000000000000000000000000000000000
:0C01000000000000000000005FF808F1A3
:10011000034613F8012B002AFBD1181A0138704747
:1001200081F0004102E000BF83F0004330B54FEAA8
:1001300041044FEA430594EA050F08BF90EA020F15
:100140001FBF54EA000C55EA020C7FEA645C7FEAA8
:10015000655C00F0E2804FEA5454D4EB5555B8BFCB
:100160006D420CDD2C4480EA020281EA030382EA3C
:10017000000083EA010180EA020281EA0303362DCE
:1001800088BF30BD11F0004F4FEA01314FF4801CA1
:100190004CEA113102D0404261EB410113F0004FB3
:1001A0004FEA03334CEA133302D0524263EB43036A
:1001B00094EA050F00F0A780A4F10104D5F1200E08
:1001C0000DDB02FA0EFC22FA05F2801841F1000163
:1001D00003FA0EF2801843FA05F359410EE0A5F137
:1001E00020050EF1200E012A03FA0EFC28BF4CF068
:1001F000020C43FA05F3C01851EBE37101F000451E
:1002000007D54FF0000EDCF1000C7EEB00006EEB2A
:100210000101B1F5801F1BD3B1F5001F0CD34908B4
:100220005FEA30004FEA3C0C04F101044FEA44520B
:1002300012F5800F80F09A80BCF1004F08BF5FEA92
:10024000500C50F1000041EB045141EA050130BD72
:100250005FEA4C0C404141EB0101013C28BFB1F584
:10026000801FE9D291F0000F04BF01460020B1FACF
:1002700081F308BF2033A3F10B03B3F120020CDAA2
:100280000C3208DD02F1140CC2F10C0201FA0CF080
:1002900021FA02F10CE002F11402D8BFC2F1200CE5
:1002A00001FA02F120FA0CFCDCBF41EA0C0190409B
:1002B000E41AA2BF01EB0451294330BD6FEA0404E4
:1002C0001F3C1CDA0C340EDC04F11404C4F12002CF
:1002D00020FA04F001FA02F340EA030021FA04F3E1
:1002E00045EA030130BDC4F10C04C4F1200220FA38
:1002F00002F001FA04F340EA0300294630BD21FA76
:1003000004F0294630BD94F0000F83F4801306BF3B
:1003100081F480110134013D4EE77FEA645C18BF2F
:100320007FEA655C29D094EA050F08BF90EA020FC6
:1003300005D054EA000C04BF1946104630BD91EABE
:10034000030F1EBF0021002030BD5FEA545C05D1C1
:100350004000494128BF41F0004130BD14F5800400
:100360003CBF01F5801130BD01F0004545F0FE4174
:1003700041F470014FF0000030BD7FEA645C1ABFA9
:10038000194610467FEA655C1CBF0B46024650EAE0
:10039000013406BF52EA033591EA030F41F400210C
:1003A00030BD00BF90F0000F04BF0021704730B592
:1003B0004FF4806404F132044FF000054FF0000167
:1003C00050E700BF90F0000F04BF0021704730B528
:1003D0004FF4806404F1320410F0004548BF4042FD
:1003E0004FF000013EE700BF42004FEAE2014FEA52
:1003F00031014FEA02701FBF12F07F4393F07F4F2D
:1004000081F06051704732F07F4208BF704793F02F
:100410007F4F04BF41F40021704730B54FF4607442
:1004200001F0004521F000411CE700BF50EA010245
:1004300008BF704730B54FF000050AE050EA0102EE
:1004400008BF704730B511F0004502D5404261EB5E
:1004500041014FF4806404F132045FEA915C3FF49F
:10046000D8AE4FF003025FEADC0C18BF03325FEA3C
:10047000DC0C18BF033202EBDC02C2F1200300FAED
:1004800003FC20FA02F001FA03FE40EA0E0021FA12
:1004900002F11444BDE600BF70B54FF0FF0C4CF400
:1004A000E06C1CEA11541DBF1CEA135594EA0C0FB2
:1004B00095EA0C0F00F0DEF82C4481EA030621EAED
:1004C0004C5123EA4C5350EA013518BF52EA033528
:1004D00041F4801143F4801338D0A0FB02CE4FF0DA
:1004E0000005E1FB02E506F00042E0FB03E54FF00A
:1004F0000006E1FB03569CF0000F18BF4EF0010E02
:10050000A4F1FF04B6F5007F64F5407404D25FEAFD
:100510004E0E6D4146EB060642EAC62141EA5551B0
:100520004FEAC52040EA5E504FEACE2EB4F1FD0CF2
:1005300088BFBCF5E06F1ED8BEF1004F08BF5FEA70
:10054000500E50F1000041EB045170BD06F0004622
:1005500046EA010140EA020081EA0301B4EB5C04CF
:10056000C2BFD4EB0C0541EA045170BD41F48011C7
:100570004FF0000E013C00F3AB8014F1360FDEBFEC
:10058000002001F0004170BDC4F10004203C35DAC8
:100590000C341BDC04F11404C4F1200500FA05F34B
:1005A00020FA04F001FA05F240EA020001F00042EC
:1005B00021F0004110EBD37021FA04F642EB060162
:1005C0005EEA430E08BF20EAD37070BDC4F10C048C
:1005D000C4F1200500FA04F320FA05F001FA04F250
:1005E00040EA020001F0004110EBD37041F100013C
:1005F0005EEA430E08BF20EAD37070BDC4F1200547
:1006000000FA05F24EEA020E20FA04F301FA05F2AE
:1006100043EA020321FA04F001F0004121FA04F256
:1006200020EA020000EBD3705EEA430E08BF20EA26
:10063000D37070BD94F0000F0FD101F00046400060
:1006400041EB010111F4801F08BF013CF7D041EAE2
:10065000060195F0000F18BF704703F000465200E6
:1006600043EB030313F4801F08BF013DF7D043EAB7
:100670000603704794EA0C0F0CEA135518BF95EA6D
:100680000C0F0CD050EA410618BF52EA4306D1D1F4
:1006900081EA030101F000414FF0000070BD50EA13
:1006A000410606BF1046194652EA430619D094EA9D
:1006B0000C0F02D150EA013613D195EA0C0F05D187
:1006C00052EA03361CBF104619460AD181EA0301DB
:1006D00001F0004141F0FE4141F470014FF0000093
:1006E00070BD41F0FE4141F4780170BD70B54FF02E
:1006F000FF0C4CF4E06C1CEA11541DBF1CEA1355AE
:1007000094EA0C0F95EA0C0F00F0A7F8A4EB05048F
:1007100081EA030E52EA03354FEA013100F0888086
:100720004FEA03334FF0805545EA131343EA12634F
:100730004FEA022245EA111545EA10654FEA002604
:100740000EF000419D4208BF964244F1FD0404F5BD
:10075000407402D25B084FEA3202B61A65EB030519
:100760005B084FEA32024FF480104FF4002CB6EBD6
:10077000020E75EB030E22BFB61A754640EA0C0056
:100780005B084FEA3202B6EB020E75EB030E22BF96
:10079000B61A754640EA5C005B084FEA3202B6EBD7
:1007A000020E75EB030E22BFB61A754640EA9C0096
:1007B0005B084FEA3202B6EB020E75EB030E22BF66
:1007C000B61A754640EADC0055EA060E18D04FEA24
:1007D000051545EA16754FEA06164FEAC30343EAC4
:1007E00052734FEAC2025FEA1C1CC0D111F4801F91
:1007F0000BD141EA00014FF000004FF0004CB6E78A
:1008000011F4801F04BF01430020B4F1FD0C88BF28
:10081000BCF5E06F3FF6AFAEB5EB030C04BFB6EB33
:10082000020C5FEA500C50F1000041EB045170BD26
:100830000EF0004E4EEA113114EB5C04C2BFD4EB53
:100840000C0541EA045170BD41F480114FF0000ED7
:10085000013C90E645EA060E8DE60CEA135594EA53
:100860000C0F08BF95EA0C0F3FF43BAF94EA0C0F56
:100870000AD150EA01347FF434AF95EA0C0F7FF4CB
:1008800025AF104619462CE795EA0C0F06D152EA1F
:1008900003353FF4FDAE1046194622E750EA410603
:1008A00018BF52EA43067FF4C5AE50EA41047FF414
:1008B0000DAF52EA43057FF4EBAE12E74FF0FF3C79
:1008C00006E000BF4FF0010C02E000BF4FF0010C4A
:1008D0004DF804CD4FEA410C7FEA6C5C4FEA430CC3
:1008E00018BF7FEA6C5C1BD001B050EA410C0CBF12
:1008F00052EA430C91EA030F02BF90EA020F002074
:10090000704710F1000F91EA030F58BF994208BFDA
:1009100090422CBFD8176FEAE37040F00100704797
:100920004FEA410C7FEA6C5C02D150EA013C07D1EE
:100930004FEA430C7FEA6C5CD6D152EA033CD3D039
:100940005DF8040B704700BF8446104662468C4633
:100950001946634600E000BF01B5FFF7B7FF002866
:1009600048BF10F1000F01BD4DF808EDFFF7F4FF8F
:100970000CBF012000205DF808FB00BF4DF808ED1A
:10098000FFF7EAFF34BF012000205DF808FB00BF3D
:100990004DF808EDFFF7E0FF94BF012000205DF85F
:1009A00008FB00BF4DF808EDFFF7CEFF94BF012014
:1009B00000205DF808FB00BF4DF808EDFFF7C4FF0D
:1009C00034BF012000205DF808FB00BF4FEA410260
:1009D00012F5001215D211D56FF47873B3EB625291
:1009E00012D94FEAC12343F0004343EA505311F0B8
:1009F000004F23FA02F018BF404270474FF000004A
:100A0000704750EA013005D111F0004008BF6FF087
:100A1000004070474FF00000704700BF4A0011D2FD
:100A200012F5001211D20DD56FF47873B3EB625248
:100A30000ED44FEAC12343F0004343EA505323FA54
:100A400002F070474FF00000704750EA013002D1C9
:100A50004FF0FF3070474FF00000704710B5054C65
:100A6000237833B9044B13B10448AFF3008001235A
:100A7000237010BD700000200000000070480008C6
:100A800008B5034B1BB103490348AFF3008008BD11
:100A900000000000740000207048000808B506221D
:100AA0004FF4E131074803F0C9FC0749054803F05A
:100AB00045FD00F02FFABDE808400449014803F065
:100AC0003DBD00BF00020020884800089D48000886
:100AD0004FF47A7003F0ADBD0146014803F04DBB01
:100AE000000200207AB9B0F9003023F0FF02C3F30E
:100AF000072313430380B1F9003023F0FF02C3F34F
:100B0000072313430B80B0F90200B1F90230C01A79
:100B10007047F7B5B0F9005006462B060C4603D5D2
:100B200005F07F0003B0F0BDC5F3C30101EB011375
:100B300015F007001946228F10D0012821D02F462A
:100B4000218FB8B200F094FF25F0FF05208707F051
:100B50007F00054345F080053580E3E7212B98BFF2
:100B60002221CDE90012B4F90230B4F90020D4E911
:100B7000051000F0E3FEE38F07B2002BE0D1E08721
:100B8000DEE704F1280000F0CAFDA38F07B2002BB6
:100B9000D6D1A087D4E770B50E4611461446FFF7AC
:100BA000B8FF214605463046FFF7B3FF281A70BD4F
:100BB000F0B504461068059D00F10806AE4215D256
:100BC0001D68069F05F1040C67450FD91660226861
:100BD0000260206045601A6804321A604368B1F907
:100BE00000201A80B1F902205A80F0BD0020FCE7F5
:100BF000034605C841685960426002681A600023D4
:100C000003607047B1F90230002B08DA28B143685D
:100C1000B1F900201B789A4209D17047006800287A
:100C2000FBD04268B2F902209A42F7D170470068BF
:100C3000ECE70346002003B970471A6818601846AD
:100C40001346F8E72DE9F74F002307464FF0010A56
:100C500000914FF000093C46CB464F4694B12146E7
:100C6000002509F10109AA4503DD096801350029BC
:100C7000F9D12646D0460C46002D11DCB8F1000F04
:100C8000ECDD3CB9B9F1010FCBF8003023DD4FEAC0
:100C90004A0ADEE795B9214608F1FF38246806E0E4
:100CA000B8F1000F00D04CB931463668013DBBF1B8
:100CB000000F0ED0CBF800108B46DDE7009B0192B1
:100CC00061687068984700284FF00003019AE2DCE1
:100CD000EAE70F46F0E7384603B0BDE8F08F0000C2
:100CE0002DE9F04F002681468A460F46B046B346AE
:100CF000354685B0446AB0F90430ADF80C6032B2C4
:100D0000934234DCC8EB8B084544BAF1000FADB216
:100D100005DD20464A463B49FFF794FF044620681C
:100D2000FFF766FF03A980462046ADF80E70FFF777
:100D300069FF064600B92668002E51D12368D8F80D
:100D4000042059682046C8F804105A601A682E49D1
:100D5000C8F800203246C3F80080FFF773FF04464E
:100D60000668002E45D1284605B0BDE8F08FD2B206
:100D7000204603A90193ADF80C20ADF80E70FFF7E3
:100D800041FF01462046FFF754FF019B044689B905
:100D9000026808F1010852681FFA88F892F90120E8
:100DA00002F001022A4495B2002FA4BF01373FB2DE
:100DB0000136A4E74A68B2F90020D00748BFC2F361
:100DC0004022086844BF521995B220B102680A60F7
:100DD0002268026020600BF1010B1FFA8BFBE3E736
:100DE00063682946B3F9000000F058FE36680546EE
:100DF000A2E763682946B3F9000000F04FFE3668A9
:100E00000546AEE7970B0008E50A00081423B0FB7F
:100E1000F3F02DE9F04348F280030027851E01EB33
:100E2000C50887B0C1E90078A8F8027021F835300C
:100E300001F10803039308F104030C4604936FF0D7
:100E4000004308EB8509164605932046CDE9008945
:100E500004AB03AA05A9FFF7ABFEAF420DD30522F1
:100E60000121B5FBF2F523681A68EAB92046184952
:100E7000FFF7E8FE07B0BDE8F083BAB282EA0603E6
:100E8000DB0002F0070203F07803134303EB0323B4
:100E9000ADF814302046CDE9008904AB03AA05A9BA
:100EA000FFF786FE0137D8E78D4298BF88B25F68AA
:100EB0009FBF431C1B0203F4E063704096BF0343D3
:100EC0000BB2C3F30D037B8001311346CCE700BFA7
:100ED000E50A000870B500250446C0E90E55C6694C
:100EE000B54201D1002070BD01212046FFF7F8FE78
:100EF000218F00F0BDFD4FF0FF3120872046FFF726
:100F0000EFFE218F00F0B4FD208705B96087013521
:100F1000E6E700002DE9F04FADF62C0D03AB0A46D5
:100F2000039019460DF1560000F02CFC012000F052
:100F300069FDADF81400022000F064FDADF8160064
:100F4000032000F05FFDADF81800042000F05AFD0A
:100F50000C90052000F056FD002808BF0720059BD7
:100F600005AC2062002B40F04A81B4F904300BB983
:100F70006623A38000234FF4FA618707A4F840306A
:100F800000F0010348BF0133460744BF01339BB261
:100F9000B1FBF3F1002301261A4616ADA560A1614D
:100FA00006FA03F7074207D001FB025C04EB830754
:100FB0000132C7F80CC092B20133032BF0D1236A7F
:100FC000DB0706D5B4F90020E168A069FFF71EFF32
:100FD0006062236A9D070AD5B4F90210B4F90020B3
:100FE000A06942EA01420FAB216900F02DFA236AA1
:100FF000580705D56269B4F90010A06900F0C8FB74
:10100000E3694BBB01230A254FF00008DFF8189372
:10101000E361E3696B43E36100F090FB2046FFF777
:1010200059FF00F093FB00F099FB00F0A1FB424652
:101030004B4606460F46FFF7A1FC0028E9D1304693
:101040003946FFF7EBFC012838BF0120B5FBF0F073
:10105000E36900FB0333E36100F070FB2046FFF718
:1010600039FF00F073FB00F079FB00210646B4F96C
:10107000000000F013FD0146B4F9020000F00EFD7F
:101080000146B4F9040000F009FD0146B4F9180066
:1010900000F004FD47F6053398428246A34F00F066
:1010A0002B8100F2B78041F6F203984200F02E81C6
:1010B00044F6AF63984200F024814FF0FF35A94613
:1010C00000F0EFFCA16900EB0908994800F09CFED4
:1010D0003146984800F098FE304600F049FB024641
:1010E0000B46954800F090FE304600F041FB002290
:1010F00000231FFA88FBFFF75FFCA0B1E3693868A3
:101100005843FFF74FF980463046894600F030FBE0
:1011100002460B4640464946FFF7E8FA02460B46B0
:10112000864800F071FE304600F022FB0022844B1E
:10113000FFF724FC002840F0EE800FFA8BF8E369FB
:1011400039688048594300F05FFE7F497F4800F0CE
:101150005BFE7F497F4800F057FE7F497F4800F0E3
:1011600053FE51467E4800F04FFE236AD80700F137
:101170002981236A990700F13881236A5A0700F10F
:1011800047814FF000094FF0440A3B681FFA89F18C
:101190008B4209F1010900F24081B8F1000F40F0E3
:1011A0004381704800F030FE032D1FD1E369386899
:1011B0005843FFF7F7F8044630460D4600F0D8FADA
:1011C00002460B4620462946FFF790FA0B46604937
:1011D000024601915C496448009100F015FE5E49A9
:1011E000624800F011FE624800F00EFE0DF156005C
:1011F00000F0CBFA00200DF62C0DBDE8F08F012B8E
:101200007FF4B8AEB4F90430002B7FF4B3AE594B81
:101210002360ADE648F60223984209D04EF6F51356
:1012200098427FF44AAF544800F0EEFD032503E0F6
:10123000524800F0E9FD0025002399460293BDF8CD
:1012400008B03B685B457FF63BAF4FF04408002396
:1012500008FB0B48A8F84030D8F82030D9070FD544
:10126000474BB8F83A2033F815309A4208D059461F
:10127000444800F0C9FDB8F840300133A8F84030C8
:101280004FF0440808FB0B48D8F820309A070FD5D8
:101290003D4BB8F83C2033F815309A4208D05946F7
:1012A0003A4800F0B1FDB8F840300133A8F84030BA
:1012B0004FF0440808FB0B48D8F820305B070FD5E7
:1012C000334BB8F83E2033F815309A4208D05946CF
:1012D000304800F099FDB8F840300133A8F84030AC
:1012E000442303FB0B43B3F840304B440FFA83F91C
:1012F000029B01330293A2E7274800F085FD0125F8
:101300009AE7264800F080FD022595E7244800F082
:101310007BFD042590E723480BF1010800F074FDE4
:101320000FFA88F80BE700BF0000F03F0000002034
:10133000284A0008404A0008584A00086F4A000836
:1013400000002440C44A0008DC4A0008EF4A0008B4
:10135000064B00083B4B0008524B0008584B000856
:101360006F4B0008FA4B0008434C00085D4C000826
:10137000B3480008153415343F490008B548000843
:10138000BC4D000898490008B24D0008C749000844
:10139000A84D0008F8490008E24800080E49000876
:1013A0006C490008864A00080AFB014320485A8F0E
:1013B00000F02AFD3B681FFA89F18B4209F101090F
:1013C000F2D8D6E64FF000094FF0440AF2E70AFBE4
:1013D000014318489A8F00F017FD3B681FFA89F106
:1013E0008B4209F10109F2D8C7E64FF000094FF02E
:1013F000440AF2E70AFB01430F48DA8F00F004FDCC
:101400003B681FFA89F18B4209F10109F2D8B8E66D
:101410004FF000094FF0440AF2E70AFB0143074886
:101420001A8F00F0F1FCB0E6CCBF05480548DBE6BA
:101430008A4B0008A64B0008C24B0008DE4B000890
:10144000634C0008744C00082DE9F04F0025002A79
:1014500008BF01222C4685421ED300274FF0010908
:10146000BC46601E00FB00F4013921F0030101F1CC
:10147000040E4FEA440802310EEB4404091B844574
:101480000FD3C3E901E44444013C24F003040434D1
:10149000DC601860BDE8F08F013404FB04F5ED005A
:1014A000D9E74E4604EB470A814472435542ADB238
:1014B0001FFA86FB92B258BF6A420BEB0205ADB22F
:1014C0002AF8025B01365D44EDB2B14521F80A50BD
:1014D000EBD10CF1010C0744D1E700232DE9F043D7
:1014E00001EB800C04464FEA80081F4618461E4652
:1014F0001D46A74201D1BDE8F08301EB830EB14642
:101500005EF8046B80B23544AA4208DA00250A303E
:1015100000B2E645F3D10137C4442344E9E74E4520
:10152000C8BF013000B2F4E72DE9F04100242546A0
:101530004FEA400802EB4006854201D1BDE8F08148
:1015400002EB440701EB840E37F902CB03FB0CFCE2
:10155000B7424EF804CBF7D1013504444644EBE7DB
:101560000023F0B51D464FEA400C01EB40068542D2
:1015700000D1F0BD01EB4304B4F90070174424F826
:10158000027BB442F8D1013503446644EFE72DE90C
:10159000F043002401EB800C03EB400E8C4501D19D
:1015A000BDE8F0831E46002502EB440736F9029B96
:1015B00037F9028BB64509FB0855F7D141F8045BB2
:1015C0000444EBE72DE9F74F914602EB400500227A
:1015D000144601914FEA400E844202D103B0BDE8A7
:1015E000F08F019901EB820809EB42010091002183
:1015F0000026009F03EB410C37F902BBBCF900A0A9
:10160000BD420BFB0A66F444F6D10131884248F82A
:10161000046BEDD1013402447544DDE72DE9F74F49
:10162000CDE9001300210D464FEA400802EB4006C9
:10163000854202D103B0BDE8F08F0024009B02EB8D
:10164000410A03EB8109D4460027019B03EB440EBA
:101650003CF902BBBEF9003066450BFB03F3C3F354
:10166000830BC3F3461303FB0B77C644F0D101345D
:10167000A04249F8047BE6D1013501444644D7E74E
:101680002DE9F047BDF9207015466FEA07580C4662
:101690006FEA18583A4629469946FFF761FF3B46DC
:1016A00021462A46FFF740FF42460646FFF715FF50
:1016B000002100F0F3F982464B462A462146304687
:1016C000FFF765FF42462146FFF707FF514600F04E
:1016D000E5F982464B462A4621463046FFF772FF1F
:1016E00042462146FFF7F9FE514600F0D7F98246FF
:1016F0004B462A4621463046FFF790FF4246214698
:10170000FFF7EBFE514600F0C9F904467A42304635
:10171000294612B2FFF724FF20B2BDE8F08713B5C7
:1017200014460091C168D0E901230068FFF7A8FFC3
:10173000214602B0BDE8104000F0B0B908B502F093
:1017400076FF014B186008BD9000002008B502F03C
:101750006EFF014B186008BD8C000020024B18681A
:10176000024B1B68C01A70478C00002090000020BC
:1017700008B5FEF717FE0022014BFEF7B7FF08BDC4
:1017800000408F40012303707047002303707047AF
:10179000002301312DE9F04F4FF02C0C8CB21D4687
:1017A0001946DFF87880DFF87890DFF878A000F14C
:1017B000FF3E4F197E1C764504D30023814229D376
:1017C000BDE8F08F55B111441D4413F801BB9D4293
:1017D00001F801BBF9D1314602F807C004F0070354
:1017E000072BC4F3C10511D0042B0CD8033B012BEC
:1017F00005D95AF8253004250134A4B2D9E759F89F
:1018000025300825F8E758F82530FAE7064B53F855
:101810002530F6E753540131D0E700BFD84D00081A
:10182000E84D0008F84D0008C84D000830B50446E2
:10183000056800202B782A46013523B1012802D003
:101840002C2B02D12A46226030BD0728F2D801A2F3
:1018500052F820F07518000835180008AB18000879
:1018600009190008CF180008E91800081D19000818
:101870002D1900082B3B0E2B10D8DFE803F0140FB6
:10188000140D0F08080808080808080808000420B4
:101890000B6801330B60CDE70520F9E74B680120A9
:1018A00001334B60F4E70220F2E78A68A3F13000CD
:1018B000092802F1010204D92E2B05D18A600520E6
:1018C000B8E78A600420B5E78A600120B2E72E2BD2
:1018D00003D10B6901330B61F1E7303B092BF1D9DF
:1018E0000B6901330B61F0E703F0DF02452A04D1F5
:1018F0004B69032001334B619CE7303B092BDED958
:101900004B6901334B61E0E7CA682B2B02F10102FE
:10191000CA6001D02D2BD8D106208BE78A69303BD5
:101920000132092B8A61D0D8072083E7303B092B8D
:10193000FAD94B6801334B60C7E700BF2DE9F04788
:1019400092B00AAF019105460C4692460021202232
:1019500038469846BDF9689002F08BFE202200219F
:1019600002A802F086FE019B1B7803BB2646214697
:10197000019425448D4227D80194019B1B785BBBC1
:101980000194B54235D80025BDF86C1002AC54F86E
:10199000040B00F078F8014657F8250000F073F8C2
:1019A0000135082D0146F2D112B0BDE8F087394665
:1019B00001A8FFF73BFF12AB03EB800050F8403C5F
:1019C000013340F8403CCEE70B782C2B1CBF83EA58
:1019D0000A030B704944CDE7394601A8FFF726FFFB
:1019E00012AB03EB800050F8403C013340F8403C20
:1019F000C3E732782C2A1CBF82EA080232704E44B8
:101A0000BFE70000013804280FD8DFE800F0030624
:101A1000080A0C00064B18687047064BFBE7064B9C
:101A2000F9E7064BF7E7064BF5E70020704700BFE4
:101A30009C000020980000200800002004000020E6
:101A40009400002010B508220446084684EA0003EA
:101A500003F0010303EB830103EB413383EA5001FD
:101A6000531E13F0FF024FEA540488B2EED110BDAA
:101A700010B50446C0B2FFF7E5FF0146200ABDE8F5
:101A80001040FFF7DFBF10B5044680B2FFF7F0FF4C
:101A90000146200CBDE81040FFF7EABF80B2FFF717
:101AA000E7BF0020704700004E2AA8BF4E222DE954
:101AB000F04F9B4687B022EAE274002300220646DC
:101AC0000F46119DFEF75AFF18B107F100431F465C
:101AD0000120109B02AA18603946304602F004FE2D
:101AE0000022CDE90001DDE902010023FEF73CFF01
:101AF000002850D105F15008C146DDE902670022F7
:101B0000002330463946FEF72FFF18B34B466A1EB6
:101B100043453BD305F15003A3EB090A994594BF14
:101B2000D0464FF00008A844129B2C4403B95444FB
:101B3000AC42CBF800A055D300264B4F05F150091D
:101B4000A04501D8C84553D34C4564D3002385F83C
:101B50004F3049E0444B002230463946FEF7C6FD7F
:101B600002AA02F0C1FD02460B46CDE904233CA3C4
:101B7000D3E90023FEF7DAFA00223B4BFEF78CFC98
:101B8000FEF724FF303009F8010DB6E713F8011B0A
:101B900002F8011FBCE70022DDE900010023FEF787
:101BA0000BFFC0B9A8468246BEE7CDE900670AF13F
:101BB000FF3A4246DDE900014B46FEF76DFC00228C
:101BC0002A4B06460F46FEF7D9FE0028EDD1A8465F
:101BD000CDE90467A8E74FF0000A4FF00008DFF8EE
:101BE0008890E6E700232B70284607B0BDE8F08F09
:101BF0003B46DDE900013246FEF74EFC04AA02F046
:101C000073FDCDE90001DDE90401FEF7DFFE3030B0
:101C100008F8010B94E72378302105332370312035
:101C200023461A78392A02D800232370DCE7AB4216
:101C3000197005D913F8012C013B01321A70F0E735
:101C40001870DBF800200132CBF80020129A002A2D
:101C5000E7D1AC4288BF21700134E2E7AFF30080E6
:101C6000B81E85EB51B89E3F000024400000F03FB5
:101C70001FB500240294079C0194069C0094FFF772
:101C800013FF04B010BD034601441A780AB18B4219
:101C900001D1181A70470133F7E700002DE9F04F22
:101CA00093B01D9C564E574D14F0400F14BFB146D3
:101CB000A94614F0100C30D1E60731D4202714F0D7
:101CC000020604D000292DDA2D264942013B14F0EA
:101CD000200E02D0102A31D1023BA1BB30210125B8
:101CE0008DF804101C99A942B8BF294614F0110FB1
:101CF000A3EB010345D00EB100F8016BBEF1000F5C
:101D000004D0082A43D1302200F8012BBCF1000F87
:101D100052D0024630270E1853E024F00104CDE7DC
:101D20003027CCE7650702D52B26013BCFE714F01F
:101D300008061CBF202603F1FF33C8E7082A08BFA6
:101D400003F1FF33C9E700250DF1040A8846B1FB12
:101D5000F2F102FB118B19F80BB0904505F101056A
:101D60000AF801BBF2D2BDE704F801ABA9EB040805
:101D7000B8F1000FF8DC23EAE374013B1B1B20449D
:101D8000B9E704464FF0200A03EB0009EEE7102AFA
:101D9000BCD10246302402F8024B7824447010462D
:101DA000B4E702F8017BB41A002CFADC23EAE372F0
:101DB000013B9B1A1044ACE70246C618F3E702F851
:101DC000017BB41AA542FADB4A1B0244A81801465B
:101DD00001AC2C4482420AD120251C18621A002A28
:101DE0000ADC002BA8BFC01813B0BDE8F08F14F8B0
:101DF000015D02F8015BEDE701F8015BEEE700BF72
:101E00007C4D0008574D00080FB42DE9F04FADF29E
:101E1000D44D0DF59F6656F8043B34AC09961878FE
:101E200070B92070044634AD15F8010B002840F05D
:101E30003B8320460DF2D44DBDE8F04F04B070470F
:101E4000252804D01F4604F8010B7B1CE7E74FF060
:101E5000000B63E02D2A5ED0302A7CD0A2F1300145
:101E6000092964D83A4600250A20174612F8013B92
:101E7000A3F13001092971D93B782E2B40F08180E4
:101E80007A787B1CA2F13001092974D800224FF026
:101E90000A0C1F4613F8011BA1F13000092865D96F
:101EA00022EAE27A3B7803F0DF024C2A08BF0137CE
:101EB0003A7818BF4FF0FF33412A00F0E680A2F1D4
:101EC0005801C8B2202800F2D882202900F2D58219
:101ED000DFE811F0B701D302D302D302D302D30259
:101EE000D302D302D302DD00D3025E00BB01D302D2
:101EF000C801D302D302BB01D302D302D302D3025F
:101F0000D302EE02C900D302D3028A00D302DF0259
:101F1000D302D302B9014BF0100B3B465A785F1C39
:101F20002B2A0FD096D8202A0FD0232A10D02A2A65
:101F300019D156F8045B9F1C002D9DDA6D424BF0C1
:101F4000100B99E74BF0040BE7E74BF0080BE4E7C5
:101F50004BF0200BE1E74BF0010BDEE700FB053314
:101F6000A3F1300581E74FF0FF3585E70CFB021A3E
:101F7000AAF130028DE72A2A06D156F8042B02373F
:101F80008EE74FF0FF3A8DE71F464FF0000A89E7D2
:101F90001BF0100F10D12B462021621E013B002B9D
:101FA0001CDC002D05F1FF32C5F10103CEBF114647
:101FB000002300219D180C44234656F8042B2020B2
:101FC00003F8012B1A462C44A11A002909DC002D24
:101FD00005F1FF34D8BF00241C4436E702F8011F86
:101FE000DCE702F8010BEFE79B4B56F8048B5146F8
:101FF000B8F1000F08BF98464046FFF744FE1BF0BB
:10200000100F16D123464FF0200C611901E003F8A0
:1020100001CBCA1A9042FADBA842A0EB050305F1F6
:10202000FF32C8BF0023A5EB0005C8BF00252C4424
:102030009D18002398420EDC0028A8BF24184FF0FA
:10204000200C23466119CA1A904209DB2B1AA842B8
:10205000C8BF0023C0E718F80320E2540133E9E7C2
:1020600003F801CBEFE7691C08BF08254FF0100209
:102070002B4608BF4BF0010BCDE900AB56F8041B13
:102080002046FFF70BFE0446DFE64BF0400B56F808
:10209000042B6C2B06925AD10020704B1BF0400F82
:1020A00008BF9C4601464FF03A096D4A18BF944656
:1020B00020AA069B02EB010813F800E001304FEA6A
:1020C0001E130EF00F0E1CF803301CF80EE006284D
:1020D000535401F1020388F801E003D0033102F800
:1020E0000390E6E71BF0100F23D000218B4226DC83
:1020F0001C4422464FF0200C6019811A8B4223DBCE
:10210000EA1AAB42C8BF002214449EE601F801EB74
:10211000ACEB01008342F9DB9D42A5EB0301B8BFA4
:1021200000210C44A3EB0501B8BF0021013D0D4483
:10213000DBE721464FF0200E05EB040CE8E712F830
:10214000010B60540131D1E702F801CBD5E74FF024
:10215000000C4FF0640A6146DFF800E120A8069BFE
:1021600013F80C300393039A4B1C62B94FF0300202
:102170000CF1010CBCF1040F425430D04FF02E0290
:10218000591CC254EBE7039A632A18DDB2FBFAF834
:102190001EF808900AFB18280A22B8FBF2F200F891
:1021A00001901EF80290023100F803900A2303FB0D
:1021B00012830393039A4B1C1EF80220D8E7039A5C
:1021C000092AF7DD4FF00A09B2FBF9F81EF80820DA
:1021D0004254039A194609FB18220392EAE71BF0BE
:1021E000100F24D0002220A99A4225DB002BA8BF83
:1021F000E4184FF0200C22466019811A8B42BFF67A
:102200007FAF02F801CBF8E702F801CB811A8B42CD
:10221000FADB9D42A3EB050205F1FF31B8BF0022B6
:10222000A5EB0305B8BF00252C445518DAE7224674
:102230004FF0200C6019E9E711F8010BA0540132AE
:10224000D2E74BF0400B102224E16C2B4BF0020B39
:1022500040F023810A221DE1A14D0008574D0008DE
:102260007C4D00084BF00203073626F00706039367
:102270001BF010030793F6E8028945D02BF0010B01
:102280004BF00203039320230693002200234046D1
:102290004946FEF773FB00283CD04FF02D0B09F1A7
:1022A0000043CDF810800593013DDDE90489BAF1C2
:1022B000FF3F08BF4FF0060A20AB01930BAB009322
:1022C00052460AAB40464946FFF7D2FC0B9B93B3FC
:1022D0002D238DF830300DF131030278002A5AD0C9
:1022E0000A9A002A29DD4FF02E0E411E11F801CF67
:1022F000BCF1000F36D0A1EB0008424508BF03F83F
:1023000001EB03F801CBF1E71BF0010F0CBF202319
:102310003023B9E7039B5A0703D54FF02B0B013D40
:10232000C5E7039B13F0080316BF4FF0200B9B4635
:1023300005F1FF35BBE70CABCFE719464FF02E0E8A
:102340004FF0300C01F802CB83F801E0C2F1020E2D
:1023500073448E469E4519D1891A091A0B1810F834
:10236000012BB2B900221A70039B9B063CD5BAF12F
:10237000000F39D10CAA1378904691460132E3B987
:102380002E2288F8013088F800202DE00EF801CBCD
:10239000E0E71A70E2E730211970BAF1000F01D1BD
:1023A0000133DFE72E2203F102085A7040465246FD
:1023B00002F05FF908EB0A03D4E72E2B14D0652B4B
:1023C00001D0452BD7D14FF480714046FFF75BFC1D
:1023D000404402E010F801398370A0EB0903002BA0
:1023E000F8DC2E2388F800304FF480710CA8FFF73A
:1023F0004AFC039B2D1A13F0110F22D0BBF1000FE2
:1024000001D004F801BB079B63B300230CAA9842D8
:102410002BDC0028A8BF2418202023462919CA1A1B
:10242000002A27DC002DA8BF64190EE503F801CBB4
:10243000CA1A002AFADC25EAE573013DED1A1C44AC
:10244000DCE723464FF0200C6119F1E7069A03F808
:10245000012BCA1A002AF9DC25EAE573013DED1AC1
:102460001C44D2E723462919F3E712F8011BE15473
:102470000133CCE703F8010BD1E7252A1CBF252344
:1024800004F8013B3B7813B104F8013BDDE4013F64
:10249000DBE40A2256F8041B02E00A2256F8041B69
:1024A0002B46CDE900ABEBE5FEF716FB0134BBE4B0
:1024B0000822EFE77047000038B50E4B05461A7842
:1024C0004FF47A73B3FBF2F30B4A1068B0FBF3F0EE
:1024D00000F09CF8044658B90F2D09D80246294649
:1024E0004FF0FF3000F042F82046044B1D6038BD2D
:1024F0000120FCE70C0000201C0000201000002040
:10250000074A08B51368032043F01003136000F076
:102510001BF80020FFF7D0FFFFF7CCFF002008BD1D
:1025200000200240034A044B11681B780B441360DF
:10253000704700BFA00000200C000020014B18686D
:10254000704700BFA000002007490302CA6803F4D7
:10255000E06322F4E0621204120C134343F0BF6301
:1025600043F40033CB60704700ED00E0154B30B50D
:10257000DC68C4F30224C4F10703251D042B28BF23
:102580000423062D4FF0FF3594BF0024033C05FAC9
:1025900003F321EA0303A54022EA0502A340002831
:1025A00043EA0203ACBF00F16040074A4FEA03135D
:1025B000DBB2ABBF00F5614000F00F0080F80033E4
:1025C000135430BD00ED00E014ED00E0002807DBFF
:1025D00001234109034A00F01F00834042F82130E3
:1025E000704700BF00E100E000280CDB0122064933
:1025F000430900F01F008240203341F82320BFF33D
:102600004F8FBFF36F8F704700E100E00138B0F1EA
:10261000807F0BD24FF0E023F021054A586182F809
:1026200023100020072298611A617047012070472B
:1026300000ED00E0002808DB01224309034900F017
:102640001F008240603341F82320704700E100E022
:10265000704708B5FFF7FCFF08BD704710B504468A
:1026600050B1437903F0FF0213B90271FFF7F5FF90
:1026700001230020637110BD0120FCE790F82120A8
:102680000346022A06D0042282630120002283F836
:10269000202070470268C06B116821F00E011160A4
:1026A000116821F00101116001211A6C01FA02F296
:1026B0004260002083F82110E8E7000008B590F898
:1026C0002130022B03D004238363012008BD03685B
:1026D0001A6822F00E021A601A6822F001021A60CB
:1026E000174A93421FD0143293421ED014329342A1
:1026F0001DD0143293421DD0143293421DD0143297
:10270000934214BF4FF080734FF480130D4A53600F
:10271000012380F82130002380F82030436B03B17F
:1027200098470020D2E70123F0E71023EEE74FF4AB
:102730008073EBE74FF48053E8E74FF48033E5E72D
:102740000800024000000240044A08B551690142F5
:1027500002D0506100F0ACFF08BD00BF0004014092
:102760002DE9F341054638B30368DB0710D42B6825
:102770009F075ED42B68190700F195802B685A07D4
:1027800000F1C180EB69002B40F02C81002029E092
:10279000904C636803F00C03042B07D0636803F0CC
:1027A0000C03082B0AD16368DE0307D523689C035A
:1027B000DDD56B68002BDAD1012013E06B68B3F52F
:1027C000803F12D1236843F480332360FFF7B6FEC5
:1027D000064623689803CAD4FFF7B0FE801B64281E
:1027E000F7D9032002B0BDE8F0819BB9236823F438
:1027F00080332360236823F480232360FFF79EFE49
:10280000064623689903B2D5FFF798FE801B64281B
:10281000F7D9E6E7B3F5A02F236803D143F480236B
:102820002360CFE723F480332360236823F48023DD
:10283000CBE7684C636813F00C0F07D0636803F0B4
:102840000C03082B10D16368DA030DD423689B07AF
:1028500002D52B69012BAFD123686A6923F0F803F5
:1028600043EAC203236085E72A695B4B6AB1012210
:102870001A60FFF763FE064623689F07ECD4FFF754
:102880005DFE801B0228F7D9ABE71A60FFF756FE02
:102890000646236898077FF56DAFFFF74FFE801B54
:1028A0000228F6D99DE7AA694A4E4B4BE2B10122B4
:1028B000C3F88024FFF742FE0446736A9B070DD5D8
:1028C0004FF4FA52454B1B68B3FBF2F3019300BF80
:1028D000019B5A1E0192002BF9D14FE7FFF72EFE04
:1028E000001B0228E9D97CE7C3F88024FFF726FE05
:1028F0000446736A9F077FF541AFFFF71FFE001B79
:102900000228F6D96DE7334CE369D80024D40127B7
:10291000E36943F08053E361E36903F0805300937C
:10292000009B2F4E3368D90518D5EB68012B26D1B3
:10293000236A43F001032362FFF700FE41F2883867
:102940000646236A9B073FD5002F3FF41BAFE36980
:1029500023F08053E36115E70027E2E7336843F48F
:1029600080733360FFF7EAFD80463368DA05DCD414
:10297000FFF7E4FDA0EB08006428F6D931E7ABB916
:10298000236A41F2883823F001032362236A23F08B
:1029900004032362FFF7D2FD0646236A9807D3D5C6
:1029A000FFF7CCFD801B4045F7D91AE7052B236ABA
:1029B00003D143F004032362BAE723F00103236247
:1029C000236A23F00403B6E7FFF7B8FD801B4045F8
:1029D000B7D906E700100240000042421C00002068
:1029E000007000402A4C626802F00C02082A3ED0B7
:1029F0000022022B274B1A662CD1FFF79FFD0646BB
:102A00002368990120D42B6AB3F5803F05D1626811
:102A1000A96822F400320A436260696A62680B4363
:102A200022F474121343012263601A4B1A66FFF7F3
:102A300085FD054623689A013FF5A8AEFFF77EFDA8
:102A4000401B0228F6D9CCE6FFF778FD801B022850
:102A5000D6D9C6E6FFF772FD054623689B017FF5D0
:102A600095AEFFF76BFD401B0228F6D9B9E6012BA6
:102A70003FF4A2AE60682B6A00F480329A427FF481
:102A80009BAE6B6A00F47010C01A18BF0120A9E653
:102A900000100240000042420D4A536803F00C014E
:102AA000082912D10B48C3F38341DB03405C09D5ED
:102AB0005368094AC3F340435043084AD35CB0FB10
:102AC000F3F07047064B584370470348704700BF08
:102AD000001002400A4E000800127A00084E00085A
:102AE00000093D002DE9F0410D46044610B90120D2
:102AF000BDE8F081444A136803F007038B4228D3F2
:102B000021688E0730D4CA0743D43F4A136803F0C4
:102B10000703AB4265D822683C4D12F0040F6CD11C
:102B2000130706D56B68226923F4605343EAC20396
:102B30006B60FFF7B1FF6B68354AC3F30313D35CD7
:102B4000D840344B1860344B1868FFF7B5FC0020B0
:102B5000CEE7136823F007030B431360136803F0F9
:102B600007038B42C3D1CBE7284B11F0040F1EBFE4
:102B70005A6842F4E0625A60080742BF5A6842F459
:102B800060525A605A68A06822F0F00202435A600C
:102B9000B9E762681D4E012A33681AD113F4003F69
:102BA000A5D0736841F2883823F0030313437360A0
:102BB000FFF7C4FC07467368626803F00C03B3EBCD
:102BC000820FA2D0FFF7BAFCC01B4045F3D9032007
:102BD0008EE7022A02D113F0007FE1E713F0020F23
:102BE000DEE7136823F007032B431360136803F039
:102BF0000703AB427FF47BAF8DE76B68E16823F49A
:102C0000E0630B436B608BE7002002400010024042
:102C1000644E00081C00002010000020044B054AF0
:102C20005B68C3F30223D35C034A1068D840704743
:102C3000001002405C4E00081C000020044B054AB6
:102C40005B68C3F3C223D35C034A1068D840704763
:102C5000001002405C4E00081C00002003682DE9B3
:102C6000F3410546D80720D5364CE369D9002AD46C
:102C70000126E36943F08053E361E36903F0805385
:102C80000193019B304F3B68DA051ED5236A13F48C
:102C900040732ED1236A6A6823F44073134323627E
:102CA0001EB1E36923F08053E3612A68910706D5DA
:102CB0002449A8684B6823F4404303434B60D30680
:102CC00037D4002012E00026DCE73B6843F4807331
:102CD0003B60FFF733FC80463B68DB05D6D4FFF74B
:102CE0002DFCA0EB08006428F6D9032002B0BDE853
:102CF000F0816A6802F440729A42CBD00120134AF4
:102D0000236AC2F84004002023F44071DF07C2F8B0
:102D100040042162BED5FFF711FC41F28838074616
:102D2000236A9807B6D4FFF709FCC01B4045F7D9C2
:102D3000DBE7044AE968536823F480030B435360DC
:102D4000BFE700BF00100240007000400000424298
:102D500070477047036870B5DD681E690446B107A7
:102D60000DD5AA070BD56FF002021A610122027776
:102D70009B699B0769D000F0E1FB00232377710773
:102D800010D56A070ED56FF00402236820461A6139
:102D9000022222779B6913F4407F5CD000F0CEFBC7
:102DA0000023237733070FD528070DD56FF00802CE
:102DB000236820461A6104222277DB69990750D0E4
:102DC00000F0BCFB00232377F20610D5EB060ED5EE
:102DD0006FF01002236820461A6108222277DB690F
:102DE00013F4407F43D000F0A9FB00232377F007C2
:102DF00008D5E90706D56FF00102236820461A615D
:102E000000F079FB320608D52B0606D56FF080025C
:102E1000236820461A6100F032F8700608D569066A
:102E200006D56FF04002236820461A61FFF791FF34
:102E3000B20622D5AB0620D56FF0200223682046CB
:102E4000BDE870401A6100F019B800F075FB20462B
:102E5000FFF77EFF91E700F06FFB2046FFF778FF5A
:102E60009EE700F069FB2046FFF772FFAAE700F03B
:102E700063FB2046FFF76CFFB7E770BD70477047F4
:102E8000026802F10C0353E8003F23F490730C3204
:102E900042E8003102680029F2D102F1140353E83C
:102EA000003F23F0010302F1140C4CE8003100292B
:102EB000F3D1036B012B0BD102F10C0353E8003F5C
:102EC00023F0100302F10C0C4CE800310029F3D17F
:102ED000202380F8423000230363704710B5044676
:102EE0000368C1681A6922F440520A431A61826871
:102EF0000069D9680243606921F4B05121F00C01E6
:102F000002430A43DA605A69A16922F440720A4313
:102F10005A610E4A934215D1FFF790FE192343439D
:102F2000626820689200B3FBF2F36422B3FBF2F113
:102F300002FB11331B013233B3FBF2F303EB01133A
:102F4000836010BDFFF76AFEE8E700BF003801406C
:102F5000704710B5044648B390F8413003F0FF02C3
:102F60001BB980F84020FFF7F3FF2423226884F880
:102F70004130D368204623F40053D360FFF7AEFFFF
:102F8000236800201A6922F490421A615A6922F0DB
:102F90002A025A61DA6842F40052DA60202360643F
:102FA00084F8413084F84230606310BD0120FCE7B2
:102FB00010B5044668B390F8413003F0FF021BB926
:102FC00080F84020FFF7C4FF2423226884F84130B2
:102FD000D368204623F40053D360FFF77FFF2368B4
:102FE00000201A6922F490421A615A6922F02202E2
:102FF0005A615A6942F008025A61DA6842F4005292
:10300000DA602023606484F8413084F842306063E1
:1030100010BD0120FCE790F84130202B10D189B180
:1030200082B1C28482840023212201620168436448
:1030300080F84120CA68184642F08002CA60704792
:10304000022070470120704708B50023406AC385FD
:10305000C38400F0BFFF08BD704790F8423007B549
:10306000222B42D181680268B1F5805F836A3FD12B
:10307000016900293FD15268C2F3080223F8022BEC
:103080008362C38D013B9BB2C385002B2DD10268A7
:10309000D16821F02001D160D16821F48071D16024
:1030A000516921F001015161202280F842204363DF
:1030B000026B012A026828D1036302F10C0353E872
:1030C000003F23F0100302F10C0C4CE80031002902
:1030D000F3D11368DB0605D501911368019353689A
:1030E0000193019B818DFFF7B7FF03B05DF804FBEF
:1030F00039B9016929B95268D2B21A70836A0133A9
:10310000BEE7526802F07F02F7E700F05DFFECE7F0
:10311000036873B51A6804461607D9685D6908D153
:10312000960668D58D0666D502B0BDE87040FFF7FB
:1031300094BF05F0010001F4907505435BD0D607FC
:1031400005D5CD0542BF636C43F0010363645307AB
:1031500004D518B1636C43F002036364960704D589
:1031600018B1636C43F004036364150707D501F0DD
:10317000200303431EBF636C43F008036364636C66
:10318000002B32D0920604D58B0602D52046FFF7DD
:1031900064FF266820467369626C03F0400302F006
:1031A000080253EA020522D0FFF76AFE73695E0641
:1031B00018D5226802F1140353E8003F23F04003BE
:1031C000143242E800310029F3D1E06B50B1744B66
:1031D0004363FFF773FA40B1E06B436B02B0BDE8A5
:1031E00070401847204600F0F5FE02B070BD00F0B8
:1031F000F1FE6564F9E7206B012840F09480D50664
:1032000040F19180C80640F18E80002201921A6838
:1032100001925A680192019A5A6952064DD5E16BA2
:103220000A68526892B2002ADFD0A08D9042DCD9A1
:10323000E2858A69202A36D003F10C0252E8002F79
:1032400022F4807203F10C0040E800210029F3D140
:1032500003F1140252E8002F22F0010203F11400DE
:1032600040E800210029F3D103F1140252E8002FB5
:1032700022F0400203F1140040E800210029F3D1BC
:10328000202284F84220216303F10C0252E8002F2F
:1032900022F0100203F10C0040E800210029F3D1D4
:1032A000E06BFFF7EBF902236363E38DA18DC91A8D
:1032B00089B22046FFF7D0FE97E7E28DE18D92B20A
:1032C00089B2002991D0A18D891A89B200298CD0A8
:1032D00003F10C0252E8002F22F4907203F10C0566
:1032E00045E800200028F3D103F1140252E8002F32
:1032F00022F0010203F1140545E800200028F3D173
:10330000202284F84220206303F10C0252E8002FAF
:1033100022F0100203F10C0545E800200028F3D14B
:1033200002236363C5E7160628D50D0626D594F853
:103330004120212A7FF459AFA168226AB1F5805F4C
:1033400017D12169A9B932F8021BC1F308015960EC
:103350002262E28C013A92B2E284002A7FF445AF05
:10336000DA6822F08002DA60DA6842F04002DA605D
:103370003BE7511C216212785A60EAE750067FF55C
:1033800034AF4A067FF531AFDA68204622F04002BA
:10339000DA60202384F8413000F019FE25E700BFF1
:1033A0004930000890F84030012B11D024230268E6
:1033B00080F84130D36823F00C0343F00803D36056
:1033C000202380F84130002380F8403018467047B1
:1033D0000220704790F84030012B11D0242302685E
:1033E00080F84130D36823F00C0343F00403D3602A
:1033F000202380F84130002380F840301846704781
:103400000220704790F8412090F842001043704726
:103410000023C285436422238285026980F84230FA
:10342000816203681AB1DA6842F48072DA605A691C
:10343000002042F001025A61DA6842F02002DA60AC
:10344000704770B590F84260202E07D141B13AB173
:1034500000240463FFF7DCFF204670BD0220FCE778
:103460000120FAE7836810B5044613B10322014630
:103470009847204610BD0000034B186810B1043077
:10348000FFF768BC704700BFA4000020FFF7F4BF3F
:10349000034B586810B10430FFF75CBC704700BFA5
:1034A000A4000020034B986810B10430FFF752BC11
:1034B000704700BFA4000020034BD86810B104304F
:1034C000FFF748BC704700BFA4000020826810B519
:1034D0000AB901F0C9F9C368BDE81040184708B53A
:1034E00000B9FEE700F0ECFB0068836E13B16030BA
:1034F000FFF7ECFF08BDFFF7F2BF10B500B9FEE71C
:10350000037F013B072B10D8DFE803F004140F10F2
:103510000F0F0F12012400F0D3FB0068063400EBFC
:10352000041083680BB1FFF7D1FF10BD0324F2E74D
:103530000424F0E70224EEE7FFF7DFBFFFF7DDBF6B
:1035400086B0042841D8DFE800F003101C283400BE
:103550001F4B20489A6942F004029A619B6903F06C
:1035600004030193019B06B07047194B1A489A69EE
:1035700042F008029A619B6903F008030293029BE0
:10358000F1E7134B15489A6942F010029A619B6962
:1035900003F010030393039BE5E70D4B10489A6972
:1035A00042F020029A619B6903F020030493049B7C
:1035B000D9E7074B0B489A6942F040029A619B6930
:1035C00003F040030593059BCDE70020CBE700BF48
:1035D0000010024000080140000C014000100140B2
:1035E0000014014000180140FEF7A8BF704708B55D
:1035F000FEF798FFFFF72DF8FFF7F8FF08BD7047BB
:103600000F4B84B0DA6942F08052DA61DA6902F075
:1036100080520192019A9A6942F001029A619A6974
:1036200002F001020292029A5A6942F040025A6183
:103630005B6903F040030393039B04B0704700BF32
:10364000001002400C4BD3F8FC20D2015EBFD3F82F
:10365000FC2042F08072C3F8FC200022074B5A6025
:103660001A6842F001021A6000BF00BF00BF58682C
:10367000B0FA80F04009704700ED00E0001000E073
:1036800008B5FFF7BDFFFFF7DDFFFEF739FFFFF7D6
:10369000B6FF00F011FDBDE808400148FEF7DEBFAF
:1036A000140000200023C0E90033C0E90233704752
:1036B0000023012803F101020AD11422DBB2534393
:1036C000054A181D1044816829B11A441369184726
:1036D00013464008EDE77047B40000200120FFF7D3
:1036E00033B80220FFF730B80420FFF72DB80820C8
:1036F000FFF72AB81020FFF727B808B52020FFF7FA
:1037000023F84020FFF720F88020FFF71DF84FF442
:103710008070FFF719F8BDE808404FF40070FFF71C
:1037200013B838B506244FF48065A8B2FFF70CF83B
:10373000013C4FEA4505F8D138BD0000344A08B5D0
:103740001046062300F8043BFFF7ACFF072302F105
:1037500018001375FFF7A6FF082302F12C0082F86A
:103760002830FFF79FFF092302F1400082F83C3028
:10377000FFF798FF0A23172102F1540082F8503016
:10378000FFF790FF02F1680082F86410FFF78AFFEC
:1037900002F17C0082F87810FFF784FF02F19000BC
:1037A00082F88C10FFF77EFF02F1A40082F8A010CF
:1037B000FFF778FF82F8B410282102F1B800FFF774
:1037C00071FF02F1CC0082F8C810FFF76BFF02F125
:1037D000E00082F8DC10FFF765FF02F1F40082F8E8
:1037E000F010FFF75FFF02F5847082F80411FFF715
:1037F00059FF02F58E7082F81811FFF753FFBDE8EC
:10380000084002F5987082F82C11FFF74BBF00BFFB
:10381000B400002038B5054CA4F5A075143C201D5B
:10382000FFF720FEAC42F9D138BD00BFF401002003
:103830007B4B82B09A69013842F001029A619B6920
:1038400003F001030193019B23282CD8DFE810F03B
:1038500024002D0034003B00400047004C00530082
:1038600058005F0068006D0074007D0082008900D0
:1038700092009B00A000A700B000B500BC002B0088
:103880002B002B00C100C8002B002B002B002B00AD
:10389000CD00D200D900E000624A536843F0E063F3
:1038A00043F00103536002B070475E4A536823F04F
:1038B000010343F0E063F5E75A4A536843F0E063DD
:1038C00043F00203EEE7574A536823F00203F0E7A0
:1038D000544A536843F0E06343F00403E2E7514A7B
:1038E000536823F00403E4E74E4A536843F0E0636F
:1038F00043F00803D6E74B4A536823F00803D8E7A0
:10390000484A536843F0E06343F03003CAE7454A4E
:10391000536823F0300343F0E06343F01003C1E742
:10392000404A536823F03003C3E73E4A536843F0EC
:10393000E06343F0C003B5E73A4A536823F0C0039D
:1039400043F0E06343F04003ACE7364A536823F0AA
:10395000C003AEE7334A536843F0E06343F4407377
:10396000A0E7304A536823F4407343F0E06343F424
:10397000007397E72B4A536823F4407343F0E063E6
:1039800043F480738EE7274A536823F4407390E72B
:10399000244A536843F0E06343F4406382E7214ADA
:1039A000536823F4406343F0E06343F4006379E732
:1039B0001C4A536823F440637BE71A4A536843F078
:1039C000E06343F480536DE7164A536823F4805351
:1039D0006FE7144A536843F0E06343F4004361E740
:1039E000104A536823F4004363E70E4A536823F0F8
:1039F000E06357E70B4A536823F0E06343F08073BA
:103A000050E7084A536823F0E06343F0007349E746
:103A1000044A536823F0E06343F0806342E700BF49
:103A2000001002400000014091FAA1F3B3FA83F3C1
:103A300070B50D0E0F2691FAA1F1B1FA81F144593A
:103A40009B0006FA03F3890024EA03048A40224318
:103A5000425170BD91FAA1F3B3FA83F370B50D0E24
:103A6000042691FAA1F1B1FA81F144599B0006FABA
:103A700003F3890024EA03048A402243425170BDC3
:103A8000431C2DE9F34106460F4600D1FEE7594B92
:103A900000F00F02C0F3031001F0070853F82240B2
:103AA000FFF74EFDB8F1010F054615D194FAA4F3C6
:103AB000B3FA83F30321200E2A589B0001FA03F383
:103AC00022EA030294FAA4F3B3FA83F39B00994029
:103AD00011432950012213E0C7F30620B8F1030F68
:103AE0000AD801A353F828F0FB3A0008D53A000899
:103AF0005F3B00086D3B0008FEE7FFF799FE0822D8
:103B00002146284608F1FF38FFF78EFFB8F1010F74
:103B100006D817F0080218BF04222146FFF79AFFC3
:103B200094FAA4F2230EB2FA82F2E9580F2392001B
:103B3000934094FAA4F2B2FA82F2C7F301170B4051
:103B40009200012F23FA02F312D0022F3BD0082B50
:103B500021D1042221462846FFF766FF1BE07F287B
:103B600001D10922CCE7FFF763FEFAE70022C7E79D
:103B7000042B04D1082221462846FFF755FF230ACB
:103B800093FAA3F3B3FA83F20123E968934021EA9D
:103B900014210B43EB60184B9A6942F001029A61C1
:103BA0009B6903F001030193019BA6F10D03012B17
:103BB00014D8124A536823F0E06343F080635360E3
:103BC00002B0BDE8F081042B04D10822214628462A
:103BD000FFF72AFFEB6823EA1423DBE70F2E02D05E
:103BE000133E012EECD8054A536823F0E06343F0FE
:103BF0000073E4E71C4E0008001002400000014082
:103C0000431C06D17047834202D18968FFF738BF51
:103C10000C310B685A1CF6D1FEE70B685A1C01D117
:103C200000207047834201D1486870470C31F4E7A7
:103C3000431C01D0FFF7F1BF002070474B6813B958
:103C40004FF0FF307047834201D1086870470C3154
:103C5000F4E708B1FFF7F2BF4FF0FF3070470346BB
:103C60008B42084604D01BB100290CBF1846002027
:103C7000704700000F4B1A6842F001021A60596841
:103C80000D4A0A405A601A6822F0847222F4803287
:103C90001A601A6822F480221A605A6822F4FE021E
:103CA0005A604FF41F029A604FF00062034B9A6013
:103CB000704700BF001002400000FFF800ED00E078
:103CC000043870472DE9F04F8B46924699460446DA
:103CD00085B018B9002005B0BDE8F08F6449406D8B
:103CE000FFF7A6FF63490646A06DFFF7A1FF6249F3
:103CF0000746E06DFFF79CFF60490546206EFFF721
:103D000097FF8046002EE5D0A36D013301D0002F30
:103D1000E0D0E36D013301D0002DDBD0236E013301
:103D200002D0B8F1000FD5D030463946FFF797FFE3
:103D30000646206020B90146FFF791FF0646206045
:103D400029463046FFF78BFF41462060FFF787FF8B
:103D500020600028BED04A4B984252D103F5584308
:103D6000DA6842F48042DA60DA6822F48042DA608B
:103D70009A6942F480429A619B69002203F480436D
:103D80000193019B25233A49606D84F8652084F8EE
:103D90006430FFF735FF1FB13649A06DFFF730FFE4
:103DA0002DB13549E06DFFF72BFF4FF48075B8F169
:103DB000000F05D03149206E45F40075FFF720FF54
:103DC00094F865202F4B261D43F8226023680022BB
:103DD000C4E9013B0E9B94F96400C4E904390C2347
:103DE0000121C4E90635C4F80CA02262FEF7BEFB2F
:103DF0003046002F38D1FFF7DBF8B0FA80F04009E9
:103E000069E7214B984215D103F5E6331A6942F46C
:103E100000321A611A6922F400321A61DA6942F436
:103E20000032DA61DB69012203F400330293029B62
:103E30002623A8E7154B98427FF44CAF03F5E433F3
:103E40001A6942F480221A611A6922F480221A61E6
:103E5000DA6942F48022DA61DB69022203F480230A
:103E60000393039B27238EE7FFF773F8C5E700BF93
:103E7000284F0008EC4E0008B04E0008744E0008B1
:103E800000380140F4010020004400400048004098
:103E900008B5074B90F8652053F82200FFF7B2FAF7
:103EA00000F02200A0F122035842584108BD00BF93
:103EB000F401002008B5074B90F8652053F8220064
:103EC000FFF7A0FA00F02100A0F121035842584169
:103ED00008BD00BFF401002070B50E46054610B9BC
:103EE0004FF0FF3070BDFFF7D3FF04460028F7D135
:103EF000294611F8663F0122337095F86500034B9F
:103F000053F82000FFF79DFA2046EBE7F40100206C
:103F100038B50D460446B8B1FFF7BAFFA0B994F919
:103F20006400E564FEF760FB94F86500074B04F15C
:103F3000660153F820000122FFF783FA94F9640028
:103F4000BDE83840FEF742BB38BD00BFF401002099
:103F500038B515460446B8B1016590F96400FEF71E
:103F600043FBB4F87630E16E9BB294F865001944D7
:103F7000064BAAB253F82000FFF74DF894F96400FD
:103F8000BDE83840FEF722BB38BD00BFF401002079
:103F900048B1836D013306D190F86520024B53F888
:103FA0002200FFF7FFB97047F401002048B1836D8C
:103FB000013306D190F86520024B53F82200FFF739
:103FC00009BA7047F4010020836C04381847C36CA9
:103FD0000438184730B5044650F8043985B01D68D8
:103FE00015F0010512D0002200921A6800925B6859
:103FF0000093009BFFF74CFF40BB0122204604F1D9
:10400000620105B0BDE83040FFF71BBA196811F036
:10401000020106D001951A6801925B680193019B29
:10402000E8E71A6812F0040206D002911A680292B8
:104030005B680293029BDDE719680907DAD50392F2
:104040001A6803925B680393039BD3E705B030BD06
:1040500008B52520FEF7EEFA024B1868BDE80840C7
:10406000FFF756B8F4010020262008B5FEF7E2FA63
:10407000034B586818B1BDE80840FFF749B808BDC0
:10408000F4010020272008B5FEF7D4FA034B986806
:1040900018B1BDE80840FFF73BB808BDF4010020A7
:1040A000FEE700001622024B4FF0FF301A60704707
:1040B000500400200120704710B594B01422002154
:1040C0000CA800F0D6FA142200210DEB020000F03B
:1040D000D0FA1022002101A800F0CBFA02244FF4FC
:1040E00080330122CDE91143CDE90A234FF4E013D7
:1040F0000AA80E921393FEF733FB00B1FEE70F23DD
:10410000CDE905344FF480630790CDE908302146AE
:1041100005A8FEF7E7FC00B1FEE7122301934FF478
:104120000043CDE9033001A8FEF798FD00B1FEE79A
:1041300014B010BDB0F80831B0F80421981A00F09E
:104140003F007047B0F80831B0F804219BB29342A9
:104150001ABFD0F8FC30985C4FF0FF30704790F8F1
:104160000631B0F80A01C0B2834227BFC3F13F0352
:10417000C018C01A00F1FF30704707B503688DF80A
:10418000071001225B680DF10701984703B05DF845
:1041900004FB13B50DF107010446FFF79DFE88B936
:1041A000B4F87430B4F87020013303F03F03934245
:1041B00008D0B4F874209DF80700A16E92B288541C
:1041C000A4F8743002B010BDB0F87610826F10B54C
:1041D0000A4402F03F02A0F87620B0F87610B0F85A
:1041E000722089B28A421AD0B0F876404032A4B226
:1041F000B0F87610121B544289B204F03F0402F06A
:104200003F02C1F1400158BF62428A4228BF0A46BC
:1042100004498267FFF79CFE4FF0FF3010BD00207D
:10422000FCE700BFC94100082DE9F84303680446D4
:104230009B6888461646984701232374D4F8EC30CF
:10424000B4F8067101338146C7F1400709D194F8EB
:10425000113133B1002304F1940084F81131FFF7D8
:1042600097FE236820469B6898470028F9D035467A
:10427000BD4225D84D4523D8B4F80631D4F8000105
:104280005A19402A184430D82A46414600F01EFAEE
:104290002F46B4F806311D4405F03F05A4F8065139
:1042A00004F194052846FFF705FE30B93A46284642
:1042B0001549C4F80C71FFF74BFE3046BDE8F88392
:1042C0004F4528BF4F4623683A4641465B68204623
:1042D0009847236820469B689847ED1BB844B4F87C
:1042E00006718146C7F14007C2E7C3F140073A466D
:1042F000414600F0EBF9D4F80001EA1B08EB070196
:1043000000F0E4F9C5E700BFC9410008C0F8F0308B
:10431000009B914208BF4FF0FF31C0F8F43000F12C
:104320001403C0F8FC300023C0E93A2100F1540224
:10433000A0F80831C0E94023A0F80A317047000016
:10434000F7B54FF47A7317460022C0E901231C4BDE
:10435000044603604FF0FF33C0F8EC30194B1A4E9F
:104360009C420D46F06A05D1B36AC4F8EC30C4F83B
:10437000E8000AE01549FFF75BFC854215D1B36AF6
:10438000C4F8EC30F36AC4F8E8304FF0FF33012F83
:1043900008BFC4F8EC3000932046D4E93A214FF02E
:1043A000FF33FFF7B3FF03B0F0BD28460849FFF71E
:1043B00050FC0649C4F8EC002846FFF74AFCD6E753
:1043C0000050000800020020644F0008284F000839
:1043D000EC4E0008037C70B504460D46A3B1FEF711
:1043E000ADF80646B4F80621B4F80A319BB29A42F9
:1043F0000AD0002DF8D0FEF7A1F8801B8542F1D835
:10440000B4F80A31A4F8063170BD0021FFF7E2BF0D
:10441000D0F8EC3010B5013304460ED10368DB68E8
:10442000984794F8113143B9012304F1940084F8BA
:104430001131BDE81040FFF7B9BD10BD7FB514467E
:1044400002F00703023BDBB2042B80F8122196BF77
:104450001F4A0022D25C04F03003302B0546C0F81E
:10446000141107D14FF4C0630132082A09D0092A78
:1044700024D0FEE714F0200325D04FF480630132EE
:10448000F3E70022E87CC4F3C0040390A87C05F1A4
:1044900094060290687C6403019000943046FFF714
:1044A00011FC85F8100188B12846FFF7B1FF3046AE
:1044B000084904B0BDE87040FFF72ABD4FF48052B0
:1044C000E0E71A46DEE7082AFBD0D2E704B070BD69
:1044D000F04F00089341000810B50446FFF798FF1D
:1044E000B4F80821B4F8043192B29A4217BFD4F854
:1044F000FC204FF0FF30D05C01331CBF03F03F03C2
:10450000A4F8043110BD0000002202490248FFF760
:1045100017BF00BF003801400002002070B50546FB
:104520000C46084649B1FBF7F3FD2B6802462146CD
:104530002846BDE870405B68184770BD08B5FFF7B6
:10454000EDFF08BD10B5044600F071F8E060236887
:1045500020465B699847002808DA00F068F8E368AD
:10456000C01AA3689842F2D34FF0FF3010BDF8B5DF
:1045700007460D460C468E18B44201D1601BF8BDAB
:104580003846FFF7DFFF431CF8D004F8010BF3E7D0
:104590002DE9F0410746884616461D4673B10024B2
:1045A0003846FFF7CFFF431C05D0404503D03055B8
:1045B0000134A542F4D12046BDE8F0811C46FAE75B
:1045C00008B50320FDF7C0FFBDE8084000F04EB875
:1045D00008B5AFF30080FCF761FAFCF779FA00F058
:1045E00037F8FAE7FFF746FB0B480C490C4A002363
:1045F00002E0D458C4500433C4188C42F9D3094A99
:10460000094C002301E013600432A242FBD300F006
:1046100039F8FFF7DDFF7047000000207000002030
:10462000445000087000002054040020FEE7FEF70C
:10463000DBBF38B5044648B1FEF7D6FF054600F0AB
:1046400017F8FEF7D1FF431BA342F8D338BD000093
:1046500008B5044B2BB10448FFF76CFD08B1AFF36C
:10466000008008BD0000000000020020FFF708B82D
:10467000704703460244934200D1704703F8011B80
:10468000F9E7000070B500260C4D0D4B5B1B9C102C
:10469000A64209D1002600F0EBF80A4D0A4B5B1B3D
:1046A0009C10A64205D170BD55F8043B98470136D1
:1046B000EEE755F8043B98470136F2E72C50000826
:1046C0002C5000082C5000083C5000080A4491422D
:1046D00000F1FF3300D1704710B511F8014B914242
:1046E00003F8014FF9D110BDF8B5C1F30A531646CE
:1046F000A3F2FF32132A04460D460F4620DC002A9F
:1047000007DA002201F00043C6E9002320462946CB
:10471000F8BD1D4B43FA02FE01EA0E03034305D127
:10472000C6E900451C4607F00045EFE7002221EAF4
:104730000E03C6E90023FBF7F7FC04460D46E5E748
:10474000332A13DDC6E9004500F020F850B92246AF
:104750002B4620462946FBF7E9FC04460D46C6E9F0
:104760000045D3E7002405F00045CFE74FF0FF3EBA
:10477000A3F213432EFA03FE1EEA0003D0D00B4629
:1047800020EA0E02D5E700BFFFFF0F000B4631F015
:10479000004110B504D100280CBF0220032010BD39
:1047A000094AA1F58014944208D9084A134207D057
:1047B000914207D1B0FA80F04009F0E70420EEE71B
:1047C0000320ECE70020EAE7FFFFDF7F0000F07F37
:1047D000062008B500F02CF80120FFF761FC1F2926
:1047E00038B505460C4604D9162303604FF0FF3058
:1047F00038BDC26B12B152F821304BB9284600F0D7
:1048000031F8224601462846BDE8384000F018B885
:10481000012B0AD0591C03D1162303600120E7E7BE
:104820000021204642F8241098470020E0E70000CD
:10483000024B01461868FFF7D2BF00BF20000020DE
:1048400038B50023064D0446084611462B60FFF795
:1048500029FC431C02D12B6803B1236038BD00BF83
:1048600050040020FFF726BC08B5FFF7B1FF000099
:10487000F8B500BFF8BC08BC9E467047F8B500BF4D
:08488000F8BC08BC9E4670471D
:104888000D0A3D3D3D20436F72654D61726B203DC1
:104898003D3D0D0A003D3D3D20436F72654D6172FF
:1048A8006B20444F4E45203D3D3D0D0A00366B20A0
:1048B800706572666F726D616E63652072756E20C9
:1048C800706172616D657465727320666F722063C2
:1048D8006F72656D61726B2E0A00366B2076616CA3
:1048E80069646174696F6E2072756E20706172619F
:1048F8006D657465727320666F7220636F72656D83
:1049080061726B2E0A0050726F66696C652067656C
:104918006E65726174696F6E2072756E2070617257
:10492800616D657465727320666F7220636F72655E
:104938006D61726B2E0A00324B20706572666F7261
:104948006D616E63652072756E20706172616D6550
:104958007465727320666F7220636F72656D617221
:104968006B2E0A00324B2076616C69646174696F42
:104978006E2072756E20706172616D6574657273F8
:1049880020666F7220636F72656D61726B2E0A000C
:104998005B25755D4552524F5221206C6973742016
:1049A80063726320307825303478202D2073686F47
:1049B800756C64206265203078253034780A005B95
:1049C80025755D4552524F5221206D617472697888
:1049D8002063726320307825303478202D20736866
:1049E8006F756C64206265203078253034780A0051
:1049F8005B25755D4552524F522120737461746571
:104A08002063726320307825303478202D20736835
:104A18006F756C64206265203078253034780A0020
:104A2800436F72654D61726B2053697A652020204F
:104A3800203A20256C750A00546F74616C207469E3
:104A4800636B732020202020203A20256C750A00F3
:104A5800546F74616C2074696D6520287365637385
:104A6800293A2025660A00497465726174696F6E77
:104A7800732F5365632020203A2025660A0045528B
:104A8800524F5221204D7573742065786563757493
:104A98006520666F72206174206C656173742031C3
:104AA80030207365637320666F7220612076616CB5
:104AB800696420726573756C74210A0049746572A3
:104AC8006174696F6E73202020202020203A2025F1
:104AD8006C750A0047434331342E322E3120323070
:104AE80032343131313900436F6D70696C65722031
:104AF80076657273696F6E203A2025730A002D4F10
:104B080073202D6D6370753D636F727465782D6DBC
:104B180033202D6D7468756D622028617264756923
:104B28006E6F2D636C692053544D33326475696E12
:104B38006F2900436F6D70696C657220666C6167E0
:104B4800732020203A2025730A00535441434B0018
:104B58004D656D6F7279206C6F636174696F6E203B
:104B6800203A2025730A0073656564637263202008
:104B780020202020202020203A203078253034782A
:104B88000A005B25645D6372636C6973742020207E
:104B9800202020203A203078253034780A005B2500
:104BA800645D6372636D61747269782020202020CF
:104BB8003A203078253034780A005B25645D6372CA
:104BC8006373746174652020202020203A20307897
:104BD800253034780A005B25645D63726366696E0C
:104BE800616C2020202020203A203078253034782D
:104BF8000A00436F7272656374206F706572617426
:104C0800696F6E2076616C6964617465642E2053E7
:104C1800656520524541444D452E6D6420666F728E
:104C28002072756E20616E64207265706F7274698F
:104C38006E672072756C65732E0A00436F72654D3E
:104C480061726B20312E30203A202566202F2025D6
:104C58007320257300202F202573004572726F7210
:104C6800732064657465637465640A0043616E6EDD
:104C78006F742076616C6964617465206F70657209
:104C88006174696F6E20666F722074686573652041
:104C9800736565642076616C7565732C20706C652E
:104CA80061736520636F6D706172652077697468E0
:104CB80020726573756C7473206F6E2061206B6E43
:104CC8006F776E20706C6174666F726D2E0A005477
:104CD800302E33652D3146002D542E542B2B547114
:104CE800003154332E3465347A0033342E30652D38
:104CF800545E00352E353030652B33002D2E313281
:104D080033652D32002D3837652B383332002B3080
:104D18002E36652D31320033352E3534343030009F
:104D28002E31323334353030002D3131302E37309A
:104D380030002B302E3634343030003530313200EC
:104D480031323334002D383734002B3132320030D1
:104D580031323334353637383961626364656667B2
:104D680068696A6B6C6D6E6F707172737475767743
:104D780078797A0030313233343536373839414230
:104D8800434445464748494A4B4C4D4E4F50515273
:104D9800535455565758595A003C4E554C4C3E00A2
:104DA800475EBF39A4E53A8E848D52BE99110856E4
:104DB800D71F4707B0D44033796A14E7C1E300002E
:104DC800D74C0008E04C0008E94C0008F24C0008F9
:104DD800FB4C0008044D00080D4D0008164D000856
:104DE8001F4D0008284D0008314D00083A4D0008B5
:104DF800434D0008484D00084D4D0008524D00082D
:104E0800010202030405060708090A0B0C0D0E0F20
:104E1800101000000101000002020000040400005C
:104E2800080800001010000020200000404000008A
:104E38008080000001000104020002040400040450
:104E4800080008041000100420002004400040045A
:104E5800800080040000000001020304000000003C
:104E68000000000001020304060708090000000012
:104E780000440040120000000B0000000038014010
:104E8800120000001D00000000480040120B000046
:104E98001D01000000480040120A0000FFFFFFFF4C
:104EA8000000000000000000010000000044004075
:104EB800120800000C000000003801401200000039
:104EC8001E00000000480040120000001E01000003
:104ED80000480040120A0000FFFFFFFF000000002A
:104EE800000000000300000000440040100800001B
:104EF8000A000000003801401006000017000000FA
:104F080000380140100500001B0000000048004068
:104F180010000000FFFFFFFF00000000000000007D
:104F280002000000004400401208000009000000D0
:104F38000038014012060000160000000038014049
:104F4800120500001A00000000480040120000008E
:104F5800FFFFFFFF00000000000000001900000034
:104F680018000000170000001600000015000000DF
:104F780014000000130000000F0000000C000000E7
:104F88000B0000000A0000000900000008000000F3
:104F98001F0000001E0000001D0000001C00000093
:104FA8002D0000002E0000002F000000000000006F
:104FB80001000000020000000300000004000000DF
:104FC80005000000060000000700000010000000B7
:104FD800110000001A0000001B0000001200000071
:104FE8000D0000000E000000060007000800000089
:104FF80000000000000000007B4100082942000872
:105008005F4100080B44000835410008D9440008F6
:0C501800454100086F4500089145000864
:08502400ECB0FF7F0100000069
:10502C00C1450008810A00083D3700080945000801
:08503C005D0A000815380008A8
:1050440001000000C800000066000000010000002C
:1050540010000000003002400000000000127A003E
:10506400240000200000000018030020800300201A
:10507400E803002000000000000000000000000021
:10508400000000000000000000000000000000001C
:10509400000000000000000000000000000000000C
:1050A40000000000000000000000000000000000FC
:04000005080045E5C5
:00000001FF
