:020000040800F2
:1000000000500020612E0008A92E0008A92E00082B
:10001000A92E0008A92E0008A92E00080000000043
:10002000000000000000000000000000A92E0008F1
:10003000A92E000800000000A92E0008F71B0008E8
:10004000A92E0008A92E0008A92E0008A92E000834
:10005000A92E0008A92E0008E51C0008EB1C0008CA
:10006000F11C0008F71C0008FD1C0008A92E000860
:10007000A92E0008A92E0008A92E0008A92E000804
:10008000A92E0008A92E0008A92E0008A92E0008F4
:10009000A92E0008A92E0008A92E0008031D00089B
:1000A000A92E0008B9190008A92E0008CD190008CA
:1000B000D1190008E5190008F9190008A92E00084F
:1000C000A92E0008A92E0008A92E0008A92E0008B4
:1000D000A92E0008412800085928000875280008A2
:1000E0002B1D0008A92E0008A92E00080000000002
:1000F0000000000000000000000000000000000000
:0C01000000000000000000005FF808F1A3
:10010C00034613F8012B002AFBD1181A013870474B
:10011C0010B5054C237833B9044B13B10448AFF335
:10012C0000800123237010BD64000020000000003B
:10013C00E42F000808B5034B1BB103490348AFF388
:10014C00008008BD0000000068000020E42F0008BB
:10015C000122014B1A70704780000020012A02D145
:10016C00016000207047022A05D0032AF9D0002A2A
:10017C00F7D10260F5E70B680360F2E703681847F4
:10018C001FB506224FF4E1311D4802F049FD012153
:10019C001C4801F036FB00221B491A4801F0E0FB19
:1001AC0000230193194B69460093194B154803938F
:1001BC00184B029301F071FC029B1BB103226946A0
:1001CC00684698470F4801F0D0FA134A13499369CF
:1001DC000B4843F4007393614FF04432104B1A6098
:1001EC00002203F5E0535A631A6101229A6002F06F
:1001FC00ADFD0C49024805B05DF804EB02F0A6BD5C
:10020C0094020020840000203F420F005D01000892
:10021C00890100086901000800100240FC2F000849
:10022C00000801401D3000080D4B10B51A78B2B112
:10023C0000220C4C1A70A36843F48003A36023685B
:10024C009B07FCD50849094802F06AFDE16C0A22BB
:10025C00BDE810400548C1F30B0102F0A1BD10BD73
:10026C008000002000240140373000089402002058
:10027C004FF08041014801F0C9BB00BF8400002051
:10028C00014801F0DFBA00BF840000207047000075
:10029C0038B50E4B05461A784FF47A73B3FBF2F36C
:1002AC000B4A1068B0FBF3F000F09CF8044658B908
:1002BC000F2D09D8024629464FF0FF3000F042F8C6
:1002CC002046044B1D6038BD0120FCE700000020D7
:1002DC001000002004000020074A08B51368032012
:1002EC0043F01003136000F01BF80020FFF7D0FF61
:1002FC00FFF7CCFF002008BD00200240034A044B4E
:10030C0011681B780B441360704700BF3401002048
:10031C0000000020014B1868704700BF340100201A
:10032C0007490302CA6803F4E06322F4E062120492
:10033C00120C134343F0BF6343F40033CB6070479C
:10034C0000ED00E0154B30B5DC68C4F30224C4F1B9
:10035C000703251D042B28BF0423062D4FF0FF3562
:10036C0094BF0024033C05FA03F321EA0303A540E0
:10037C0022EA0502A340002843EA0203ACBF00F1C5
:10038C006040074A4FEA0313DBB2ABBF00F5614094
:10039C0000F00F0080F80033135430BD00ED00E086
:1003AC0014ED00E0002807DB01234109034A00F0AB
:1003BC001F00834042F82130704700BF00E100E08D
:1003CC0000280CDB01220649430900F01F00824083
:1003DC00203341F82320BFF34F8FBFF36F8F70474B
:1003EC0000E100E00138B0F1807F0BD24FF0E02348
:1003FC00F021054A586182F82310002007229861E9
:10040C001A6170470120704700ED00E0002808DBFE
:10041C0001224309034900F01F008240603341F878
:10042C002320704700E100E0704708B5FFF7FCFFA0
:10043C0008BD704710B5044650B1437903F0FF0274
:10044C0013B90271FFF7F5FF01230020637110BD92
:10045C000120FCE790F821200346022A06D0042252
:10046C0082630120002283F8202070470268C06B51
:10047C00116821F00E011160116821F00101116069
:10048C0001211A6C01FA02F24260002083F821105B
:10049C00E8E7000008B590F82130022B03D00423C4
:1004AC008363012008BD03681A6822F00E021A60EB
:1004BC001A6822F001021A60174A93421FD01432B4
:1004CC0093421ED0143293421DD0143293421DD04D
:1004DC00143293421DD01432934214BF4FF08073E8
:1004EC004FF480130D4A5360012380F82130002310
:1004FC0080F82030436B03B198470020D2E70123EA
:10050C00F0E71023EEE74FF48073EBE74FF48053E2
:10051C00E8E74FF48033E5E70800024000000240B2
:10052C00044A08B55169014202D0506101F0BEFB8A
:10053C0008BD00BF000401402DE9F341054638B366
:10054C000368DB0710D42B689F075ED42B68190750
:10055C0000F195802B685A0700F1C180EB69002BE4
:10056C0040F02C81002029E0904C636803F00C03D0
:10057C00042B07D0636803F00C03082B0AD16368C3
:10058C00DE0307D523689C03DDD56B68002BDAD11D
:10059C00012013E06B68B3F5803F12D1236843F45C
:1005AC0080332360FFF7B6FE064623689803CAD44F
:1005BC00FFF7B0FE801B6428F7D9032002B0BDE81A
:1005CC00F0819BB9236823F480332360236823F4E0
:1005DC0080232360FFF79EFE064623689903B2D55D
:1005EC00FFF798FE801B6428F7D9E6E7B3F5A02F38
:1005FC00236803D143F480232360CFE723F48033B3
:10060C002360236823F48023CBE7684C636813F0E2
:10061C000C0F07D0636803F00C03082B10D1636830
:10062C00DA030DD423689B0702D52B69012BAFD1BC
:10063C0023686A6923F0F80343EAC203236085E761
:10064C002A695B4B6AB101221A60FFF763FE06460A
:10065C0023689F07ECD4FFF75DFE801B0228F7D9B7
:10066C00ABE71A60FFF756FE0646236898077FF53E
:10067C006DAFFFF74FFE801B0228F6D99DE7AA69E4
:10068C004A4E4B4BE2B10122C3F88024FFF742FEE5
:10069C000446736A9B070DD54FF4FA52454B1B6801
:1006AC00B3FBF2F3019300BF019B5A1E0192002B86
:1006BC00F9D14FE7FFF72EFE001B0228E9D97CE7A2
:1006CC00C3F88024FFF726FE0446736A9F077FF564
:1006DC0041AFFFF71FFE001B0228F6D96DE7334C24
:1006EC00E369D80024D40127E36943F08053E36124
:1006FC00E36903F080530093009B2F4E3368D905B8
:10070C0018D5EB68012B26D1236A43F00103236231
:10071C00FFF700FE41F288380646236A9B073FD557
:10072C00002F3FF41BAFE36923F08053E36115E71F
:10073C000027E2E7336843F480733360FFF7EAFD88
:10074C0080463368DA05DCD4FFF7E4FDA0EB080043
:10075C006428F6D931E7ABB9236A41F2883823F023
:10076C0001032362236A23F004032362FFF7D2FD03
:10077C000646236A9807D3D5FFF7CCFD801B40456E
:10078C00F7D91AE7052B236A03D143F0040323623C
:10079C00BAE723F001032362236A23F00403B6E7CC
:1007AC00FFF7B8FD801B4045B7D906E700100240A3
:1007BC000000424210000020007000402A4C626889
:1007CC0002F00C02082A3ED00022022B274B1A669C
:1007DC002CD1FFF79FFD06462368990120D42B6A84
:1007EC00B3F5803F05D16268A96822F400320A4350
:1007FC006260696A62680B4322F47412134301222B
:10080C0063601A4B1A66FFF785FD054623689A014B
:10081C003FF5A8AEFFF77EFD401B0228F6D9CCE6CB
:10082C00FFF778FD801B0228D6D9C6E6FFF772FDCC
:10083C00054623689B017FF595AEFFF76BFD401BCA
:10084C000228F6D9B9E6012B3FF4A2AE60682B6AF8
:10085C0000F480329A427FF49BAE6B6A00F4701005
:10086C00C01A18BF0120A9E6001002400000424245
:10087C000D4A536803F00C01082912D10B48C3F33D
:10088C008341DB03405C09D55368094AC3F34043F9
:10089C005043084AD35CB0FBF3F07047064B584307
:1008AC0070470348704700BF0010024041300008F9
:1008BC0000127A003F30000800093D002DE9F0419C
:1008CC000D46044610B90120BDE8F081444A136876
:1008DC0003F007038B4228D321688E0730D4CA0754
:1008EC0043D43F4A136803F00703AB4265D8226830
:1008FC003C4D12F0040F6CD1130706D56B682269BE
:10090C0023F4605343EAC2036B60FFF7B1FF6B68DB
:10091C00354AC3F30313D35CD840344B1860344BC3
:10092C001868FFF7B5FC0020CEE7136823F0070327
:10093C000B431360136803F007038B42C3D1CBE75F
:10094C00284B11F0040F1EBF5A6842F4E0625A6043
:10095C00080742BF5A6842F460525A605A68A0684D
:10096C0022F0F00202435A60B9E762681D4E012A78
:10097C0033681AD113F4003FA5D0736841F288385C
:10098C0023F0030313437360FFF7C4FC074673683B
:10099C00626803F00C03B3EB820FA2D0FFF7BAFC32
:1009AC00C01B4045F3D903208EE7022A02D113F075
:1009BC00007FE1E713F0020FDEE7136823F0070373
:1009CC002B431360136803F00703AB427FF47BAF38
:1009DC008DE76B68E16823F4E0630B436B608BE796
:1009EC000020024000100240A83000081000002037
:1009FC0004000020044B054A5B68C3F30223D35C5C
:100A0C00034A1068D840704700100240A03000081C
:100A1C0010000020044B054A5B68C3F3C223D35C6F
:100A2C00034A1068D840704700100240A0300008FC
:100A3C00100000200F2303600B4B5A6802F00302D6
:100A4C0042605A6802F0F00282605A6802F4E06276
:100A5C00C2605B68DB0803F4E0630361034B1B6853
:100A6C0003F007030B6070470010024000200240A7
:100A7C0003682DE9F3410546D80720D5364CE369C8
:100A8C00D9002AD40126E36943F08053E361E3697A
:100A9C0003F080530193019B304F3B68DA051ED560
:100AAC00236A13F440732ED1236A6A6823F44073CB
:100ABC00134323621EB1E36923F08053E3612A6878
:100ACC00910706D52449A8684B6823F44043034397
:100ADC004B60D30637D4002012E00026DCE73B68DD
:100AEC0043F480733B60FFF715FC80463B68DB05E5
:100AFC00D6D4FFF70FFCA0EB08006428F6D903202E
:100B0C0002B0BDE8F0816A6802F440729A42CBD020
:100B1C000120134A236AC2F84004002023F44071D8
:100B2C00DF07C2F840042162BED5FFF7F3FB41F2A8
:100B3C0088380746236A9807B6D4FFF7EBFBC01B2F
:100B4C004045F7D9DBE7044AE968536823F480038E
:100B5C000B435360BFE700BF001002400070004021
:100B6C000000424290F83D30012B1CD102230F4A69
:100B7C0080F83D30036893420AD0B3F1804F07D020
:100B8C00A2F59432934203D002F58062934204D1D1
:100B9C009A6802F00702062A03D01A6842F0010292
:100BAC001A60002070470120704700BF002C0140E4
:100BBC0090F83C200346012A4FF0020009D01A6835
:100BCC0083F83D0051610020012283F83C0083F83A
:100BDC003D20704770477047036870B5DD681E692B
:100BEC000446B1070DD5AA070BD56FF002021A61A6
:100BFC00012202779B699B0769D000F09DFF0023BF
:100C0C002377710710D56A070ED56FF0040223689D
:100C1C0020461A61022222779B6913F4407F5CD034
:100C2C0000F08AFF0023237733070FD528070DD553
:100C3C006FF00802236820461A6104222277DB69D0
:100C4C00990750D000F078FF00232377F20610D5D7
:100C5C00EB060ED56FF01002236820461A610822AD
:100C6C002277DB6913F4407F43D000F065FF00234B
:100C7C002377F00708D5E90706D56FF00102236842
:100C8C0020461A6100F035FF320608D52B0606D532
:100C9C006FF08002236820461A6100F0A6F97006F6
:100CAC0008D5690606D56FF04002236820461A6104
:100CBC00FFF791FFB20622D5AB0620D56FF02002CC
:100CCC0023682046BDE870401A6100F08DB900F031
:100CDC0031FF2046FFF77EFF91E700F02BFF204607
:100CEC00FFF778FF9EE700F025FF2046FFF772FF25
:100CFC00AAE700F01FFF2046FFF76CFFB7E770BDB7
:100D0C00174A036890420AD0B0F1804F07D0A2F581
:100D1C009432904203D002F58062904207D14A6827
:100D2C0023F070031343CA6823F4407313434A69D6
:100D3C0023F08003134303608B68C3620B688362E8
:100D4C00074B984204BF0B6903630123436103699A
:100D5C00DB0742BF036923F001030361704700BF47
:100D6C00002C014010B5044630B390F83D3003F030
:100D7C00FF021BB980F83C2001F054FB02232068D1
:100D8C0084F83D30211DFFF7BBFF0123002084F8C0
:100D9C00463084F83E3084F83F3084F8403084F894
:100DAC00413084F8423084F8433084F8443084F87D
:100DBC00453084F83D3010BD0120FCE710B501240E
:100DCC00036A01F01F018C4023EA04030362036AE7
:100DDC008A401A43026210BD08B529B990F83E301A
:100DEC00012B1DD001202EE0042907D190F83F30B3
:100DFC00012BF7D1022380F83F3014E0082907D1EA
:100E0C0090F84030012BEDD1022380F840300AE0FD
:100E1C0090F84130012BE5D1022380F8413002E0FB
:100E2C00022380F83E3000680122FFF7C7FF0F4B0A
:100E3C00984209D0B0F1804F0BD1836803F00703BF
:100E4C00062B0DD1002008BD436C43F400434364D2
:100E5C00F3E7074B9842F0D003F580639842ECD04F
:100E6C00036843F001030360ECE700BF002C014072
:100E7C0000040040FFF7B0BF08B5034641BB90F833
:100E8C003E0093F84220C0B20128D2B24DD1012AC3
:100E9C001DD1022291BB83F83E2083F842201868B2
:100EAC000122FFF78BFF224B98420AD0B0F1804F02
:100EBC0007D0A3F59433984203D003F5806398428E
:100ECC002ED1836803F00703062B29D1002008BD1F
:100EDC00042905D190F83F0093F84320C0B2D3E722
:100EEC0008290BBF90F8400093F8410093F8442078
:100EFC0093F845200CBFC0B2C0B2C5E7042904D199
:100F0C0083F83F2083F84320C9E708290BBF83F8F7
:100F1C00402083F8412083F8442083F84520BEE725
:100F2C00036843F001030360D0E70120CFE700BF63
:100F3C00002C014010B50424036A01F00F018C4011
:100F4C0023EA04030362036A8A401A43026210BD57
:100F5C0008B529B990F84230012B1DD001203EE094
:100F6C00042907D190F84330012BF7D1022380F8E4
:100F7C00433014E0082907D190F84430012BEDD10F
:100F8C00022380F844300AE090F84530012BE5D17B
:100F9C00022380F8453002E0022380F842300068DA
:100FAC000422FFF7C7FF436C43F4004343640C4B2C
:100FBC0098420AD0B0F1804F07D0A3F594339842F1
:100FCC0003D003F58063984204D1836803F00703D0
:100FDC00062B03D0036843F001030360002008BD17
:100FEC00002C0140FFF7B4BF70477047026802F154
:100FFC000C0353E8003F23F490730C3242E80031A9
:10100C0002680029F2D102F1140353E8003F23F0E7
:10101C00010302F1140C4CE800310029F3D1036BED
:10102C00012B0BD102F10C0353E8003F23F010030A
:10103C0002F10C0C4CE800310029F3D1202380F88C
:10104C00423000230363704710B504460368C1683F
:10105C001A6922F440520A431A6182680069D968FD
:10106C000243606921F4B05121F00C0102430A43A0
:10107C00DA605A69A16922F440720A435A610E4A35
:10108C00934215D1FFF7C6FC1923434362682068CD
:10109C009200B3FBF2F36422B3FBF2F102FB1133C7
:1010AC001B013233B3FBF2F303EB0113836010BD6E
:1010BC00FFF7A0FCE8E700BF00380140704710B50F
:1010CC00044648B390F8413003F0FF021BB980F896
:1010DC004020FFF7F3FF2423226884F84130D368C3
:1010EC00204623F40053D360FFF7AEFF23680020A3
:1010FC001A6922F490421A615A6922F02A025A6142
:10110C00DA6842F40052DA602023606484F84130DB
:10111C0084F84230606310BD0120FCE710B5044632
:10112C0068B390F8413003F0FF021BB980F84020FF
:10113C00FFF7C4FF2423226884F84130D36820468B
:10114C0023F40053D360FFF77FFF236800201A6954
:10115C0022F490421A615A6922F022025A615A69A9
:10116C0042F008025A61DA6842F40052DA60202335
:10117C00606484F8413084F84230606310BD012013
:10118C00FCE790F84130202B10D189B182B1C28498
:10119C0082840023212201620168436480F841208B
:1011AC00CA68184642F08002CA6070470220704735
:1011BC000120704708B50023406AC385C38401F041
:1011CC00FBFA08BD704790F8423007B5222B42D18C
:1011DC0081680268B1F5805F836A3FD1016900299B
:1011EC003FD15268C2F3080223F8022B8362C38DED
:1011FC00013B9BB2C385002B2DD10268D16821F035
:10120C002001D160D16821F48071D160516921F045
:10121C0001015161202280F842204363026B012AB4
:10122C00026828D1036302F10C0353E8003F23F05A
:10123C00100302F10C0C4CE800310029F3D11368B7
:10124C00DB0605D501911368019353680193019B4B
:10125C00818DFFF7B7FF03B05DF804FB39B9016965
:10126C0029B95268D2B21A70836A0133BEE7526848
:10127C0002F07F02F7E701F099FAECE7036873B527
:10128C001A6804461607D9685D6908D1960668D5B0
:10129C008D0666D502B0BDE87040FFF794BF05F02F
:1012AC00010001F4907505435BD0D60705D5CD053B
:1012BC0042BF636C43F001036364530704D518B158
:1012CC00636C43F002036364960704D518B1636C36
:1012DC0043F004036364150707D501F020030343AF
:1012EC001EBF636C43F008036364636C002B32D045
:1012FC00920604D58B0602D52046FFF764FF2668BC
:10130C0020467369626C03F0400302F0080253EA52
:10131C00020522D0FFF76AFE73695E0618D52268B3
:10132C0002F1140353E8003F23F04003143242E867
:10133C0000310029F3D1E06B50B1744B4363FFF7DC
:10134C00A9F840B1E06B436B02B0BDE870401847A0
:10135C00204601F031FA02B070BD01F02DFA65643F
:10136C00F9E7206B012840F09480D50640F191807C
:10137C00C80640F18E80002201921A6801925A68C8
:10138C000192019A5A6952064DD5E16B0A6852686E
:10139C0092B2002ADFD0A08D9042DCD9E2858A6916
:1013AC00202A36D003F10C0252E8002F22F480726E
:1013BC0003F10C0040E800210029F3D103F11402E1
:1013CC0052E8002F22F0010203F1140040E8002142
:1013DC000029F3D103F1140252E8002F22F040024D
:1013EC0003F1140040E800210029F3D1202284F8F5
:1013FC004220216303F10C0252E8002F22F010026C
:10140C0003F10C0040E800210029F3D1E06BFFF759
:10141C0021F802236363E38DA18DC91A89B220469A
:10142C00FFF7D0FE97E7E28DE18D92B289B20029E9
:10143C0091D0A18D891A89B200298CD003F10C02AC
:10144C0052E8002F22F4907203F10C0545E80020BD
:10145C000028F3D103F1140252E8002F22F001020C
:10146C0003F1140545E800200028F3D1202284F86C
:10147C004220206303F10C0252E8002F22F01002EC
:10148C0003F10C0545E800200028F3D10223636327
:10149C00C5E7160628D50D0626D594F84120212A35
:1014AC007FF459AFA168226AB1F5805F17D1216929
:1014BC00A9B932F8021BC1F3080159602262E28C0F
:1014CC00013A92B2E284002A7FF445AFDA6822F046
:1014DC008002DA60DA6842F04002DA603BE7511CC5
:1014EC00216212785A60EAE750067FF534AF4A065B
:1014FC007FF531AFDA68204622F04002DA60202313
:10150C0084F8413001F055F925E700BFC1110008FE
:10151C0090F84030012B11D02423026880F8413020
:10152C00D36823F00C0343F00803D360202380F826
:10153C004130002380F84030184670470220704735
:10154C0090F84030012B11D02423026880F84130F0
:10155C00D36823F00C0343F00403D360202380F8FA
:10156C004130002380F84030184670470220704705
:10157C0090F8412090F84200104370470023C28538
:10158C00436422238285026980F8423081620368B9
:10159C001AB1DA6842F48072DA605A69002042F0BB
:1015AC0001025A61DA6842F02002DA60704770B5C5
:1015BC0090F84260202E07D141B13AB10024046367
:1015CC00FFF7DCFF204670BD0220FCE70120FAE7A4
:1015DC00836810B504462BB10322014698470023BB
:1015EC00C4E9023310BD836810B5044613B103225D
:1015FC0001469847204610BD4B1E032B00D9FEE731
:10160C008900081F704700000139435C13F010007B
:10161C0004D0022916D80C4A32F81100DB0712D577
:10162C0003290FD8DFE801F00205080B40F0010098
:10163C00704740F01000704740F48070704740F4E1
:10164C0080507047FEE770475A3000080139032973
:10165C0000D9FEE7014B585C704700BF55300008BD
:10166C000139032900D9FEE7014B585C704700BFD4
:10167C00513000082DE9F0410E460446FFF7BCFF3F
:10168C0006F1060805463146204604EB0818FFF71C
:10169C00DDFFD8F808302BB1C24323691A61DA6830
:1016AC000243DA60771E04EB47039B880B2B49D867
:1016BC00DFE803F051181818060618184A4A4A2A87
:1016CC00E35DDE0604D5294604F11000FFF78AFC21
:1016DC00E35DD80736D5294604F11000BDE8F0418A
:1016EC00FFF7C8BBE35DD90604D5294604F1100009
:1016FC00FFF72EFCE35DDA0724D5294604F1100030
:10170C00BDE8F041FFF768BB294604F11000FFF774
:10171C00B3FB31462046FFF7A3FF014606462046A1
:10172C00FFF772FF25692B6A1843D8F80830286236
:10173C0043B131462046FFF789FFC3432B61EB6869
:10174C001843E860BDE8F081294604F11000BDE8BB
:10175C00F041FFF791BB23691B68DB07F2D404F15E
:10176C001000BDE8F041FFF7FDB970B50125044646
:10177C002946861C36F8023F23B129462046FFF73E
:10178C0079FF00210135052DF4D1A36E3BB16FF02B
:10179C00010223691A61DA6842F00102DA6049B188
:1017AC0023691B68DB0705D404F11000BDE8704009
:1017BC00FFF7D8B970BD01211030FFF7F9B90369F3
:1017CC00186800F00100704710B502460C46FFF790
:1017DC00F6FF80B9CB68DB070ED5CB68104623F03B
:1017EC000103CB60FFF7E7FF6FF001032361E368B0
:1017FC0043F00103E36010BD1046BDE81040FFF755
:10180C00DABF0B460169013B8B62FFF7DDBF0000BD
:10181C000B4B98420BD0B0F1804F0AD0A3F5943308
:10182C00984208D003F58063984206D0FEE700206A
:10183C00704701207047022070470320704700BF9B
:10184C00002C0140024670B5044652F8100FFFF709
:10185C00DFFF0546104600F077FD0023084A04F12F
:10186C00600642F82530E36004F1B005B54204D0BF
:10187C00103D2846FFF7B7FEF8E7204670BD00BFC5
:10188C0038010020F8B504460846FFF7C1FF23696C
:10189C0003B1FEE71B4D04F10C0245F820200E228B
:1018AC0004F110063046C4E90C33C4E90E33C4E924
:1018BC001033C4E91623216184F82C30A36484F816
:1018CC004C3084F84D30E46000F0FAFC04F1600513
:1018DC0004F1B00728461035FFF77AFEBD42F9D166
:1018EC0000234FF6FF72C4E90033C4E90632C4E9A1
:1018FC000833A360636180233046A362BDE8F840DF
:10190C00FFF730BA3801002010B586B01422044617
:10191C00002101A801F0D6FA0023694601A8009322
:10192C00FFF788F8206900F0A5FD012802D00228F5
:10193C000FD0FEE7049CFFF75DF8B4F5C06F05D03F
:10194C000BD824F48074B4F5806F00D1400006B03D
:10195C0010BD059CFFF75EF8EFE7B4F5E06FF4E718
:10196C00012A38B505460C460BD0022A16D004B114
:10197C00013C29692846CC62EC61BDE83840FFF790
:10198C0023BFFFF7C1FF084BB0FBF3F044432A69B8
:10199C00230C93620133B4FBF3F4E8E7FFF7B4FFD5
:1019AC00B0FBF4F4F3E700BF40420F00034B1868A0
:1019BC0010B10430FFF710B9704700BF3801002098
:1019CC00FFF7F4BF034B586810B10430FFF704B9AC
:1019DC00704700BF38010020034B986810B10430E9
:1019EC00FFF7FAB8704700BF38010020034BD868E6
:1019FC0010B10430FFF7F0B8704700BF3801002079
:101A0C000022C0E90022C0E902227047F8B5044662
:101A1C000E4600F1600500F1B00728461035FFF7BF
:101A2C00EFFFBD42F9D10023204631462361FFF779
:101A3C0029FF2046F8BD38B50023C0E90033C0E9C2
:101A4C0002338B6804460D462BB102229847EB6893
:101A5C00E360AB68A360204638BD30B5044687B060
:101A6C0002AD2846FFF7E7FF95E80300CDE900013A
:101A7C0094E8030085E80300DDE90001049BA268FB
:101A8C00A360059B0492E26884E80300E3602846A7
:101A9C000592FFF7A8FD07B030BD38B5836E04463C
:101AAC000D4660301BB1BDE83840FFF7D6BFFFF7DD
:101ABC00D4FFAB683BB16FF0010223691A61DA689D
:101ACC0042F00102DA6038BD826810B50AB901F043
:101ADC007FFAC368BDE81040184708B500B9FEE7A7
:101AEC0000F0ECFB0068836E13B16030FFF7ECFF85
:101AFC0008BDFFF7F2BF10B500B9FEE7037F013B4D
:101B0C00072B10D8DFE803F004140F100F0F0F127F
:101B1C00012400F0D3FB0068063400EB041083684A
:101B2C000BB1FFF7D1FF10BD0324F2E70424F0E75B
:101B3C000224EEE7FFF7DFBFFFF7DDBF86B0042816
:101B4C0041D8DFE800F003101C2834001F4B20485C
:101B5C009A6942F004029A619B6903F004030193B1
:101B6C00019B06B07047194B1A489A6942F008025B
:101B7C009A619B6903F008030293029BF1E7134BF4
:101B8C0015489A6942F010029A619B6903F01003A0
:101B9C000393039BE5E70D4B10489A6942F0200232
:101BAC009A619B6903F020030493049BD9E7074BCC
:101BBC000B489A6942F040029A619B6903F040031A
:101BCC000593059BCDE70020CBE700BF001002403A
:101BDC0000080140000C01400010014000140140BD
:101BEC0000180140FEF796BB704708B5FEF786FB60
:101BFC00FEF71BFCFFF7F8FF08BD70470F4B84B0D6
:101C0C00DA6942F08052DA61DA6902F080520192AC
:101C1C00019A9A6942F001029A619A6902F00102F2
:101C2C000292029A5A6942F040025A615B6903F0CF
:101C3C0040030393039B04B0704700BF00100240A5
:101C4C000C4BD3F8FC20D2015EBFD3F8FC2042F041
:101C5C008072C3F8FC200022074B5A601A6842F0CD
:101C6C0001021A6000BF00BF00BF5868B0FA80F0D4
:101C7C004009704700ED00E0001000E008B5FFF7E8
:101C8C00BDFFFFF7DDFFFEF727FBFFF7B6FF00F008
:101C9C0005FEBDE808400148FEF7CCBB080000205B
:101CAC000023C0E90033C0E9023370470023012848
:101CBC0003F101020AD11422DBB25343054A181D69
:101CCC001044816829B11A44136918471346400817
:101CDC00EDE77047480100200120FEF721BC0220EF
:101CEC00FEF71EBC0420FEF71BBC0820FEF718BC38
:101CFC001020FEF715BC08B52020FEF711FC402083
:101D0C00FEF70EFC8020FEF70BFC4FF48070FEF704
:101D1C0007FCBDE808404FF40070FEF701BC38B575
:101D2C0006244FF48065A8B2FEF7FAFB013C4FEA9B
:101D3C004505F8D138BD0000344A08B510460623D5
:101D4C0000F8043BFFF7ACFF072302F118001375F2
:101D5C00FFF7A6FF082302F12C0082F82830FFF7CA
:101D6C009FFF092302F1400082F83C30FFF798FFF7
:101D7C000A23172102F1540082F85030FFF790FF2C
:101D8C0002F1680082F86410FFF78AFF02F17C0010
:101D9C0082F87810FFF784FF02F1900082F88C1023
:101DAC00FFF77EFF02F1A40082F8A010FFF778FF86
:101DBC0082F8B410282102F1B800FFF771FF02F18C
:101DCC00CC0082F8C810FFF76BFF02F1E00082F83C
:101DDC00DC10FFF765FF02F1F40082F8F010FFF75A
:101DEC005FFF02F5847082F80411FFF759FF02F5CA
:101DFC008E7082F81811FFF753FFBDE8084002F50A
:101E0C00987082F82C11FFF74BBF00BF48010020DF
:101E1C0038B5054CA4F5A075143C201DFFF7E3FB69
:101E2C00AC42F9D138BD00BF880200207B4B82B098
:101E3C009A69013842F001029A619B6903F001032F
:101E4C000193019B23282CD8DFE810F024002D00EF
:101E5C0034003B00400047004C00530058005F002A
:101E6C0068006D0074007D008200890092009B0068
:101E7C00A000A700B000B500BC002B002B002B006D
:101E8C00C100C8002B002B002B002B00CD00D20072
:101E9C00D900E000624A536843F0E06343F0010369
:101EAC00536002B070475E4A536823F0010343F05D
:101EBC00E063F5E75A4A536843F0E06343F00203EA
:101ECC00EEE7574A536823F00203F0E7544A53688D
:101EDC0043F0E06343F00403E2E7514A536823F014
:101EEC000403E4E74E4A536843F0E06343F008030D
:101EFC00D6E74B4A536823F00803D8E7484A53689F
:101F0C0043F0E06343F03003CAE7454A536823F0DB
:101F1C00300343F0E06343F01003C1E7404A5368D9
:101F2C0023F03003C3E73E4A536843F0E06343F0C9
:101F3C00C003B5E73A4A536823F0C00343F0E063AB
:101F4C0043F04003ACE7364A536823F0C003AEE7D6
:101F5C00334A536843F0E06343F44073A0E7304ADC
:101F6C00536823F4407343F0E06343F4007397E742
:101F7C002B4A536823F4407343F0E06343F48073BB
:101F8C008EE7274A536823F4407390E7244A53683A
:101F9C0043F0E06343F4406382E7214A536823F43F
:101FAC00406343F0E06343F4006379E71C4A5368F1
:101FBC0023F440637BE71A4A536843F0E06343F42D
:101FCC0080536DE7164A536823F480536FE7144A25
:101FDC00536843F0E06343F4004361E7104A5368ED
:101FEC0023F4004363E70E4A536823F0E06357E79A
:101FFC000B4A536823F0E06343F0807350E7084AC0
:10200C00536823F0E06343F0007349E7044A5368D4
:10201C0023F0E06343F0806342E700BF001002400E
:10202C000000014091FAA1F3B3FA83F370B50D0EE1
:10203C000F2691FAA1F1B1FA81F144599B0006FAED
:10204C0003F3890024EA03048A402243425170BD01
:10205C0091FAA1F3B3FA83F370B50D0E042691FA3D
:10206C00A1F1B1FA81F144599B0006FA03F38900FE
:10207C0024EA03048A402243425170BD431C2DE9DB
:10208C00F34106460F4600D1FEE7594B00F00F0214
:10209C00C0F3031001F0070853F82240FFF74EFD80
:1020AC00B8F1010F054615D194FAA4F3B3FA83F3F2
:1020BC000321200E2A589B0001FA03F322EA0302A3
:1020CC0094FAA4F3B3FA83F39B009940114329507B
:1020DC00012213E0C7F30620B8F1030F0AD801A3BD
:1020EC0053F828F003210008DD20000867210008C0
:1020FC0075210008FEE7FFF799FE082221462846C5
:10210C0008F1FF38FFF78EFFB8F1010F06D817F072
:10211C00080218BF04222146FFF79AFF94FAA4F292
:10212C00230EB2FA82F2E9580F239200934094FAEC
:10213C00A4F2B2FA82F2C7F301170B409200012FFE
:10214C0023FA02F312D0022F3BD0082B21D1042208
:10215C0021462846FFF766FF1BE07F2801D10922A4
:10216C00CCE7FFF763FEFAE70022C7E7042B04D1A4
:10217C00082221462846FFF755FF230A93FAA3F3BA
:10218C00B3FA83F20123E968934021EA14210B434B
:10219C00EB60184B9A6942F001029A619B6903F05B
:1021AC0001030193019BA6F10D03012B14D8124AD4
:1021BC00536823F0E06343F08063536002B0BDE8E2
:1021CC00F081042B04D1082221462846FFF72AFF70
:1021DC00EB6823EA1423DBE70F2E02D0133E012E0B
:1021EC00ECD8054A536823F0E06343F00073E4E74E
:1021FC00603000080010024000000140431C06D172
:10220C007047834202D18968FFF738BF0C310B68E5
:10221C005A1CF6D1FEE70B685A1C01D100207047FE
:10222C00834201D1486870470C31F4E7431C01D05C
:10223C00FFF7F1BF002070474B6813B94FF0FF3028
:10224C007047834201D1086870470C31F4E708B13C
:10225C00FFF7F2BF4FF0FF30704703468B42084642
:10226C0004D01BB100290CBF184600207047000099
:10227C000F4B1A6842F001021A6059680D4A0A4065
:10228C005A601A6822F0847222F480321A601A683A
:10229C0022F480221A605A6822F4FE025A604FF42B
:1022AC001F029A604FF00062034B9A60704700BFA8
:1022BC00001002400000FFF800ED00E00438704709
:1022CC0003681D4A84B093420BD11C4B9A6942F4AB
:1022DC0000629A619B6903F400630093009B04B055
:1022EC007047B3F1804F0BD103F50433DA6942F038
:1022FC000102DA61DB6903F001030193019BEEE754
:10230C000F4A93420AD10D4BDA6942F00202DA61AC
:10231C00DB6903F002030293029BE0E7094A934254
:10232C00DDD1064BDA6942F00402DA61DB6903F0B5
:10233C0004030393039BD2E7002C014000100240DE
:10234C0000040040000800400368124A934206D182
:10235C0002F56442936923F4006393617047B3F10F
:10236C00804F05D10C4AD36923F00103D361704728
:10237C000A4A934205D102F50332D36923F00203D2
:10238C00F4E7074A9342F2D102F50232D36923F003
:10239C000403EBE7002C0140001002400004004055
:1023AC0000080040431C10D00C4B984210D007D8AA
:1023BC00B0F1804F0ED0A3F5806398420CD0FEE7AD
:1023CC00074B9842FBD1192070476FF00D007047F6
:1023DC001E2070471C2070471D20704700080040CD
:1023EC00002C0140431C10D00C4B984210D007D845
:1023FC00B0F1804F0ED0A3F5806398420CD0FEE76D
:10240C00074B9842FBD11B2070476FF00D007047B3
:10241C001E2070471C2070471D207047000800408C
:10242C00002C014038B50446FFF74AFF0068FFF75F
:10243C00B9FFD4E91212FDF785FF2068FFF7B2FF50
:10244C00FDF7B0FF22681046FFF7CCFF054610469B
:10245C00FFF7A8FF85420BD0D4E912122846FDF7EE
:10246C0071FF2068FFF7BEFFBDE83840FDF79ABF4B
:10247C0038BD0000431C0CD0094B98420BD007D838
:10248C0020F48063B3F1804F07D0064B984204D000
:10249C00FEE700207047022070470120704700BF04
:1024AC00002C0140000800402DE9F04F8B4692466D
:1024BC009946044685B018B9002005B0BDE8F08FE8
:1024CC006449406DFFF7B2FE63490646A06DFFF705
:1024DC00ADFE62490746E06DFFF7A8FE6049054670
:1024EC00206EFFF7A3FE8046002EE5D0A36D0133CE
:1024FC0001D0002FE0D0E36D013301D0002DDBD0F3
:10250C00236E013302D0B8F1000FD5D030463946D6
:10251C00FFF7A3FE0646206020B90146FFF79DFE9B
:10252C000646206029463046FFF797FE414620605C
:10253C00FFF793FE20600028BED04A4B984252D140
:10254C0003F55843DA6842F48042DA60DA6822F420
:10255C008042DA609A6942F480429A619B69002257
:10256C0003F480430193019B25233A49606D84F861
:10257C00652084F86430FFF741FE1FB13649A06D29
:10258C00FFF73CFE2DB13549E06DFFF737FE4FF4F8
:10259C008075B8F1000F05D03149206E45F40075F7
:1025AC00FFF72CFE94F865202F4B261D43F8226074
:1025BC0023680022C4E9013B0E9B94F96400C4E932
:1025CC0004390C230121C4E90635C4F80CA022629D
:1025DC00FDF7B8FE3046002F38D1FEF79FFDB0FA5C
:1025EC0080F0400969E7214B984215D103F5E63399
:1025FC001A6942F400321A611A6922F400321A6123
:10260C00DA6942F40032DA61DB69012203F4003347
:10261C000293029B2623A8E7154B98427FF44CAFFC
:10262C0003F5E4331A6942F480221A611A6922F420
:10263C0080221A61DA6942F48022DA61DB690222B3
:10264C0003F480230393039B27238EE7FEF737FDC8
:10265C00C5E700BF6C31000830310008F4300008C9
:10266C00B8300008003801408802002000440040C7
:10267C000048004008B5074B90F8652053F822003D
:10268C00FEF776FF00F02200A0F1220358425841D9
:10269C0008BD00BF8802002008B5074B90F86520E4
:1026AC0053F82200FEF764FF00F02100A0F1210393
:1026BC005842584108BD00BF8802002070B50E4634
:1026CC00054610B94FF0FF3070BDFFF7D3FF04463D
:1026DC000028F7D1294611F8663F0122337095F88E
:1026EC006500034B53F82000FEF761FF2046EBE733
:1026FC008802002038B50D460446B8B1FFF7BAFF82
:10270C00A0B994F96400E564FDF75AFE94F86500ED
:10271C00074B04F1660153F820000122FEF747FF36
:10272C0094F96400BDE83840FDF73CBE38BD00BFED
:10273C008802002038B515460446B8B1016590F9F9
:10274C006400FDF73DFEB4F87630E16E9BB294F870
:10275C0065001944064BAAB253F82000FEF711FD90
:10276C0094F96400BDE83840FDF71CBE38BD00BFCD
:10277C008802002048B1836D013306D190F86520A2
:10278C00024B53F82200FEF7C3BE704788020020AC
:10279C0048B1836D013306D190F86520024B53F894
:1027AC002200FEF7CDBE704788020020836C0438EF
:1027BC001847C36C0438184730B5044650F8043930
:1027CC0085B01D6815F0010512D0002200921A6820
:1027DC0000925B680093009BFFF74CFF40BB01220B
:1027EC00204604F1620105B0BDE83040FEF7DFBEC3
:1027FC00196811F0020106D001951A6801925B6804
:10280C000193019BE8E71A6812F0040206D00291CA
:10281C001A6802925B680293029BDDE7196809074C
:10282C00DAD503921A6803925B680393039BD3E790
:10283C0005B030BD08B52520FDF7E8FD024B186842
:10284C00BDE80840FEF71ABD88020020262008B516
:10285C00FDF7DCFD034B586818B1BDE80840FEF7E6
:10286C000DBD08BD88020020272008B5FDF7CEFD60
:10287C00034B986818B1BDE80840FEF7FFBC08BDD3
:10288C0088020020FEE700001622024B4FF0FF30BA
:10289C001A607047E40400200120704710B594B012
:1028AC00142200210CA800F00DFB142200210DEBCA
:1028BC00020000F007FB1022002101A800F002FB2F
:1028CC0002244FF480330122CDE91143CDE90A23D0
:1028DC004FF4E0130AA80E921393FDF72DFE00B1EE
:1028EC00FEE70F23CDE905344FF480630790CDE963
:1028FC000830214605A8FDF7E1FF00B1FEE71223E1
:10290C0001934FF40043CDE9033001A8FEF7B0F872
:10291C0000B1FEE714B010BDB0F80831B0F80421D6
:10292C00981A00F03F007047B0F80831B0F8042155
:10293C009BB293421ABFD0F8FC30985C4FF0FF303A
:10294C00704790F80631B0F80A01C0B2834227BF35
:10295C00C3F13F03C018C01A00F1FF30704707B530
:10296C0003688DF8071001225B680DF10701984789
:10297C0003B05DF804FB13B50DF107010446FFF736
:10298C009DFE88B9B4F87430B4F87020013303F0AC
:10299C003F03934208D0B4F874209DF80700A16E51
:1029AC0092B28854A4F8743002B010BDB0F876100E
:1029BC00826F10B50A4402F03F02A0F87620B0F8FE
:1029CC007610B0F8722089B28A421AD0B0F87640EC
:1029DC004032A4B2B0F87610121B544289B204F003
:1029EC003F0402F03F02C1F1400158BF62428A42EB
:1029FC0028BF0A4604498267FFF79CFE4FF0FF3060
:102A0C0010BD0020FCE700BFB92900082DE9F843F0
:102A1C00036804469B68884616469847012323742E
:102A2C00D4F8EC30B4F8067101338146C7F1400795
:102A3C0009D194F8113133B1002304F1940084F8D6
:102A4C001131FFF797FE236820469B6898470028B2
:102A5C00F9D03546BD4225D84D4523D8B4F80631BA
:102A6C00D4F800015A19402A184430D82A46414655
:102A7C0000F054FA2F46B4F806311D4405F03F051A
:102A8C00A4F8065104F194052846FFF705FE30B969
:102A9C003A4628461549C4F80C71FFF74BFE3046F0
:102AAC00BDE8F8834F4528BF4F4623683A46414658
:102ABC005B6820469847236820469B689847ED1B27
:102ACC00B844B4F806718146C7F14007C2E7C3F1B8
:102ADC0040073A46414600F021FAD4F80001EA1BBF
:102AEC0008EB070100F01AFAC5E700BFB929000886
:102AFC00C0F8F030009B914208BF4FF0FF31C0F896
:102B0C00F43000F11403C0F8FC300023C0E93A2182
:102B1C0000F15402A0F80831C0E94023A0F80A31B2
:102B2C0070470000F7B54FF47A7317460022C0E9DE
:102B3C0001231C4B044603604FF0FF33C0F8EC300C
:102B4C00194B1A4E9C420D46F06A05D1B36AC4F873
:102B5C00EC30C4F8E8000AE01549FFF767FB854242
:102B6C0015D1B36AC4F8EC30F36AC4F8E8304FF00E
:102B7C00FF33012F08BFC4F8EC3000932046D4E992
:102B8C003A214FF0FF33FFF7B3FF03B0F0BD2846F7
:102B9C000849FFF75CFB0649C4F8EC002846FFF730
:102BAC0056FBD6E74432000894020020A8310008F6
:102BBC006C31000830310008037C70B504460D46BA
:102BCC00A3B1FDF7A7FB0646B4F80621B4F80A3109
:102BDC009BB29A420AD0002DF8D0FDF79BFB801BCC
:102BEC008542F1D8B4F80A31A4F8063170BD002141
:102BFC00FFF7E2BFD0F8EC3010B5013304460ED12C
:102C0C000368DB68984794F8113143B9012304F148
:102C1C00940084F81131BDE81040FFF7B9BD10BD28
:102C2C007FB5144602F00703023BDBB2042B80F89D
:102C3C00122196BF1F4A0022D25C04F03003302BC5
:102C4C000546C0F8141107D14FF4C0630132082AAD
:102C5C0009D0092A24D0FEE714F0200325D04FF424
:102C6C0080630132F3E70022E87CC4F3C0040390D4
:102C7C00A87C05F194060290687C64030190009492
:102C8C003046FFF711FC85F8100188B12846FFF794
:102C9C00B1FF3046084904B0BDE87040FFF72ABDCB
:102CAC004FF48052E0E71A46DEE7082AFBD0D2E761
:102CBC0004B070BD343200088329000810B50446F6
:102CCC00FFF798FFB4F80821B4F8043192B29A4295
:102CDC0017BFD4F8FC204FF0FF30D05C01331CBF81
:102CEC0003F03F03A4F8043110BD00000022024998
:102CFC000248FFF717BF00BF0038014094020020C4
:102D0C0070B505460C46084649B1FDF7F9F92B6834
:102D1C00024621462846BDE870405B68184770BDE6
:102D2C0008B5FFF7EDFF08BD08B50249FFF7E8FF4E
:102D3C0008BD00BF3C30000838B50546FFF7E0FF82
:102D4C0004462846FFF7F0FF204438BDFFF7F4BFD8
:102D5C000023012A98BF0A2230B58BB00C468DF89F
:102D6C00243009A92546B4FBF2F404FB1253DBB260
:102D7C00092B94BF30333733DBB2AA4201F8013D43
:102D8C00F0D9FFF7BDFF0BB030BD10B422B902680B
:102D9C0010BC1268C9B2104710BCD2B2FFF7D8BF32
:102DAC0038B50546FFF7F1FF04462846FFF7BCFF90
:102DBC00204438BD10B5044600F071F8E06023687B
:102DCC0020465B699847002808DA00F068F8E36849
:102DDC00C01AA3689842F2D34FF0FF3010BDF8B57B
:102DEC0007460D460C468E18B44201D1601BF8BD47
:102DFC003846FFF7DFFF431CF8D004F8010BF3E76C
:102E0C002DE9F0410746884616461D4673B100244D
:102E1C003846FFF7CFFF431C05D0404503D0305553
:102E2C000134A542F4D12046BDE8F0811C46FAE7F6
:102E3C0008B50320FDF774FABDE8084000F040B86F
:102E4C0008B5AFF30080FDF79BF9FDF7EDF900F045
:102E5C0029F8FAE7FFF70CFA0B480C490C4A002347
:102E6C0002E0D458C4500433C4188C42F9D3094A34
:102E7C00094C002301E013600432A242FBD300F0A2
:102E8C0029F8FFF7DDFF70470000002064000020E8
:102E9C009032000864000020E8040020FEE7FEF7F2
:102EAC00A1BE000008B5044B2BB10448FFF734FD5C
:102EBC0008B1AFF3008008BD0000000094020020B0
:102ECC00FEF7DCBE03460244934200D1704703F880
:102EDC00011BF9E770B500260C4D0D4B5B1B9C10CC
:102EEC00A64209D1002600F077F80A4D0A4B5B1B6D
:102EFC009C10A64205D170BD55F8043B984701368D
:102F0C00EEE755F8043B98470136F2E770320008BB
:102F1C007032000870320008843200080A44914272
:102F2C0000F1FF3300D1704710B511F8014B9142FD
:102F3C0003F8014FF9D110BD062008B500F02CF8AC
:102F4C000120FFF79FFC1F2938B505460C4604D914
:102F5C00162303604FF0FF3038BDC26B12B152F82C
:102F6C0021304BB9284600F031F82246014628465C
:102F7C00BDE8384000F018B8012B0AD0591C03D119
:102F8C00162303600120E7E70021204642F82410B5
:102F9C0098470020E0E70000024B01461868FFF755
:102FAC00D2BF00BF1400002038B50023064D0446E4
:102FBC00084611462B60FFF767FC431C02D12B68B7
:102FCC0003B1236038BD00BFE4040020FFF764BCEC
:102FDC0008B5FFF7B1FF0000F8B500BFF8BC08BC9E
:102FEC009E467047F8B500BFF8BC08BC9E467047BB
:102FFC000D0A3D3D3D20414443206F6E205541520A
:10300C00542064656D6F202850413029203D3D3D92
:10301C00006164633D3C302E2E343039353E2065E2
:10302C00616368207365636F6E64006164633D0067
:10303C000D0A00010202030405060708090A0B0C1D
:10304C000D0E0F10100201040302040810000400FE
:10305C004000000401010000020200000404000012
:10306C000808000010100000202000004040000064
:10307C00808000000100010402000204040004042A
:10308C000800080410001004200020044000400434
:10309C008000800400000000010203040000000016
:1030AC0000000000010203040607080900000000EC
:1030BC0000440040120000000B00000000380140EA
:1030CC00120000001D00000000480040120B000020
:1030DC001D01000000480040120A0000FFFFFFFF26
:1030EC00000000000000000001000000004400404F
:1030FC00120800000C000000003801401200000013
:10310C001E00000000480040120000001E010000DC
:10311C0000480040120A0000FFFFFFFF0000000003
:10312C0000000000030000000044004010080000F4
:10313C000A000000003801401006000017000000D3
:10314C0000380140100500001B0000000048004042
:10315C0010000000FFFFFFFF000000000000000057
:10316C0002000000004400401208000009000000AA
:10317C000038014012060000160000000038014023
:10318C00120500001A000000004800401200000068
:10319C00FFFFFFFF0000000000000000190000000E
:1031AC0018000000170000001600000015000000B9
:1031BC0014000000130000000F0000000C000000C1
:1031CC000B0000000A0000000900000008000000CD
:1031DC001F0000001E0000001D0000001C0000006D
:1031EC002D0000002E0000002F0000000000000049
:1031FC0001000000020000000300000004000000B9
:10320C000500000006000000070000001000000090
:10321C00110000001A0000001B000000120000004A
:10322C000D0000000E000000060007000800000062
:10323C0000000000000000006B290008192A00089B
:10324C004F290008FB2B000825290008C92C000871
:0C325C0035290008EB2D00080D2E00089D
:08326800A4CEFF7F010000006D
:103270003D2E0008410100087D020008451D0008A0
:04328000F92C00081D
:0C3284001D0100088D0200081D1E00083E
:1032900001000000100000000030024000000000AB
:1032A00000127A001800002000000000AC0300208B
:1032B000140400207C040020000000000000000036
:1032C00000000000000000000000000000000000FE
:1032D00000000000000000000000000000000000EE
:1032E00000000000000000000000000000000000DE
:0432F00000000000DA
:0400000508002E6160
:00000001FF
