:020000040800F2
:1000000000500020AD2E0008F52E0008F52E000847
:10001000F52E0008F52E0008F52E0008000000005F
:10002000000000000000000000000000F52E0008A5
:10003000F52E000800000000F52E0008571C0008EF
:10004000F52E0008F52E0008F52E0008F52E000804
:10005000F52E0008F52E0008451D00084B1D000870
:10006000511D0008571D00085D1D0008F52E0008F1
:10007000F52E0008F52E0008F52E0008F52E0008D4
:10008000F52E0008F52E0008F52E0008F52E0008C4
:10009000F52E0008F52E0008F52E0008631D000857
:1000A000F52E0008491A0008F52E00085D1A000810
:1000B000611A0008751A0008891A0008F52E000850
:1000C000F52E0008F52E0008F52E0008F52E000884
:1000D000F52E00088D280008A5280008C128000872
:1000E0008B1D0008F52E0008F52E0008000000000A
:1000F0000000000000000000000000000000000000
:0C01000000000000000000005FF808F1A3
:10010C00034613F8012B002AFBD1181A013870474B
:10011C0010B5054C237833B9044B13B10448AFF335
:10012C0000800123237010BD7C0000200000000023
:10013C00B033000808B5034B1BB103490348AFF3B8
:10014C00008008BD0000000080000020B0330008D3
:10015C0006221F484FF4E13110B502F0A5FD002036
:10016C001C4A0721002340FA01F414F0010F0CBFC4
:10017C0004240624013944EAC303F4D2190C0130D7
:10018C001170B0F5807F4FEA13215170937002F11A
:10019C000302E6D10121112002F0A8FE0121112059
:1001AC0002F002FF00210C4800F06AF920210A48F5
:1001BC0000F07CF90949064802F0F6FD08490448AC
:1001CC0002F0F2FDBDE810400649014802F0ECBD1A
:1001DC00D40500200001002000040020C8330008D2
:1001EC00F63300082C3400082DE9F041504D4FF443
:1001FC00B47629463C204F4C226802EBC20202F531
:10020C00B477B2FBF6F306FB13239BB2B3FBF0FE01
:10021C0000FB1E339BB25FFA8EFCC3F13C0ECEEB9F
:10022C000E2EC3EB0323BEFBF0FEB3FBF0F35FFA21
:10023C008EFEDBB2BCF1040F6FD8DFE80CF07073EC
:10024C00036569009C46FF234FF0000E2D32974248
:10025C000B7081F801E081F802C001F10301D0D1EB
:10026C00354800210346354F15F8012B013102EBBF
:10027C004202BE18BA5C18291A70727803F1030393
:10028C0003F8022CB27803F8012CEDD14FF4007274
:10029C002B4B5A6000221A632A4A9A634822D8636D
:1002AC005A6391221A63284A516841F00201516045
:1002BC0019688905FCD551681E2021F00201516096
:1002CC004FF400725A6000221A6323681F4D0133E9
:1002DC00236002F0A5FE02F0A1FE2B68C01AB0F557
:1002EC00FA6F23D302F09AFE19492860194802F0DC
:1002FC005BFD21680A22174802F077FDBDE8F0414A
:10030C001549144802F050BD73464FF0FF0C9BE7A3
:10031C009E464FF0FF0C002398E7F44600234FF065
:10032C00FF0E93E74FF0000CFF238FE7BDE8F08141
:10033C00E80000209C000020A0000020000100200C
:10034C00000002400C3001400030014098000020B9
:10035C0038340008D4050020293400082DE9F04178
:10036C001C4601231646434A0D46C0E91B230021B7
:10037C005C220746DDF8188002F030FFF3B2222B26
:10038C0028D83D4A06F4E06652F823301E43EBB2FF
:10039C00222BFE6532D8384A05F4E06552F823303A
:1003AC001D43E3B2222B3D663CD8334A04F4E0648F
:1003BC0052F823301C435FFA88F2222A7C6645D817
:1003CC002D4908F4E06351F8222013433846BB66EC
:1003DC00BDE8F08106F0C002C02A0CD1C92B0AD8A6
:1003EC00264B06F03F0253F82220234B06F4E0661E
:1003FC0053F82230CAE74FF0FF36C8E705F0C002C9
:10040C00C02A0CD1C92B0AD81C4B05F03F0253F85B
:10041C002220194B05F4E06553F82230C0E74FF069
:10042C00FF35BEE704F0C002C02A0CD1C92B0AD894
:10043C00124B04F03F0253F822200F4B04F4E064FB
:10044C0053F82230B6E74FF0FF34B4E708F0C0039E
:10045C00C02B0CD1C92A0AD8084B08F03F0253F81C
:10046C002210054A08F4E06352F82120ADE74FF062
:10047C00FF33ABE700093D009038000868380008EE
:10048C0037B501230D460022074980F85120C1667B
:10049C0080F8703080F8712080F87250009500F070
:1004AC006DF803B030BD00BF00093D0037B5044600
:1004BC000D4681B100F04EF8B0FBF5F194F87230B6
:1004CC00E1660093204694F8703094F8712000F0A7
:1004DC0055F803B030BD0149F0E700BF00093D00FD
:1004EC00232307B5C6220093C721C5230248FFF773
:1004FC0035FF03B05DF804FB0004002091FAA1F372
:10050C00B3FA83F370B50D0E0F2691FAA1F1B1FA7F
:10051C0081F144599B0006FA03F3890024EA030491
:10052C008A402243425170BD0346074A10684BB1C2
:10053C00064A934201D100F025BD054A934201D1F0
:10054C0000F010BD704700BF2400002000300140B7
:10055C0000380040074B10B51C6840B10649406E8E
:10056C0001F0A4FE18B1BDE81040FFF7DDBF204636
:10057C0010BD00BF24000020E43400082DE9F74F23
:10058C000E4615461F460446002800F0F28092499C
:10059C00006E01F08BFE91498146E06D01F086FE04
:1005AC008F498346606E01F081FE8E498046A06EB5
:1005BC0001F07CFE8246B9F1000F00F0DA80BBF14D
:1005CC00000F00F0D680B8F1000F00F0D280594631
:1005DC00484601F082FE51468146404601F07DFEC0
:1005EC0001468046484601F078FEA065B9F1000F3F
:1005FC0000F0BF80B8F1000F00F0BB80002800F0C5
:10060C00B880A26E9DF83030511C0CBF4FF40072B4
:10061C004FF48022002B14BF00234FF48273A2618D
:10062C0020606360FFF780FFB6EB500F80F0A48072
:10063C00B6EB900F80F0A280B6EBD00F80F0A080CC
:10064C00B6EB101F80F09E80B6EB501F80F09C80A4
:10065C00B6EB901F80F09A80B6EBD01F2CBF3023E6
:10066C003823E361002D00F09380022D00F092807E
:10067C00013D18BF012501236D00C4E90453072374
:10068C00E362B7FA87F300265B09DB01C4E908369D
:10069C005149206EA660A662E66001F0EFFD4F495D
:1006AC00E06D01F0EBFD4E49606E01F0E7FD236952
:1006BC00B342636E18BF0125C3F3031208BF0225B2
:1006CC00042A8CBF3046484903F00F0398BF51F8F9
:1006DC002200464A022D52F8231091FAA1F24FEA59
:1006EC001163B2FA82F2C6584FF00F034FEA82023E
:1006FC0003FA02F391FAA1F2B2FA82F203EA0603C8
:10070C004FEA820223FA02F34FEA112544D0042B5C
:10071C0002D10822FFF7F2FEC268012322EA050289
:10072C0095FAA5F5B5FA85F5AB401343C3602D4991
:10073C00A06E01F0A3FD23682D4A934235D12D4BB9
:10074C009A6942F480529A619A6902F4805200923A
:10075C00009ADA6842F48052DA60DA6822F4805245
:10076C00DA60204600F099FC2268136843F04003DD
:10077C00136003B0BDE8F08F002372E7082370E725
:10078C0010236EE718236CE720236AE7282368E719
:10079C002B4672E7002370E7042B02D10822FFF7E7
:1007AC00ADFEC36823EA0503C0E7134A9342D8D1D0
:1007BC00104BDA6942F48042DA61DA6902F4804261
:1007CC000192019A1A6942F480421A611A6922F460
:1007DC0080421A61C5E700BF443500081435000893
:1007EC00E4340008B4340008080000205C3400082D
:1007FC0000300140001002400038004070470000FB
:10080C0038B50E4B05461A784FF47A73B3FBF2F3F6
:10081C000B4A1068B0FBF3F000F09CF8044658B992
:10082C000F2D09D8024629464FF0FF3000F042F850
:10083C002046044B1D6038BD0120FCE70000002061
:10084C002400002004000020074A08B51368032088
:10085C0043F01003136000F01BF80020FFF7D0FFEB
:10086C00FFF7CCFF002008BD00200240034A044BD8
:10087C0011681B780B441360704700BF7404002090
:10088C0000000020014B1868704700BF7404002062
:10089C0007490302CA6803F4E06322F4E06212041D
:1008AC00120C134343F0BF6343F40033CB60704727
:1008BC0000ED00E0154B30B5DC68C4F30224C4F144
:1008CC000703251D042B28BF0423062D4FF0FF35ED
:1008DC0094BF0024033C05FA03F321EA0303A5406B
:1008EC0022EA0502A340002843EA0203ACBF00F150
:1008FC006040074A4FEA0313DBB2ABBF00F561401F
:10090C0000F00F0080F80033135430BD00ED00E010
:10091C0014ED00E0002807DB01234109034A00F035
:10092C001F00834042F82130704700BF00E100E017
:10093C0000280CDB01220649430900F01F0082400D
:10094C00203341F82320BFF34F8FBFF36F8F7047D5
:10095C0000E100E00138B0F1807F0BD24FF0E023D2
:10096C00F021054A586182F8231000200722986173
:10097C001A6170470120704700ED00E0002808DB89
:10098C0001224309034900F01F008240603341F803
:10099C002320704700E100E0704708B5FFF7FCFF2B
:1009AC0008BD704710B5044650B1437903F0FF02FF
:1009BC0013B90271FFF7F5FF01230020637110BD1D
:1009CC000120FCE790F821200346022A06D00422DD
:1009DC0082630120002283F8202070470268C06BDC
:1009EC00116821F00E011160116821F001011160F4
:1009FC0001211A6C01FA02F24260002083F82110E6
:100A0C00E8E7000008B590F82130022B03D004234E
:100A1C008363012008BD03681A6822F00E021A6075
:100A2C001A6822F001021A60174A93421FD014323E
:100A3C0093421ED0143293421DD0143293421DD0D7
:100A4C00143293421DD01432934214BF4FF0807372
:100A5C004FF480130D4A5360012380F8213000239A
:100A6C0080F82030436B03B198470020D2E7012374
:100A7C00F0E71023EEE74FF48073EBE74FF480536D
:100A8C00E8E74FF48033E5E708000240000002403D
:100A9C00044A08B55169014202D0506101F036F99F
:100AAC0008BD00BF000401402DE9F341054638B3F1
:100ABC000368DB0710D42B689F075ED42B681907DB
:100ACC0000F195802B685A0700F1C180EB69002B6F
:100ADC0040F02C81002029E0904C636803F00C035B
:100AEC00042B07D0636803F00C03082B0AD163684E
:100AFC00DE0307D523689C03DDD56B68002BDAD1A8
:100B0C00012013E06B68B3F5803F12D1236843F4E6
:100B1C0080332360FFF7B6FE064623689803CAD4D9
:100B2C00FFF7B0FE801B6428F7D9032002B0BDE8A4
:100B3C00F0819BB9236823F480332360236823F46A
:100B4C0080232360FFF79EFE064623689903B2D5E7
:100B5C00FFF798FE801B6428F7D9E6E7B3F5A02FC2
:100B6C00236803D143F480232360CFE723F480333D
:100B7C002360236823F48023CBE7684C636813F06D
:100B8C000C0F07D0636803F00C03082B10D16368BB
:100B9C00DA030DD423689B0702D52B69012BAFD147
:100BAC0023686A6923F0F80343EAC203236085E7EC
:100BBC002A695B4B6AB101221A60FFF763FE064695
:100BCC0023689F07ECD4FFF75DFE801B0228F7D942
:100BDC00ABE71A60FFF756FE0646236898077FF5C9
:100BEC006DAFFFF74FFE801B0228F6D99DE7AA696F
:100BFC004A4E4B4BE2B10122C3F88024FFF742FE70
:100C0C000446736A9B070DD54FF4FA52454B1B688B
:100C1C00B3FBF2F3019300BF019B5A1E0192002B10
:100C2C00F9D14FE7FFF72EFE001B0228E9D97CE72C
:100C3C00C3F88024FFF726FE0446736A9F077FF5EE
:100C4C0041AFFFF71FFE001B0228F6D96DE7334CAE
:100C5C00E369D80024D40127E36943F08053E361AE
:100C6C00E36903F080530093009B2F4E3368D90542
:100C7C0018D5EB68012B26D1236A43F001032362BC
:100C8C00FFF700FE41F288380646236A9B073FD5E2
:100C9C00002F3FF41BAFE36923F08053E36115E7AA
:100CAC000027E2E7336843F480733360FFF7EAFD13
:100CBC0080463368DA05DCD4FFF7E4FDA0EB0800CE
:100CCC006428F6D931E7ABB9236A41F2883823F0AE
:100CDC0001032362236A23F004032362FFF7D2FD8E
:100CEC000646236A9807D3D5FFF7CCFD801B4045F9
:100CFC00F7D91AE7052B236A03D143F004032362C7
:100D0C00BAE723F001032362236A23F00403B6E756
:100D1C00FFF7B8FD801B4045B7D906E7001002402D
:100D2C000000424224000020007000402A4C6268FF
:100D3C0002F00C02082A3ED00022022B274B1A6626
:100D4C002CD1FFF79FFD06462368990120D42B6A0E
:100D5C00B3F5803F05D16268A96822F400320A43DA
:100D6C006260696A62680B4322F4741213430122B5
:100D7C0063601A4B1A66FFF785FD054623689A01D6
:100D8C003FF5A8AEFFF77EFD401B0228F6D9CCE656
:100D9C00FFF778FD801B0228D6D9C6E6FFF772FD57
:100DAC00054623689B017FF595AEFFF76BFD401B55
:100DBC000228F6D9B9E6012B3FF4A2AE60682B6A83
:100DCC0000F480329A427FF49BAE6B6A00F4701090
:100DDC00C01A18BF0120A9E60010024000004242D0
:100DEC000D4A536803F00C01082912D10B48C3F3C8
:100DFC008341DB03405C09D55368094AC3F3404384
:100E0C005043084AD35CB0FBF3F07047064B584391
:100E1C0070470348704700BF001002404934000877
:100E2C0000127A004734000800093D002DE9F0411A
:100E3C000D46044610B90120BDE8F081444A136800
:100E4C0003F007038B4228D321688E0730D4CA07DE
:100E5C0043D43F4A136803F00703AB4265D82268BA
:100E6C003C4D12F0040F6CD1130706D56B68226948
:100E7C0023F4605343EAC2036B60FFF7B1FF6B6866
:100E8C00354AC3F30313D35CD840344B1860344B4E
:100E9C001868FFF7B5FC0020CEE7136823F00703B2
:100EAC000B431360136803F007038B42C3D1CBE7EA
:100EBC00284B11F0040F1EBF5A6842F4E0625A60CE
:100ECC00080742BF5A6842F460525A605A68A068D8
:100EDC0022F0F00202435A60B9E762681D4E012A03
:100EEC0033681AD113F4003FA5D0736841F28838E7
:100EFC0023F0030313437360FFF7C4FC07467368C6
:100F0C00626803F00C03B3EB820FA2D0FFF7BAFCBC
:100F1C00C01B4045F3D903208EE7022A02D113F0FF
:100F2C00007FE1E713F0020FDEE7136823F00703FD
:100F3C002B431360136803F00703AB427FF47BAFC2
:100F4C008DE76B68E16823F4E0630B436B608BE720
:100F5C000020024000100240A434000824000020AD
:100F6C0004000020044B054A5B68C3F30223D35CE6
:100F7C00034A1068D8407047001002409C340008A7
:100F8C0024000020044B054A5B68C3F3C223D35CE6
:100F9C00034A1068D8407047001002409C34000887
:100FAC002400002003682DE9F3410546D80720D51D
:100FBC00364CE369D9002AD40126E36943F0805307
:100FCC00E361E36903F080530193019B304F3B686D
:100FDC00DA051ED5236A13F440732ED1236A6A688E
:100FEC0023F44073134323621EB1E36923F080534F
:100FFC00E3612A68910706D52449A8684B6823F455
:10100C00404303434B60D30637D4002012E0002644
:10101C00DCE73B6843F480733B60FFF733FC8046AE
:10102C003B68DB05D6D4FFF72DFCA0EB0800642849
:10103C00F6D9032002B0BDE8F0816A6802F4407270
:10104C009A42CBD00120134A236AC2F840040020F4
:10105C0023F44071DF07C2F840042162BED5FFF7CC
:10106C0011FC41F288380746236A9807B6D4FFF77B
:10107C0009FCC01B4045F7D9DBE7044AE968536813
:10108C0023F480030B435360BFE700BF0010024002
:10109C000070004000004242704710B50446002822
:1010AC0051D0436A002B4AD14268B2F5827F00D0FE
:1010BC00C3610023A36294F8513003F0FF0223B9FB
:1010CC00204684F85020FFF7E7FF0223226884F8BB
:1010DC0051301368A06823F040031360636800F478
:1010EC00044003F482730343E068A16900F40060D8
:1010FC000343206900F002000343606900F0010023
:10110C00034301F400700343E069090C00F038005C
:10111C000343206A01F0040100F080000343A06A3D
:10112C0000F40050034313605160D369002023F492
:10113C000063D3610123606584F8513010BD002336
:10114C00C0E90433B5E70120F8E77047704703683E
:10115C0070B5DD681E690446B1070DD5AA070BD51D
:10116C006FF002021A61012202779B699B0769D01A
:10117C0000F0E1FC00232377710710D56A070ED528
:10118C006FF00402236820461A61022222779B69C1
:10119C0013F4407F5CD000F0CEFC002323773307A0
:1011AC000FD528070DD56FF00802236820461A6169
:1011BC0004222277DB69990750D000F0BCFC002395
:1011CC002377F20610D5EB060ED56FF010022368CC
:1011DC0020461A6108222277DB6913F4407F43D042
:1011EC0000F0A9FC00232377F00708D5E90706D502
:1011FC006FF00102236820461A6100F079FC320678
:10120C0008D52B0606D56FF08002236820461A619C
:10121C0000F091F8700608D5690606D56FF040020B
:10122C00236820461A61FFF791FFB20622D5AB0660
:10123C0020D56FF0200223682046BDE870401A616B
:10124C0000F078B800F075FC2046FFF77EFF91E7C0
:10125C0000F06FFC2046FFF778FF9EE700F069FC7A
:10126C002046FFF772FFAAE700F063FC2046FFF769
:10127C006CFFB7E770BD0000174A036890420AD0B4
:10128C00B0F1804F07D0A2F59432904203D002F512
:10129C008062904207D14A6823F070031343CA68F6
:1012AC0023F4407313434A6923F080031343036010
:1012BC008B68C3620B688362074B984204BF0B694F
:1012CC000363012343610369DB0742BF036923F016
:1012DC0001030361704700BF002C014010B50446A8
:1012EC0030B390F83D3003F0FF021BB980F83C207E
:1012FC0001F0D8F80223206884F83D30211DFFF757
:10130C00BBFF0123002084F8463084F83E3084F87B
:10131C003F3084F8403084F8413084F8423084F80F
:10132C00433084F8443084F8453084F83D3010BDA7
:10133C000120FCE770477047026802F10C0353E888
:10134C00003F23F490730C3242E80031026800290C
:10135C00F2D102F1140353E8003F23F0010302F130
:10136C00140C4CE800310029F3D1036B012B0BD189
:10137C0002F10C0353E8003F23F0100302F10C0CB4
:10138C004CE800310029F3D1202380F842300023AF
:10139C000363704710B504460368C1681A6922F4E8
:1013AC0040520A431A6182680069D9680243606935
:1013BC0021F4B05121F00C0102430A43DA605A695E
:1013CC00A16922F440720A435A610E4A934215D124
:1013DC00FFF7D8FD19234343626820689200B3FBE2
:1013EC00F2F36422B3FBF2F102FB11331B01323333
:1013FC00B3FBF2F303EB0113836010BDFFF7B2FDF7
:10140C00E8E700BF00380140704710B5044648B308
:10141C0090F8413003F0FF021BB980F84020FFF731
:10142C00F3FF2423226884F84130D368204623F448
:10143C000053D360FFF7AEFF236800201A6922F433
:10144C0090421A615A6922F02A025A61DA6842F40F
:10145C000052DA602023606484F8413084F8423012
:10146C00606310BD0120FCE710B5044668B390F82A
:10147C00413003F0FF021BB980F84020FFF7C4FF96
:10148C002423226884F84130D368204623F4005387
:10149C00D360FFF77FFF236800201A6922F4904283
:1014AC001A615A6922F022025A615A6942F0080202
:1014BC005A61DA6842F40052DA602023606484F8DE
:1014CC00413084F84230606310BD0120FCE790F895
:1014DC004130202B10D189B182B1C2848284002387
:1014EC00212201620168436480F84120CA681846D1
:1014FC0042F08002CA60704702207047012070479A
:10150C0008B50023406AC385C38401F07BF908BD8C
:10151C00704790F8423007B5222B42D1816802689F
:10152C00B1F5805F836A3FD1016900293FD15268D0
:10153C00C2F3080223F8022B8362C38D013B9BB2DA
:10154C00C385002B2DD10268D16821F02001D16018
:10155C00D16821F48071D160516921F00101516190
:10156C00202280F842204363026B012A026828D1B2
:10157C00036302F10C0353E8003F23F0100302F164
:10158C000C0C4CE800310029F3D11368DB0605D5AF
:10159C0001911368019353680193019B818DFFF7AF
:1015AC00B7FF03B05DF804FB39B9016929B952687A
:1015BC00D2B21A70836A0133BEE7526802F07F021E
:1015CC00F7E701F019F9ECE7036873B51A680446FC
:1015DC001607D9685D6908D1960668D58D0666D55B
:1015EC0002B0BDE87040FFF794BF05F0010001F4B4
:1015FC00907505435BD0D60705D5CD0542BF636C0E
:10160C0043F001036364530704D518B1636C43F0D2
:10161C0002036364960704D518B1636C43F00403AA
:10162C006364150707D501F0200303431EBF636CE9
:10163C0043F008036364636C002B32D0920604D52C
:10164C008B0602D52046FFF764FF26682046736997
:10165C00626C03F0400302F0080253EA020522D048
:10166C00FFF76AFE73695E0618D5226802F114034F
:10167C0053E8003F23F04003143242E800310029C4
:10168C00F3D1E06B50B1744B4363FFF7BBF940B13E
:10169C00E06B436B02B0BDE870401847204601F088
:1016AC00B1F802B070BD01F0ADF86564F9E7206BDC
:1016BC00012840F09480D50640F19180C80640F195
:1016CC008E80002201921A6801925A680192019A46
:1016DC005A6952064DD5E16B0A68526892B2002ADB
:1016EC00DFD0A08D9042DCD9E2858A69202A36D0E1
:1016FC0003F10C0252E8002F22F4807203F10C006B
:10170C0040E800210029F3D103F1140252E8002F24
:10171C0022F0010203F1140040E800210029F3D16A
:10172C0003F1140252E8002F22F0400203F11400DE
:10173C0040E800210029F3D1202284F842202163C3
:10174C0003F10C0252E8002F22F0100203F10C00FE
:10175C0040E800210029F3D1E06BFFF733F90223B5
:10176C006363E38DA18DC91A89B22046FFF7D0FEC1
:10177C0097E7E28DE18D92B289B2002991D0A18DCB
:10178C00891A89B200298CD003F10C0252E8002F7F
:10179C0022F4907203F10C0545E800200028F3D1E7
:1017AC0003F1140252E8002F22F0010203F1140598
:1017BC0045E800200028F3D1202284F84220206341
:1017CC0003F10C0252E8002F22F0100203F10C0579
:1017DC0045E800200028F3D102236363C5E7160611
:1017EC0028D50D0626D594F84120212A7FF459AF2F
:1017FC00A168226AB1F5805F17D12169A9B932F8C5
:10180C00021BC1F3080159602262E28C013A92B2C8
:10181C00E284002A7FF445AFDA6822F08002DA60B5
:10182C00DA6842F04002DA603BE7511C2162127820
:10183C005A60EAE750067FF534AF4A067FF531AFC0
:10184C00DA68204622F04002DA60202384F8413026
:10185C0000F0D5FF25E700BF0D15000890F84030CB
:10186C00012B11D02423026880F84130D36823F077
:10187C000C0343F00803D360202380F8413000238D
:10188C0080F84030184670470220704790F840307E
:10189C00012B11D02423026880F84130D36823F047
:1018AC000C0343F00403D360202380F84130002361
:1018BC0080F84030184670470220704790F841205D
:1018CC0090F84200104370470023C28543642223E2
:1018DC008285026980F84230816203681AB1DA6845
:1018EC0042F48072DA605A69002042F001025A61B7
:1018FC00DA6842F02002DA60704770B590F8426006
:10190C00202E07D141B13AB100240463FFF7DCFF6C
:10191C00204670BD0220FCE70120FAE7836810B571
:10192C0004462BB10322014698470023C4E9023335
:10193C0010BD836810B5044613B1032201469847C5
:10194C00204610BD0B4B98420BD0B0F1804F0AD003
:10195C00A3F59433984208D003F58063984206D0DF
:10196C00FEE70020704701207047022070470320DB
:10197C00704700BF002C0140024670B5044652F877
:10198C00100FFFF7DFFF0546104600F01DFD00238A
:10199C00084A04F1600642F82530E36004F1B00512
:1019AC00B54204D0103D2846FFF7C3FFF8E72046A8
:1019BC0070BD00BF78040020F8B504460846FFF758
:1019CC00C1FF236903B1FEE71B4D04F10C0245F87E
:1019DC0020200E2204F110063046C4E90C33C4E971
:1019EC000E33C4E91033C4E91623216184F82C307A
:1019FC00A36484F84C3084F84D30E46000F0A0FC13
:101A0C0004F1600504F1B00728461035FFF786FF96
:101A1C00BD42F9D100234FF6FF72C4E90033C4E98B
:101A2C000632C4E90833A360636180233046A362A5
:101A3C00BDE8F840FFF752BC78040020034B18684F
:101A4C0010B10430FFF783BB704700BF780400204F
:101A5C00FFF7F4BF034B586810B10430FFF777BBA6
:101A6C00704700BF78040020034B986810B1043015
:101A7C00FFF76DBB704700BF78040020034BD8689C
:101A8C0010B10430FFF763BB704700BF780400202F
:101A9C000022C0E90022C0E902227047F8B50446D2
:101AAC000E4600F1600500F1B00728461035FFF72F
:101ABC00EFFFBD42F9D10023204631462361FFF7E9
:101ACC007BFF2046F8BD826810B50AB901F066FCB0
:101ADC00C368BDE81040184708B500B9FEE700F030
:101AEC002DFC0068836E13B16030FFF7ECFF08BD6E
:101AFC00FFF7F2BF10B500B9FEE7037F013B072BE0
:101B0C0010D8DFE803F004140F100F0F0F1201248C
:101B1C0000F014FC0068063400EB041083680BB171
:101B2C00FFF7D1FF10BD0324F2E70424F0E70224F1
:101B3C00EEE7FFF7DFBFFFF7DDBF01F091BA01F071
:101B4C0097BA000086B0042841D8DFE800F00310F3
:101B5C001C2834001F4B20489A6942F004029A61F9
:101B6C009B6903F004030193019B06B07047194B6A
:101B7C001A489A6942F008029A619B6903F00803BB
:101B8C000293029BF1E7134B15489A6942F010023D
:101B9C009A619B6903F010030393039BE5E70D4BDC
:101BAC0010489A6942F020029A619B6903F0200365
:101BBC000493049BD9E7074B0B489A6942F0400207
:101BCC009A619B6903F040030593059BCDE70020C8
:101BDC00CBE700BF0010024000080140000C0140A0
:101BEC00001001400014014000180140F8B51349E1
:101BFC00064600F05BFBFFF7A5FE114F054657F8B4
:101C0C00203073B9B020FFF798FF0C4904463046DA
:101C1C0000F04CFB01462046FFF740FF57F82530FB
:101C2C001C601C6844B12046FFF7A6FE2046BDE8A8
:101C3C00F840B021FFF783BFF8BD00BF6436000841
:101C4C0078040020FEF71EBE704708B5FEF70EFEA6
:101C5C00FEF7A3FEFFF7F8FF08BD70470F4B84B0EB
:101C6C00DA6942F08052DA61DA6902F0805201924C
:101C7C00019A9A6942F001029A619A6902F0010292
:101C8C000292029A5A6942F040025A615B6903F06F
:101C9C0040030393039B04B0704700BF0010024045
:101CAC000C4BD3F8FC20D2015EBFD3F8FC2042F0E1
:101CBC008072C3F8FC200022074B5A601A6842F06D
:101CCC0001021A6000BF00BF00BF5868B0FA80F074
:101CDC004009704700ED00E0001000E008B5FFF788
:101CEC00BDFFFFF7DDFFFEF7AFFDFFF7B6FF00F01E
:101CFC0019FEBDE808400148FEF754BE1C00002048
:101D0C000023C0E90033C0E90233704700230128E7
:101D1C0003F101020AD11422DBB25343054A181D08
:101D2C001044816829B11A441369184713464008B6
:101D3C00EDE77047880400200120FEF7A9BE0220C1
:101D4C00FEF7A6BE0420FEF7A3BE0820FEF7A0BE39
:101D5C001020FEF79DBE08B52020FEF799FE40200E
:101D6C00FEF796FE8020FEF793FE4FF48070FEF790
:101D7C008FFEBDE808404FF40070FEF789BE38B501
:101D8C0006244FF48065A8B2FEF782FE013C4FEAB0
:101D9C004505F8D138BD0000344A08B51046062375
:101DAC0000F8043BFFF7ACFF072302F11800137592
:101DBC00FFF7A6FF082302F12C0082F82830FFF76A
:101DCC009FFF092302F1400082F83C30FFF798FF97
:101DDC000A23172102F1540082F85030FFF790FFCC
:101DEC0002F1680082F86410FFF78AFF02F17C00B0
:101DFC0082F87810FFF784FF02F1900082F88C10C3
:101E0C00FFF77EFF02F1A40082F8A010FFF778FF25
:101E1C0082F8B410282102F1B800FFF771FF02F12B
:101E2C00CC0082F8C810FFF76BFF02F1E00082F8DB
:101E3C00DC10FFF765FF02F1F40082F8F010FFF7F9
:101E4C005FFF02F5847082F80411FFF759FF02F569
:101E5C008E7082F81811FFF753FFBDE8084002F5A9
:101E6C00987082F82C11FFF74BBF00BF880400203C
:101E7C0038B5054CA4F5A075143C201DFFF759FD91
:101E8C00AC42F9D138BD00BFC80500207B4B82B0F5
:101E9C009A69013842F001029A619B6903F00103CF
:101EAC000193019B23282CD8DFE810F024002D008F
:101EBC0034003B00400047004C00530058005F00CA
:101ECC0068006D0074007D008200890092009B0008
:101EDC00A000A700B000B500BC002B002B002B000D
:101EEC00C100C8002B002B002B002B00CD00D20012
:101EFC00D900E000624A536843F0E06343F0010309
:101F0C00536002B070475E4A536823F0010343F0FC
:101F1C00E063F5E75A4A536843F0E06343F0020389
:101F2C00EEE7574A536823F00203F0E7544A53682C
:101F3C0043F0E06343F00403E2E7514A536823F0B3
:101F4C000403E4E74E4A536843F0E06343F00803AC
:101F5C00D6E74B4A536823F00803D8E7484A53683E
:101F6C0043F0E06343F03003CAE7454A536823F07B
:101F7C00300343F0E06343F01003C1E7404A536879
:101F8C0023F03003C3E73E4A536843F0E06343F069
:101F9C00C003B5E73A4A536823F0C00343F0E0634B
:101FAC0043F04003ACE7364A536823F0C003AEE776
:101FBC00334A536843F0E06343F44073A0E7304A7C
:101FCC00536823F4407343F0E06343F4007397E7E2
:101FDC002B4A536823F4407343F0E06343F480735B
:101FEC008EE7274A536823F4407390E7244A5368DA
:101FFC0043F0E06343F4406382E7214A536823F4DF
:10200C00406343F0E06343F4006379E71C4A536890
:10201C0023F440637BE71A4A536843F0E06343F4CC
:10202C0080536DE7164A536823F480536FE7144AC4
:10203C00536843F0E06343F4004361E7104A53688C
:10204C0023F4004363E70E4A536823F0E06357E739
:10205C000B4A536823F0E06343F0807350E7084A5F
:10206C00536823F0E06343F0007349E7044A536874
:10207C0023F0E06343F0806342E700BF00100240AE
:10208C000000014091FAA1F3B3FA83F370B50D0E81
:10209C000F2691FAA1F1B1FA81F144599B0006FA8D
:1020AC0003F3890024EA03048A402243425170BDA1
:1020BC0091FAA1F3B3FA83F370B50D0E042691FADD
:1020CC00A1F1B1FA81F144599B0006FA03F389009E
:1020DC0024EA03048A402243425170BD431C04D0BD
:1020EC000C3151F80C3C5A1C01D100207047834232
:1020FC0001F10C01F5D1012070470000431C2DE9C2
:10210C00F34106460F4600D1FEE7594B00F00F0293
:10211C00C0F3031001F0070853F82240FFF712FD3B
:10212C00B8F1010F054615D194FAA4F3B3FA83F371
:10213C000321200E2A589B0001FA03F322EA030222
:10214C0094FAA4F3B3FA83F39B00994011432950FA
:10215C00012213E0C7F30620B8F1030F0AD801A33C
:10216C0053F828F0832100085D210008E7210008BE
:10217C00F5210008FEE7FFF789FE082221462846D4
:10218C0008F1FF38FFF77EFFB8F1010F06D817F002
:10219C00080218BF04222146FFF78AFF94FAA4F222
:1021AC00230EB2FA82F2E9580F239200934094FA6C
:1021BC00A4F2B2FA82F2C7F301170B409200012F7E
:1021CC0023FA02F312D0022F3BD0082B21D1042288
:1021DC0021462846FFF756FF1BE07F2801D1092234
:1021EC00CCE7FFF753FEFAE70022C7E7042B04D134
:1021FC00082221462846FFF745FF230A93FAA3F34A
:10220C00B3FA83F20123E968934021EA14210B43CA
:10221C00EB60184B9A6942F001029A619B6903F0DA
:10222C0001030193019BA6F10D03012B14D8124A53
:10223C00536823F0E06343F08063536002B0BDE861
:10224C00F081042B04D1082221462846FFF71AFFFF
:10225C00EB6823EA1423DBE70F2E02D0133E012E8A
:10226C00ECD8054A536823F0E06343F00073E4E7CD
:10227C005C3400080010024000000140431C06D1F1
:10228C007047834202D18968FFF738BF0C310B6865
:10229C005A1CF6D1FEE70B685A1C01D1002070477E
:1022AC00834201D1486870470C31F4E7431C01D0DC
:1022BC00FFF7F1BF002070474B6813B94FF0FF30A8
:1022CC007047834201D1086870470C31F4E708B1BC
:1022DC00FFF7F2BF4FF0FF30704703468B420846C2
:1022EC0004D01BB100290CBF184600207047000019
:1022FC000F4B1A6842F001021A6059680D4A0A40E5
:10230C005A601A6822F0847222F480321A601A68B9
:10231C0022F480221A605A6822F4FE025A604FF4AA
:10232C001F029A604FF00062034B9A60704700BF27
:10233C00001002400000FFF800ED00E00438704788
:10234C0003681D4A84B093420BD11C4B9A6942F42A
:10235C0000629A619B6903F400630093009B04B0D4
:10236C007047B3F1804F0BD103F50433DA6942F0B7
:10237C000102DA61DB6903F001030193019BEEE7D3
:10238C000F4A93420AD10D4BDA6942F00202DA612C
:10239C00DB6903F002030293029BE0E7094A9342D4
:1023AC00DDD1064BDA6942F00402DA61DB6903F035
:1023BC0004030393039BD2E7002C0140001002405E
:1023CC0000040040000800400368124A934206D102
:1023DC0002F56442936923F4006393617047B3F18F
:1023EC00804F05D10C4AD36923F00103D3617047A8
:1023FC000A4A934205D102F50332D36923F0020352
:10240C00F4E7074A9342F2D102F50232D36923F082
:10241C000403EBE7002C01400010024000040040D4
:10242C0000080040431C10D00C4B984210D007D829
:10243C00B0F1804F0ED0A3F5806398420CD0FEE72C
:10244C00074B9842FBD1192070476FF00D00704775
:10245C001E2070471C2070471D207047000800404C
:10246C00002C0140431C10D00C4B984210D007D8C4
:10247C00B0F1804F0ED0A3F5806398420CD0FEE7EC
:10248C00074B9842FBD11B2070476FF00D00704733
:10249C001E2070471C2070471D207047000800400C
:1024AC00002C014038B50446FFF74AFF0068FFF7DF
:1024BC00B9FFD4E91212FEF7FDF92068FFF7B2FF5D
:1024CC00FEF728FA22681046FFF7CCFF05461046A7
:1024DC00FFF7A8FF85420BD0D4E912122846FEF76D
:1024EC00E9F92068FFF7BEFFBDE83840FEF712BAE5
:1024FC0038BD00002DE9F04F8B46924699460446B4
:10250C0085B018B9002005B0BDE8F08F6449406D66
:10251C00FFF7CCFE63490646A06DFFF7C7FE624984
:10252C000746E06DFFF7C2FE60490546206EFFF7D7
:10253C00BDFE8046002EE5D0A36D013301D0002FE7
:10254C00E0D0E36D013301D0002DDBD0236E0133DD
:10255C0002D0B8F1000FD5D030463946FFF7BDFE9A
:10256C000646206020B90146FFF7B7FE06462060FC
:10257C0029463046FFF7B1FE41462060FFF7ADFE1D
:10258C0020600028BED04A4B984252D103F55843E4
:10259C00DA6842F48042DA60DA6822F48042DA6067
:1025AC009A6942F480429A619B69002203F4804349
:1025BC000193019B25233A49606D84F8652084F8CA
:1025CC006430FFF75BFE1FB13649A06DFFF756FE76
:1025DC002DB13549E06DFFF751FE4FF48075B8F120
:1025EC00000F05D03149206E45F40075FFF746FE0B
:1025FC0094F865202F4B261D43F822602368002297
:10260C00C4E9013B0E9B94F96400C4E904390C2322
:10261C000121C4E90635C4F80CA02262FEF74AF980
:10262C003046002F38D1FEF71FFFB0FA80F040097A
:10263C0069E7214B984215D103F5E6331A6942F448
:10264C0000321A611A6922F400321A61DA6942F412
:10265C000032DA61DB69012203F400330293029B3E
:10266C002623A8E7154B98427FF44CAF03F5E433CF
:10267C001A6942F480221A611A6922F480221A61C2
:10268C00DA6942F48022DA61DB69022203F48023E6
:10269C000393039B27238EE7FEF7B7FEC5E700BF26
:1026AC0028360008EC350008B035000874350008F1
:1026BC0000380140C805002000440040004800409C
:1026CC0008B5074B90F8652053F82200FFF7F6F891
:1026DC0000F02200A0F122035842584108BD00BF6F
:1026EC00C805002008B5074B90F8652053F8220068
:1026FC00FFF7E4F800F02100A0F121035842584103
:10270C0008BD00BFC805002070B50E46054610B9BF
:10271C004FF0FF3070BDFFF7D3FF04460028F7D110
:10272C00294611F8663F0122337095F86500034B7A
:10273C0053F82000FFF7E1F82046EBE7C80500202E
:10274C0038B50D460446B8B1FFF7BAFFA0B994F9F5
:10275C006400E564FEF7ECF894F86500074B04F1AF
:10276C00660153F820000122FFF7C7F894F96400C2
:10277C00BDE83840FEF7CEB838BD00BFC805002014
:10278C0038B515460446B8B1016590F96400FEF7FA
:10279C00CFF8B4F87630E16E9BB294F8650019442A
:1027AC00064BAAB253F82000FEF791FE94F9640090
:1027BC00BDE83840FEF7AEB838BD00BFC8050020F4
:1027CC0048B1836D013306D190F86520024B53F864
:1027DC002200FFF743B87047C805002048B1836D4D
:1027EC00013306D190F86520024B53F82200FFF715
:1027FC004DB87047C8050020836C04381847C36C6B
:10280C000438184730B5044650F8043985B01D68B3
:10281C0015F0010512D0002200921A6800925B6834
:10282C000093009BFFF74CFF40BB0122204604F1B4
:10283C00620105B0BDE83040FFF75FB8196811F0D0
:10284C00020106D001951A6801925B680193019B05
:10285C00E8E71A6812F0040206D002911A68029294
:10286C005B680293029BDDE719680907DAD50392CE
:10287C001A6803925B680393039BD3E705B030BDE2
:10288C0008B52520FEF77AF8024B1868BDE8084019
:10289C00FEF79ABEC8050020262008B5FEF76EF894
:1028AC00034B586818B1BDE80840FEF78DBE08BD53
:1028BC00C8050020272008B5FEF760F8034B986880
:1028CC0018B1BDE80840FEF77FBE08BDC805002062
:1028DC0003460A4910B508680344EFF30882934293
:1028EC0005D90C224FF0FF30054B1A6010BD054A7C
:1028FC00054C121B9342F4D20B60F7E72800002022
:10290C00400800200050002000040000FEE70000FA
:10291C001622024B4FF0FF301A607047400800201F
:10292C000120704710B594B0142200210CA800F0BF
:10293C0055FC142200210DEB020000F04FFC10227C
:10294C00002101A800F04AFC02244FF4803301223C
:10295C00CDE91143CDE90A234FF4E0130AA80E92F6
:10296C001393FEF7A1F800B1FEE70F23CDE9053470
:10297C004FF480630790CDE90830214605A8FEF797
:10298C0055FA00B1FEE7122301934FF40043CDE951
:10299C00033001A8FEF706FB00B1FEE714B010BD32
:1029AC00B0F80831B0F80421981A00F03F007047D5
:1029BC00B0F80831B0F804219BB293421ABFD0F89A
:1029CC00FC30985C4FF0FF30704790F80631B0F84F
:1029DC000A01C0B2834227BFC3F13F03C018C01A1B
:1029EC0000F1FF30704707B503688DF8071001221E
:1029FC005B680DF10701984703B05DF804FB13B554
:102A0C000DF107010446FFF77FFE88B9B4F8743066
:102A1C00B4F87020013303F03F03934208D0B4F8AC
:102A2C0074209DF80700A16E92B28854A4F87430FB
:102A3C0002B010BDB0F87610826F10B50A4402F0E7
:102A4C003F02A0F87620B0F87610B0F8722089B268
:102A5C008A421AD0B0F876404032A4B2B0F8761060
:102A6C00121B544289B204F03F0402F03F02C1F140
:102A7C00400158BF62428A4228BF0A460449826715
:102A8C00FFF77EFE4FF0FF3010BD0020FCE700BFCB
:102A9C00412A00082DE9F843036804469B688846E0
:102AAC001646984701232374D4F8EC30B4F8067119
:102ABC0001338146C7F1400709D194F8113133B184
:102ACC00002304F1940084F81131FFF779FE236898
:102ADC0020469B6898470028F9D03546BD4225D83A
:102AEC004D4523D8B4F80631D4F800015A19402AC0
:102AFC00184430D82A46414600F0AEFB2F46B4F8B5
:102B0C0006311D4405F03F05A4F8065104F1940567
:102B1C002846FFF7E7FD30B93A4628461549C4F870
:102B2C000C71FFF72DFE3046BDE8F8834F4528BFEA
:102B3C004F4623683A4641465B68204698472368CF
:102B4C0020469B689847ED1BB844B4F80671814643
:102B5C00C7F14007C2E7C3F140073A46414600F0CF
:102B6C007BFBD4F80001EA1B08EB070100F074FBB7
:102B7C00C5E700BF412A0008C0F8F030009B914225
:102B8C0008BF4FF0FF31C0F8F43000F11403C0F867
:102B9C00FC300023C0E93A2100F15402A0F80831BE
:102BAC00C0E94023A0F80A3170470000F7B54FF494
:102BBC007A7317460022C0E901231C4B04460360BC
:102BCC004FF0FF33C0F8EC30194B1A4E9C420D46B7
:102BDC00F06A05D1B36AC4F8EC30C4F8E8000AE036
:102BEC001549FFF763FB854215D1B36AC4F8EC3085
:102BFC00F36AC4F8E8304FF0FF33012F08BFC4F874
:102C0C00EC3000932046D4E93A214FF0FF33FFF724
:102C1C00B3FF03B0F0BD28460849FFF758FB06493F
:102C2C00C4F8EC002846FFF752FBD6E72C39000815
:102C3C00D40500209038000828360008EC35000830
:102C4C00037C70B504460D46A3B1FDF71BFE06468A
:102C5C00B4F80621B4F80A319BB29A420AD0002D7E
:102C6C00F8D0FDF70FFE801B8542F1D8B4F80A317D
:102C7C00A4F8063170BD0021FFF7E2BFD0F8EC30AC
:102C8C0010B5013304460ED10368DB68984794F8FD
:102C9C00113143B9012304F1940084F81131BDE8DA
:102CAC001040FFF79BBD10BD7FB5144602F0070323
:102CBC00023BDBB2042B80F8122196BF1F4A002284
:102CCC00D25C04F03003302B0546C0F8141107D148
:102CDC004FF4C0630132082A09D0092A24D0FEE738
:102CEC0014F0200325D04FF480630132F3E7002267
:102CFC00E87CC4F3C0040390A87C05F19406029010
:102D0C00687C6403019000943046FFF7F3FB85F870
:102D1C00100188B12846FFF7B1FF3046084904B0CE
:102D2C00BDE87040FFF70CBD4FF48052E0E71A4647
:102D3C00DEE7082AFBD0D2E704B070BD1C390008CE
:102D4C000B2A000810B50446FFF798FFB4F80821C9
:102D5C00B4F8043192B29A4217BFD4F8FC204FF069
:102D6C00FF30D05C01331CBF03F03F03A4F80431E7
:102D7C0010BD0000002202490248FFF717BF00BF38
:102D8C0000380140D405002070B505460C460846B5
:102D9C0049B1FDF7B5F92B68024621462846BDE836
:102DAC0070405B68184770BD08B5FFF7EDFF08BDB4
:102DBC000023012A98BF0A2230B58BB00C468DF83F
:102DCC00243009A92546B4FBF2F404FB1253DBB200
:102DDC00092B94BF30333733DBB2AA4201F8013DE3
:102DEC00F0D9FFF7D1FF0BB030BD10B422B9026897
:102DFC0010BC1268C9B2104710BCD2B2FFF7D8BFD2
:102E0C0010B5044600F00AF9E060236820465B69BF
:102E1C009847002808DA00F001F9E368C01AA368A3
:102E2C009842F2D34FF0FF3010BDF8B507460D466F
:102E3C000C468E18B44201D1601BF8BD3846FFF722
:102E4C00DFFF431CF8D004F8010BF3E72DE9F04148
:102E5C000746884616461D4673B100243846FFF7D0
:102E6C00CFFF431C05D0404503D030550134A5425B
:102E7C00F4D12046BDE8F0811C46FAE708B50320E2
:102E8C00FDF706FDBDE8084000F0E6B808B5AFF365
:102E9C000080FDF75DF9FDF7A7F900F0CFF8FAE730
:102EAC00FFF726FA0B480C490C4A002302E0D458D1
:102EBC00C4500433C4188C42F9D3094A094C00237A
:102ECC0001E013600432A242FBD300F09FF9FFF73C
:102EDC00DDFF7047000000207C00002074390008E2
:102EEC007C00002048080020FEE70000C3B2222B23
:102EFC002DE9F0410D462AD8274A00F4E06452F837
:102F0C0023301C43621C44D0244EC4F3031756F8E0
:102F1C00273004F00F0823FA08F3DB0710D52046FE
:102F2C001F49FFF7DBF810B12046FEF75FFE0122C8
:102F3C0056F8273002FA08F223EA020346F8273043
:102F4C00052D15D8DFE805F015211B1D1F2300F0FA
:102F5C00C002C02A1DD1C92B1BD8124B00F03F0256
:102F6C0053F822200C4B00F4E06453F82230C8E7ED
:102F7C00FEE700212046BDE8F041FFF7BFB8102165
:102F8C00F8E72021F6E70321F4E70121F2E7092114
:102F9C00F0E7BDE8F08100BF90380008EC06002097
:102FAC006436000868380008C3B2222B1BD8174AB5
:102FBC0000F4E06052F823301843431C25D0C0F3D2
:102FCC000313042B98BF124A00F00F0098BF52F85D
:102FDC002320104B88BF002253F82030C3F30F235B
:102FEC0091B11361704700F0C002C02A0DD1C92BFA
:102FFC000BD8094B00F03F0253F82220034B00F48E
:10300C00E06053F82230D7E75361704790380008DE
:10301C00080000205C34000868380008FEF712BE77
:10302C0038B5044648B1FEF70DFE054600F016F81B
:10303C00FEF708FE431BA342F8D338BD08B5044B7A
:10304C002BB10448FFF7ACFC08B1AFF3008008BD0E
:10305C0000000000D4050020FEF740BE70470000C1
:10306C00024B0146186800F02DB800BF2C00002060
:10307C00024B0146186800F0FDB800BF2C00002080
:10308C0070B50F4E0C463168054611B900F0AEF81C
:10309C0030602146284600F0A9F8431C03D14FF0BC
:1030AC00FF34204670BDC41C24F00304A042F8D0A9
:1030BC00211A284600F09AF80130F2D1EFE700BF50
:1030CC00000700202DE9F843CD1C25F00305083539
:1030DC000C2D38BF0C25002D064601DBA94204D966
:1030EC000C2333600020BDE8F883DFF8D48000F0B7
:1030FC0069F8D8F800301C4644BB29463046FFF727
:10310C00BFFF431C044658D1D8F800402746002F77
:10311C0043D1002C4BD023683946304604EB0309CD
:10312C0000F064F8814542D1216830466D1A294679
:10313C00FFF7A6FF01303AD023682B442360D8F860
:10314C0000305A6862BBC8F800700FE02268521B4E
:10315C0020D40B2A17D96119A342256018BF5960D6
:10316C00636808BFC8F8001062514B60304600F02D
:10317C002FF804F10B00231D20F00700C21A1CBF0E
:10318C001B1AA350AFE76268A3420CBFC8F800201B
:10319C005A60EBE723466468AEE73C467F68B6E7C7
:1031AC001A465B68A342FBD100235360DEE70C2375
:1031BC003046336000F00CF894E70560D6E700BFAA
:1031CC0004070020014800F045B800BF4408002067
:1031DC00014800F040B800BF4408002003460244F8
:1031EC00934200D1704703F8011BF9E738B500236F
:1031FC00054D044608462B60FFF76AFB431C02D1C1
:10320C002B6803B1236038BD4008002070B5002640
:10321C000C4D0D4B5B1B9C10A64209D1002600F0F7
:10322C00C1F80A4D0A4B5B1B9C10A64205D170BD20
:10323C0055F8043B98470136EEE755F8043B9847A0
:10324C000136F2E758390008583900085839000897
:10325C006C390008704770470A44914200F1FF3303
:10326C0000D1704710B511F8014B914203F8014F92
:10327C00F9D110BD38B50546002940D051F8043CB1
:10328C000C1F002BB8BFE418FFF79CFF1C4A1368F7
:10329C0033B9636014602846BDE83840FFF798BF27
:1032AC00A34208D9206821188B4201BF19685B68BA
:1032BC0009182160EDE71A465B680BB1A342FAD9F5
:1032CC0011685018A0420BD1206801445018834259
:1032DC001160E0D118685B68084410605360DAE74D
:1032EC0002D90C232B60D6E7206821188B4201BF32
:1032FC0019685B680918216063605460CBE738BDBE
:10330C0004070020062008B500F02CF80120FFF778
:10331C00FDFA1F2938B505460C4604D9162303605F
:10332C004FF0FF3038BDC26B12B152F821304BB99F
:10333C00284600F031F8224601462846BDE83840C0
:10334C0000F018B8012B0AD0591C03D116230360C6
:10335C000120E7E70021204642F82410984700207E
:10336C00E0E70000024B01461868FFF7D2BF00BF30
:10337C002C00002038B50023064D044608461146A3
:10338C002B60FFF7C5FA431C02D12B6803B12360F5
:10339C0038BD00BF40080020FFF7C2BA08B5FFF7E0
:1033AC00B1FF0000F8B500BFF8BC08BC9E467047E2
:0C33BC00F8B500BFF8BC08BC9E46704786
:1033C8000D0A3D3D3D205753323831322073747217
:1033D8006970206F7665722053504931202B204444
:1033E8004D413120636833203D3D3D0D0A00535067
:1033F800493D322E32354D487A206C6564733D382C
:10340800206672616D655F62797465733D3732203D
:10341800646D613D444D41315F4368616E6E656C1A
:10342800330D0A005753323831323D6F6B0D0A00A5
:10343800575332383132206672616D65733D000131
:103448000202030405060708090A0B0C0D0E0F10EB
:103458001000000001010000020200000404000046
:103468000808000010100000202000004040000064
:10347800808000000100010402000204040004042A
:103488000800080410001004200020044000400434
:103498008000800400000000010203040000000016
:1034A80000000000010203040607080904000000E8
:1034B80000300140120200000F00000000300140FF
:1034C800120100001C00000000380040120000003B
:1034D800FFFFFFFF000000000000000005000000E3
:1034E80000300140120200001300000000300140CB
:1034F800120100001D00000000380040120000000A
:10350800FFFFFFFF000000000000000006000000B1
:103518000030014012020000140000000030014099
:10352800120100001E0000000038004012000000D8
:10353800FFFFFFFF00000000000000000700000080
:103548000030014012020000150000000030014068
:10355800120100001F0000000038004012000000A7
:10356800FFFFFFFF00000000000000000000000057
:1035780000440040120000000B0000000038014029
:10358800120000001D00000000480040120B00005F
:103598001D01000000480040120A0000FFFFFFFF65
:1035A800000000000000000001000000004400408E
:1035B800120800000C000000003801401200000052
:1035C8001E00000000480040120000001E0100001C
:1035D80000480040120A0000FFFFFFFF0000000043
:1035E8000000000003000000004400401008000034
:1035F8000A00000000380140100600001700000013
:1036080000380140100500001B0000000048004081
:1036180010000000FFFFFFFF000000000000000096
:1036280002000000004400401208000009000000E9
:103638000038014012060000160000000038014062
:10364800120500001A0000000048004012000000A7
:10365800FFFFFFFF00000000000000000000000066
:10366800000000401280000000010000000000403F
:10367800129000000100000000000040121201003A
:1036880001010000000000401210010002000000CB
:1036980000000040129201000201000000000040FA
:1036A8001291010003000000000000401212020005
:1036B8000301000000000040121102000600000093
:1036C800000400401295000007000000002C014093
:1036D800128D1000070100000004004012150100BF
:1036E80008000000002C0140128E000008010000B4
:1036F800002C0140128D000009000000002C014040
:10370800120E010009010000002C0140120D0100F9
:103718000A000000002C0140128E01000A0100007E
:10372800002C0140128D01000B000000002C01400C
:10373800120E02000B010000002C0140120D0200C5
:103748000F00000000000040129100000F0100006F
:1037580000000040128F000010000000002C014003
:10376800120D110010010000000400401295010024
:103778001002000000040040129401001100000033
:10378800002C0140128D11001101000000040040BE
:103798001215020011020000000400401214020079
:1037A8001300000000000040121101001301000086
:1037B80000000040120F0100140000000004004047
:1037C80012940000150000000004004012140100CB
:1037D80016000000000800401297000017000000C3
:1037E80000080040121701001800000000080040FF
:1037F800129701001900000000080040121702008B
:103808001A00000000000040129001001A01000098
:1038180000000040128F01001B0000000000004063
:10382800121002001B01000000000040120F0200ED
:103838001D000000002C0140128E10001E00000028
:10384800002C0140120E11001F000000002C014046
:10385800128E1100FFFFFFFF0000000000000000B3
:1038680014000000150000001600000017000000FA
:1038780018000000190000001A0000001B000000DA
:103888001C0000001D0000001900000018000000C6
:1038980017000000160000001500000014000000CA
:1038A800130000000F0000000C0000000B000000D7
:1038B8000A00000009000000080000001F000000C6
:1038C8001E0000001D0000001C0000002D0000006C
:1038D8002E0000002F000000000000000100000082
:1038E80002000000030000000400000005000000C2
:1038F8000600000007000000100000001100000092
:103908001A0000001B000000120000000D0000005B
:103918000E0000000600070008000000000000007C
:1039280000000000F3290008A12A0008D729000890
:10393800832C0008AD290008512D0008BD29000876
:08394800372E0008592E00087B
:08395000BCC7FF7F010000006D
:10395800892E000841010008ED040008A51D000893
:04396800812D0008A5
:08396C001D0100087D1E00088A
:10397400010000001000000000080140000C01409C
:1039840000100140001401400018014000300240C2
:103994000000000000127A004808002030000020D7
:1039A400000000000807002070070020D80700204E
:1039B4000000000000000000000000000000000003
:1039C40000000000000000000000000000000000F3
:1039D40000000000000000000000000000000000E3
:0C39E400000000000000000000000000D7
:0400000508002EAD14
:00000001FF
