:020000040800F2
:10000000005000200D5800085558000855580008A9
:1000100055580008555800085558000800000000C1
:10002000000000000000000000000000555800081B
:10003000555800080000000055580008FF4300080C
:1000400055580008555800085558000855580008DC
:100050005558000855580008D5450008DB450008EC
:10006000E1450008E7450008ED450008555800083F
:1000700055580008555800085558000855580008AC
:10008000555800085558000855580008555800089C
:10009000555800085558000855580008F345000801
:1000A00055580008F141000855580008054200085D
:1000B000094200081D42000831420008A91B00083F
:1000C000B51B0008C11B0008CD1B000855580008CF
:1000D000555800081D5100083551000851510008BD
:1000E0001B4600085558000855580008000000003D
:1000F0000000000000000000000000000000000000
:0C01000000000000000000005FF808F1A3
:10010C00034613F8012B002AFBD1181A013870474B
:10011C0080F0004002E000BF81F0004142001FBFB0
:10012C005FEA410392EA030F7FEA226C7FEA236CB9
:10013C006AD04FEA1262D2EB1363C1BFD2184140AE
:10014C0048404140B8BF5B42192B88BF704710F044
:10015C00004F40F4000020F07F4018BF404211F0E7
:10016C00004F41F4000121F07F4118BF494292EA4F
:10017C00030F3FD0A2F1010241FA03FC10EB0C007B
:10018C00C3F1200301FA03F100F0004302D5494208
:10019C0060EB4000B0F5000F13D3B0F1807F06D3B5
:1001AC0040084FEA310102F10102FE2A51D2B1F1AD
:1001BC00004F40EBC25008BF20F0010040EA0300A2
:1001CC007047490040EB0000013A28BFB0F5000F22
:1001DC00EDD2B0FA80FCACF1080CB2EB0C0200FAD8
:1001EC000CF0AABF00EBC25052421843BCBFD04027
:1001FC001843704792F0000F81F4000106BF80F4A1
:10020C0000000132013BB5E74FEA41037FEA226C63
:10021C0018BF7FEA236C21D092EA030F04D092F02E
:10022C00000F08BF0846704790EA010F1CBF002062
:10023C00704712F07F4F04D1400028BF40F00040BF
:10024C00704712F100723CBF00F50000704700F0DF
:10025C00004343F0FE4040F4000070477FEA226206
:10026C0016BF08467FEA23630146420206BF5FEAD7
:10027C00412390EA010F40F4800070474FF00003D7
:10028C0004E000BF10F0004348BF40425FEA000C9E
:10029C0008BF704743F0964301464FF000001CE046
:1002AC0050EA010208BF70474FF000030AE000BF9C
:1002BC0050EA010208BF704711F0004302D54042DA
:1002CC0061EB41015FEA010C02BF8446014600204C
:1002DC0043F0B64308BFA3F18053A3F50003BCFA67
:1002EC008CF2083AA3EBC25310DB01FA02FC634414
:1002FC0000FA02FCC2F12002BCF1004F20FA02F21B
:10030C0043EB020008BF20F00100704702F120020D
:10031C0001FA02FCC2F1200250EA4C0021FA02F26E
:10032C0043EB020008BF20EADC7070474FF0FF0C73
:10033C001CEAD0521EBF1CEAD15392EA0C0F93EA6E
:10034C000C0F6FD01A4480EA010C400218BF5FEA10
:10035C0041211ED04FF0006343EA501043EA511183
:10036C00A0FB01310CF00040B1F5000F3EBF49007D
:10037C0041EAD3715B0040EA010062F17F02FD2A81
:10038C001DD8B3F1004F40EBC25008BF20F0010064
:10039C00704790F0000F0CF0004C08BF49024CEA7B
:1003AC00502040EA51207F3AC2BFD2F1FF0340EA0D
:1003BC00C250704740F400004FF00003013A5DDC7E
:1003CC0012F1190FDCBF00F000407047C2F10002BF
:1003DC00410021FA02F1C2F1200200FA02FC5FEAAC
:1003EC00310040F1000053EA4C0308BF20EADC70F6
:1003FC00704792F0000F00F0004C02BF400010F468
:10040C00000F013AF9D040EA0C0093F0000F01F014
:10041C00004C02BF490011F4000F013BF9D041EA36
:10042C000C018FE70CEAD15392EA0C0F18BF93EA38
:10043C000C0F0AD030F0004C18BF31F0004CD8D162
:10044C0080EA010000F00040704790F0000F17BFE9
:10045C0090F0004F084691F0000F91F0004F14D02F
:10046C0092EA0C0F01D142020FD193EA0C0F03D187
:10047C004B0218BF084608D180EA010000F000408A
:10048C0040F0FE4040F40000704740F0FE4040F465
:10049C00400070474FF0FF0C1CEAD0521EBF1CEA04
:1004AC00D15392EA0C0F93EA0C0F69D0A2EB030222
:1004BC0080EA010C49024FEA402037D04FF08053BC
:1004CC0043EA111143EA10130CF000408B4238BF81
:1004DC005B0042F17D024FF4000C8B4224BF5B1A8F
:1004EC0040EA0C00B3EB510F24BFA3EB510340EADD
:1004FC005C00B3EB910F24BFA3EB910340EA9C008B
:10050C00B3EBD10F24BFA3EBD10340EADC001B01FA
:10051C0018BF5FEA1C1CE0D1FD2A3FF650AF8B429E
:10052C0040EBC25008BF20F0010070470CF0004CAB
:10053C004CEA50207F32C2BFD2F1FF0340EAC250D6
:10054C00704740F400004FF00003013A37E792F097
:10055C00000F00F0004C02BF400010F4000F013AF5
:10056C00F9D040EA0C0093F0000F01F0004C02BFF0
:10057C00490011F4000F013BF9D041EA0C0195E759
:10058C000CEAD15392EA0C0F08D142027FF47DAFF2
:10059C0093EA0C0F7FF470AF084676E793EA0C0FE2
:1005AC0004D14B023FF44CAF08466EE730F0004CE0
:1005BC0018BF31F0004CCAD130F000427FF45CAF70
:1005CC0031F000437FF43CAF5FE700BF4FF0FF3CDE
:1005DC0006E000BF4FF0010C02E000BF4FF0010C31
:1005EC004DF804CD4FEA40024FEA41037FEA226CFA
:1005FC0018BF7FEA236C11D001B052EA530C18BF1C
:10060C0090EA010F58BFB2EB030088BFC81738BF80
:10061C006FEAE17018BF40F0010070477FEA226C6E
:10062C0002D15FEA402C05D17FEA236CE4D15FEA6A
:10063C00412CE1D05DF8040B704700BF844608469E
:10064C006146FFE70FB5FFF7C9FF002848BF10F15F
:10065C00000F0FBD4DF808EDFFF7F4FF0CBF0120A4
:10066C0000205DF808FB00BF4DF808EDFFF7EAFF2E
:10067C0034BF012000205DF808FB00BF4DF808EDE9
:10068C00FFF7E0FF94BF012000205DF808FB00BFDE
:10069C004DF808EDFFF7D2FF94BF012000205DF864
:1006AC0008FB00BF4DF808EDFFF7C8FF34BF012071
:1006BC0000205DF808FB00BF4FEA4002B2F1FE4F8C
:1006CC000FD34FF09E03B3EB12620DD94FEA002308
:1006DC0043F0004310F0004F23FA02F018BF4042E1
:1006EC0070474FF00000704712F1610F01D14202C8
:1006FC0005D110F0004008BF6FF0004070474FF07C
:10070C000000704742000ED2B2F1FE4F0BD34FF0F7
:10071C009E03B3EB126209D44FEA002343F000436B
:10072C0023FA02F070474FF00000704712F1610F8E
:10073C0001D1420202D14FF0FF3070474FF0000060
:10074C00704700BF10B5054C237833B9044B13B177
:10075C000448AFF300800123237010BD7C000020FF
:10076C0000000000A072000808B5034B1BB1034940
:10077C000348AFF3008008BD00000000800000209B
:10078C00A07200082DE9F04F0127214E214D013AAE
:10079C0012F8013F0BB9BDE8F08F203BDBB23B2BCD
:1007AC0028BF002380B2844603EB830300F10509C4
:1007BC0033441FFA89F9BCF17F0F0AD90CF1010CF3
:1007CC001FFA8CFCCC4503F10103F4D1063000B2C6
:1007DC00DEE74FF0000E93F800A04AFA0EF4E4079F
:1007EC000FD501EB0E0444F3CC080CEBC81815F82C
:1007FC0008B004F0070407FA04F444EA0B0405F803
:10080C0008400EF1010EBEF1070FE6D1D6E700BF8E
:10081C00DB730008A4200020024A13680133136024
:10082C00704700BFA00000202039C9B23B2928BF67
:10083C0000210F4BF0B501EB81010E4E1944451D03
:10084C00002311F8017B841947FA03F2D2074CBF3D
:10085C00FF22227803F1010358BF02F04002072B5C
:10086C0004F8802BF0D10130A842E9D1F0BD00BFD3
:10087C00DB730008A4000020012A02D101600020D3
:10088C007047022A05D0032AF9D0002AF7D102605A
:10089C00F5E70B680360F2E7036818470368C9B211
:1008AC001B68184710B504463C21084800F0D8FDD9
:1008BC0000210648FFF7F2FF2146044800F029FE0C
:1008CC00BDE81040014800F099BE00BF182500207B
:1008DC00F8B500251A4E3C211A4800F0C1FD002144
:1008EC001848FFF7DBFF65F04F011648C9B2FFF758
:1008FC00D5FF00211348FFF7D1FF10211148FFF756
:10090C00CDFF104800F07AFE3C210E4800F0A8FD07
:10091C0040210C48FFF7C2FF37468024013C17F8F2
:10092C00011B0848A4B200F0F4FD002CF6D10548D8
:10093C00013500F063FE082D06F18006CBD1F8BD21
:10094C00A4200020182500201FB506224FF4E13109
:10095C00504804F0F1FD50494E4804F06DFE4F49EB
:10096C004C4804F069FE4E494A4804F065FE0121EA
:10097C000C2004F06BFF0121C42004F067FF01215F
:10098C000E2004F063FF01210C2004F0BDFF0121B7
:10099C00C42004F0B9FF00210E2004F0B5FF0121A2
:1009AC00112004F053FF0121112004F0ADFF0021B0
:1009BC003C4800F0C5FA00213B4800F0E7FE00235C
:1009CC0001933A4B04220093394B69460393394BFC
:1009DC000F20029304F072FE029B1BB103226946A6
:1009EC0068469847AE20FFF75DFF2020FFF75AFFBF
:1009FC000020FFF757FF8D20FFF754FF1420FFF75F
:100A0C0051FFA820FFF74EFF3F20FFF74BFFD320ED
:100A1C00FFF748FF0020FFF745FF4020FFF742FF9C
:100A2C00A120FFF73FFFC820FFF73CFFDA20FFF7BC
:100A3C0039FF1220FFF736FF8120FFF733FFCF205D
:100A4C00FFF730FFD520FFF72DFF8020FFF72AFF9F
:100A5C00AF20FFF727FF4FF480620021164805F006
:100A6C00F2F80021154A0846FFF78CFE10210020F1
:100A7C00134AFFF787FE20210020124AFFF782FE5F
:100A8C00FFF726FF1049034805B05DF804EB04F0AE
:100A9C00D3BD00BF64270020B8720008D4720008D0
:100AAC00DE720008A4240020182500202508000868
:100ABC00A508000885080008A4200020127300086F
:100ACC001D73000829730008327300082DE9F04FDC
:100ADC0095B004F053FF4FF47A73B0FBF3F5BC4BB5
:100AEC001A68AA4200F065811821BA4A1D6004A850
:100AFC002B4605F059F84FF480620021B64805F0FA
:100B0C00A2F80021B54A0846FFF73CFE1021002050
:100B1C00B34AFFF737FEB34E0DEB01020020202144
:100B2C00FFF730FE30210020AF4AFFF72BFE336871
:100B3C001821AE4A04A805F037F830211E2004AA6B
:100B4C00FFF720FEFFF7C4FE4FF400520021A84827
:100B5C0005F079F84C210020FFF766FE43210620B2
:100B6C00FFF762FE44210C20FFF75EFE3D211220B0
:100B7C00FFF75AFE20211820FFF756FE2B469D4A00
:100B8C00182104A805F010F81E209DF81010FFF78E
:100B9C004BFE24209DF81110FFF746FE2A209DF8ED
:100BAC001210FFF741FE30209DF81310FFF73CFEAA
:100BBC006423B5FBF3F403FB1454A401B4FBF3F46A
:100BCC0000278D4BE4B2FAB2944200F2F880002177
:100BDC000C2004F099FE0022FB21884800F0C6F995
:100BEC004FF40054824F013C002217F8011B83483C
:100BFC00A4B200F0BBF9002CF5D12246FC217F48B1
:100C0C0000F0B4F901210C2004F07EFE42F21073C6
:100C1C00B5FBF3F74FF47A7A03FB17572146C42040
:100C2C0004F072FEB7FBFAF3DFF8D491224619F800
:100C3C000310724800F09AF964234FF00A08B7FBCE
:100C4C00F3F3B3FBF8F208FB12336C4819F80310FA
:100C5C00224600F08BF9B7FBF8FBBBFBF8F308FB63
:100C6C0013B308FB1B7719F803102246634800F0F6
:100C7C007DF94FEAC50B224619F807105F4800F0C2
:100C8C0075F95FFA8BFB0121C42004F03DFE584638
:100C9C00FFF7F8FA5B49FFF749FB5B49FFF7FAFBF3
:100CAC0005F0B6FB5949FFF741FB4FF08641FFF7C2
:100CBC0035FAFFF727FDDFF858915FFA80F889F8CD
:100CCC0000800BF17800FFF7DDFA4E49FFF72EFBA1
:100CDC004D49FFF7DFFB05F09BFB4C49FFF726FB6B
:100CEC004FF08641FFF71AFAFFF70CFDC7B289F8EF
:100CFC0001700BF1F000FFF7C5FA4249FFF716FB44
:100D0C004149FFF7C7FB05F083FB4049FFF70EFB9A
:100D1C004FF08641FFF702FAFFF7F4FC4FF08043E7
:100D2C004721C2B289F8022099626821C3F82CA02D
:100D3C0099610821FF20D96140F211110AFB08F8D2
:100D4C000AFB07F71962B7FBF0F7B8FBF0F10AFBE7
:100D5C0002F25963B2FBF0F29F630127DA63394662
:100D6C001F600E2004F0D0FD2146112004F0CCFDB4
:100D7C00C82004F005FE21460E2004F0C5FD3946BE
:100D8C00112004F0C1FD282199F802203368039248
:100D9C0099F801200DEB0100029299F80020CDE9A1
:100DAC0000322B461B4A04F0FFFE1B480AA904F034
:100DBC0043FC0A2015B0BDE8F04F04F0E1BD184625
:100DCC004022FF2104F03FFF034601378033FAE64F
:100DDC009800002063730008A42000201273000800
:100DEC001D730008A00000206D73000872730008CA
:100DFC00A400002067730008A4040020A424002091
:100E0C00D1730008D00F4940000034430000FE426B
:100E1C009C00002076730008642700202DE9F04127
:100E2C001C4601231646434A0D46C0E91B230021EC
:100E3C005C220746DDF8188004F005FFF3B2222B84
:100E4C0028D83D4A06F4E06652F823301E43EBB234
:100E5C00222BFE6532D8384A05F4E06552F823306F
:100E6C001D43E3B2222B3D663CD8334A04F4E064C4
:100E7C0052F823301C435FFA88F2222A7C6645D84C
:100E8C002D4908F4E06351F8222013433846BB6621
:100E9C00BDE8F08106F0C002C02A0CD1C92B0AD8DB
:100EAC00264B06F03F0253F82220234B06F4E06653
:100EBC0053F82230CAE74FF0FF36C8E705F0C002FE
:100ECC00C02A0CD1C92B0AD81C4B05F03F0253F891
:100EDC002220194B05F4E06553F82230C0E74FF09F
:100EEC00FF35BEE704F0C002C02A0CD1C92B0AD8CA
:100EFC00124B04F03F0253F822200F4B04F4E06431
:100F0C0053F82230B6E74FF0FF34B4E708F0C003D3
:100F1C00C02B0CD1C92A0AD8084B08F03F0253F851
:100F2C002210054A08F4E06352F82120ADE74FF097
:100F3C00FF33ABE700093D00D8790008B079000811
:100F4C0037B501230D460022074980F85120C166B0
:100F5C0080F8703080F8712080F87250009500F0A5
:100F6C0051F803B030BD00BF00093D0007B5002AA1
:100F7C008DF807100DF107014FF001030CBF0A4665
:100F8C00002200F07FF99DF8070003B05DF804FB28
:100F9C00232307B5C6220093C721C5230248FFF7B8
:100FAC003DFF03B05DF804FBA424002091FAA1F3EB
:100FBC00B3FA83F370B50D0E0F2691FAA1F1B1FAC5
:100FCC0081F144599B0006FA03F3890024EA0304D7
:100FDC008A402243425170BD0346074A10684BB108
:100FEC00064A934201D102F0A9BB054A934201D1B2
:100FFC0002F094BB704700BF240000200030014079
:10100C00003800402DE9F74F0E4615461F460446A2
:10101C00002800F0F2809249006E03F08FFD914998
:10102C008146E06D03F08AFD8F498346606E03F0C4
:10103C0085FD8E498046A06E03F080FD8246B9F195
:10104C00000F00F0DA80BBF1000F00F0D680B8F191
:10105C00000F00F0D2805946484603F086FD5146F9
:10106C008146404603F081FD01468046484603F028
:10107C007CFDA065B9F1000F00F0BF80B8F1000F46
:10108C0000F0BB80002800F0B880A26E9DF83030D4
:10109C00511C0CBF4FF400724FF48022002B14BF74
:1010AC0000234FF48273A26120606360FFF794FF0A
:1010BC00B6EB500F80F0A480B6EB900F80F0A280BE
:1010CC00B6EBD00F80F0A080B6EB101F80F09E80A6
:1010DC00B6EB501F80F09C80B6EB901F80F09A808E
:1010EC00B6EBD01F2CBF30233823E361002D00F06A
:1010FC009380022D00F09280013D18BF0125012341
:10110C006D00C4E904530723E362B7FA87F30026A2
:10111C005B09DB01C4E908365149206EA660A66262
:10112C00E66003F0F3FC4F49E06D03F0EFFC4E4931
:10113C00606E03F0EBFC2369B342636E18BF0125AC
:10114C00C3F3031208BF0225042A8CBF304648495A
:10115C0003F00F0398BF51F82200464A022D52F8B3
:10116C00231091FAA1F24FEA1163B2FA82F2C65837
:10117C004FF00F034FEA820203FA02F391FAA1F245
:10118C00B2FA82F203EA06034FEA820223FA02F36E
:10119C004FEA112544D0042B02D10822FFF706FF99
:1011AC00C268012322EA050295FAA5F5B5FA85F580
:1011BC00AB401343C3602D49A06E03F0A7FC23681A
:1011CC002D4A934235D12D4B9A6942F480529A6143
:1011DC009A6902F480520092009ADA6842F48052C2
:1011EC00DA60DA6822F48052DA60204602F031FBD1
:1011FC002268136843F04003136003B0BDE8F08F1E
:10120C00002372E7082370E710236EE718236CE7BE
:10121C0020236AE7282368E72B4672E7002370E750
:10122C00042B02D10822FFF7C1FEC36823EA050391
:10123C00C0E7134A9342D8D1104BDA6942F480428A
:10124C00DA61DA6902F480420192019A1A6942F475
:10125C0080421A611A6922F480421A61C5E700BF04
:10126C002C760008FC750008CC7500089C750008ED
:10127C0008000020447500080030014000100240B6
:10128C00003800402DE9F0410D4616461C4633B39C
:10129C00076800F0DFFC8046BB689907FCD5D5B128
:1012AC0015F8013B3B73BB68DA07FCD53B7B0EB1F1
:1012BC0006F8013B00F0CEFCA0EB0800B0F57A7FFD
:1012CC0004F1FF3409D2002CE6D12046BB681B0682
:1012DC00FCD4BDE8F081FF23E4E70120F6E702200F
:1012EC00F7E700207047028BC08A101A704703463C
:1012FC00C28A018B914281BF0169885C0132DA821A
:10130C0098BF4FF0FF307047028BC38A9A4286BF5A
:10131C000269D05C4FF0FF307047806DD0F8DC3044
:10132C002BB10023D43020F8B23CC3681847704767
:10133C00836810B5044613B1032201469847204632
:10134C0010BD000070B54FF47A730E460021C0E951
:10135C000113034615462B4A044643F8C42BC0F828
:10136C00C4109C22C3E90111C0E93411C0E9361143
:10137C00C0F8E010283004F066FCF3B2222B19D828
:10138C00214A06F4E06652F823301E43EBB2222BBE
:10139C00C4F8846022D81C4A05F4E06552F8233066
:1013AC001D4300232046C4F88850E3612384236145
:1013BC00A38270BD06F0C002C02A0CD1C92B0AD87A
:1013CC00124B06F03F0253F822200F4B06F4E06656
:1013DC0053F82230D9E74FF0FF36D7E705F0C002BB
:1013EC00C02A0CD1C92B0AD8084B05F03F0253F880
:1013FC002220054B05F4E06553F82230D0E74FF07E
:10140C00FF35CEE70C750008D8790008B0790008D4
:10141C0038B50446283000F085FAE06918B104F0BC
:10142C00D7FA0023E36100252069258410B104F06C
:10143C00CFFA2561A58238BD38B505460446074B61
:10144C0045F8D43BFFF7E4FF2846FFF771FF04F1A2
:10145C00C400FFF76DFF204638BD00BF0C750008B7
:10146C000123994080F8243000238176438470470F
:10147C0038B5838A05468B420C4609D2202938BFE1
:10148C0020240069214604F059FB10B12861AC827C
:10149C0038BDFEE773B5846D0546D4F8CC30866E46
:1014AC00E3B1E28A238B9A4218D331462046FFF7E8
:1014BC00DFFF3246206905F1740104F003FC0023C0
:1014CC00E382D4F8CC30268301960BB905F0DEFE0E
:1014DC00D4F8D03001A904F1C400984702B070BD13
:1014EC00B1F5806F70B505460C4610D8038C994247
:1014FC000AD920290E4638BF2026C069314604F08F
:10150C001DFB18B1E8612E84204670BDFEE7002457
:10151C00FAE713B590F8243004468DF807107BB128
:10152C00418C0131FFF7DCFF40B10120638C9DF849
:10153C000710E269D154638C0133638402B010BD8F
:10154C0001220DF10701283000F02AFAB0FA80F0E0
:10155C004009F3E770B590F8243004460E46154662
:10156C0093B1418C1144FFF7BBFF10B900252846FD
:10157C0070BD638CE0692A461844314604F0A2FB26
:10158C00638C2B446384F2E792B2283000F008FAA3
:10159C000028EBD1EBE70346006918B100219A8AC9
:1015AC0004F051BB70470346C06918B100211A8C76
:1015BC0004F049BB704738B50446D1B94FF42A033F
:1015CC00A36594F8BE30012B16D1638CE269A17E21
:1015DC0004F1280000F01DFA042828BF0420C5B22D
:1015EC002046FFF7E0FF0023638484F8243028466C
:1015FC0038BD4FF02A43E3E70425F8E70121FFF754
:10160C00DABF38B500250446C5820583FFF7C3FF52
:10161C0020466584FFF7C7FF38BD0000F8B50446C7
:10162C00D0F8840004F0D2F8002104F00FF9D4F8BB
:10163C008420C2F30313042B48D8284D284E55F8A8
:10164C00233002F00F029B6856F82220DB4303EA9A
:10165C0012239BB2002B3FD0D4F8880004F0B6F8CC
:10166C00012104F0F3F81F4BD4F888001B681E4CC2
:10167C00C0F30311B3FBF4F30A24042904FB03F3B2
:10168C0000F00F0225D8142756F82220174CC2F36D
:10169C000F2255F821C0CCF81420D4F804E0666869
:1016AC00A6EB0E06B342FADCCCF81020D4F804C03A
:1016BC006668A6EB0C06B342FADC013FE9D104F0F4
:1016CC0085F83946BDE8F84004F0C0B800239B68A3
:1016DC00FFDE00235B61FBE7F8BD00BF08000020C4
:1016EC00447500082400002040420F00001000E068
:1016FC002DE9F04100250446C58205831F460E46A0
:10170C009046FFF748FF20466584A576FFF74BFF10
:10171C00D4F8DC30C4F8804033B104F1D401032296
:10172C0008469847C4E937550023012E84F8243025
:10173C004FEA460384F825300CBF0123002384F8BC
:10174C00BF8084F8BE3084F8C07002D12046FFF709
:10175C0065FF04F12805284694F82520084900F077
:10176C0029F894F8BE304BB92846064900F0A9F97F
:10177C002846BDE8F041044900F09CB9BDE8F08171
:10178C00A086010027130008A11400080A460023B4
:10179C000121FFF7ADBF0000032202210148FFF732
:1017AC00D1BD00BF182500200148FFF745BE00BF82
:1017BC0018250020F7B50D4617460446002800F002
:1017CC009F805049C06D03F0B9F94F490646206E11
:1017DC0003F0B4F90146002E00F09280002800F0CE
:1017EC008F80304603F0C1F92060002800F088801B
:1017FC00464B261D984260D103F5DE33DA6942F47C
:10180C000012DA61DA6902F400120092009A1A6985
:10181C0042F400121A611A6922F400121A6142F29F
:10182C001F03A4F864303A4B1E603749206E03F056
:10183C006DF93449E06D03F069F9364B21689D422E
:10184C0058D9354B9D4203D9344B9D4288BF002358
:10185C004FF480420025C4E901134FF48043C4E9DE
:10186C00053594F8973002215B1B18BF01239B01AF
:10187C00236294F89830C4E903275B1B18BF01233B
:10188C00DB0163622A4694F96400E56184F84150F7
:10189C0000F0F8F994F9640000F024FA2A460221C9
:1018AC0094F9650000F0EEF994F9650000F01AFA6D
:1018BC00304600F009FCF8B1FEE7194B9842B4D160
:1018CC0003F5DC33DA6942F48002DA61DA6902F496
:1018DC0080020192019A1A6942F480021A611A6913
:1018EC0022F480021A6142F22123A4F86430084BDE
:1018FC005E609AE70022ADE70223A06684F895307B
:10190C0003B0F0BD80790008507900080054004005
:10191C00FC250020A0860100801A060040420F0022
:10192C000058004010B5044690F9640000F0E8F946
:10193C0094F9650000F0E4F9201D00F06EFC032121
:10194C00206E03F023F80321E06D03F01FF82368E9
:10195C00104A93420DD1104B1A6942F400121A61CD
:10196C001A6922F400121A61DA6922F40012DA619F
:10197C0010BD0A4A9342FBD1074B1A6942F480020C
:10198C001A611A6922F480021A61DA6922F480025F
:10199C00EDE700BF0054004000100240005800402A
:1019AC00202A30B514D800239CB2A24207D890F854
:1019BC0094301344DBB280F89430002030BD90F8A2
:1019CC009440CD5C1C44044484F874500133EBE720
:1019DC000120F3E710B564230446043000F036FC14
:1019EC00022810D0032806D090B194F84130202B57
:1019FC0018BF042004E094F84130202B18BF0520B8
:101A0C0008BF022004E094F84130202B18BF0620B8
:101A1C0010BD2DE9F34704460E4691461F4600F0D3
:101A2C0019F980463FB901223146204602B0BDE883
:101A3C00F047FFF7CFBF0025D4F830A004343B4665
:101A4C004A4631462046CDF800A000F0ABFC0228F7
:101A5C0007D100F0FFF8A0EB0805642DEFD90620A4
:101A6C001FE008BB00F0F6F80646204601F0F2FB3A
:101A7C00202809D0632D07D800F0ECF8851B2046F0
:101A8C0001F0EBFB0028F0D0204601F0E6FB632DC3
:101A9C000CD882060AD443070AD4003818BF012098
:101AAC00800002B0BDE8F0870420FAE70520F8E7D3
:101ABC000320F6E720B119B1C166043000F050BD27
:101ACC00704720B119B10167043000F049BD70476F
:101ADC0070B590F891300446012B0D46A0F1040628
:101AEC0009D1436E3BB1836E30469847022384F88C
:101AFC009130002363668DB9E36E84F891501BB16D
:101B0C00304684F890509847204694F8902004F181
:101B1C0070012023BDE8704000F0ACBC0023012212
:101B2C00636684F89120616E20467431314404233D
:101B3C00BDE8704000F0D9BC10B590F89130044667
:101B4C00012B04D1436E13B1836E043898470223E2
:101B5C0084F89130002320466366BDE8104000F005
:101B6C00FFBC436E1F2BDEBF436E0133436690F800
:101B7C009130012BDAB205D1416E0423703101444E
:101B8C0000F0B3BC7047002380F89030704790F899
:101B9C0092300BB900F0E4BC70470000014B1868A0
:101BAC0000F05EBEFC250020014B186801F0B2BAB3
:101BBC00FC250020014B586800F052BEFC2500208B
:101BCC00014B586801F0A6BAFC25002070470000B4
:101BDC0038B50E4B05461A784FF47A73B3FBF2F313
:101BEC000B4A1068B0FBF3F000F09CF8044658B9AF
:101BFC000F2D09D8024629464FF0FF3000F042F86D
:101C0C002046044B1D6038BD0120FCE7000000207D
:101C1C002400002004000020074A08B513680320A4
:101C2C0043F01003136000F01BF80020FFF7D0FF07
:101C3C00FFF7CCFF002008BD00200240034A044BF4
:101C4C0011681B780B441360704700BF04260020FA
:101C5C0000000020014B1868704700BF04260020CC
:101C6C0007490302CA6803F4E06322F4E062120439
:101C7C00120C134343F0BF6343F40033CB60704743
:101C8C0000ED00E0154B30B5DC68C4F30224C4F160
:101C9C000703251D042B28BF0423062D4FF0FF3509
:101CAC0094BF0024033C05FA03F321EA0303A54087
:101CBC0022EA0502A340002843EA0203ACBF00F16C
:101CCC006040074A4FEA0313DBB2ABBF00F561403B
:101CDC0000F00F0080F80033135430BD00ED00E02D
:101CEC0014ED00E0002807DB01234109034A00F052
:101CFC001F00834042F82130704700BF00E100E034
:101D0C0000280CDB01220649430900F01F00824029
:101D1C00203341F82320BFF34F8FBFF36F8F7047F1
:101D2C0000E100E00138B0F1807F0BD24FF0E023EE
:101D3C00F021054A586182F823100020072298618F
:101D4C001A6170470120704700ED00E0002808DBA5
:101D5C0001224309034900F01F008240603341F81F
:101D6C002320704700E100E0704708B5FFF7FCFF47
:101D7C0008BD704710B5044650B1437903F0FF021B
:101D8C0013B90271FFF7F5FF01230020637110BD39
:101D9C000120FCE790F821200346022A06D00422F9
:101DAC0082630120002283F8202070470268C06BF8
:101DBC00116821F00E011160116821F00101116010
:101DCC0001211A6C01FA02F24260002083F8211002
:101DDC00E8E7000008B590F82130022B03D004236B
:101DEC008363012008BD03681A6822F00E021A6092
:101DFC001A6822F001021A60174A93421FD014325B
:101E0C0093421ED0143293421DD0143293421DD0F3
:101E1C00143293421DD01432934214BF4FF080738E
:101E2C004FF480130D4A5360012380F821300023B6
:101E3C0080F82030436B03B198470020D2E7012390
:101E4C00F0E71023EEE74FF48073EBE74FF4805389
:101E5C00E8E74FF48033E5E7080002400000024059
:101E6C0090F82100704700002DE9F74F00244FF047
:101E7C000F0E2646DFF884C1614B00F104080A6896
:101E8C0032FA06F502D103B0BDE8F08F012505FA50
:101E9C0006F702EA070537EA020276D14A68032AF6
:101EAC0007D8013A022A00F28380DFE802F091960B
:101EBC009C00122A00F0948069D8112A00F08A80C4
:101ECC00FF2D94BF8146C1464FEA8602D9F80070B7
:101EDC0088BF203A0EFA02FA27EA0A0704FA02F23D
:101EEC001743C9F80070D1F8049019F0805F4CD0FA
:101EFC00DCF8182026F0030742F00102CCF8182079
:101F0C00DCF8182007F1804702F00102019207F576
:101F1C00803706F0030A019A4FEA8A0ABA680EFA69
:101F2C000AFB22EA0B0B374A904260D002F5806222
:101F3C0090425ED002F5806290425CD002F58062E5
:101F4C00904214BF0422032202FA0AF242EA0B0264
:101F5C00BA609A6819F4801F14BF2A43AA439A6086
:101F6C00DA6819F4001F14BF2A43AA43DA605A68CE
:101F7C0019F4003F14BF2A43AA435A601A6819F493
:101F8C00803F14BF2A43AA431A60013677E7DFF873
:101F9C0078904A450CD014D8A9F580194A4507D039
:101FAC0009F570294A4503D0A9F580194A4587D10E
:101FBC008A68D2B1012A4FF008040CBF076147614F
:101FCC007EE7DFF848904A45F2D009F58039EDE715
:101FDC00CC6875E7CC68043472E7CC6808346FE7DA
:101FEC00CC680C346CE700246AE7042468E7002210
:101FFC00AAE70122A8E70222A6E700BF00100240D0
:10200C0000040140000801400000221000003110C3
:10201C00044A08B55169014202D0506102F0BEFA7F
:10202C0008BD00BF000401402DE9F84606460F46E6
:10203C0091461D464FEA114A3368BAF1010F39D166
:10204C005C6927EA0404A4B2B4FA84F46409A145D7
:10205C0001D0002024E06A1CEFD0FFF7FBFD089BA9
:10206C00C01AA84201D8002DE6D1BAF1010F33688D
:10207C0018D15B6927EA03039BB2B3FA83F35B09BC
:10208C009945D9D1002320220120336386F83D20C5
:10209C0086F83E30326C86F83C3042F020023264D6
:1020AC00BDE8F8869B69DB43C3F3400383F001036F
:1020BC00DBB2E5E79C69E443C4F3400484F001041B
:1020CC00E4B2C4E77047000070B5044608B90120BB
:1020DC0070BD90F83D3003F0FF021BB980F83C2036
:1020EC00FFF7F0FF242384F83D3023681A6822F0B0
:1020FC0001021A601A6842F400421A601A6822F44B
:10210C0000421A6001F00AFB3F4B65689D4294BF88
:10211C003E4B3F4B98428CBF00230123002BD6D162
:10212C00394E3C4BB542B0FBF3F388BF4FF4967677
:10213C002268516821F03F0141EA030182BF7343D9
:10214C004FF47A76B3FBF6F35160116A013321F048
:10215C003F010B431362D169431E2B4821F44F41BD
:10216C00854221F0FF0132D86D00B3FBF5F340F648
:10217C00FC700133034242D0C3F30B031943D1610A
:10218C001168D4E9073021F0C00103430B431360FD
:10219C009168D4E9030321F40341034321F0FF01C7
:1021AC000B439360D168D4E9053021F0FF01034360
:1021BC000B43D3601368002043F00103136020230A
:1021CC00206484F83D30206384F83E0080E7A068EA
:1021DC0050B905EB4505B3FBF5F30133C3F30B0322
:1021EC007BB143F40043C9E719206843B3FBF0F318
:1021FC000133C3F30B0323B143F44043BEE7042381
:10220C00BCE70123BAE700BFA08601007F841E0053
:10221C00FF083D0040420F00704710B5044698B1CE
:10222C002423026880F83D30136823F00103136007
:10223C00FFF7F2FF0020206484F83C0084F83D0096
:10224C00206384F83E0010BD0120FCE72DE9FF4718
:10225C0004461F4689469246FFF7FCFC94F83D3035
:10226C000546202B03D0022004B0BDE8F087009077
:10227C001923012220464949FFF7D6FE0028F2D146
:10228C0094F83C30012BEED0012384F83C302368C9
:10229C0000261A6809F0FE09D2075EBF1A6842F0E0
:1022AC0001021A601A6822F400621A60242384F86E
:1022BC003D303B4B2664E36222684FF001111368FA
:1022CC00204643F4807313603B4600220095FFF7D1
:1022DC00ABFE236838B11B680320DB0544BF4FF409
:1022EC0000732364C0E7C3F81090FFF7B3FC4FF002
:1022FC00A0080546226853695269C3F34003C2F330
:10230C00802294F83D10A02901D013431DD04FF02A
:10231C002008206884F83D80436913F0020F03689D
:10232C0043F40073036025D0002303934369012217
:10233C000393836919490393039B20461923009542
:10234C00FFF772FE88B101208EE7FFF783FC401B7C
:10235C00B84200D80FB984F83D802268536952699D
:10236C00C3F34003C2F38022CBE784F83D8084F8AA
:10237C003C0079E76FF4806301224361074919231C
:10238C0020460095FFF750FE0028DCD1013656455B
:10239C0092D384F83D8084F83C00D4E7020010000E
:1023AC000000FFFFF7B5002504460095019594F851
:1023BC003D500898202D02D0022003B0F0BD2568B6
:1023CC002E68B60503D4082801D001281BD146F28B
:1023DC00A817274E3668B6FBF7F619277E430196E9
:1023EC00019E013E0196019E56B92023266384F876
:1023FC003D3084F83E60236C43F020032364DBE71C
:10240C00AE69B707ECD494F83C60012ED4D02E689A
:10241C00F6075EBF2E6846F001062E602E6826F485
:10242C0000662E60212684F83D60102684F83E60FC
:10243C00002626646385638DE06261642385236BCB
:10244C0062620093009B112B05D1B0F52A0F02D0CC
:10245C00B0F12A4F03D12B6843F480732B6000201A
:10246C0084F83C006B6843F4E0636B60A5E700BF45
:10247C002400002037B5044690F83D0000F02800F9
:10248C00282830D100292CD0002A2AD094F83C00DE
:10249C00012828D025682868C0075EBF286840F04E
:1024AC0001002860286820F400602860292084F846
:1024BC003D00202084F83E00002020646285628D5F
:1024CC00E36201906B6961620193AB6984F83C0033
:1024DC000193019B6B68228543F4E0636B6003B04E
:1024EC0030BD0120FBE70220F9E737B5044690F830
:1024FC003D0000F02800282830D100292CD0002ADB
:10250C002AD094F83C00012828D025682868C007F8
:10251C005EBF286840F001002860286820F4006045
:10252C0028602A2084F83D00202084F83E000020FA
:10253C0020646285628DE36201906B696162019334
:10254C00AB6984F83C000193019B6B68228543F4D2
:10255C00E0636B6003B030BD0120FBE70220F9E7BC
:10256C0090F83D30202B14D1282380F83D3003689F
:10257C0000201A68D2075EBF1A6842F001021A6086
:10258C001A6842F480621A605A6842F440725A60C7
:10259C0070470220704770477047704790F83D2095
:1025AC0008B5036DD2B283B9C36C0268012B836C7E
:1025BC0005D1DBB21361036D0233036508BDC3F3B0
:1025CC0007231361036D0133F7E7036D012B03D16F
:1025DC00836C0268DBB2F4E7036D022B2FD1222A45
:1025EC0005D10268136843F480731360EAE7438DE6
:1025FC009BB263B1212A0AD1436A026813F8011B0A
:10260C0011614362438D013B9BB24385D6E7438DF9
:10261C009BB2002BD2D1212AD0D10268516821F46F
:10262C00E0615160116841F4007111602022036374
:10263C0080F83D2080F83E30FFF7AFFFBEE703681F
:10264C005A69120644BF00221A61B7E770477047F7
:10265C00002337B546F2A81101932C4B406A1B6836
:10266C0090F83D20B3FBF1F323214B430193036816
:10267C00D2B2019941BB016C41F020010164446B61
:10268C000CB10021A162816B09B100258D621D681E
:10269C0025F480651D600025458504B1656301B195
:1026AC004D63196821F00101196090F83D10602903
:1026BC0011D1202380F83D30002380F83E30036494
:1026CC00FFF7C5FF03B030BD0199013901911968BD
:1026DC008905CED4D3E702F02802282A0ED1196836
:1026EC0041F001011960196841F4806119600023FF
:1026FC00036380F83D20FFF74AFAE3E7202380F8D4
:10270C003D30002380F83E30F5E700BF2400002068
:10271C0010B590F83D2090F83E300446102BD9B2FD
:10272C00D2B2036801D0402913D1222A11D11968E1
:10273C0021F400611960596811F4006106D1602A16
:10274C001EBF202284F83D2084F83E100022226314
:10275C0007E002F028012829EDD10022226384F839
:10276C003D105A6812F400624FD05A68606B22F424
:10277C0000625A6090F82130012B374B2BD0436309
:10278C00FFF728FB50B12268606B136823F001033C
:10279C001360202384F83D30436B9847236C190752
:1027AC001FBF2268536823F4E063536094F83D30F4
:1027BC00226CDBB252070DD5282B0BD1274B2022D4
:1027CC00E36200232046236384F83D2084F83E30E6
:1027DC00FFF7B2F910BDA06B4363FFF7FBFA0028BB
:1027EC00DCD023685A69510605D51A69636A1A70D8
:1027FC00636A013363622268A06B136823F00103E0
:10280C001360202384F83D30C6E794F83D1060290E
:10281C0015D1202184F83D1022645A69520605D541
:10282C001A69636A1A70636A01336362226820460C
:10283C00136823F001031360FFF709FFAEE75A6931
:10284C00500605D51A69636A1A70636A01336362AC
:10285C002046FFF79CF9A1E75D2600080000FFFF6A
:10286C00F0B5044603688FB05A68C66A90F83E000B
:10287C0094F83D101028C5B2C9B202D0402D40F0DA
:10288C00E5829F69586910F0010F07D1B6F52A0F40
:10289C0002D0B6F12A4F51D10FB0F0BD96054DD5EF
:1028AC00E26AB2F52A0F0CD10122E26294F83E20C2
:1028BC00402A11D1226D52B9626C02F0FE021A61EB
:1028CC00EAE7E26AB2F12A4FF0D10822EDE7626C36
:1028DC0042F00102D2B2F2E72269B2F5804F1AD16E
:1028EC0094F83D20212A626C11D102F0FE021A618B
:1028FC00626B0AB1926A2AB9A26B002ACCD0926A96
:10290C00002AC9D05A6842F400625A60C4E742F007
:10291C000102D2B2EBE7226D32B9626CD21102F035
:10292C00060242F0F002CAE7226D012AB4D1626CB1
:10293C00D21102F0060242F0F102C0E7060703D5FD
:10294C00960501D5626CE4E7860740F1F0809605A8
:10295C0040F1ED8094F83E10E26A256B94F83D004E
:10296C00C9B2222840F0DB80206D40B9402906D145
:10297C0000905A6900929B690093009B8CE7216D33
:10298C0089B92069B0F5404F0DD101915A69019276
:10299C009A690192019A1A6842F480721A60236D46
:1029AC000133236578E7618D89B251B902915A6977
:1029BC0002929A690292029A1A6842F400721A60A0
:1029CC0019E0618D89B2012949D112F5803F1BD1E3
:1029DC001A6822F480621A605A6812F400620CD0F1
:1029EC001A6822F480621A60002203925A690392D8
:1029FC009B690393039B0023D3E704925A690492C7
:102A0C009A690492049AD7E7082A1CD0202A1AD073
:102A1C00122D0DD1012A16D11A6822F480621A6087
:102A2C00002205925A6905929B690593059BE2E782
:102A3C00102AF1D8864941FA02F2D707ECD41A6869
:102A4C0042F48062EBE71A6822F480621A6000227A
:102A5C0006925A6906929A690692069AACE7618DBB
:102A6C0089B2022938D1102A03D87A49D140CE072D
:102A7C0018D4196841F40061196000210791596953
:102A8C000791996907910799196821F48061196078
:102A9C0059680D05AFD5202A1BD8072A0ED8012A54
:102AAC00A9D111E0196841F48061196000210891E5
:102ABC0059690891996908910899E9E7A2F1080107
:102ACC00654ACA40D00796D55A6842F480525A607B
:102ADC0091E712F5803FE3E7196841F480611960D2
:102AEC005968090510D5202A16D8072A06D8012AB4
:102AFC000AD15A6842F480525A6005E0A2F10801EA
:102B0C00554ACA40D207F4D4002209925A69099254
:102B1C009B690993099B6EE712F5803FE8E7002259
:102B2C000A925A690A929B690A930A9BB4E67F0738
:102B3C0040F194805E6836053FF5AEAE070600F0B6
:102B4C0004063ED550053CD5002E3DD194F83D20D1
:102B5C00258D94F83E10D2B2E06AC9B2C5B9212ACB
:102B6C0018D1082858D0202856D010F5803F53D0C3
:102B7C005A6822F4E0625A6011232363002384F81C
:102B8C003E302023204684F83D30FFF704FD83E6D9
:102B9C00212A05D040297FF47FAE222A7FF47CAE17
:102BAC00628D92B21AB95A6822F48062ADE694F83A
:102BBC003E20402A16D120460FB0BDE8F040FFF76A
:102BCC00EDBC002E3FF468AE97057FF565AE21296C
:102BDC0039D1E16A94F83D20212A7FF45DAE628DF3
:102BEC0092B24AB1626A12F8011B19616262638D7A
:102BFC00013B9BB263854FE608290DD020290BD0F1
:102C0C0011F5803F08D0596821F4E0615960112317
:102C1C00236384F83E20B4E75A68204622F4E0622D
:102C2C005A601A6842F400721A600023202223634F
:102C3C0084F83D2094F83E2084F83E30402AA4D1FC
:102C4C00FFF7ABFC28E6402D7FF426AEB3E700BFC0
:102C5C00EBFFFEFF140001000101000159680E0595
:102C6C003FF51AAE450600F0040140F18680500590
:102C7C0040F18380002940F0838094F83D20222A83
:102C8C007FF40AAEE06A628D92B2032A14D91A69F3
:102C9C00636A1A70636A01336362638D013B9BB292
:102CAC006385638D9BB2032B7FF4F6AD226853686A
:102CBC0023F480635360EFE5E56A022D3FF473AFB4
:102CCC00012A3FF670AF0B9146F2A811794A1268AF
:102CDC00B2FBF1F202EB82020B920B9A013A0B92CD
:102CEC000B99D1B9226C204642F0200222645A681A
:102CFC0022F4E0625A601A69636A1A70636A0133DB
:102D0C006362638D013B9BB26385202384F83D3065
:102D1C0084F83E10FEF73BFFBEE51A6812F4007211
:102D2C00DBD1196821F480611960596821F4E061E4
:102D3C0059601969636A1970636A01336362638D40
:102D4C00013B9BB26385202384F83D3094F83E30E0
:102D5C0084F83E20402B04D122632046FFF776FCFA
:102D6C009AE5082801D0202801D1002300E0122385
:102D7C0020462363FFF710FC8EE500293FF48CAD51
:102D8C0092057FF589ADE26A608D616A80B2042894
:102D9C0009D15A6822F480625A601B690B70636A0D
:102DAC000133636223E7608D80B203280CD158682D
:102DBC00042A20F480605860EFD0022AEDD01A6803
:102DCC0022F480621A60E8E7608D80B20228E4D1B8
:102DDC00042A33D007D8012A07D0022A2ED018682B
:102DEC0040F4007004E0102AF9D1186820F48060D7
:102DFC0018601B690B70616A4B1C6362638D013B2D
:102E0C009BB2638523681B694B70636A216801332D
:102E1C006362638D013B9BB263854B6823F4407303
:102E2C004B60202384F83D3094F83E30402B4FF01B
:102E3C00000384F83E3005D123638EE7186840F414
:102E4C008060D5E7082A90D0202A8DE7206C20B32B
:102E5C000025586987072FD596052DD5226C02B110
:102E6C009D6994F83D2002F02802282A18D15A684E
:102E7C002F0622F480625A604FF0000354BFE268C0
:102E8C00A269C5F3800181F001012046C9B284F822
:102E9C003C3092B2FEF71CFEFEE49D695869D9E7FE
:102EAC0000220C9259690C919B6984F83C200C937C
:102EBC000C9BF1E424000020C60640F1B18095057E
:102ECC0040F1AE8094F83D505A68EDB222F4E062C5
:102EDC005A6000220D925A690D921A6842F0010252
:102EEC001A600D9A1A6822F480621A605A681005EA
:102EFC0020D505F0F702222A4AD1A06B026852684D
:102F0C0092B26285628D92B21AB1226C42F00402C6
:102F1C0022645A6822F400625A60FEF7A1FF01286D
:102F2C0008D0A06B794B4363FEF754FF10B1A06B34
:102F3C00436B9847638D9BB213B323685A6951074F
:102F4C0009D51A69636A1A70636A01336362638D07
:102F5C00013B9BB2638523685A69520609D51A69ED
:102F6C00636A1A70636A01336362638D013B9BB2BF
:102F7C006385638D9BB21BB1236C43F00403236404
:102F8C00236C13B320460FB0BDE8F040FFF7C0BB75
:102F9C00606B0268526892B26285628D92B21AB10D
:102FAC00226C42F0040222645A6822F400625A60D5
:102FBC00FEF756FF0128BDD0606B544B4363FEF700
:102FCC0009FF0028B6D0606BB2E72A2D06D1236327
:102FDC002823204684F83D30FEF7C3FD94F83D309D
:102FEC00282B0CD14A4B2022E3620023204623637A
:102FFC0084F83D2084F83E30FEF79EFD4CE4236BB4
:10300C00222B02D0222D7FF447AC002320222363F5
:10301C0084F83D2084F83E302046FEF7A2FD3BE4C8
:10302C0001F0F701212900F0040535D1070627D559
:10303C00560525D53DBB94F83D00628DC0B292B2C9
:10304C00002A3FF429AC626A12F8015B1D616262CE
:10305C00628D013A92B26285628D92B2002A7FF43F
:10306C001BAC29287FF418AC5A68204622F48062E5
:10307C005A602823216384F83D30FEF784FD0BE46D
:10308C00002D3FF409AC95057FF506AC628D92B22C
:10309C00002A3FF401ACA5E5400627D5510525D5FE
:1030AC003DBB94F83D20618DD2B289B200293FF42A
:1030BC00F3AB1969636A1970636A01336362638DD8
:1030CC00013B9BB26385638D9BB2002B7FF4E4AB19
:1030DC002A2A7FF4E1AB2268536823F4806353609F
:1030EC0022232363282384F83D3095E7002D3FF4F9
:1030FC00D3AB92057FF5D0AB628D92B2002A3FF430
:10310C00CBAB1A69636A1A7049E600BF5D260008EA
:10311C000000FFFFF8B5036804465F695E6890F82D
:10312C003E2017F48075D2B20AD016F4807507D001
:10313C006FF4807101255961196841F400411960DF
:10314C00B80506D5F10542BF6FF4007145F00205D4
:10315C005961780536D5F10534D5608D94F83D105C
:10316C00202AD4F830C080B2C9B25FD100285DD11A
:10317C0001F0F700212804D0282957D1BCF1210FE8
:10318C0054D194F83D20E16AD2B2082901D020290B
:10319C002AD1282A28D12E4A2046E2625A6822F4E3
:1031AC00E0625A606FF480625A611A6822F480629D
:1031BC001A6000232022236384F83D2084F83E30DB
:1031CC00FEF7BAFC3A053FD5F3053DD56FF4006226
:1031DC00236845F008055A61236C20461D4325647D
:1031EC00BDE8F840FFF794BA212A1BD11849E162D7
:1031FC0022630021202284F83D2084F83E105A6876
:10320C0022F4E0625A606FF480625A611A6822F408
:10321C0080621A605A69100648BF19612046FEF791
:10322C00B2FCCFE76FF480625A61CBE76FF4806138
:10323C00102A596145F0040501D0402AC2D11A6800
:10324C0042F400721A60BDE7002DC5D1F8BD00BF75
:10325C000000FFFF90F83D007047006C70470000C5
:10326C002DE9F341054638B30368DB0710D42B680E
:10327C009F075ED42B68190700F195802B685A07BD
:10328C0000F1C180EB69002B40F02C81002029E07B
:10329C00904C636803F00C03042B07D0636803F0B5
:1032AC000C03082B0AD16368DE0307D523689C0343
:1032BC00DDD56B68002BDAD1012013E06B68B3F518
:1032CC00803F12D1236843F480332360FEF7C2FCA5
:1032DC00064623689803CAD4FEF7BCFC801B6428FE
:1032EC00F7D9032002B0BDE8F0819BB9236823F421
:1032FC0080332360236823F480232360FEF7AAFC29
:10330C00064623689903B2D5FEF7A4FC801B6428FB
:10331C00F7D9E6E7B3F5A02F236803D143F4802354
:10332C002360CFE723F480332360236823F48023C6
:10333C00CBE7684C636813F00C0F07D0636803F09D
:10334C000C03082B10D16368DA030DD423689B0798
:10335C0002D52B69012BAFD123686A6923F0F803DE
:10336C0043EAC203236085E72A695B4B6AB10122F9
:10337C001A60FEF76FFC064623689F07ECD4FEF735
:10338C0069FC801B0228F7D9ABE71A60FEF762FCD8
:10339C000646236898077FF56DAFFEF75BFC801B34
:1033AC000228F6D99DE7AA694A4E4B4BE2B101229D
:1033BC00C3F88024FEF74EFC0446736A9B070DD5B8
:1033CC004FF4FA52454B1B68B3FBF2F3019300BF69
:1033DC00019B5A1E0192002BF9D14FE7FEF73AFCE4
:1033EC00001B0228E9D97CE7C3F88024FEF732FCE5
:1033FC000446736A9F077FF541AFFEF72BFC001B59
:10340C000228F6D96DE7334CE369D80024D40127A0
:10341C00E36943F08053E361E36903F08053009365
:10342C00009B2F4E3368D90518D5EB68012B26D19C
:10343C00236A43F001032362FEF70CFC41F2883847
:10344C000646236A9B073FD5002F3FF41BAFE36969
:10345C0023F08053E36115E70027E2E7336843F478
:10346C0080733360FEF7F6FB80463368DA05DCD4F4
:10347C00FEF7F0FBA0EB08006428F6D931E7ABB9F6
:10348C00236A41F2883823F001032362236A23F074
:10349C0004032362FEF7DEFB0646236A9807D3D5A6
:1034AC00FEF7D8FB801B4045F7D91AE7052B236A9A
:1034BC0003D143F004032362BAE723F00103236230
:1034CC00236A23F00403B6E7FEF7C4FB801B4045D8
:1034DC00B7D906E700100240000042422400002049
:1034EC00007000402A4C626802F00C02082A3ED0A0
:1034FC000022022B274B1A662CD1FEF7ABFB06469B
:10350C002368990120D42B6AB3F5803F05D16268FA
:10351C00A96822F400320A436260696A62680B434C
:10352C0022F474121343012263601A4B1A66FEF7DD
:10353C0091FB054623689A013FF5A8AEFEF78AFB7E
:10354C00401B0228F6D9CCE6FEF784FB801B022830
:10355C00D6D9C6E6FEF77EFB054623689B017FF5B0
:10356C0095AEFEF777FB401B0228F6D9B9E6012B86
:10357C003FF4A2AE60682B6A00F480329A427FF46A
:10358C009BAE6B6A00F47010C01A18BF0120A9E63C
:10359C0000100240000042420D4A536803F00C0137
:1035AC00082912D10B48C3F38341DB03405C09D5D6
:1035BC005368094AC3F340435043084AD35CB0FBF9
:1035CC00F3F07047064B584370470348704700BFF1
:1035DC00001002403275000800127A0030750008A5
:1035EC0000093D002DE9F0410D46044610B90120BB
:1035FC00BDE8F081444A136803F007038B4228D3DB
:10360C0021688E0730D4CA0743D43F4A136803F0AD
:10361C000703AB4265D822683C4D12F0040F6CD105
:10362C00130706D56B68226923F4605343EAC2037F
:10363C006B60FFF7B1FF6B68354AC3F30313D35CC0
:10364C00D840344B1860344B1868FEF7C1FA002090
:10365C00CEE7136823F007030B431360136803F0E2
:10366C0007038B42C3D1CBE7284B11F0040F1EBFCD
:10367C005A6842F4E0625A60080742BF5A6842F442
:10368C0060525A605A68A06822F0F00202435A60F5
:10369C00B9E762681D4E012A33681AD113F4003F52
:1036AC00A5D0736841F2883823F003031343736089
:1036BC00FEF7D0FA07467368626803F00C03B3EBAD
:1036CC00820FA2D0FEF7C6FAC01B4045F3D90320E7
:1036DC008EE7022A02D113F0007FE1E713F0020F0C
:1036EC00DEE7136823F007032B431360136803F022
:1036FC000703AB427FF47BAF8DE76B68E16823F483
:10370C00E0630B436B608BE700200240001002402B
:10371C008C7500082400002004000020044B054A8E
:10372C005B68C3F30223D35C034A1068D84070472C
:10373C00001002408475000824000020044B054A48
:10374C005B68C3F3C223D35C034A1068D84070474C
:10375C0000100240847500082400002003682DE945
:10376C00F3410546D80720D5364CE369D9002AD455
:10377C000126E36943F08053E361E36903F080536E
:10378C000193019B304F3B68DA051ED5236A13F475
:10379C0040732ED1236A6A6823F440731343236267
:1037AC001EB1E36923F08053E3612A68910706D5C3
:1037BC002449A8684B6823F4404303434B60D30669
:1037CC0037D4002012E00026DCE73B6843F480731A
:1037DC003B60FEF73FFA80463B68DB05D6D4FEF72C
:1037EC0039FAA0EB08006428F6D9032002B0BDE832
:1037FC00F0816A6802F440729A42CBD00120134ADD
:10380C00236AC2F84004002023F44071DF07C2F899
:10381C0040042162BED5FEF71DFA41F288380746F6
:10382C00236A9807B6D4FEF715FAC01B4045F7D9A2
:10383C00DBE7044AE968536823F480030B435360C5
:10384C00BFE700BF00100240007000400000424281
:10385C00704710B50446002851D0436A002B4AD15A
:10386C004268B2F5827F00D0C3610023A36294F852
:10387C00513003F0FF0223B9204684F85020FFF7A3
:10388C00E7FF0223226884F851301368A06823F004
:10389C0040031360636800F4044003F48273034331
:1038AC00E068A16900F400600343206900F00200A5
:1038BC000343606900F00100034301F4007003430B
:1038CC00E069090C00F038000343206A01F00401A0
:1038DC0000F080000343A06A00F40050034313601F
:1038EC005160D369002023F40063D3610123606528
:1038FC0084F8513010BD0023C0E90433B5E7012032
:10390C00F8E770477047036870B5DD681E690446B8
:10391C00B1070DD5AA070BD56FF002021A6101226F
:10392C0002779B699B0769D000F0D9FC00232377B1
:10393C00710710D56A070ED56FF004022368204674
:10394C001A61022222779B6913F4407F5CD000F04D
:10395C00C6FC0023237733070FD528070DD56FF04E
:10396C000802236820461A6104222277DB69990732
:10397C0050D000F0B4FC00232377F20610D5EB06F0
:10398C000ED56FF01002236820461A6108222277A8
:10399C00DB6913F4407F43D000F0A1FC00232377B4
:1039AC00F00708D5E90706D56FF001022368204619
:1039BC001A6100F071FC320608D52B0606D56FF0A3
:1039CC008002236820461A6100F091F8700608D531
:1039DC00690606D56FF04002236820461A61FFF78E
:1039EC0091FFB20622D5AB0620D56FF020022368DA
:1039FC002046BDE870401A6100F078B800F06DFC0C
:103A0C002046FFF77EFF91E700F067FC2046FFF7AA
:103A1C0078FF9EE700F061FC2046FFF772FFAAE7F3
:103A2C0000F05BFC2046FFF76CFFB7E770BD0000B1
:103A3C00174A036890420AD0B0F1804F07D0A2F524
:103A4C009432904203D002F58062904207D14A68CA
:103A5C0023F070031343CA6823F4407313434A6979
:103A6C0023F08003134303608B68C3620B6883628B
:103A7C00074B984204BF0B6903630123436103693D
:103A8C00DB0742BF036923F001030361704700BFEA
:103A9C00002C014010B5044630B390F83D3003F0D3
:103AAC00FF021BB980F83C2001F044F90223206886
:103ABC0084F83D30211DFFF7BBFF0123002084F863
:103ACC00463084F83E3084F83F3084F8403084F837
:103ADC00413084F8423084F8433084F8443084F820
:103AEC00453084F83D3010BD0120FCE7704770472D
:103AFC00026802F10C0353E8003F23F490730C327C
:103B0C0042E8003102680029F2D102F1140353E8B3
:103B1C00003F23F0010302F1140C4CE800310029A2
:103B2C00F3D1036B012B0BD102F10C0353E8003FD3
:103B3C0023F0100302F10C0C4CE800310029F3D1F6
:103B4C00202380F8423000230363704710B50446ED
:103B5C000368C1681A6922F440520A431A618268E8
:103B6C000069D9680243606921F4B05121F00C015D
:103B7C0002430A43DA605A69A16922F440720A438B
:103B8C005A610E4A934215D1FFF7D8FD19234343CE
:103B9C00626820689200B3FBF2F36422B3FBF2F18B
:103BAC0002FB11331B013233B3FBF2F303EB0113B2
:103BBC00836010BDFFF7B2FDE8E700BF003801409D
:103BCC00704710B5044648B390F8413003F0FF023B
:103BDC001BB980F84020FFF7F3FF2423226884F8F8
:103BEC004130D368204623F40053D360FFF7AEFF77
:103BFC00236800201A6922F490421A615A6922F053
:103C0C002A025A61DA6842F40052DA6020236064B6
:103C1C0084F8413084F84230606310BD0120FCE729
:103C2C0010B5044668B390F8413003F0FF021BB99D
:103C3C0080F84020FFF7C4FF2423226884F8413029
:103C4C00D368204623F40053D360FFF77FFF23682B
:103C5C0000201A6922F490421A615A6922F0220259
:103C6C005A615A6942F008025A61DA6842F4005209
:103C7C00DA602023606484F8413084F84230606359
:103C8C0010BD0120FCE790F84130202B10D189B1F8
:103C9C0082B1C284828400232122016201684364C0
:103CAC0080F84120CA68184642F08002CA6070470A
:103CBC00022070470120704708B50023406AC38575
:103CCC00C38401F0E7F908BD704790F8423007B59E
:103CDC00222B42D181680268B1F5805F836A3FD1A3
:103CEC00016900293FD15268C2F3080223F8022B64
:103CFC008362C38D013B9BB2C385002B2DD102681F
:103D0C00D16821F02001D160D16821F48071D1609B
:103D1C00516921F001015161202280F84220436356
:103D2C00026B012A026828D1036302F10C0353E8E9
:103D3C00003F23F0100302F10C0C4CE80031002979
:103D4C00F3D11368DB0605D5019113680193536811
:103D5C000193019B818DFFF7B7FF03B05DF804FB66
:103D6C0039B9016929B95268D2B21A70836A013320
:103D7C00BEE7526802F07F02F7E701F085F9ECE745
:103D8C00036873B51A6804461607D9685D6908D1CB
:103D9C00960668D58D0666D502B0BDE87040FFF773
:103DAC0094BF05F0010001F4907505435BD0D60774
:103DBC0005D5CD0542BF636C43F001036364530723
:103DCC0004D518B1636C43F002036364960704D501
:103DDC0018B1636C43F004036364150707D501F055
:103DEC00200303431EBF636C43F008036364636CDE
:103DFC00002B32D0920604D58B0602D52046FFF755
:103E0C0064FF266820467369626C03F0400302F07D
:103E1C00080253EA020522D0FFF76AFE73695E06B8
:103E2C0018D5226802F1140353E8003F23F0400335
:103E3C00143242E800310029F3D1E06B50B1744BDD
:103E4C004363FDF7C7FF40B1E06B436B02B0BDE8C5
:103E5C0070401847204601F01DF902B070BD01F00A
:103E6C0019F96564F9E7206B012840F09480D506B8
:103E7C0040F19180C80640F18E80002201921A68B0
:103E8C0001925A680192019A5A6952064DD5E16B1A
:103E9C000A68526892B2002ADFD0A08D9042DCD919
:103EAC00E2858A69202A36D003F10C0252E8002FF1
:103EBC0022F4807203F10C0040E800210029F3D1B8
:103ECC0003F1140252E8002F22F0010203F1140056
:103EDC0040E800210029F3D103F1140252E8002F2D
:103EEC0022F0400203F1140040E800210029F3D134
:103EFC00202284F84220216303F10C0252E8002FA7
:103F0C0022F0100203F10C0040E800210029F3D14B
:103F1C00E06BFDF73FFF02236363E38DA18DC91AAC
:103F2C0089B22046FFF7D0FE97E7E28DE18D92B281
:103F3C0089B2002991D0A18D891A89B200298CD01F
:103F4C0003F10C0252E8002F22F4907203F10C05DD
:103F5C0045E800200028F3D103F1140252E8002FA9
:103F6C0022F0010203F1140545E800200028F3D1EA
:103F7C00202284F84220206303F10C0252E8002F27
:103F8C0022F0100203F10C0545E800200028F3D1C3
:103F9C0002236363C5E7160628D50D0626D594F8CB
:103FAC004120212A7FF459AFA168226AB1F5805FC4
:103FBC0017D12169A9B932F8021BC1F30801596064
:103FCC002262E28C013A92B2E284002A7FF445AF7D
:103FDC00DA6822F08002DA60DA6842F04002DA60D5
:103FEC003BE7511C216212785A60EAE750067FF5D4
:103FFC0034AF4A067FF531AFDA68204622F0400232
:10400C00DA60202384F8413001F041F825E700BF45
:10401C00C53C000890F84030012B11D024230268D5
:10402C0080F84130D36823F00C0343F00803D360CD
:10403C00202380F84130002380F840301846704728
:10404C000220704790F84030012B11D024230268D5
:10405C0080F84130D36823F00C0343F00403D360A1
:10406C00202380F84130002380F8403018467047F8
:10407C000220704790F8412090F84200104370479E
:10408C000023C285436422238285026980F8423072
:10409C00816203681AB1DA6842F48072DA605A6994
:1040AC00002042F001025A61DA6842F02002DA6024
:1040BC00704770B590F84260202E07D141B13AB1EB
:1040CC0000240463FFF7DCFF204670BD0220FCE7F0
:1040DC000120FAE7836810B504462BB10322014690
:1040EC0098470023C4E9023310BD00000B4B9842E3
:1040FC000BD0B0F1804F0AD0A3F59433984208D07E
:10410C0003F58063984206D0FEE70020704701203B
:10411C007047022070470320704700BF002C0140FD
:10412C00024670B5044652F8100FFFF7DFFF054644
:10413C00104600F091FD0023084A04F1600642F895
:10414C002530E36004F1B005B54204D0103D28469B
:10415C00FDF7EEF8F8E7204670BD00BF08260020FA
:10416C00F8B504460846FFF7C1FF236903B1FEE723
:10417C001B4D04F10C0245F820200E2204F1100610
:10418C003046C4E90C33C4E90E33C4E91033C4E936
:10419C001623216184F82C30A36484F84C3084F805
:1041AC004D30E46000F014FD04F1600504F1B0073B
:1041BC0028461035FFF78EFFBD42F9D100234FF68C
:1041CC00FF72C4E90033C4E90632C4E90833A360C2
:1041DC00636180233046A362BDE8F840FFF75ABC08
:1041EC0008260020034B186810B10430FFF78BBB76
:1041FC00704700BF08260020FFF7F4BF034B586838
:10420C0010B10430FFF77FBB704700BF08260020B9
:10421C00034B986810B10430FFF775BB704700BFB3
:10422C0008260020034BD86810B10430FFF76BBB95
:10423C00704700BF082600200022C0E90022C0E918
:10424C0002227047F8B504460E4600F1600500F1F5
:10425C00B00728461035FFF7EFFFBD42F9D1002318
:10426C00204631462361FFF77BFF2046F8BD82686C
:10427C0010B50AB903F00AF8C368BDE81040184736
:10428C0008B500B9FEE700F0A1FC0068836E13B11D
:10429C006030FFF7ECFF08BDFFF7F2BF10B500B9B7
:1042AC00FEE7037F013B072B10D8DFE803F0041473
:1042BC000F100F0F0F12012400F088FC0068063459
:1042CC0000EB041083680BB1FFF7D1FF10BD032482
:1042DC00F2E70424F0E70224EEE7FFF7DFBFFFF775
:1042EC00DDBF01F06DBB01F073BB000086B004288C
:1042FC0041D8DFE800F003101C2834001F4B204885
:10430C009A6942F004029A619B6903F004030193D9
:10431C00019B06B07047194B1A489A6942F0080283
:10432C009A619B6903F008030293029BF1E7134B1C
:10433C0015489A6942F010029A619B6903F01003C8
:10434C000393039BE5E70D4B10489A6942F020025A
:10435C009A619B6903F020030493049BD9E7074BF4
:10436C000B489A6942F040029A619B6903F0400342
:10437C000593059BCDE70020CBE700BF0010024062
:10438C0000080140000C01400010014000140140E5
:10439C0000180140F8B51349064600F0CFFBFFF7B3
:1043AC00A5FE114F054657F8203073B9B020FFF722
:1043BC0098FF0C490446304600F0C0FB01462046ED
:1043CC00FFF740FF57F825301C601C6844B12046AD
:1043DC00FFF7A6FE2046BDE8F840B021FFF783BFEB
:1043EC00F8BD00BF4C77000808260020FDF732BC52
:1043FC00704708B5FDF722FCFDF7B7FCFFF7F8FF97
:10440C0008BD70470F4B84B0DA6942F08052DA6114
:10441C00DA6902F080520192019A9A6942F0010223
:10442C009A619A6902F001020292029A5A6942F068
:10443C0040025A615B6903F040030393039B04B091
:10444C00704700BF001002400C4BD3F8FC20D20187
:10445C005EBFD3F8FC2042F08072C3F8FC2000222F
:10446C00074B5A601A6842F001021A6000BF00BF85
:10447C0000BF5868B0FA80F04009704700ED00E0CA
:10448C00001000E008B5FFF7BDFFFFF7DDFFFDF7FB
:10449C00C3FBFFF7B6FF00F08DFEBDE808400148F6
:1044AC00FDF768BC1C0000200023C0E90033C0E904
:1044BC00023370472DE9F04301250E469046002744
:1044CC0000F00F0905FA09F58BB0ACB2012C07F11D
:1044DC00010359D1C0F30310FFF708FF98B12D4B1E
:1044EC00C26853F8293002A91B0A93FAA3F3B3FA52
:1044FC0083F39C401440DC400323CDE90258049420
:10450C000593FDF7B1FC14240023FFB27C43DFF8C4
:10451C008890D6F80880043406AD06934C44C5E95F
:10452C0001330993B8F1000F31D0022231462846ED
:10453C00C047D6E9028C95E8030014267E43CDE9EA
:10454C00000109EB0603043393E8030085E803003C
:10455C00DDE9000183E80300A36828460893E368BB
:10456C00C4F80880C4F80CC00993FCF7E1FE19F9F3
:10457C000640002206212046FDF784FB2046FDF76D
:10458C00B1FB0BB0BDE8F0831F4664089EE7C44640
:10459C00D1E700BF4475000818260020002301282D
:1045AC0003F101020AD11422DBB25343054A181D50
:1045BC001044816829B11A441369184713464008FE
:1045CC00EDE77047182600200120FDF721BD0220E1
:1045DC00FDF71EBD0420FDF71BBD0820FDF718BD1F
:1045EC001020FDF715BD08B52020FDF711FD40206A
:1045FC00FDF70EFD8020FDF70BFD4FF48070FDF7ED
:10460C0007FDBDE808404FF40070FDF701BD38B55B
:10461C0006244FF48065A8B2FDF7FAFC013C4FEA82
:10462C004505F8D138BD0000344A08B510460623BC
:10463C0000F8043BFFF738FF072302F1180013754D
:10464C00FFF732FF082302F12C0082F82830FFF725
:10465C002BFF092302F1400082F83C30FFF724FFC6
:10466C000A23172102F1540082F85030FFF71CFF87
:10467C0002F1680082F86410FFF716FF02F17C006B
:10468C0082F87810FFF710FF02F1900082F88C107E
:10469C00FFF70AFF02F1A40082F8A010FFF704FF55
:1046AC0082F8B410282102F1B800FFF7FDFE02F1E8
:1046BC00CC0082F8C810FFF7F7FE02F1E00082F898
:1046CC00DC10FFF7F1FE02F1F40082F8F010FFF7B6
:1046DC00EBFE02F5847082F80411FFF7E5FE02F59B
:1046EC008E7082F81811FFF7DFFEBDE8084002F566
:1046FC00987082F82C11FFF7D7BE00BF1826002047
:10470C0038B5054CA4F5A075143C201DFCF710FE23
:10471C00AC42F9D138BD00BF582700207B4B82B08A
:10472C009A69013842F001029A619B6903F0010316
:10473C000193019B23282CD8DFE810F024002D00D6
:10474C0034003B00400047004C00530058005F0011
:10475C0068006D0074007D008200890092009B004F
:10476C00A000A700B000B500BC002B002B002B0054
:10477C00C100C8002B002B002B002B00CD00D20059
:10478C00D900E000624A536843F0E06343F0010350
:10479C00536002B070475E4A536823F0010343F044
:1047AC00E063F5E75A4A536843F0E06343F00203D1
:1047BC00EEE7574A536823F00203F0E7544A536874
:1047CC0043F0E06343F00403E2E7514A536823F0FB
:1047DC000403E4E74E4A536843F0E06343F00803F4
:1047EC00D6E74B4A536823F00803D8E7484A536886
:1047FC0043F0E06343F03003CAE7454A536823F0C3
:10480C00300343F0E06343F01003C1E7404A5368C0
:10481C0023F03003C3E73E4A536843F0E06343F0B0
:10482C00C003B5E73A4A536823F0C00343F0E06392
:10483C0043F04003ACE7364A536823F0C003AEE7BD
:10484C00334A536843F0E06343F44073A0E7304AC3
:10485C00536823F4407343F0E06343F4007397E729
:10486C002B4A536823F4407343F0E06343F48073A2
:10487C008EE7274A536823F4407390E7244A536821
:10488C0043F0E06343F4406382E7214A536823F426
:10489C00406343F0E06343F4006379E71C4A5368D8
:1048AC0023F440637BE71A4A536843F0E06343F414
:1048BC0080536DE7164A536823F480536FE7144A0C
:1048CC00536843F0E06343F4004361E7104A5368D4
:1048DC0023F4004363E70E4A536823F0E06357E781
:1048EC000B4A536823F0E06343F0807350E7084AA7
:1048FC00536823F0E06343F0007349E7044A5368BC
:10490C0023F0E06343F0806342E700BF00100240F5
:10491C000000014091FAA1F3B3FA83F370B50D0EC8
:10492C000F2691FAA1F1B1FA81F144599B0006FAD4
:10493C0003F3890024EA03048A402243425170BDE8
:10494C0091FAA1F3B3FA83F370B50D0E042691FA24
:10495C00A1F1B1FA81F144599B0006FA03F38900E5
:10496C0024EA03048A402243425170BD431C04D004
:10497C000C3151F80C3C5A1C01D100207047834279
:10498C0001F10C01F5D1012070470000431C2DE909
:10499C00F34106460F4600D1FEE7594B00F00F02DB
:1049AC00C0F3031001F0070853F82240FFF79EFCF8
:1049BC00B8F1010F054615D194FAA4F3B3FA83F3B9
:1049CC000321200E2A589B0001FA03F322EA03026A
:1049DC0094FAA4F3B3FA83F39B0099401143295042
:1049EC00012213E0C7F30620B8F1030F0AD801A384
:1049FC0053F828F0134A0008ED490008774A0008DC
:104A0C00854A0008FEE7FFF789FE08222146284662
:104A1C0008F1FF38FFF77EFFB8F1010F06D817F049
:104A2C00080218BF04222146FFF78AFF94FAA4F269
:104A3C00230EB2FA82F2E9580F239200934094FAB3
:104A4C00A4F2B2FA82F2C7F301170B409200012FC5
:104A5C0023FA02F312D0022F3BD0082B21D10422CF
:104A6C0021462846FFF756FF1BE07F2801D109227B
:104A7C00CCE7FFF753FEFAE70022C7E7042B04D17B
:104A8C00082221462846FFF745FF230A93FAA3F391
:104A9C00B3FA83F20123E968934021EA14210B4312
:104AAC00EB60184B9A6942F001029A619B6903F022
:104ABC0001030193019BA6F10D03012B14D8124A9B
:104ACC00536823F0E06343F08063536002B0BDE8A9
:104ADC00F081042B04D1082221462846FFF71AFF47
:104AEC00EB6823EA1423DBE70F2E02D0133E012ED2
:104AFC00ECD8054A536823F0E06343F00073E4E715
:104B0C00447500080010024000000140431C06D10F
:104B1C007047834202D18968FFF738BF0C310B68AC
:104B2C005A1CF6D1FEE70B685A1C01D100207047C5
:104B3C00834201D1486870470C31F4E7431C01D023
:104B4C00FFF7F1BF002070474B6813B94FF0FF30EF
:104B5C007047834201D1086870470C31F4E708B103
:104B6C00FFF7F2BF4FF0FF30704703468B42084609
:104B7C0004D01BB100290CBF184600207047000060
:104B8C000F4B1A6842F001021A6059680D4A0A402C
:104B9C005A601A6822F0847222F480321A601A6801
:104BAC0022F480221A605A6822F4FE025A604FF4F2
:104BBC001F029A604FF00062034B9A60704700BF6F
:104BCC00001002400000FFF800ED00E004387047D0
:104BDC0003681D4A84B093420BD11C4B9A6942F472
:104BEC0000629A619B6903F400630093009B04B01C
:104BFC007047B3F1804F0BD103F50433DA6942F0FF
:104C0C000102DA61DB6903F001030193019BEEE71A
:104C1C000F4A93420AD10D4BDA6942F00202DA6173
:104C2C00DB6903F002030293029BE0E7094A93421B
:104C3C00DDD1064BDA6942F00402DA61DB6903F07C
:104C4C0004030393039BD2E7002C014000100240A5
:104C5C0000040040000800400368124A934206D149
:104C6C0002F56442936923F4006393617047B3F1D6
:104C7C00804F05D10C4AD36923F00103D3617047EF
:104C8C000A4A934205D102F50332D36923F0020399
:104C9C00F4E7074A9342F2D102F50232D36923F0CA
:104CAC000403EBE7002C014000100240000400401C
:104CBC0000080040431C10D00C4B984210D007D871
:104CCC00B0F1804F0ED0A3F5806398420CD0FEE774
:104CDC00074B9842FBD1192070476FF00D007047BD
:104CEC001E2070471C2070471D2070470008004094
:104CFC00002C0140431C10D00C4B984210D007D80C
:104D0C00B0F1804F0ED0A3F5806398420CD0FEE733
:104D1C00074B9842FBD11B2070476FF00D0070477A
:104D2C001E2070471C2070471D2070470008004053
:104D3C00002C014038B50446FFF74AFF0068FFF726
:104D4C00B9FFD4E91212FCF79DFF2068FFF7B2FF00
:104D5C00FCF7C8FF22681046FFF7CCFF054610464B
:104D6C00FFF7A8FF85420BD0D4E912122846FCF7B6
:104D7C0089FF2068FFF7BEFFBDE83840FCF7B2BFE3
:104D8C0038BD00002DE9F04F8B46924699460446FB
:104D9C0085B018B9002005B0BDE8F08F6449406DAE
:104DAC00FFF7CCFE63490646A06DFFF7C7FE6249CC
:104DBC000746E06DFFF7C2FE60490546206EFFF71F
:104DCC00BDFE8046002EE5D0A36D013301D0002F2F
:104DDC00E0D0E36D013301D0002DDBD0236E013325
:104DEC0002D0B8F1000FD5D030463946FFF7BDFEE2
:104DFC000646206020B90146FFF7B7FE0646206044
:104E0C0029463046FFF7B1FE41462060FFF7ADFE64
:104E1C0020600028BED04A4B984252D103F558432B
:104E2C00DA6842F48042DA60DA6822F48042DA60AE
:104E3C009A6942F480429A619B69002203F4804390
:104E4C000193019B25233A49606D84F8652084F811
:104E5C006430FFF75BFE1FB13649A06DFFF756FEBD
:104E6C002DB13549E06DFFF751FE4FF48075B8F167
:104E7C00000F05D03149206E45F40075FFF746FE52
:104E8C0094F865202F4B261D43F8226023680022DE
:104E9C00C4E9013B0E9B94F96400C4E904390C236A
:104EAC000121C4E90635C4F80CA02262FCF7EAFE25
:104EBC003046002F38D1FEF7B3FEB0FA80F040092F
:104ECC0069E7214B984215D103F5E6331A6942F490
:104EDC0000321A611A6922F400321A61DA6942F45A
:104EEC000032DA61DB69012203F400330293029B86
:104EFC002623A8E7154B98427FF44CAF03F5E43317
:104F0C001A6942F480221A611A6922F480221A6109
:104F1C00DA6942F48022DA61DB69022203F480232D
:104F2C000393039B27238EE7FEF74BFEC5E700BFD9
:104F3C0010770008D4760008987600085C76000894
:104F4C000038014058270020004400400048004031
:104F5C0008B5074B90F8652053F82200FFF78AF844
:104F6C0000F02200A0F122035842584108BD00BFB6
:104F7C005827002008B5074B90F8652053F82200FD
:104F8C00FFF778F800F02100A0F1210358425841B6
:104F9C0008BD00BF5827002070B50E46054610B955
:104FAC004FF0FF3070BDFFF7D3FF04460028F7D158
:104FBC00294611F8663F0122337095F86500034BC2
:104FCC0053F82000FFF775F82046EBE75827002030
:104FDC0038B50D460446B8B1FFF7BAFFA0B994F93D
:104FEC006400E564FCF78CFE94F86500074B04F153
:104FFC00660153F820000122FFF75BF894F9640076
:10500C00BDE83840FCF76EBE38BD00BF5827002005
:10501C0038B515460446B8B1016590F96400FCF743
:10502C006FFEB4F87630E16E9BB294F865001944CB
:10503C00064BAAB253F82000FEF725FE94F9640043
:10504C00BDE83840FCF74EBE38BD00BF58270020E5
:10505C0048B1836D013306D190F86520024B53F8AB
:10506C002200FEF7D7BF70475827002048B1836D48
:10507C00013306D190F86520024B53F82200FEF75D
:10508C00E1BF704758270020836C04381847C36C65
:10509C000438184730B5044650F8043985B01D68FB
:1050AC0015F0010512D0002200921A6800925B687C
:1050BC000093009BFFF74CFF40BB0122204604F1FC
:1050CC00620105B0BDE83040FEF7F3BF196811F07E
:1050DC00020106D001951A6801925B680193019B4D
:1050EC00E8E71A6812F0040206D002911A680292DC
:1050FC005B680293029BDDE719680907DAD5039216
:10510C001A6803925B680393039BD3E705B030BD29
:10511C0008B52520FCF71AFE024B1868BDE80840BC
:10512C00FEF72EBE58270020262008B5FCF70EFEF1
:10513C00034B586818B1BDE80840FEF721BE08BD06
:10514C0058270020272008B5FCF700FE034B986871
:10515C0018B1BDE80840FEF713BE08BD5827002063
:10516C0003460A4910B508680344EFF308829342DA
:10517C0005D90C224FF0FF30054B1A6010BD054AC3
:10518C00054C121B9342F4D20B60F7E72800002069
:10519C00D02900200050002000040000FEE7000091
:1051AC001622024B4FF0FF301A607047D0290020B6
:1051BC000120704710B594B0142200210CA800F007
:1051CC0042FD142200210DEB020000F03CFD1022E8
:1051DC00002101A800F037FD02244FF48033012296
:1051EC00CDE91143CDE90A234FF4E0130AA80E923E
:1051FC001393FEF735F800B1FEE70F23CDE9053424
:10520C004FF480630790CDE90830214605A8FEF7DE
:10521C00E9F900B1FEE7122301934FF40043CDE905
:10522C00033001A8FEF79AFA00B1FEE714B010BDE6
:10523C00B0F80831B0F80421981A00F03F0070471C
:10524C00B0F80831B0F804219BB293421ABFD0F8E1
:10525C00FC30985C4FF0FF30704790F80631B0F896
:10526C000A01C0B2834227BFC3F13F03C018C01A62
:10527C0000F1FF30704707B503688DF80710012265
:10528C005B680DF10701984703B05DF804FB13B59B
:10529C000DF107010446FFF77FFE88B9B4F87430AE
:1052AC00B4F87020013303F03F03934208D0B4F8F4
:1052BC0074209DF80700A16E92B28854A4F8743043
:1052CC0002B010BDB0F87610826F10B50A4402F02F
:1052DC003F02A0F87620B0F87610B0F8722089B2B0
:1052EC008A421AD0B0F876404032A4B2B0F87610A8
:1052FC00121B544289B204F03F0402F03F02C1F188
:10530C00400158BF62428A4228BF0A46044982675C
:10531C00FFF77EFE4FF0FF3010BD0020FCE700BF12
:10532C00D15200082DE9F843036804469B6888466F
:10533C001646984701232374D4F8EC30B4F8067160
:10534C0001338146C7F1400709D194F8113133B1CB
:10535C00002304F1940084F81131FFF779FE2368DF
:10536C0020469B6898470028F9D03546BD4225D881
:10537C004D4523D8B4F80631D4F800015A19402A07
:10538C00184430D82A46414600F09CFC2F46B4F80D
:10539C0006311D4405F03F05A4F8065104F19405AF
:1053AC002846FFF7E7FD30B93A4628461549C4F8B8
:1053BC000C71FFF72DFE3046BDE8F8834F4528BF32
:1053CC004F4623683A4641465B6820469847236817
:1053DC0020469B689847ED1BB844B4F8067181468B
:1053EC00C7F14007C2E7C3F140073A46414600F017
:1053FC0069FCD4F80001EA1B08EB070100F062FC21
:10540C00C5E700BFD1520008C0F8F030009B9142B4
:10541C0008BF4FF0FF31C0F8F43000F11403C0F8AE
:10542C00FC300023C0E93A2100F15402A0F8083105
:10543C00C0E94023A0F80A3170470000F7B54FF4DB
:10544C007A7317460022C0E901231C4B0446036003
:10545C004FF0FF33C0F8EC30194B1A4E9C420D46FE
:10546C00F06A05D1B36AC4F8EC30C4F8E8000AE07D
:10547C001549FFF763FB854215D1B36AC4F8EC30CC
:10548C00F36AC4F8E8304FF0FF33012F08BFC4F8BB
:10549C00EC3000932046D4E93A214FF0FF33FFF76C
:1054AC00B3FF03B0F0BD28460849FFF758FB064987
:1054BC00C4F8EC002846FFF752FBD6E7747A0008D4
:1054CC0064270020D879000810770008D4760008EB
:1054DC00037C70B504460D46A3B1FCF7BBFB064636
:1054EC00B4F80621B4F80A319BB29A420AD0002DC6
:1054FC00F8D0FCF7AFFB801B8542F1D8B4F80A3129
:10550C00A4F8063170BD0021FFF7E2BFD0F8EC30F3
:10551C0010B5013304460ED10368DB68984794F844
:10552C00113143B9012304F1940084F81131BDE821
:10553C001040FFF79BBD10BD7FB5144602F007036A
:10554C00023BDBB2042B80F8122196BF1F4A0022CB
:10555C00D25C04F03003302B0546C0F8141107D18F
:10556C004FF4C0630132082A09D0092A24D0FEE77F
:10557C0014F0200325D04FF480630132F3E70022AE
:10558C00E87CC4F3C0040390A87C05F19406029057
:10559C00687C6403019000943046FFF7F3FB85F8B8
:1055AC00100188B12846FFF7B1FF3046084904B016
:1055BC00BDE87040FFF70CBD4FF48052E0E71A468F
:1055CC00DEE7082AFBD0D2E704B070BD647A00088D
:1055DC009B52000810B50446FFF798FFB4F8082159
:1055EC00B4F8043192B29A4217BFD4F8FC204FF0B1
:1055FC00FF30D05C01331CBF03F03F03A4F804312F
:10560C0010BD0000002202490248FFF717BF00BF7F
:10561C00003801406427002070B505460C4608464A
:10562C0049B1FAF76DFD2B68024621462846BDE8C4
:10563C0070405B68184770BD08B5FFF7EDFF08BDFB
:10564C0010B5044600F09AF9E060236820465B69C7
:10565C009847002808DA00F091F9E368C01AA368AB
:10566C009842F2D34FF0FF3010BDF8B507460D4607
:10567C000C468E18B44201D1601BF8BD3846FFF7BA
:10568C00DFFF431CF8D004F8010BF3E72DE9F041E0
:10569C000746884616461D4673B100243846FFF768
:1056AC00CFFF431C05D0404503D030550134A542F3
:1056BC00F4D12046BDE8F0811C46FAE770B5C3B2C0
:1056CC00222B0D4686B03CD8304900F4E06451F8EA
:1056DC0023301C43022A48D0032A48D02C4E2D4B91
:1056EC00002A08BF1E462C4B9A6942F001029A61AF
:1056FC009B6903F001030193019BA4F10D03012BA2
:10570C0037D8264A536823F0E06343F08063536034
:10571C000023CDE90233CDE90433AB683BB102225F
:10572C00294602A89847EB680593AB680493324668
:10573C00204602A9FEF7BEFE02A8FBF7F9FD06B053
:10574C0070BD00F0C001C0290CD1C92B0AD8144B74
:10575C0000F03F0153F821100C4B00F4E06453F8B7
:10576C002130B6E74FF0FF34B4E70E4EBBE7094EDD
:10577C00B9E70F2C03D0A4F11303012BC8D8074AA7
:10578C00536823F0E06343F00073C0E7D879000856
:10579C000000111000002110001002400000014018
:1057AC00B07900080000311008B50320FCF758FA56
:1057BC00BDE8084000F000B908B5AFF30080FBF776
:1057CC00C3F8FBF783F900F0E9F8FAE7C0F303122A
:1057DC00042A034610B50ED80020084AD9B252F854
:1057EC00044B8C4203D103F4E063184310BD013029
:1057FC002328F4D1FAE72320F8E700BFD879000872
:10580C00FFF7BEF90B480C490C4A002302E0D458B0
:10581C00C4500433C4188C42F9D3094A094C0023F0
:10582C0001E013600432A242FBD300F025FAFFF72B
:10583C00C3FF7047000000207C000020947E00080D
:10584C007C000020D8290020FEE70000C3B2222BE8
:10585C002DE9F0410D462AD8274A00F4E06452F8AD
:10586C0023301C43621C44D0244EC4F3031756F857
:10587C00273004F00F0823FA08F3DB0710D5204675
:10588C001F49FFF773F810B12046FEF783FD012284
:10589C0056F8273002FA08F223EA020346F82730BA
:1058AC00052D15D8DFE805F015211B1D1F2300F071
:1058BC00C002C02A1DD1C92B1BD8124B00F03F02CD
:1058CC0053F822200C4B00F4E06453F82230C8E764
:1058DC00FEE700212046BDE8F041FFF757B8102144
:1058EC00F8E72021F6E70321F4E70121F2E709218B
:1058FC00F0E7BDE8F08100BFD87900087C280020D3
:10590C004C770008B0790008C3B2222B1BD8174A79
:10591C0000F4E06052F823301843431C25D0C0F348
:10592C000313042B98BF124A00F00F0098BF52F8D3
:10593C002320104B88BF002253F82030C3F30F23D1
:10594C0091B11361704700F0C002C02A0DD1C92B70
:10595C000BD8094B00F03F0253F82220034B00F404
:10596C00E06053F82230D7E753617047D8790008CC
:10597C000800002044750008B0790008FEF736BD19
:10598C0038B5044648B1FEF731FD054600F016F86F
:10599C00FEF72CFD431BA342F8D338BD08B5044BCE
:1059AC002BB10448FFF744FC08B1AFF3008008BDED
:1059BC000000000064270020FEF764BD7047000063
:1059CC00024B0146186800F02DB800BF2C000020D7
:1059DC00024B0146186800F083B900BF2C00002070
:1059EC0070B50F4E0C463168054611B900F034F90C
:1059FC0030602146284600F02FF9431C03D14FF0AC
:105A0C00FF34204670BDC41C24F00304A042F8D01F
:105A1C00211A284600F020F90130F2D1EFE700BF3F
:105A2C00902800202DE9F843CD1C25F003050835FE
:105A3C000C2D38BF0C25002D064601DBA94204D9DC
:105A4C000C2333600020BDE8F883DFF8D48000F02D
:105A5C0069F8D8F800301C4644BB29463046FFF79D
:105A6C00BFFF431C044658D1D8F800402746002FEE
:105A7C0043D1002C4BD023683946304604EB030944
:105A8C0000F0EAF8814542D1216830466D1A29466A
:105A9C00FFF7A6FF01303AD023682B442360D8F8D7
:105AAC0000305A6862BBC8F800700FE02268521BC5
:105ABC0020D40B2A17D96119A342256018BF59604D
:105ACC00636808BFC8F8001062514B60304600F0A4
